:100000000C94570C0C947F0C0C947F0C0C947F0C6C
:100010000C947F0C0C947F0C0C947F0C0C947F0C34
:100020000C947F0C0C947F0C0C947F0C0C94CC33B0
:100030000C947F0C0C947F0C0C947F0C0C947F0C14
:100040000C94D0340C947F0C0C947F0C0C947F0C8B
:100050000C947F0C0C947F0C0C947F0C0C947F0CF4
:100060000C947F0C0C947F0CB80CBE0CC60CCE0C00
:10007000060DD60C360DDE0CE60CEE0CF60CFE0C66
:10008000060D0E0D660D160D1E0D260D2E0D360DD0
:100090003E0D460D4E0D560D5E0D660D6E0D4D65F9
:1000A00064696B6974002E566965773A002E4B6956
:1000B0006C6C3A00417265613A00BA10BE10C11012
:1000C000C810CF10D6105377697463680041646418
:1000D00020746F207465616D3F0020002F00585020
:1000E0003A004465663A00466F723A00537065659F
:1000F000643A002F0048703A004C764C3A00456E46
:1001000064003007FFFFFFFFFFF8AAAAAAAAAAA867
:10011000800002000008800000000008802000002D
:100120002008AAAAAAAAAAA8FFFFFFFFFFF82E2E5E
:100130002E00596F7570792100476F2100412063AF
:1001400068616D70696F6E00612077696C6420462C
:10015000757475726F6D6F6E210010103FF820007E
:10016000AFFCA004A074A814ABD4AA14AA5488D5D8
:1001700088118FD18005FF0D00010FFF10100100C5
:1001800001000100010001000100038002800280E3
:10019000044008201FF0183820044002800110108D
:1001A00000802100308419828FE44C382812199D78
:1001B00019985810AC3C07E2058518802040108043
:1001C00008081D264991A6C8B0C01005C00038E730
:1001D000850272790404080EE070381C16122A4B4E
:1001E00055A5954A24180804406090E008037F0054
:1001F000FE100C00000F803800602041E0C700981E
:1002000000307021C0230006000400030005040133
:1002100002DD10E210EC10F110F410DD10E210FA23
:1002200010F110F410DD10E2100011F110F410DDE7
:1002300010E2100611F110F410DD10E2100D11F1B2
:1002400010F410DD10E2101911F110F41020746F89
:10025000206D61696E206D656E7500170020746FEA
:1002600020636F6E74696E7565001500507265735A
:1002700073203A0047616D65206F76657200211129
:10028000261130114368616E67652067616D6500F6
:1002900046757475726F6D6F6E0018140020000043
:1002A000D00000B00001B000039C000466000823E9
:1002B00000100080300080638E40418C40408820D8
:1002C000400030C0001080001080001081F010F954
:1002D00081F0940290FFFFF0181400200000D0007D
:1002E00000B00001B00003DC0004460008E3001188
:1002F00010803318C0624C4042664042A220C6A221
:1003000030CCB2109893D0999150BB59F0D2A0D074
:10031000900090FFFFF01816000C00003C0000E475
:100320000701041907C4711C3CC13C1B89700F19DB
:10033000C60D328A0326860664F03444D8564488B3
:10034000974689116299F332F00711C00D997F1910
:10035000D91DF07100001D000007181600300000C4
:100360003C00E027009820808E23E0833C3891D821
:100370003C98F01E4CB01364C01F26600D22200371
:100380002267E262EC624688C44CC98488E70C9913
:10039000B0389B98F08E0F80B80000E0000018166F
:1003A00000FFC007C8F81E083E33FFF377E3FB5C8D
:1003B000000F4C738D5F73B973003D3300471E1EF1
:1003C0002E0F807C01E3E000E1C007807008001878
:1003D00008000C107F0630E3867FE3FFE7C1E78863
:1003E0000011181600FFC007C8F81E083E3BFFF3B7
:1003F00077E27B5C220F4C220D5FE27973E3ED33F1
:1004000063471E232E0FE17C01E3E001E1C007807A
:100410007008001808000C107F0630E3867FE3FFA9
:10042000E7C1E78800111815554554554554554501
:10043000547FC7FC4044044044047DC7DC050050A1
:100440000500500F1C5009B6D818E3881780C81C47
:10045000007831FF9878E71E4C4233C40061FE7C7F
:100460007FAB0055FFFFFF181555455455455455B2
:1004700045547FC7FC4044044044047DC7DC05006C
:10048000500500500F1C5009B6D818EB881794C8B7
:100490001C2678326B187689DE44DE43C5D259CDEE
:1004A000134D892061FFFFFF18173FFFF820000858
:1004B000230188230188303818287C282810283008
:1004C000001823FF8822AA8823FF882000083F8382
:1004D000F800920000920004924002928001930082
:1004E000FC927E948252F783DE900012FFFFFE188A
:1004F000173FFFF821550823FF8823018836BAD813
:100500002A44A82A44A83644D822BA88230188233A
:10051000EF882139083F83F800920000920004928E
:1005200040029280019300FC927EB4825AFF83FEC7
:10053000B0001AFFFFFE1816060FC003F870063051
:100540001800200C0060040042243047741C422430
:100550001FF8043080040180040322240677740C01
:1005600022241800042000047FFFFECAAAAB8000EA
:1005700001C000037555563FFFFC181603F0600ECE
:100580001FC0180C603004002006002442002EE238
:100590000C244238201FF820010C2001802444C084
:1005A0002EEE602444302000182000047FFFFED58A
:1005B0005553800001C000036AAAAE3FFFFC181427
:1005C0003C07802404804208405A0B405A0B4042AA
:1005D000E8404318405E0F404A0A404A0A404F1E16
:1005E000404000403FFF806250E09A5390CE5E3022
:1005F000865810C0003080E010FF1FF018143C0730
:10060000802404804208405A0B405A0B405AEB4069
:100610005B1B40580340460C404CE64048024040BB
:1006200000403FFF806250E09A5390CE5E30865883
:1006300010C0003080E010FF1FF0181801FF80018B
:100640001880015A8001188001FF800018000018EE
:1006500000FF18FF191898F9FF9F191898FF18FF45
:100660000018000018001FFFF8181818181818189C
:100670001818181818186618184218180018FE00CC
:100680007FAA0055181801FF80015A8001FF8001E0
:100690005A8001FF80001800001800FF18FF191889
:1006A00098FFFFFF191898FF18FF001800001800A6
:1006B0001FFFF818181818181818181818181818EC
:1006C0006618184218180018FE007FAA0055181561
:1006D000C00018C0003839FEE00F03800800801900
:1006E000FCC030F86020703020201020001027FF60
:1006F000902132103FFFF008944008B66019A22004
:10070000113320211130633190422090C630D81827
:1007100015C00018C0003839FEE00F03800878804B
:100720001800C031FE6020003023FF102000102789
:10073000FF902000103FFFF008944008B66019A217
:1007400020113320211130633190422090C630D8DF
:1007500018141E001812003C3300662100C261000C
:1007600082419CBBDCB68990E38990D5A994C1A94C
:1007700094C9A990E389D0B6895D9CBB61008221B0
:1007800000C23300421200661E003C00001818141C
:100790001E001812003C3300662100C265008A4525
:1007A0009CBBDCB6A994E3ADB4C9ADB4DDADB4C9AE
:1007B000AD94E3ADD4B6A95D9CBB65008A2100C2AF
:1007C0003300421200661E003C0000181818014158
:1007D0004007FFE00C003019E79831428C61C38676
:1007E000C00003803C01900009B9FFDD91554981AB
:1007F000FFC1815541FFFFFF4194622714341C66FD
:100800001818C30C1094841C489C0063000022003C
:10081000001400000800181802814006FF600EC393
:10082000701AFF5832004C63FFC6C2004382004179
:100830008500A1F8FF1F8518A1821841822441FF7D
:10084000FFFF4194622714341C761818CB0C11A1B9
:10085000841D149C018B000062000034000008001D
:1008600018160FE7F0082410092410092590082411
:10087000100FE7F00100800100800100800100807E
:100880000100800100800100800100800100800FD4
:10089000FFF018001C387E16683C13C800118FFF4B
:1008A000F1FE007F18160FE7F00FE7F00FE7F00FEB
:1008B000E7F00FE7F00FE7F0010080010080010092
:1008C0008001008001008001008001008001008023
:1008D0000100800FFFF018001C39FF9669FF93C9D3
:1008E000FF918FFFF1FE007F18180FFFE00AAAA00A
:1008F0000FFFE00A00A00E44E00A00A00FFFE0385E
:10090000003840000481C70241450439453811458B
:100910001021C7084000044038042028081028107F
:100920000DFF601155102155083FFFF801830001AC
:10093000830018180FFFE00AAAA00FFFE00A00A02A
:100940000EFEE00A00A00FFFE039CE384231048CE1
:1009500048C242310439CE3810841021324842490D
:10096000244249242132481084100E78E01084106B
:100970002102083FFFF80183000183001017FFE008
:100980008020BBA0AAA080208E208020D560AAA0B5
:1009900080208020FFE09F208E208E2084208020D9
:1009A000FFE0FFE020802080208020801017FFE003
:1009B000FFE0A0A0A0A091208A2084208A2091207E
:1009C000A0A0C060FFE08420FFE080208020802085
:1009D000FFE0FFE0208020802080208018187FFF2B
:1009E000E0900090A801509060908060108000100E
:1009F000FFFFF0924930FFFFF0800010FFFFF099F9
:100A00009990999990E66670E66670FFFFF0800015
:100A100010800010FFFFF01202401E03C0120240BF
:100A20001E03C012024018187FFFE08A05108E07CF
:100A3000108A05108E07108A0510FFFFF0924930CA
:100A4000FFFFF0800010FFFFF0999990999990E6D0
:100A50006670E66670FFFFF0800010800010FFFFF8
:100A6000F01202401E03C01202401E03C0120240D8
:100A700018187F8FF050A85070A87000F8000084FC
:100A800000814A04C1020860B418334B600C308006
:100A900004008002490002B50004848004488002FA
:100AA000310003030004788004488002CD00014A2D
:100AB00000014A00014A0001CE0018187F8FF05053
:100AC000A85070A87000F80000840C810218C102C0
:100AD000306084203B4B400C308004008002690071
:100AE000034B0004848004488002010003030004D7
:100AF000788004488002CD00014A00014A00014A82
:100B00000001CE001816007FE001C030030C08067B
:100B10003B84046066044032E4C01AA8860BE98F67
:100B2000094909094D080945081B450C726507C2AA
:100B30002500062580047DE018CE3FE080003F8040
:100B40000001800007FFFFFC181607FE000C038061
:100B50001030C021DC606606204C0220580327D0EC
:100B6000611590F1979090929010B2D810A24E30EB
:100B7000A243E0A66000A42001A41807BE07FC73EE
:100B8000FC0001800001E000013FFFFF181807078B
:100B900000050500038E000088000C89800C898008
:100BA0007C89F04C89904FFF907D55F00D55807DEC
:100BB00055F05555506FFFB057FF507F8FF00F879E
:100BC000801F07C03E03C07C03E07C01F0F800F00A
:100BD000E000F88000081818070700070700038ED8
:100BE000000088000C89800C89807C89F07C89F069
:100BF0007FFFF07FFFF00FFF807FFFF07FFFF06F40
:100C0000FFB07FFFF0798CF00F87801F07C03E0395
:100C1000C07C03E07C01F0F800F0E000F880000800
:100C20001818080100990C90D606A04402B0A8013B
:100C300050AB9D50FA95F08BFD108A55108A5510D7
:100C4000FE07F0C0A03078A1E00EA70003FE00026E
:100C50000200027200068B000A8A80128A40FE8B14
:100C6000F0A88950808810FF8FF0181808010099AB
:100C70000C90D606A04402B0A80150AB9D50FB9D3D
:100C8000F0CBFD30AB0D509B9D90FE67F0C0E03087
:100C900079B1E00F1F0003FE00020200027200069D
:100CA0008B000A8A80128A40FE8BF0A889508088C7
:100CB00010FF8FF018177FFFF84000085FCFE84063
:100CC00000087FFFF80030000030001FFFE0300018
:100CD00030600018E0001CFF03FC8884448F87C448
:100CE000888444FF03FC80780CC0843870FCE01FCB
:100CF000878000FC0000840000780018177FFFF850
:100D000060841851FE284A01487FFFF80030000037
:100D100030001FFFE03484B0693258EE49DC8A8528
:100D20004C8F03C480000481FE0482010484788C0B
:100D3000C0843870FCE01F878000FC000084000045
:100D4000780018180738000528000738000210003E
:100D500002100002100003F800060C0004A40004B6
:100D600004000404003FFF804000403FFF8010016A
:100D70000030A1806040C040A04040004040A04002
:100D8000C0406080A020800020FFFFE018180738D6
:100D900000052800073800021000021000021000B1
:100DA00003F800075C000554000554000554003F9B
:100DB000FF804000403FFF8010010030A180604074
:100DC000C040A040400040400040D4056088022060
:100DD000940520800020101405000A80088005007A
:100DE00002001F8030F020102D9020102220322091
:100DF000102018600C4004C006B87DECC54489245E
:100E0000101405000A800880050002001F8030F0E1
:100E100025102850285024A030A015201A600D401D
:100E200004C006B87DECC54489241818FFFFE0AA69
:100E3000AAA0FFFFE0AB1AA0FF5FE0AB1AA0FFFF84
:100E4000E0AAAAA0FFFFE0A000A0E7FCE0A6ACA0FB
:100E5000E5F4E0A71CA0E514E0A71CA0E514E0A7BA
:100E60001CA0E000E0BFFFA0D55560FFFFE0120925
:100E7000001209001818FFFFE0AAAAA0FFFFE0ABCC
:100E8000FAA0FFFFE0ABFAA0FFFFE0AAAAA0FFFFD5
:100E9000E0AAAAA0FFFFE0AAAAA0FFFFE0AAAAA0DA
:100EA000FFFFE0AAAAA0FFFFE0AAAAA0FFFFE0AA16
:100EB000AAA0FFFFE0FFFFE01209001209001818C6
:100EC00000780007CF000801C01006603383B02609
:100ED000001840C60863EF0820000822000822001E
:100EE0000833F8D01803900F00304107EC65043048
:100EF0003FDFCC290478E9061089221C8136E0798D
:100F000037B8CF76CC88C360181800780007CF00B8
:100F10000801C010006031203021221843420863CC
:100F20004C483979C82FB30820DE88307F901830BC
:100F3000100F60304147EC6564303FFFCC292478C6
:100F4000E9261089221C8136E07937B8CF76CC8823
:100F5000C3600808007E5A7E3C1800000808002084
:100F60007020202000000808A1A5A5A5A5A58585BD
:100F70000808FEAAFEAAFEAAFE000808102040806B
:100F800000010204080800402018180402000808A4
:100F900081818181818181810808FF8181818181B5
:100FA00081FF08080024420810422400080800427B
:100FB000001818004200080808484A4A4A4A0A0825
:100FC0000808BD66E79999E766BD080805020500AF
:100FD00050205000080800022000000240000808CD
:100FE000000444555555555508083C26DBA5AD93DE
:100FF000443C08080000040000000000080800004D
:1010000020000000080008080000000000000000A8
:101010000808BD008199998100BD08081010100FC3
:1010200010E01010080800281408142244000808D2
:1010300008142241081422410808C3FF42424242D8
:10104000FFC308087E547C107C10284408083E34F6
:101050003C101C1010180808FC7C7C107C102844E4
:1010600008087C2C3C083808081808087E547C10B6
:101070007C10282008087E547C107C102808080862
:101080003E343C103050284408083E343C141810BC
:1010900018140808FC7C7C107C1028200808FC7CB4
:1010A0007C107C10280808087C2C3C080C0A1422B0
:1010B00008087C2C3C2818081828596573004E6FC6
:1010C00000536C6F74203100536C6F7420320053E6
:1010D0006C6F74203300536C6F74203400636C6148
:1010E00077006F6E736C617567687400466972652E
:1010F000002D3E004361746368005761746572009F
:10110000706C616E740067726F756E6400C3A96C59
:10111000656374726971756500707379636869637A
:10112000005465616D0046757475726F6465780072
:101130004368616E67652067616D6500030307059D
:101140000705040505040503060302070202010260
:101150000203020E090E0E0D0E0E0F0E07050705F7
:101160000307050F0507050706070102050200072B
:101170000202070002070200020702000706030638
:10118000070702020505020102020402000502022D
:101190000500060705050705020302020602000016
:1011A00000000B0003000307050704070105020503
:1011B00007070400030000070505070005000502F6
:1011C0000702000C000202020004000402010705ED
:1011D00007050704010704050702030207040701C6
:1011E00007060601010707070703030700050000BC
:1011F0000D000205000505050005020107030F09A2
:10120000030603060707020205050707020707058D
:10121000070301070506070207050705040403077E
:10122000020507040407030707010607050707036C
:101230000307050307030604070101070107040765
:101240000304030706070502050106010107040060
:10125000070501020405070002010208080800034F
:101260000006030607070202050507050207070532
:10127000070301070506070207050705040403071E
:10128000020507040407030707010607050707030C
:101290000307050307030604070101070107040705
:1012A00003040307060705020501060101070402FE
:1012B00007050007000507020602030705070305E7
:1012C0003F213F1208120A100A0E1C0E0C1E0C14AD
:1012D0001A14161F161E131E1E1B1E1E1F1E3F2134
:1012E0003F3A2F3A173D173F213F181F02040A04C7
:1012F0001F0E04040E1F0A1F0A0E0E1F04110E2ECD
:10130000252E2F2A2E262929021F02081F08150E16
:1013100004040E150E15151B151B040604040C04FD
:101320000000000017000300031F0A1F16371A19D8
:1013300004130A153A000300000E11110E000A04EE
:101340000A040E0400300004040400100018040312
:101350001F111F121F101D151711151F07041F172E
:10136000151D1F151D01011F1F151F17151F000A31
:1013700000003200040A110A0A0A110A04011502C7
:101380000E11171E051E1F150A0E110A1F110E1F22
:1013900015111F05010E111D1F041F111F1108102B
:1013A0000F1F041B1F10101F061F1E040F0E110E0F
:1013B0001F09060E112E1F051A121509011F011F04
:1013C000101F0F180F1F0C1F1B041B031C031915E4
:1013D00013001F11030418111F0002010220202016
:1013E0000001020C121E1F120C0C12120C121F0C08
:1013F0001A14041E05242A1E1F021C141D1020206E
:101400001D1F0814111F101E041E1E021C0C120C9E
:101410003E0A040C123E1E040214160A020F120E9B
:10142000101E0E100E1E081E120C1226281E322A26
:1014300026041E21001F00211E040102013F213F3E
:1014400005077F4141417F3E5B4F5B3E3E6B4F6BEB
:101450003E183C783C18183C7E3C181C577D571CA5
:101460001C5E7F5E1C007E43437E007E73737E00A5
:101470007E7F7F7E7F4141417F30483A060E0629BC
:101480007929067F4141417F60703F02042A1C3662
:101490001C2A7F3E1C080000081C3E7F14227F226D
:1014A000143C3C3C7EFF18423C817E3E6375633EAB
:1014B0003E616B633E3E636B6B3E04027F02041031
:1014C000207F201008082A1C08081C2A0808143E3F
:1014D000554122637569756310181C1810040C1CA3
:1014E0000C04000000000000005F0000000700077F
:1014F00000147F147F14042A7F2A102313086462C7
:1015000036495620500008070300001C2241000005
:1015100041221C002A1C3E1C2A08083E080800E044
:1015200060000008080808080060600000601008FB
:1015300004033E5149453E00427F40006251494903
:10154000462141494D331814127F1027454545392E
:101550003C4A494930412111090736494949360673
:101560004949291E0000240000008064000008147E
:1015700022410014141414140041221408020159C9
:1015800009063E415D594E7C1211127C7F49494942
:10159000363E414141227F4141221C7F4949494118
:1015A0007F090909013E414151327F0808087F0047
:1015B000417F41002041413F017F081422417F408B
:1015C0004040407F020C027F7F0204087F3E414181
:1015D000413E7F090909063E416141BE7F09192943
:1015E00046264949493201017F01013F4040403FC1
:1015F0001F2040201F3F4038403F631408146303FE
:10160000047804036151494543007F4141000304CC
:101610000810600041417F000402010204808080C4
:101620008080000307080020545478407F284444F9
:10163000383844444428384444287F385454541893
:10164000087E09090218A4A49C787F080404780085
:10165000447D4000006080847D7F1010284400415C
:101660007F40007C047804787C0804047838444483
:101670004438FC1824241818242418FC7C0804047A
:10168000080854545420043F4444203C4040207CEB
:101690001C2040201C3C4020403C44281028444C46
:1016A0009090907C4464544C440008364100000003
:1016B0007F00000041360800180408100C7F4141EB
:1016C000417F0A4E6F2053442063617264206F7221
:1016D0000A6E6F204C4F414445522E4845580A0A25
:1016E000153A45786974001D20466C617368696E0F
:1016F000670A20206C6F616465722E2E2E0A0A44E0
:101700004F4E2754205455524E204F464621006DCF
:10171000560A0A504C454153450A5455524E204FE3
:101720004646004C4F5720424154544552590A00F6
:10173000177361766500166261636B0015747970CA
:1017400065000A0A0A153A6F6B617920163A6564DA
:10175000697400596F7520656E74657265640A005E
:10176000540A03E181867F3E186D830F0F0E0183BB
:10177000866033186DC3198F1803C38E6033186DDC
:10178000E330CF1803C39E603630CDE360CF300620
:10179000C79E7E3E30CDB360CF300CC6F66033308E
:1017A000D9B660CF33CFCCF66061B0DB1E60CF30EE
:1017B000D86CE6C061B0DB1E618F19986CC6C0633F
:1017C000B19B0E330F0FB078C6FF7E1F1B061E0F96
:1017D0001753440016137800161314001510200038
:1017E00015201000000005008930080238024978F1
:1017F0006814000045006801000005006801380118
:1018000000000500380168010000F6E8DBCFC3B82E
:10181000AEA49B928A827B746E68625C57524E497A
:1018200045413E3A3734312E2C29272523211F1DCF
:101830001C1A1917161514131211100F0E0D0C0B7C
:101840000A0908070649184D180101F7030101FFAD
:101850000300000000240027002A000000000025EB
:101860000028002B000000000023002600290004AF
:101870000404040404040402020202020203030337
:101880000303030102040810204080010204081031
:1018900020010204081020000000070002010000DF
:1018A0000304060000000000000000003A0E1124AE
:1018B0001FBECFEFD8E0DEBFCDBF11E0A0E0B1E0AA
:1018C000EAE5F7E702C005900D92A03CB107D9F711
:1018D00015E0A0ECB1E001C01D92AA3AB107E1F712
:1018E00018E1CEEAD8E104C02297FE010E940F3B26
:1018F000CC3AD107C9F70E94FE360C94AB3B0C944E
:101900000000FC01118A8FEF838B0895FC01628B2C
:101910000895FC0182890895FC0190E080811816E9
:101920000CF491E0892F0895FC01638B0895FC016C
:10193000838908952FEFFC01238B0895FC01958185
:10194000648184E6989FC001112470E00E94BD3A32
:10195000862F0895E82FF0E0EB31F10508F0C6C0BE
:10196000EC5CFF4FEE0FFF1F0590F491E02D099402
:10197000662309F0BCC028ED32E0BBC0662319F431
:101980002AE533E0B6C026E133E0B3C0662319F49C
:1019900022EE33E0AEC02EE933E0ABC0662319F48B
:1019A00027E634E0A6C026E234E0A3C0662319F49B
:1019B0002AE735E09EC026E335E09BC0662319F494
:1019C00024E836E096C02AE336E093C0662319F493
:1019D0002FE037E08EC02EEC36E08BC0662319F482
:1019E0002EE837E086C020E537E083C0662319F48F
:1019F00026E138E07EC02CEC37E07BC0662319F48A
:101A000024EA38E076C020E638E073C0662319F493
:101A10002FEE34E06EC028EA34E06BC0662319F480
:101A200022E339E066C028EE38E063C0662319F48B
:101A300026E23AE05EC02CED39E05BC0662319F483
:101A40002AEB3AE056C020E73AE053C0662319F487
:101A500028E43BE04EC024E03BE04BC0662319F491
:101A600026ED3BE046C02CE83BE043C0662319F47A
:101A70002CEF35E03EC02EEB35E03BC0662319F479
:101A80002AE63CE036C020E23CE033C0662319F48D
:101A90002BEF3CE02EC024EB3CE02BC0662319F476
:101AA0002CE83DE026C022E43DE023C0662319F483
:101AB00020E03EE01EC026ED3DE01BC0662319F489
:101AC00024E73EE016C02AE23EE013C0662319F484
:101AD0002CEA39E00EC02CE739E00BC0662319F47C
:101AE00028E03FE006C02EEB3EE003C008952AE95F
:101AF00032E0C9010895823089F0833028F48823C8
:101B0000D1F08130B9F407C0843071F0843048F0EE
:101B1000853081F40CC02BE132E00FC025E232E0C9
:101B20000CC02FE232E009C029E332E006C023E412
:101B300032E003C0089521E132E0C9010895823006
:101B400089F0833028F48823D1F08130B9F407C0BC
:101B5000843071F0843048F0853081F40CC02EE977
:101B600031E00FC023EA31E00CC028EA31E009C0BF
:101B70002DEA31E006C022EB31E003C0089529E9E7
:101B800031E0C90108950F931F93182F862F042F5A
:101B90000E949F0DFC01E10FF11DE0818E2F83500B
:101BA0008730E8F42E2F30E022503040A02FB0E0F4
:101BB000F901E55FFD4F8081992787FD90958A1790
:101BC0009B0711F481E00CC0A55FBD4F8C91992754
:101BD00087FD90958217930711F48FEF01C080E085
:101BE0001F910F9108951F93FC0145811081212FB2
:101BF000332727FD3095C901841B91090E94BD3A06
:101C0000640F658370E0621773070CF415831F91EE
:101C10000895689FC001112464E670E00E94BD3AF7
:101C2000862F0895FC0181818E5F818384818E5F80
:101C300084838083858383818E5F838382818E5FAB
:101C4000828386818F5F8683218532854781508597
:101C5000241B350B3287218790E09C01229FC00115
:101C6000239F900D329F900D112495958795908715
:101C70008783089510921102109210028BEB91E06D
:101C800090930F0280930E020895EF920F931F938B
:101C9000CF93DF930091900310919103809198036B
:101CA00090919903081B190B209192033091930393
:101CB00040919A0350919B03C80140968536910547
:101CC00070F5E901C41BD50B8FEFC03FD8073CF17D
:101CD000C133D10524F5E0919C0380919D038823B5
:101CE00079F02E2F220FE22FEC5F8091300290913D
:101CF000310268E070E00E94BD3A04970CF0EF5F9B
:101D0000F0E0EE0FFF1FEA5AFE4F208131818EE096
:101D100092E0602F4C2F00E0EE240E943428DF91E7
:101D2000CF911F910F91EF90089562E370E080E0F2
:101D300090E024EF31E040E050E00E94473970939A
:101D40009F0360939E030895AF92BF92DF92EF923C
:101D5000FF920F931F93DF93CF930F92CDB7DEB710
:101D60008091490290914A02019690934A02809391
:101D7000490260E070E080E090E026E030E040E082
:101D800050E00E94473960938B02F62EFF0CFF0C47
:101D900000E912E05801E3E0DE2EDF0C60E070E0C5
:101DA00080E090E024E030E040E050E00E944739DD
:101DB0006295660F660F607C6D0DF501608360E0D3
:101DC00070E080E090E024E030E040E050E00E94ED
:101DD000473980EF90E0A80EB91E6295660F660F36
:101DE000607C6D0DF501608381E19FEFA80EB91E47
:101DF00090EAA91692E0B90689F660E070E080E00A
:101E000090E024E030E040E050E00E9447396295E5
:101E1000660F660F607C6D0DF801608360E070E016
:101E200080E090E024E030E040E050E00E9447395C
:101E30006295660F660F607C6D0DF8016787005F25
:101E40001F4FF3E000391F07C1F660E070E080E04B
:101E500090E022E030E040E050E00E944739E62E7A
:101E6000EF0C71E0A72EB12C29C089818C3008F0CD
:101E700045C091E0F91609F441C0EEE0FE16F1F11B
:101E800060E070E080E090E025E030E040E050E08D
:101E90000E944739611571058105910579F5F801B1
:101EA000D082F394005F1F4FFFE0FF16F1F6089415
:101EB000A11CB11C8FE0A816B10449F085010056A1
:101EC0001D4FFF24F3949A2D92509983CECF82E038
:101ED0008093100380931F0382E480939802809381
:101EE00088030E94950E0F90CF91DF911F910F9163
:101EF000FF90EF90DF90BF90AF90089560E070E0AA
:101F000080E090E024E030E040E050E00E9447397B
:101F10006295660F660F607C6E0DF8016083C1CF1D
:101F2000FF920F931F93CF93DF93182FEB0160E085
:101F300070E080E090E022E030E040E050E00E947D
:101F40004739F62E60E070E080E090E024E030E079
:101F500040E050E00E944739062F60E070E080E0EA
:101F600090E025E030E040E050E00E944739123038
:101F7000F1F0133030F4112361F0113009F052C048
:101F800011C01430A1F1143000F1153009F04AC02D
:101F900040C0E02FF0E0E157FE4F80818E871F8622
:101FA00085E03FC0FF20A9F1E02FF0E02BC0FF202B
:101FB00049F4E62FF0E0E058FE4F80818E871F86BF
:101FC0001B8730C0E02FF0E016C0E62FF0E0FF20C6
:101FD00039F4E058FE4F80818E871F8682E021C051
:101FE000EB57FE4F80818E871F8683E01AC0E02F5B
:101FF000F0E0FF2039F4E458FE4F80818E871F8681
:1020000081E00FC0E858FE4F80818E871F861B86B7
:1020100009C0E62FF0E0E657FE4F80818E871F86CD
:1020200084E08B87DF91CF911F910F91FF900895EE
:10203000282F30E040E050E061E070E080E090E088
:102040000E944739862F08950F931F93CF93DF93F4
:1020500080919D03882309F44EC080919003909154
:102060009103409194035091950373E0440F551FE1
:102070007A95E1F78417950759F08417950714F4BA
:10208000019601C0019790939103809390031AC029
:10209000809192039091930320919603309197033E
:1020A00063E0220F331F6A95E1F78217930751F01F
:1020B0008217930714F4019601C00197909393033C
:1020C00080939203809196039091970323E0880F69
:1020D000991F2A95E1F720919203309193032817D5
:1020E000390749F4809190039091910384179507E3
:1020F00011F410929D0380919D03882309F0F0C094
:10210000C0919403D0919503009196031091970389
:102110008AEC91E062E044E00E949024882381F000
:102120008091940390919503419660E170E00E9444
:10213000BD3A909395038093940381E080939C0330
:102140008AEC91E060E044E00E949024882381F0D2
:1021500080919403909195030F9660E170E00E9446
:10216000BD3A909395038093940383E080939C03FE
:102170008AEC91E063E044E00E949024882379F0A7
:102180008091960390919703419660E170E00E94E0
:10219000BD3A909397038093960310929C038AEC28
:1021A00091E061E044E00E949024882381F08091D6
:1021B0009603909197030F9660E170E00E94BD3AFC
:1021C000909397038093960382E080939C03809181
:1021D0009603E0919403F0E094E0EE0FFF1F9A95D0
:1021E000E1F7E80FF11DE057FD4FE081EF738E2F0F
:1021F00090E0019683709070892BA9F4D093950399
:10220000C09394031093970300939603EC2FF0E090
:1022100084E0EE0FFF1F8A95E1F7E00FF11DE05714
:10222000FD4FE081EF738091940390919503C8175F
:10223000D90741F4809196039091970308171907E5
:1022400009F44EC081E080939D038E2F90E00296AA
:1022500083709070892B09F043C00E94A40E809176
:10226000940390919503009739F48FE090E0909358
:102270009503809394031AC00F9729F41092950345
:102280001092940313C08091960390919703009746
:1022900039F48FE090E0909397038093960306C003
:1022A0000F9721F410929703109296038091940354
:1022B0009091950313E0880F991F1A95E1F7909379
:1022C0009103809390038091960390919703B3E0DC
:1022D000880F991FBA95E1F7909393038093920327
:1022E00020919E0330919F03442737FD4095542F42
:1022F00060E070E080E090E00E9447396115710570
:102300008105910529F40E94950E1092A00367C0E3
:1023100020919E0330919F03220F331F442737FDE6
:102320004095542F60E070E080E090E00E944739D3
:10233000611571058105910529F580EC91E06EE943
:1023400070E04CE30E944B2B00E013C080914602EA
:1023500090914702602F0E944F23EC01809146022A
:1023600090914702602F0E944F23FC018481888353
:102370000F5F80914602909147020E9465230817E3
:1023800028F338C080919E0390919F039C01220FF7
:10239000331F280F391F442737FD4095542F60E025
:1023A00070E080E090E00E94473961157105810579
:1023B0009105B9F4E0918B02F0E0EB57FD4F80817D
:1023C0008230C0F481E08093A0030E94950EE091DA
:1023D0008B02F0E0EB57FD4F80818F5F808380E0C0
:1023E0001DC080919E0390919F03019790939F033E
:1023F00080939E03209192033091930320513040AB
:102400008091900390919103829790939903809388
:10241000980330939B0320939A0381E0DF91CF913F
:102420001F910F9108958F929F92AF92BF92CF927A
:10243000DF92EF920F93CF93DF93CC24DD24882497
:10244000992443C0F50100818091980390919903EC
:10245000BE01681B790B40919A0350919B03CB01FD
:1024600008968D359105F0F4C401841B950BAC01E1
:102470009FEF483F5907B4F0413351059CF4E02FDA
:10248000F0E0EF73F070EE0FFF1FEA5DFE4F20816A
:10249000318102950695069503708EE092E0EE2458
:1024A0000E943428E0E1F0E0AE0EBF1E2896C0384E
:1024B000D10541F60894C11CD11C88E090E0880E3B
:1024C000991E90E1C916D10449F0E0E9AE2EE2E090
:1024D000BE2EAC0CBD1CC0E0D0E0B4CF8EE092E0CC
:1024E0006CE371E10E94E9288EE092E064EB70E019
:1024F0000E943A376091490270914A028EE092E060
:102500004AE050E00E9428388EE092E06DEA70E0E8
:102510000E943A3760914B0270914C028EE092E03B
:102520004AE050E00E9428388EE092E066EA70E0CF
:102530000E943A378EE092E0609168024AE050E0F3
:102540000E9456388EE092E06EEB72E10E94E9281C
:10255000DF91CF910F91EF90DF90CF90BF90AF9030
:102560009F908F90089580EC91E00E94182D0E941A
:10257000A40E64E070E080E090E028E030E040E00D
:1025800050E00E944739709395036093940364E090
:1025900070E080E090E028E030E040E050E00E9411
:1025A00047399B017093970360939603809194033E
:1025B0009091950343E0880F991F4A95E1F7909316
:1025C000910380939003B3E0220F331FBA95E1F794
:1025D000309393032093920310929C0310929D03D7
:1025E00084EF91E090939F0380939E0308950F934F
:1025F0001F93DF93CF93CDB7DEB7809146029091C2
:1026000047026B8D0E944F238C018D899E89F801B2
:1026100097878687888581838B85808384838B8554
:1026200085838A8583838E859F858683878390872C
:1026300088899989928781878A898387CE010796BD
:102640000E94890C682FC8010E94860CCF91DF91EF
:102650001F910F9108958F929F92AF92BF92CF9248
:10266000EF920F931F93CF93DF9380EC91E06DEC8B
:1026700070E048E20E944B2B80EC91E06AEB70E046
:1026800042E00E941C2E882309F084C080914602FB
:10269000909147020E943F23882381F180EC91E0D2
:1026A00066EC70E048E20E944B2BA0904602B0908E
:1026B0004702C501885A9E4F0E945923182F092F9F
:1026C00080EC91E06EEB70E044E00E941C2E482FFD
:1026D0008DB79EB745970FB6F8949EBF0FBE8DBFBE
:1026E000CDB7DEB72196DE01212F302FC901FC01C5
:1026F00084E101900D928150E1F740C08091460243
:1027000090914702885A9E4F0E9459238091460219
:102710009091470260E040E020E000E0EE24CC240D
:10272000AA24BB24882499240E94C02280914602B6
:1027300090914702885A9E4F0E945923182F092FC3
:10274000A0904602B0904702C5010E946523482F21
:102750008DB79EB745970FB6F8949EBF0FBE8DBF3D
:10276000CDB7DEB72196DE01212F302FC901FC0144
:1027700084E101900D928150E1F741504C8BC501ED
:102780000E94F7128DB79EB745960FB6F8949EBF7C
:102790000FBE8DBFDF91CF911F910F91EF90CF9022
:1027A000BF90AF909F908F9008950F931F938C01CF
:1027B000FC01178616868FE0818381E18083848304
:1027C0008583838384E1828385E086838CE090E047
:1027D0009087878312861186C80160E00E94860C6C
:1027E000F80113861F910F910895CF92DF92FF9207
:1027F0000F93DF93CF9300D0CDB7DEB76C01062FD8
:10280000F42E623008F402E0202F30E03A8329836E
:1028100060E070E080E090E02AE030E040E050E0EE
:102820000E94473989819A81880F991F680FF601A4
:102830006183608364836583638362830683298104
:102840003A81229FC001239F900D329F900D112449
:102850009595879590878783128611868F2DB6016F
:102860000E94900FC601F60163850E94860C0F90AE
:102870000F90CF91DF910F91FF90DF90CF9008954F
:102880008F929F92AF92BF92CF92EF92FF920F934F
:102890001F930E942410882331F00E9413120E947B
:1028A000450E80E09EC08091A003882309F048C0B7
:1028B00060E070E080E090E02BE130E040E050E04C
:1028C0000E9447398091460290914702885A9E4F54
:1028D00060E040E020E000E0EE24CC24AA24BB2409
:1028E000882499240E94C022809146029091470238
:1028F000885A9E4F60E00E942D23E0914602F0919D
:102900004702E55AFE4F81E08083CF0103970E9482
:1029100059238C01E0914902F0914A029F013695BA
:102920002795B90180E090E02E0F3F1F40E050E076
:102930000E944739C80140918B020E94F51350C094
:10294000E0914602F0914702E55AFE4F1082FF24C3
:1029500060E070E080E090E02BE130E040E050E0AB
:102960000E9447398091460290914702885A9E4FB3
:1029700060E040E020E000E0EE24CC24AA24BB2468
:10298000882499240E94C022809146029091470297
:10299000885A9E4F6F2D0E944F238C01E09149026F
:1029A000F0914A029F0136952795B90180E090E0A9
:1029B0002E0F3F1F40E050E00E944739C801409170
:1029C0008B020E94F513F39484E0F81609F68091C7
:1029D000460290914702885A9E4F60E00E942D2344
:1029E00081E01F910F91FF90EF90CF90BF90AF903B
:1029F0009F908F900895BF92CF92DF92EF92FF92B7
:102A00000F931F93DF93CF93CDB7DEB7EA8CFB8C88
:102A10000EE189E6C82E82E0D82ECE0CDF1C1AE02B
:102A2000B12E80EC91E00E94632D8823D1F3F60152
:102A30008081882329F0609174017091750104C030
:102A400060917001709171018EE092E00E94D9381E
:102A50001B2D101B8E2D61E00E94AA0C9C018EE0A4
:102A600092E06CE3412F0E94C6278E2D60E00E9409
:102A7000AA0C9C018EE092E06EE1412F0E94C627D5
:102A8000011103508AEC91E064E00E9486248823BF
:102A900041F2CF91DF911F910F91FF90EF90DF9066
:102AA000CF90BF9008950F931F9310928F021CE355
:102AB00080EC91E00E94632D8823D1F31F3118F040
:102AC000012F025E0AC08AEC91E064E00E94862435
:102AD0008823C9F41123B9F00CE311508091460208
:102AE00090914702885A9E4F0E945923FC01868587
:102AF00061E00E94AA0C9C018EE092E0602F40E011
:102B00000E94C627D5CF1F910F910895EF92FF9293
:102B10001F93CF93DF938EE092E06EEB72E10E9401
:102B2000E92860917201709173018EE092E00E9439
:102B3000D9386091490270914A028EE092E04AE0F1
:102B400050E00E9428388EE092E060E071E00E9440
:102B5000D93860917601709177018EE092E00E9401
:102B6000D93860914B0270914C028EE092E04AE0BD
:102B700050E00E94393860917001709171018EE0CF
:102B800092E00E94D9388EE092E0609168024AE0BB
:102B900050E00E9456388EE092E060E071E00E94C2
:102BA000D93860917401709175018EE092E00E94B5
:102BB000D9388EE092E0609184024AE050E00E94B1
:102BC000683895E8E92E92E0F92EC0E0D0E06091F7
:102BD0007201709173018EE092E00E94D9381C2F2F
:102BE00021968EE092E0BE014AE050E00E94C63895
:102BF0008EE092E06AED70E00E943A3710FD0FC05F
:102C00008EE092E0F70160814AE050E00E94563881
:102C10008EE092E060E071E00E94D93808C08EE05A
:102C200092E0F70160814AE050E00E946838089421
:102C3000E11CF11CC630D10551F6DF91CF911F91F7
:102C4000FF90EF9008955F926F927F928F929F9284
:102C5000AF92BF92CF92DF92EF92FF920F931F93AA
:102C6000DF93CF93CDB7DEB758A0688C8A897E8872
:102C70008D889B880C89AB8CBC8CC98CDA8C1EE14E
:102C8000E82EFF24E7FCF09480EC91E00E94632D95
:102C90008823D1F3852D61E00E94AA0C9C01412F6D
:102CA00041958EE092E06CE30E94C627111113500B
:102CB0008EE092E069EF70E00E943A378EE092E099
:102CC000662D4AE050E00E9468388EE092E065EFA1
:102CD00070E00E943A378EE092E0B7014AE050E09F
:102CE0000E94C6388EE092E063EF70E00E943A37AF
:102CF0008EE092E0672D4AE050E00E9468388EE056
:102D000092E06CEE70E00E943A378EE092E0682D1F
:102D10004AE050E00E9456388EE092E067EE70E0A4
:102D20000E943A378EE092E0692D4AE050E00E941E
:102D300056388EE092E062EE70E00E943A378EE004
:102D400092E0602F4AE050E00E9456388EE092E018
:102D50006EED70E00E943A378EE092E0B5014AE0F5
:102D600050E00E9428388EE092E06CED70E00E9406
:102D70003A378EE092E0B6014AE050E00E943938DE
:102D80008AEC91E064E00E948624882309F47CCFD9
:102D9000CF91DF911F910F91FF90EF90DF90CF9037
:102DA000BF90AF909F908F907F906F905F900895AD
:102DB000CF92DF92EF92FF921F93DF93CF93CDB725
:102DC000DEB764970FB6F894DEBF0FBECDBF10E03C
:102DD0006E010894C11CD11C80EC91E00E94632D0F
:102DE0008823D1F301C01F5FE12EFF24F701E35BCD
:102DF000FD4F8081882319F41B31A8F323C01B31B8
:102E000008F5C6010E94810CF88AEF868DB79EB73F
:102E100044970FB6F8949EBF0FBE8DBFADB7BEB737
:102E20001196F60184E101900D928150E1F70E9424
:102E3000FB148DB79EB744960FB6F8949EBF0FBE95
:102E40008DBF07C080EC91E06EEF70E048E20E9419
:102E50004B2B1F5F1B3108F4BFCF8091460290912E
:102E600047020E94262364960FB6F894DEBF0FBE79
:102E7000CDBFCF91DF911F91FF90EF90DF90CF906A
:102E800008951F93809146029091470260E00E944E
:102E90002D2310E030C080EC91E00E94632D882348
:102EA00051F180914602909147020E9459232DB71B
:102EB0003EB7245130400FB6F8943EBF0FBE2DBF31
:102EC000ADB7BEB71196FC0184E101900D9281501F
:102ED000E1F70E9423161F5F8DB79EB744960FB689
:102EE000F8949EBF0FBE8DBF80914602909147021D
:102EF000612F0E942D2380914602909147020E94EB
:102F00006523181740F280EC91E00E94632D88231E
:102F1000D1F30E9486158AEC91E064E00E94862439
:102F2000882389F380914602909147020E942623CC
:102F30001F910895DF92EF92FF920F931F93CF930B
:102F4000DF937C01EB0188818D83C7010E94970C80
:102F5000F70191812A81813081F4692F6695669508
:102F600070E0621B7109690F711D882777FD8095DC
:102F7000982F0E942539D62E02C0D92ED21A8D2D17
:102F80000E941810082FC7010E94970C182FC70124
:102F90000E94890C682F812F4B850E94C30D089FCA
:102FA000002D11240D0D10160CF001E08881801BFE
:102FB000888387FD1882DF91CF911F910F91FF9039
:102FC000EF90DF9008950F931F93CF93DF9380913D
:102FD0004602909147020E945923809146029091A7
:102FE00047020E945923DC0113968C910E9418100D
:102FF0008091460290914702885A9E4F0E94592321
:103000008091460290914702885A9E4F0E94592310
:10301000FC0183810E941810C0914602D0914702A2
:103020008E01085A1E4F81E080936E01C55ADE4F13
:103030008881CB55D140882391F1C8010E94592342
:10304000FC01208127FD2F5F2595332727FD309533
:103050002F5F3F4F442737FD4095542F60E070E0CD
:1030600080E090E00E944739611571058105910566
:10307000B1F410926F01C8010E945923DC011E9621
:10308000ED91FC911F97E759FD4F81E0808380937C
:103090008F02809184028F5F809384020EC0C801EA
:1030A0000E9459238C01CE010E945923BC01C80102
:1030B0000E949A1781E080936F01DF91CF911F9159
:1030C0000F910895DF92EF92FF920F931F93CF938A
:1030D000DF9380914602909147020E945923FC01A0
:1030E000E380FF2480914602909147020E94592379
:1030F000FC0183810E941810D82E80914602909185
:103100004702885A9E4F0E945923FC01038110E018
:103110008091460290914702885A9E4F0E945923FF
:10312000FC0183810E941810ED0CF11C080F111D89
:1031300020914602309147020E151F054CF4C9013B
:103140007C01EC01C85ADE4F81E080936E010AC019
:10315000C901EC0128E5E22E21E0F22EE80EF91E6D
:1031600010926E01C7010E9459238C01CE010E946A
:103170005923BC01C8010E949A17CE010E9459230D
:103180000E948C0C882379F0CE010E9459238C0177
:10319000C7010E945923BC01C8010E949A1781E00F
:1031A00080936F0102C010926F01DF91CF911F9148
:1031B0000F91FF90EF90DF900895CF92DF92EF9202
:1031C000FF920F934EE0E42E42E0F42E32E0C32E45
:1031D00031E0D32EC70162E040E096010E94C6278D
:1031E0008091460290914702885A9E4F0E9459232F
:1031F0000E949E0C6BE20E94090E282FC70163E01B
:1032000041E006E00E94D225C70167E249E296014B
:103210000E94C62780914602909147020E9459233E
:103220000E949E0C6BE20E94090E282F63E5681B2A
:10323000C70149E20E94D2250F91FF90EF90DF90E5
:10324000CF9008951F9310E080EC91E00E94632DD1
:103250008823D1F30E94DD188091460290914702A5
:10326000885A9E4F0E945923FC01868561E00E9486
:10327000AA0C9C018EE092E06CE3412F0E94C627CD
:1032800080914602909147020E945923FC01868555
:1032900060E00E94AA0C9C018EE092E062E048E1AE
:1032A0000E94C6271150173D79F61F9108951F936C
:1032B00018E180EC91E00E94632D8823D1F30E94F5
:1032C000DD188091460290914702885A9E4F0E94D5
:1032D0005923FC01868561E00E94AA0C9C018EE0C6
:1032E00092E06CE340E00E94C627809146029091F4
:1032F00047020E945923FC01868560E00E94AA0CC7
:103300009C018EE092E062E0412F0E94C6271F5F81
:10331000113479F61F9108951F9380914602909180
:103320004702885A9E4F0E944723882311F510E0D8
:103330008091460290914702885A9E4F612F0E94C9
:103340002D238091460290914702885A9E4F0E94F9
:1033500059230E948C0C8823A9F51F5F8091460297
:1033600090914702885A9E4F0E946523181750F586
:10337000DFCF8091460290914702885A9E4F0E946B
:103380005923DC011E96ED91FC911F97E35BFD4FE5
:1033900080818823D1F48091460290914702885A17
:1033A0009E4F0E945923DC011E96ED91FC911F97C0
:1033B000E35BFD4F81E08083809168028F5F8093A3
:1033C000680203C00E945315D4CF1F910895FF9245
:1033D0000F931F9380914602909147020E944723CA
:1033E000882309F061C080EC91E06EEB70E044E06E
:1033F0000E941C2E682F80914602909147020E94E5
:103400002D2380914602909147020E945923FC018E
:103410008081181644F780EC91E069E371E04CE399
:103420000E944B2B1CE35CE1F52E80EC91E00E94A6
:10343000632D8823D1F31F3118F00F2D011B0AC013
:103440008AEC91E064E00E948624882369F51123C8
:1034500059F102E011508091460290914702885A3A
:103460009E4F0E945923FC01868561E00E94AA0CB0
:103470009C018EE092E06CE340E00E94C6278091C0
:103480004602909147020E945923FC01868560E024
:103490000E94AA0C9C018EE092E0602F48E10E94FD
:1034A000C6270E94DD18C1CF1F910F91FF9008958C
:1034B000CF93DF9380914602909147020E94302380
:1034C000882329F080EC91E062E371E004C080EC95
:1034D00091E06EE271E043E20E944B2BC3E2D0E048
:1034E00080EC91E00E94632D8823D1F321971C1674
:1034F0001D06B4F380914602909147020E94262354
:103500008091460290914702885A9E4F0E9426233E
:103510008091460290914702885A9E4F0E942A232A
:10352000DF91CF9108958F929F92AF92BF92CF92E9
:10353000EF920F931092680210924A021092490281
:1035400010924C0210924B02109248028091460257
:10355000909147020E942A2380914602909147024F
:1035600060E040E020E000E0EE24CC24AA24BB246C
:10357000882499240E94C02280914602909147029B
:1035800060E00E944F230E94D51381E080934D029A
:1035900080936902809168028F5F809368028091B6
:1035A00084028F5F809384020E94B3120F91EF9088
:1035B000CF90BF90AF909F908F9008950F931F93DF
:1035C0008091460290914702885A9E4F0E9459234B
:1035D0008C0160E070E080E090E023E030E040E0CB
:1035E00050E00E944739C8010E94940C1F910F912E
:1035F00008951F9380914602909147020E9459239B
:103600000E94890C0E947B0DBC0180EC91E045E09A
:103610000E941C2E182F10928E02833019F08430D5
:1036200059F407C080914602909147020E942623D8
:1036300015C081E080938E028091460290914702EE
:103640000E945923612F0E94940C80914602909110
:1036500047020E945923612F0E94940C1F910895E4
:103660008F929F92AF92BF92CF92DF92EF92FF9292
:103670000F931F93CF93DF9364E1A62EB12CEE241A
:1036800080EC91E00E94632D8823D1F3A114B10452
:1036900009F442C00894A108B108C50163E070E0D4
:1036A0000E94BD3A892B11F481E0E82688249924F0
:1036B000FF242BC0C60181709070EE2019F0892B79
:1036C00019F405C0892B19F4209781F002C02097C6
:1036D00069F48EE092E06F2D412F24E007E00E9414
:1036E000D2258EE092E061E00E9439250894C11C49
:1036F000D11C195F1936F1F60894811C911C84E0E5
:10370000F80E8CE3F81609F4BBCFCC24DD2410E0CE
:10371000E401C170D070CECFDF91CF911F910F9196
:10372000FF90EF90DF90CF90BF90AF909F908F90E1
:103730000895EF92FF920F931F938823C1F16F3189
:1037400008F479C08EE092E062E00E9439256CEFC7
:103750007FEF8FEF9FEF24E030E040E050E00E94E9
:103760004739F62E6CEF7FEF8FEF9FEF24E030E0CC
:1037700040E050E00E944739162F60E070E080E0A2
:1037800090E024E030E040E050E00E944739062F0E
:1037900060E070E080E090E024E030E040E050E065
:1037A0000E944739E62E81E4F80E1B5F37C06F3167
:1037B00008F441C08EE092E062E00E9439256CEF8F
:1037C0007FEF8FEF9FEF24E030E040E050E00E9479
:1037D0004739F62E6CEF7FEF8FEF9FEF24E030E05C
:1037E00040E050E00E944739162F60E070E080E032
:1037F00090E024E030E040E050E00E944739062F9E
:1038000060E070E080E090E024E030E040E050E0F4
:103810000E944739E62E85E0F80E145E8EE092E0B5
:103820006F2D412F2AE531E00E9434288EE092E08E
:1038300061E00E9439251F910F91FF90EF9008954C
:10384000EF92FF920F931F938823C1F16F3108F419
:1038500079C08EE092E062E00E9439256CEF7FEF44
:103860008FEF9FEF24E030E040E050E00E944739C6
:10387000F62E6CEF7FEF8FEF9FEF24E030E040E01B
:1038800050E00E944739162F60E070E080E090E041
:1038900024E030E040E050E00E944739062F60E02D
:1038A00070E080E090E024E030E040E050E00E94F2
:1038B0004739E62E81E4F80E1B5F37C06F3108F4FC
:1038C00041C08EE092E062E00E9439256CEF7FEF0C
:1038D0008FEF9FEF24E030E040E050E00E94473956
:1038E000F62E6CEF7FEF8FEF9FEF24E030E040E0AB
:1038F00050E00E944739162F60E070E080E090E0D1
:1039000024E030E040E050E00E944739062F60E0BC
:1039100070E080E090E024E030E040E050E00E9481
:103920004739E62E85E0F80E145E8EE092E06F2DAA
:10393000412F2CE731E00E9434288EE092E061E0D4
:103940000E9439251F910F91FF90EF900895EF92FB
:10395000FF920F931F938823C1F16F3108F479C050
:103960008EE092E062E00E9439256CEF7FEF8FEFEE
:103970009FEF24E030E040E050E00E944739F62E0F
:103980006CEF7FEF8FEF9FEF24E030E040E050E0FE
:103990000E944739162F60E070E080E090E024E05C
:1039A00030E040E050E00E944739062F60E070E0D0
:1039B00080E090E024E030E040E050E00E944739B1
:1039C000E62E81E4F80E1B5F37C06F3108F441C06A
:1039D0008EE092E062E00E9439256CEF7FEF8FEF7E
:1039E0009FEF24E030E040E050E00E944739F62E9F
:1039F0006CEF7FEF8FEF9FEF24E030E040E050E08E
:103A00000E944739162F60E070E080E090E024E0EB
:103A100030E040E050E00E944739062F60E070E05F
:103A200080E090E024E030E040E050E00E94473940
:103A3000E62E85E0F80E145E8EE092E06F2D412FA9
:103A40002EE931E00E9434288EE092E061E00E948D
:103A500039251F910F91FF90EF900895EF920F93EA
:103A60001F93882311F1663280F00DE210E0061BEF
:103A70001109000F8EE092E062E00E94392544E1D6
:103A8000401B8EE092E0045C32C06F31E8F1162FEB
:103A9000110F1C538EE092E062E00E94392544E150
:103AA000411B8EE092E01F5B0FC0663278F0162F4C
:103AB000110F1A548EE092E062E00E9439254EE127
:103AC000411B8EE092E01E5F612F12C06F31E0F06B
:103AD00005E210E0061B1109000F8EE092E062E0A3
:103AE0000E9439254EE1401B8EE092E00E5F602F70
:103AF00020EC31E000E0EE24E3940E9434288EE0D4
:103B000092E061E00E9439251F910F91EF90089596
:103B1000EF920F93062F882391F06F3160F18EE0C2
:103B200092E062E00E9439256DE270E0601B71094D
:103B3000660F771F645C8EE092E042E011C06F3147
:103B4000D0F08EE092E062E00E943925602F70E0B4
:103B50006D527040660F771F675E8EE092E04CE119
:103B60002AEC31E000E0EE240E9434288EE092E05E
:103B700061E00E9439250F91EF900895EF920F9325
:103B8000E82E062F862F90E083709070892BC1F06D
:103B90006CEF7FEF8FEF9FEF24E030E040E050E0EC
:103BA0000E94473960938C026CEF7FEF8FEF9FEF9D
:103BB00024E030E040E050E00E94473960938D02FD
:103BC000EE2071F00F3130F18EE092E062E00E9461
:103BD000392560918C026F5B40918D024B5F0DC067
:103BE0000F31C0F08EE092E062E00E9439256091D2
:103BF0008C026B5F40918D024D5D8EE092E026ED70
:103C000031E000E0EE240E9434288EE092E061E092
:103C10000E9439250F91EF900895DF92EF92FF9265
:103C20000F931F938823A1F16F3108F468C0BDE2A0
:103C3000DB2ED61A8EE092E062E00E943925FF2446
:103C400024C0F0FC21C067EF7FEF8FEF9FEF2AE0E9
:103C500030E040E050E00E944739162F67EF7FEFD9
:103C60008FEF9FEF2AE030E040E050E00E944739BC
:103C7000462F1F5B465F8EE092E0612F26EE31E01B
:103C800000E0EE240E943428F394FD14D0F232C0F8
:103C90006F31A8F1ADE2DA2ED61A8EE092E062E042
:103CA0000E943925FF2424C0F0FC21C067EF7FEF7C
:103CB0008FEF9FEF2AE030E040E050E00E9447396C
:103CC000162F67EF7FEF8FEF9FEF2AE030E040E0A5
:103CD00050E00E944739462F165F445E8EE092E026
:103CE000612F26EE31E000E0EE240E943428F394A8
:103CF000FD14D0F28EE092E061E00E9439251F9120
:103D00000F91FF90EF90DF900895CF92DF92EF92A6
:103D10000F931F93882359F16F3108F454C01DE2AB
:103D2000C12ED12CC61AD108CC0C8EE092E062E0F4
:103D30000E9439258CE3C80E8EE092E06C2D42E0A3
:103D40002CEE31E000E0EE240E9434288AE0C80E18
:103D50008EE092E06C2D4AE02CEE31E00E94342897
:103D60008BEFC80E8EE092E06C2D44E123C06F31E2
:103D700050F1162F110F1A558EE092E062E00E946A
:103D80003925175E8EE092E0612F4CE12CEE31E098
:103D900000E0EE240E9434281A508EE092E0612F59
:103DA00044E22CEE31E00E9434281B5F8EE092E06A
:103DB000612F48E22CEE31E00E9434288EE092E040
:103DC00061E00E9439251F910F91EF90DF90CF9015
:103DD00008951F93882381F06F3130F11DE2161B87
:103DE0008EE092E062E00E9439254AE0411B8EE0BD
:103DF00092E0165C612F0FC06F31B0F01DE2161B10
:103E00008EE092E062E00E9439256EE1611B1E5E49
:103E10008EE092E0412F21EF31E00E94C6278EE034
:103E200092E061E00E9439251F910895FF920F935F
:103E30001F93182F862F042FF22E0E949F0DFC0136
:103E4000E10FF11DE081E43041F1E53048F4E1306B
:103E5000A9F0E13070F0E230B1F0E330B1F518C014
:103E6000E63029F1E630F0F0E73031F1E93069F57C
:103E700028C0802F6F2D0E94E91E27C0802F6F2D34
:103E80000E94851E22C0802F6F2D0E94BE1D1DC066
:103E9000802F6F2D0E940D1E18C0802F6F2D0E9445
:103EA000881D13C0802F6F2D0E942E1D0EC0802FE5
:103EB0006F2D0E94A71C09C0802F6F2D0E94201C0F
:103EC00004C0802F6F2D0E94991B1F910F91FF90AE
:103ED00008950F931F930DE280EC91E00E94632DF3
:103EE0008823D1F30E94DD18093140F4802F90E03F
:103EF00083709070029714F0063090F4809146021F
:103F0000909147020E945923FC01868560E00E943F
:103F1000AA0C9C018EE092E062E048E10E94C62774
:103F20008091460290914702885A9E4F0E945923E1
:103F3000FC01868561E00E94AA0C9C018EE092E063
:103F40006CE340E00E94C6278091460290914702B0
:103F5000885A9E4F0E9459230E94970C182F8091D7
:103F6000460290914702885A9E4F0E9459230E9410
:103F7000890C682F812F40E0202F0E94161F0023FC
:103F800061F080914602909147020E945923602F70
:103F900070E00E94F30D01509FCF1F910F91089583
:103FA0000F931F930DE280EC91E00E94632D882314
:103FB000D1F30E94DD18093140F4802F90E0837026
:103FC0009070029714F00630A0F480914602909110
:103FD0004702885A9E4F0E945923FC01868561E062
:103FE0000E94AA0C9C018EE092E06CE340E00E94EB
:103FF000C62780914602909147020E945923FC01F6
:10400000868560E00E94AA0C9C018EE092E062E04E
:1040100048E10E94C62780914602909147020E9483
:1040200059230E94970C182F8091460290914702C5
:104030000E9459230E94890C682F812F41E0202F74
:104040000E94161F002371F0809146029091470252
:10405000885A9E4F0E945923602F70E00E94F30DF2
:104060000150A1CF1F910F91089580916E01882377
:1040700049F00E94D01F80916F01882359F00E945F
:10408000691F08C00E94691F80916F01882311F089
:104090000E94D01F8091460290914702885A9E4FFD
:1040A0000E9459230E948C0C882319F40E94221923
:1040B0000CC080914602909147020E9459230E94B1
:1040C0008C0C882311F40E9457198091460290911C
:1040D00047020E9459230E949A0C809146029091B7
:1040E0004702885A9E4F0E9459230E949A0C0895B5
:1040F000EF92FF920F931F93809146029091470297
:10410000885A9E4F0E944723882309F408C1809152
:104110004602909147020E944723882309F4FFC07A
:1041200080918E02882319F40E94621802C00E94B6
:10413000E3170E9435208091460290914702885AE9
:104140009E4F0E9459230E948C0C882349F4809131
:104150004B0290914C02019690934C0280934B023B
:1041600080918F02882359F180918E02882339F142
:104170008091460290914702885A9E4F0E9459238F
:104180002DB73EB7245130400FB6F8943EBF0FBE56
:104190002DBFADB7BEB71196FC0184E101900D9221
:1041A0008150E1F70E9423168DB79EB744960FB653
:1041B000F8949EBF0FBE8DBF0E942B1373C08091D9
:1041C000460290914702885A9E4F0E9459230E94AE
:1041D0008C0C882309F066C08091460290914702BA
:1041E0000E9459230E948C0C882309F45BC08091A3
:1041F0004602909147020E9459238C01FC01E18400
:10420000F2848091460290914702885A9E4F0E9404
:104210005923FC01868190E0880F991F8E0D9F1D08
:10422000F8019287818780914602909147020E940F
:104230005923FC0101851285809146029091470225
:104240000E945923FC01878190858017910750F5C2
:1042500080914602909147020E9459230E94120EBB
:1042600080914602909147020E9459232DB73EB794
:10427000245130400FB6F8943EBF0FBE2DBFADB7EE
:10428000BEB71196FC0184E101900D928150E1F7D7
:104290000E9423168DB79EB744960FB6F8949EBF22
:1042A0000FBE8DBF80918F028823B9F580914602A1
:1042B000909147020E943023882379F18091460231
:1042C00090914702885A9E4F0E943023882329F1FB
:1042D0008091460290914702885A9E4F0E9459232E
:1042E0000E948C0C882341F48091460290914702F1
:1042F000885A9E4F0E942623809146029091470241
:104300000E9459230E948C0C882349F48091460214
:10431000909147020E94262302C080E001C081E004
:104320001F910F91FF90EF9008950E94301BE09134
:104330004602F0914702E55AFE4F8081882329F01A
:1043400080EC91E068E471E004C080EC91E06DE302
:1043500071E04EE10E944B2B0E9453158091460262
:10436000909147020E9426230E948C190E94E7190F
:104370000E94DE1A0E94F91A0E9478208823A1F771
:104380000E94581A80914602909147020E94302361
:10439000882311F080E0089583E608958EE092E08E
:1043A00060E474E10E94E9288EE092E064E772E044
:1043B0000E9485370E9486158EE092E06CE672E0DE
:1043C0000E943A378EE092E06AE672E00E943A3745
:1043D0008EE092E06DE572E00E9485378EE092E01B
:1043E0006BE572E00E943A378EE092E06DE472E095
:1043F0000E9485378AEC91E064E00E94862488233D
:1044000021F00E94931A80E008958AEC91E066E022
:104410000E948624882311F483E6089580EC91E0BD
:104420000E94EB2B80E0089580EC91E00E94632DC8
:104430008823E1F180914802813079F1813018F0D0
:10444000833691F52DC00E944014809348028AEC77
:1044500091E066E00E948624882331F180EC91E0AF
:104460006EE772E043E00E941C2E813039F082300A
:1044700041F08823C9F40E94411716C00E94D81643
:1044800013C080EC91E00E94EB2B80EC91E064E89B
:1044900072E048E20E944B2B07C00E94952102C0A7
:1044A0000E94CE21809348021092D80108950F9364
:1044B0001F93CF93DF9380EC91E00E94E63080EC75
:1044C00091E060E972E00E94E13080EC91E00E94AE
:1044D000182D80EB91E00E940D378C010E9468231B
:1044E000C8018A5A9F4F0E946823C80184559F4F74
:1044F0000E946823C8018E5F9E4F0E946823C801F6
:10450000885A9E4F0E9468231093470200934602E8
:1045100086E590E00E940D37182F092F0E9468232E
:10452000E0914602F0914702EF01212F302FC9019F
:10453000DC0186E50D9009928150E1F7E155FE4FCF
:1045400081E0808386E590E00E940D37182F092FC7
:104550000E946823E0914602F0914702E85AFE4F1C
:10456000212F302FC901DC0186E50D900192815089
:10457000E1F70E94931ADF91CF911F910F91089557
:104580006F927F928F929F92AF92BF92CF92EF9253
:104590000F93DF93CF93CDB7DEB73C01522FFC01D1
:1045A0008581843008F046C090E0019624E130E037
:1045B000829FF001839FF00D929FF00D11240197CF
:1045C000E60DF71D60831182829FD001839FB00D9D
:1045D000929FB00D1124A60DB71D17960C93179737
:1045E00016964C931697FC01EE0FFF1FEE0FFF1F60
:1045F000E80FF91F3196EE0FFF1FEE0FFF1FE60DBC
:10460000F71D46831B964C931B9719965C9319973D
:104610001896EC9218971C96CC921C971E96BC92FA
:10462000AE921D9750969C928E921F97F3018581B2
:104630008F5F8583CF91DF910F91EF90CF90BF90E7
:10464000AF909F908F907F906F9008952FEFFC0117
:1046500024830895FC0115820895FC016483089564
:10466000FC01258190E007C086817496181614F429
:1046700081E008959F5F9217B8F380E0089520E0ED
:10468000FC018581843008F021E0822F089520E02C
:10469000FC0184818F3F09F021E0822F089524E1FD
:1046A000629FB00111246A5F7F4F680F791FCB01B1
:1046B0000895FC01248184E1289F900111242A5F40
:1046C0003F4F2E0F3F1FC9010895FC0185810895BA
:1046D000EF92FF920F931F938C0106960E94810C1C
:1046E000C8014A960E94810C2EE2E22EF12CE00EC7
:1046F000F11EC7010E94810CC70144960E94810CE3
:10470000F80115828FEF84831F910F91FF90EF9036
:104710000895882319F48CB5806202C08CB58F7D12
:104720008CBD08959CB5937F982B9CBD08952CB5A6
:10473000382F33702C7F322B3CBD2DB590E09595F2
:1047400087959595879581702E7F822B8DBD0895D5
:104750008AE061E00E949B368AE061E00E942F3689
:104760008CB580618CBD8CB580648CBD8DE061E0C2
:104770000E942F368BE061E00E942F360895FC01E5
:1047800081E08083089585E070E00E94CF35089530
:104790006F927F928F929F92AF92BF92CF92DF9251
:1047A000EF92FF920F931F93CF93DF93EC018981D8
:1047B0009A818C0124E0000F111F2A95E1F7081B54
:1047C000190B85E10E94AD35BC01600F711F84E0BB
:1047D000769567958A95E1F77A836983888188233E
:1047E00081F12E813F816217730710F4B90106C071
:1047F000888599858617970708F4BC0100D000D0FA
:1048000080E090E040E050E0E884F98400E010E0CF
:10481000AD80BB24CC24DD246C80772488249924AB
:10482000EDB7FEB761827282838294820E94DC3887
:104830006B830F900F900F900F9085E070E00E94B7
:10484000CF35DF91CF911F910F91FF90EF90DF90C7
:10485000CF90BF90AF909F908F907F906F90089572
:10486000FC018CE39FE09383828384E0818381E079
:1048700084870895CF93DF93EC018C8590E08F714E
:104880009070892B69F584E10E94AD35AA2797FDC8
:10489000A095BA2FBC01CD010E949B3926EE3FE3C3
:1048A0004EEC50E40E94273A0E946D399B01AC0106
:1048B0007B836A836115710589F084E08983B9017E
:1048C000FE0120E0848195816817790710F429831F
:1048D0000AC02F5F32962430A9F702C08FEF898378
:1048E0008C858F5F8C87DF91CF910895FC0188E0E4
:1048F000808389E0818387E0828386E0838384E00C
:10490000848382E0858381E18683089520E0FC0131
:10491000E60FF11D8781813009F421E0822F08958F
:10492000E62FF0E0423040F420E0E80FF91F8781E5
:1049300081508E3F88F40FC0E80FF91F87818F3FA9
:1049400011F420E009C020E090E0642F70E00E94A4
:10495000A93A019709F421E0822F08950F931F933C
:10496000CF93DF93EC0110E00FEF888162E00E94AB
:104970002F3688810E94CE362F81892B19F42F5F24
:104980002F8307C0222349F02F3F11F41F8201C05B
:104990000F83888160E00E942F361F5F21961730B9
:1049A00021F7DF91CF911F910F910895FC01742F92
:1049B000643508F05DC047FD5BC040330CF058C063
:1049C000878D823019F5842F859585958595992752
:1049D00087FD9095462F552747FD509524E530E0FB
:1049E000829FF001839FF00D929FF00D1124E40F40
:1049F000F51FEF55FC4F808190E0272F277002C0F4
:104A0000959587952A95E2F780958170972F9595D2
:104A100095959595462F552747FD5095272F27703B
:104A20008823A1F4E4E59E02F0011124E40FF51FB0
:104A3000EF55FC4F81E090E002C0880F991F2A9546
:104A4000E2F780952081282320830895E4E59E02E3
:104A5000F0011124E40FF51FEF55FC4F81E090E0C9
:104A600002C0880F991F2A95E2F72081282B208306
:104A70000895FC01678F60A30895FC01678F40A330
:104A80000895AF92BF92CF92DF92EF92FF920F9371
:104A90001F93CF93DF93EC01162FF42EE22EAA245E
:104AA000402F552747FD50958F2D992787FD9095CD
:104AB000481B590B57FF03C0509541955F4F2E2D52
:104AC000332727FD3095812F992787FD9095281B47
:104AD000390B37FF03C0309521953F4F2417350719
:104AE00044F4AA24A3948F2DF12E182F802F0E2D7D
:104AF000E82EE11634F48E2DE12E182F802F0F2D85
:104B0000F82EDE2CD11A202F332727FD30958F2D3C
:104B1000992787FD9095281B390B37FF03C03095E7
:104B200021953F4FB22EF0161CF0CC24CA9402C03F
:104B3000CC24C3948D2DD7FC8F5F082F059511C011
:104B4000AA2021F0CE016F2D412F03C0CE01612F8D
:104B50004F2D0E94D6240B1907FF02C0FC0C0D0D2F
:104B60001F5FE1166CF7DF91CF911F910F91FF90BE
:104B7000EF90DF90CF90BF90AF9008950F93042FE8
:104B8000322F262F2150230F0E9441250F91089587
:104B90000F93362F042F0150020F232F0E9441251F
:104BA0000F9108959F92AF92BF92CF92DF92EF92B2
:104BB000FF920F931F93CF93DF936C01B62E942E29
:104BC000A02EC0E0D0E0E62EFF24E7FCF094022FF8
:104BD000112707FD10950E0D1F1D06C0C601492D9A
:104BE0002A2D0E94C82521966B2D6C0FCE018E0DAB
:104BF0009F1D8017910794F3DF91CF911F910F9123
:104C0000FF90EF90DF90CF90BF90AF909F9008956E
:104C10002F923F925F926F927F928F929F92AF926C
:104C2000BF92CF92DF92EF92FF920F931F93DF9389
:104C3000CF9300D000D000D0CDB7DEB79E838D8358
:104C4000C62ED42EEE24E394E21A8EEF289F502C29
:104C50001124842E8A94962E9A94A42EA394B62E70
:104C6000B394F22E662423E0722E10E0C801847003
:104C700090709A838983F801E270F070FC83EB8373
:104C800098E0292E312C202231220170107054C05E
:104C9000E7FC04C0FA94F2E05F0EE50C63948981AE
:104CA0009A81892B71F04F2D4D0D8D819E816B2D39
:104CB0000E94D6246F2D6C0D8D819E814A2D0E94FD
:104CC000D624EB81FC81EF2B71F04D2D4F198D8196
:104CD0009E816B2D0E94D6246F2D6C0D8D819E813F
:104CE000482D0E94D6242114310471F06C2D6F19C7
:104CF0008D819E814A2D0E94D6244F2D4D0D8D8190
:104D00009E81692D0E94D6240115110571F06C2D2C
:104D10006F198D819E81482D0E94D6244D2D4F19EB
:104D20008D819E81692D0E94D624E70CF2E07F0ED2
:104D30008A949A94A394B3946F140CF4A9CF2696F2
:104D40000FB6F894DEBF0FBECDBFCF91DF911F919C
:104D50000F91FF90EF90DF90CF90BF90AF909F901A
:104D60008F907F906F905F903F902F9008954F921B
:104D70005F926F927F928F929F92AF92BF92CF92EB
:104D8000DF92EF92FF920F931F93CF93DF93EC018B
:104D9000A62E742E9E2DFF24F394F21A8EEF289FD8
:104DA000802C1124B42EBA9453E0C52ECE0CE22EE2
:104DB000DD2443E0942E10E031E0432E512C4022BC
:104DC0005122692E63940270107034C0F7FC04C045
:104DD000EA9482E0880EF80CD3944114510489F0CF
:104DE0006D2D6A0D472D4E192E2D220F260DCE0149
:104DF0000E94C8256E2D6A0DCE014B2D2C2D0E94D0
:104E0000C8250115110589F06A2D6D19472D4E1918
:104E10002E2D220F260DCE010E94C8256A2D6E1957
:104E2000CE014B2D2C2D0E94C825F90C82E0980E46
:104E3000BA94C80EDE1454F2DF91CF911F910F91F6
:104E4000FF90EF90DF90CF90BF90AF909F908F90AA
:104E50007F906F905F904F9008957F928F929F9276
:104E6000AF92BF92CF92DF92EF92FF920F931F9378
:104E70006C01962EA42EF22E7E2C760E1EEFE19E55
:104E8000102D1124812E820E672D282D0E94BE2503
:104E9000B02EBA0CBA94C601672D4B2D282D0E9456
:104EA000BE25AE0C100FC601692D4A2D212F0E9480
:104EB000C825F90CFA94C6016F2D4A2D212F0E94A6
:104EC000C825C601672D4A2D2E2D01E00E94082617
:104ED000FE18C6016F2D4A2D2E2D02E00E940826D5
:104EE000BE18C6016F2D4B2D2E2D04E00E94082602
:104EF000C601672D4B2D2E2D08E00E9408261F911C
:104F00000F91FF90EF90DF90CF90BF90AF909F9068
:104F10008F907F9008958F929F92AF92BF92CF9281
:104F2000DF92EF92FF920F931F936C01162FA42E26
:104F3000922EF02EBE2C8E2C860E2EEFE29EE02CB2
:104F400011242E2D290D682D0E94D225AB0CFA9428
:104F5000FE0C1150190D1B19C601612F4A2D2B2D66
:104F600001E0EF2C0E94B726C601682D4A2D2B2D9B
:104F700002E00E94B7261F910F91FF90EF90DF9003
:104F8000CF90BF90AF909F908F9008953F924F9297
:104F90005F926F927F928F929F92AF92BF92CF92C9
:104FA000DF92EF92FF920F931F93CF93DF934C0109
:104FB000362E442EF901A490319654906F01089436
:104FC000C11CD11C8A2D992787FD9095079668E012
:104FD00070E00E94BD3AE62EFF24E7FCF09400E06A
:104FE000C0E0D0E060E8662E712C26C0E12FE59588
:104FF000E595E595FF27E7FDF095EC0FFD1FEC0D1E
:10500000FD1DE4912E2F30E0812F8770A30102C097
:10501000559547958A95E2F724233523232B31F0C4
:10502000612F630DC4014B2D0E94D6241F5F1A15FA
:10503000ECF20F5FCE0DDF1D051524F410E0B02E4D
:10504000B40CF5CFDF91CF911F910F91FF90EF90AE
:10505000DF90CF90BF90AF909F908F907F906F9098
:105060005F904F903F9008952F923F924F925F92A2
:105070006F927F928F929F92AF92BF92CF92DF9268
:10508000EF92FF920F931F93DF93CF9300D000D046
:105090000F92CDB7DEB73C01862E4A83F901BE2CB4
:1050A000002329F4EE2019F40E94C6277AC0A490A8
:1050B000319694901F010894211C311C03700983C0
:1050C0008A2D992787FD9095079668E070E00E94E9
:1050D000BD3A462E552447FC5094C92CCA94FF244F
:1050E0001D821C824A2D41504B8356C0E02FE5950E
:1050F000E595E595FF27E7FDF0958C819D81E80F0B
:10510000F91FE20DF31DE4912E2F30E0802F877000
:10511000A0E8B0E002C0B595A7958A95E2F72A23EA
:105120003B23232B61F1B981B13051F0B13028F02C
:10513000B23049F0B33061F409C0102FEF2C08C031
:10514000ED2C1F2D05C01D2DEC2C02C01C2DE02EBA
:10515000BB2069F0E3E0BE228B2DB0FE03C0FA2D28
:10516000F11B1F2F81FF03C0492D4E19E42E180D8E
:105170005A81E50EC301612F4E2D0E94D6240F5F88
:10518000DA940A150CF4B2CFF3948C819D81840DCE
:10519000951D9D838C83CA94F9141CF4DB8000E078
:1051A000F0CF0F900F900F900F900F90CF91DF9155
:1051B0001F910F91FF90EF90DF90CF90BF90AF9035
:1051C0009F908F907F906F905F904F903F902F9027
:1051D0000895DC01FB0184918F5F14968C931497E2
:1051E000319684918F5F15968C93159731965E96C4
:1051F000FC93EE935D9708953F924F925F926F926A
:105200007F928F929F92AF92BF92CF92DF92EF9256
:10521000FF920F931F93CF93DF93EC01862EA42E62
:10522000422F102F3F8C23E526170CF4ABC03FE232
:105230003A150CF4A7C0C02EDD248C8190E00197B4
:105240009C01C29EC001C39E900DD29E900D112460
:10525000262F332727FD3095820F931F1816190626
:105260000CF090C08D8190E09C01C29EC001C39E55
:10527000900DD29E900D11242A2D332727FD3095B5
:10528000820F931F181619060CF07CC09924442E27
:1052900055246DC09C01215030404217530711F432
:1052A00060E00EC0429EC001439E900D529E900D44
:1052B0001124840F951FED8DFE8DE80FF91F649169
:1052C0004C9DC0014D9D900D5C9D900D1124682C4E
:1052D000680EBB24792C780C3FC0E62EFF2460FFBB
:1052E00019C0113039F44B2D4A0DCE01672D0E94A3
:1052F000D6242EC02C9DC0012D9D900D3C9D900D5F
:1053000011244A2D480FCE01662D212F012F0E9416
:10531000D2251EC098A18F8D9817D1F09F8F113084
:1053200039F44B2D4A0DCE01672D0E94D6240FC0B3
:105330002C9DC0012D9D900D3C9D900D11244A2D5A
:10534000480FCE01662D212F012F0E94D2253F8EBE
:10535000F594E7946E2DB3942B2D332727FD3095CC
:105360008D8190E0281739070CF4B7CF9394492D1D
:10537000552747FD50958C8190E0481759070CF44C
:1053800089CF3F8EDF91CF911F910F91FF90EF90CA
:10539000DF90CF90BF90AF909F908F907F906F9055
:1053A0005F904F903F9008950F93CF93DF93EC0160
:1053B000262F6A3049F48D819885899F802D11248C
:1053C0009A85980F9A8726C06D3029F169854A859C
:1053D00008850E94FC289C816885969F402D112499
:1053E0008985480F49878F818823A9F0552747FD74
:1053F0005095699F9001112484E590E0821B930BE6
:105400008417950744F49D81699F902D11248A8506
:10541000890F8A87198681E090E0DF91CF910F9103
:1054200008951F93CF93DF93EC01162FF8948E8588
:1054300060E00E949B368F8518161CF460E00E9485
:105440009B361EBD0DB407FEFDCF8EB58F85181699
:105450001CF461E00E949B367894DF91CF911F91FC
:105460000895FF920F931F93CF93DF93EC01FF24D6
:1054700000E010E06F2D6064CE010E94112ACE0181
:1054800060E80E94112A8E8561E00E949B368F851C
:1054900018161CF460E00E949B36F801EF55FC4F93
:1054A00090E080818EBD0DB407FEFDCF8EB59F5F6D
:1054B00031969435B1F78F8518161CF461E00E947F
:1054C0009B36F3940C5A1F4F86E0F81699F6CE01DE
:1054D00060E40E94112ADF91CF911F910F91FF90FC
:1054E0000895CF93DF93DC0188EF91E0E1EAF3E0E8
:1054F000EF019C01199221503040E1F719961C925E
:1055000019971A961C92DF91CF910895EF920F93FD
:10551000CF93DF93EC014D876C872E87E88A0F8746
:1055200081E088878F8F18A28F83CE016EEB72E1A6
:105530000E94E9280E94A82381E00E94892385E037
:105540000E9497238CE00E9492238D8561E00E9447
:105550002F368C8561E00E942F368E8561E00E9497
:105560002F36888918161CF461E00E942F368F852B
:1055700018161CF461E00E942F36888918166CF406
:1055800060E00E949B366AE070E080E090E00E945C
:105590004C35888961E00E949B36EC852E2F33279D
:1055A00027FD3095F901E159F74EE491F0E0EE0F57
:1055B000FF1FE55AF74E859194919C8B8B8B2D574D
:1055C000374EF90184918A8FED852E2F332727FDE1
:1055D0003095F901E159F74EE491F0E0EE0FFF1F2D
:1055E000E55AF74E859194919A8B898B2D57374EBA
:1055F000F9018491898FEF852E2F332727FD309570
:10560000F901E159F74EE491F0E0EE0FFF1FE55A82
:10561000F74E859194919E8B8D8B2D57374EF901C6
:1056200084918B8FEE852E2F332727FD3095F9013E
:10563000E159F74EE491F0E0EE0FFF1FE55AF74E07
:1056400085919491988F8F8B2D57374EF9018491C6
:105650008C8FCE0161E20E94112ACE0164E10E948A
:10566000112A8B8587FF02C08FE78B876B85606867
:10567000CE010E94112ACE0160E20E94112ACE01C1
:105680006CE00E94112ACE010E94312ADF91CF9155
:105690000F91EF900895FC01ED57FF4F61937193C7
:1056A000445F40830895CF93DF93DC01E0E8F7E7A0
:1056B00085919491ED01C75ADF4FAD0141595F4F7C
:1056C0008150904C09F04EC0E6E9F7E7E491E88399
:1056D000E7E9F7E7E4911496EC931497E8E9F7E724
:1056E000E4911596EC931597E9E9F7E78591949184
:1056F00017969C938E931697EBE9F7E78591949113
:1057000019969C938E931897EDE9F7E7E4919B9691
:10571000EC939B97EEE9F7E7E4919A96EC939A97CE
:10572000EFE9F7E7E491EA01E883E0EAF7E785913A
:1057300094915D969C938E935C97E2EAF7E785914E
:1057400094915F969C938E935E97E4EAF7E7859138
:10575000949191969C938E939097E6EAF7E78591C2
:10576000949132C08CE3888314961C9214972FEF87
:1057700015962C93159780E293E017969C938E9341
:10578000169784ED93E019969C938E93189781E079
:105790009B968C939B979A968C939A97FA01208369
:1057A0008CEA9DE05D969C938E935C978EED9DE0D8
:1057B0005F969C938E935E9784E79EE091969C9370
:1057C0008E9390978CE39FE093969C938E93929701
:1057D000DF91CF910895EF92FF920F931F93CF9394
:1057E000DF937C018C01025B1F4FC8010E94712A6C
:1057F000C80167EE76E10E943A37C8010E94312A5B
:1058000083E00E9497238BE191E0EEEFFFE309959F
:1058100084E590E0E80EF91EF7011082C80162EC01
:1058200076E10E948537C8010E94312AE701CA54F7
:10583000D040CE010E94AE24CE0164E00E948624B6
:10584000882339F462E370E080E090E00E944C35F8
:10585000F0CFDF91CF911F910F91FF90EF900895BE
:105860000F931F93CF93DF93EC018C01025B1F4FCB
:10587000C80161E040E00E943D25FE01E95AFF4F6A
:10588000CE5ADF4F85E59881891B80832696188242
:10589000C855D040698D613009F43EC0613028F0B0
:1058A000888D653008F051C04BC0CE0185960E94AE
:1058B000EB31CE0160E00E94C323C8010E94712A2F
:1058C000CA5ADF4F81E08883C655D040C80163E2E1
:1058D00077E10E943A376A8D7B8DC8014AE050E03B
:1058E0000E942838C8016FE077E10E943A37C8016A
:1058F0000E94312A83B7817F846083BF83B7816030
:1059000083BF83B7816083BF889583B78E7F83BF52
:1059100083B78E7F83BF1FC0C059DF4F88819981B5
:10592000AA81BB818F709070A070B0700897A1059C
:10593000B10518F4C80167E00CC0C80168E709C0E8
:10594000882349F06B5FC80104C0882321F0C80197
:105950006FE20E945D37DF91CF911F910F91089503
:10596000AF92BF92CF92DF92EF92FF920F931F936D
:10597000CF93DF93EC01CB57DF4F8881C558D040E0
:10598000882309F44AC08C3010F010E002C01CE0FB
:10599000181BCA5ADF4F81E08883C655D0406EE499
:1059A000C62ED12CCC0EDD1EC60160E00E9439252A
:1059B00053E5A52EB12CAC0EBD1EF50100814DE2C4
:1059C000F42E4F2D401B410F0D5FC60160E024E512
:1059D00033E0E32E0E948B27C60161E00E94392547
:1059E000F5010081F01AF10E0D5FC60160E04F2D48
:1059F00024E50E942D27C95ADF4F84E08993F501E1
:105A00008081181B115D1883AB9669917991C6014D
:105A10000E943A37888181508883DF91CF911F910E
:105A20000F91FF90EF90DF90CF90BF90AF900895CF
:105A30004F925F926F927F928F929F92AF92BF929E
:105A4000CF92DF92EF92FF920F931F932C01FC01F4
:105A5000628C738C60947094882499240E942635FB
:105A60005B016C010E9426357B018C01F2014180B3
:105A700052800E942635460E571EA094B094C094C2
:105A8000D094E094F09400951095C601B501A8015A
:105A900097010E948A3AA40193010E948A3A460E15
:105AA000571EC2010E9465391F910F91FF90EF9020
:105AB000DF90CF90BF90AF909F908F907F906F902E
:105AC0005F904F900895AF92BF92CF92DF92EF9286
:105AD000FF920F931F93CF93DF93EC01EFE7AE2E6E
