:100000000C946A080C9492080C9492080C94920830
:100010000C9492080C9492080C9492080C949208F8
:100020000C9492080C9492080C9492080C94BA3197
:100030000C9492080C9492080C9492080C949208D8
:100040000C94BE320C9492080C9492080C94920872
:100050000C9492080C9492080C9492080C949208B8
:100060000C9492080C9492082E566965773A002EEB
:100070004B696C6C3A00417265613A00080520607A
:10008000FC6020E008E408E708EE08F508FC0853E7
:1000900077697463680041646420746F20746561DB
:1000A0006D3F004368616D70696F6E206B696C6CA9
:1000B000203A20002F0058503A004465663A004626
:1000C0006F723A0053706565643A002F0048703AC9
:1000D000004C764C3A00456E64003007FFFFFFFF8E
:1000E000FFF8AAAAAAAAAAA8800002000008800015
:1000F00000000008802000002008AAAAAAAAAAA836
:10010000FFFFFFFFFFF82E2E2E00596F757079212B
:1001100000476F210041206368616D70696F6E0058
:10012000612077696C642046757475726F6D6F6EAF
:100130002100080800183C4A523C18000808007EBC
:10014000664242667E0010103FF82000AFFCA0041B
:10015000A074A814ABD4AA14AA5488D588118FD13E
:100160008005FF0D00010FFF1010010001000100CC
:100170000100010001000380028002800440082089
:100180001FF0183820044002800110100080210068
:10019000308419828FE44C382812199D1998581010
:1001A000AC3C07E2058518802040108008081D2619
:1001B0004991A6C8B0C01005C00038E78502727921
:1001C0000404080EE070381C16122A4B55A5954AF7
:1001D00024180804406090E008037F00FE100C0023
:1001E000000F803800602041E0C700980030702187
:1001F000C0230006000400030005040102030908EF
:1002000009120917091A0903090809200917091A07
:100210000903090809260917091A09030908092CFD
:100220000917091A0903090809330917091A0903E3
:100230000908093F0917091A0920746F206D6169BF
:100240006E206D656E7500170020746F20636F6EF1
:1002500074696E75650015005072657373203A00FD
:1002600047616D65206F7665720047094C09560934
:100270004368616E67652067616D650046757475DA
:10028000726F6D6F6E0018160FE7F00824100924C6
:10029000100925900824100FE7F00100800100806C
:1002A00001008001008001008001008001008001C8
:1002B00000800100800FFFF018001C387E16683C9B
:1002C00013C800118FFFF1FE007F18160FE7F00F23
:1002D000E7F00FE7F00FE7F00FE7F00FE7F00100AE
:1002E0008001008001008001008001008001008009
:1002F0000100800100800100800FFFF018001C3910
:10030000FF9669FF93C9FF918FFFF1FE007F1816DA
:1003100000FFC007C8F81E083E33FFF377E3FB5C1D
:10032000000F4C738D5F73B973003D3300471E1E81
:100330002E0F807C01E3E000E1C007807008001808
:1003400008000C107F0630E3867FE3FFE7C1E788F3
:100350000011181600FFC007C8F81E083E3BFFF347
:1003600077E27B5C220F4C220D5FE27973E3ED3381
:1003700063471E232E0FE17C01E3E001E1C007800B
:100380007008001808000C107F0630E3867FE3FF3A
:10039000E7C1E78800111816060FC003F870063091
:1003A0001800200C0060040042243047741C4224D2
:1003B0001FF8043080040180040322240677740CA3
:1003C00022241800042000047FFFFECAAAAB80008C
:1003D00001C000037555563FFFFC181603F0600E70
:1003E0001FC0180C603004002006002442002EE2DA
:1003F0000C244238201FF820010C2001802444C026
:100400002EEE602444302000182000047FFFFED52B
:100410005553800001C000036AAAAE3FFFFC1818C4
:100420007F8FF050A85070A87000F8000084008101
:100430004A04C1020860B418334B600C30800400D9
:100440008002490002B50004848004488002310023
:1004500003030004788004488002CD00014A0001B3
:100460004A00014A0001CE0018187F8FF050A850B2
:1004700070A87000F80000840C810218C10230607E
:1004800084203B4B400C3080040080026900034B09
:100490000004848004488002010003030004788083
:1004A00004488002CD00014A00014A00014A0001CF
:1004B000CE001816000C00003C0000E407010419EF
:1004C00007C4711C3CC13C1B89700F19C60D328AD0
:1004D0000326860664F03444D8564488974689112A
:1004E0006299F332F00711C00D997F19D91DF0718F
:1004F00000001D0000071816003000003C00E02737
:10050000009820808E23E0833C3891D83C98F01EE0
:100510004CB01364C01F26600D2220032267E262E4
:10052000EC624688C44CC98488E70C99B0389B9823
:10053000F08E0F80B80000E0000018143C07802403
:1005400004804208405A0B405A0B4042E84043188E
:10055000405E0F404A0A404A0A404F1E4040004059
:100560003FFF806250E09A5390CE5E30865810C0B4
:10057000003080E010FF1FF018143C078024048036
:100580004208405A0B405A0B405AEB405B1B405804
:100590000340460C404CE6404802404000403FFFCC
:1005A000806250E09A5390CE5E30865810C0003082
:1005B00080E010FF1FF01815C00018C0003839FE89
:1005C000E00F038008008019FCC030F86020703014
:1005D00020201020001027FF902132103FFFF0084C
:1005E000944008B66019A2201133202111306331E4
:1005F00090422090C630D81815C00018C000383975
:10060000FEE00F03800878801800C031FE602000F3
:100610003023FF1020001027FF902000103FFFF034
:1006200008944008B66019A22011332021113063CC
:100630003190422090C630D818180738000528009D
:1006400007380002100002100002100003F8000634
:100650000C0004A4000404000404003FFF804000D8
:10066000403FFF8010010030A1806040C040A040AA
:1006700040004040A040C0406080A020800020FF9B
:10068000FFE018180738000528000738000210009E
:1006900002100002100003F800075C00055400057A
:1006A00054000554003FFF804000403FFF80100190
:1006B0000030A1806040C040A04040004040004069
:1006C000D4056088022094052080002010140500C5
:1006D0000A800880050002001F8030F020102D9055
:1006E000201022203220102018600C4004C006B8D0
:1006F0007DECC5448924101405000A80088005009B
:1007000002001F8030F025102850285024A030A06F
:1007100015201A600D4004C006B87DECC54489243C
:100720001818FFFFE0AAAAA0FFFFE0AB1AA0FF5F26
:10073000E0AB1AA0FFFFE0AAAAA0FFFFE0A000A084
:10074000E7FCE0A6ACA0E5F4E0A71CA0E514E0A758
:100750001CA0E514E0A71CA0E000E0BFFFA0D55559
:1007600060FFFFE01209001209001818FFFFE0AA5D
:10077000AAA0FFFFE0ABFAA0FFFFE0ABFAA0FFFFEB
:10078000E0AAAAA0FFFFE0AAAAA0FFFFE0AAAAA0F1
:10079000FFFFE0AAAAA0FFFFE0AAAAA0FFFFE0AA2D
:1007A000AAA0FFFFE0AAAAA0FFFFE0FFFFE0120956
:1007B0000012090008081020408000010204080807
:1007C000004020181804020008088181818181817D
:1007D00081810808FF818181818181FF08080205EC
:1007E0000200205020000808000220000002400003
:1007F00008080000665A4242424208083C26DBA52F
:10080000AD93443C08080000040000000000080804
:1008100000002000000008000808000000000000A0
:1008200000000808BD008199998100BD08080010EA
:10083000100E106010100808002804000002440088
:10084000080808142241081422410808DBC3C30029
:1008500000C3C3DB08087EFF5A7E187E3C6608088A
:100860007EFFDBFF993C7E2408087E547C107C10C0
:10087000284408083E343C101C1010180808FC7C62
:100880007C107C10284408087C2C3C083808081888
:1008900008087E547C107C10282008087E547C10A8
:1008A0007C10280808083E343C10305028440808C2
:1008B0003E343C14181018140808FC7C7C107C1082
:1008C00028200808FC7C7C107C10280808087C2C58
:1008D0003C080C0A142208087C2C3C28180818280C
:1008E000596573004E6F00536C6F74203100536C68
:1008F0006F74203200536C6F74203300536C6F742C
:10090000203400636C6177006F6E736C617567688B
:10091000740046697265002D3E004361746368008F
:10092000576174657200706C616E740067726F75E8
:100930006E6400C3A96C656374726971756500703B
:10094000737963686963005465616D0046757475F9
:10095000726F646578004368616E67652067616DDA
:1009600065000303070507050405050405030603E1
:100970000207020201020203020E090E0E0D0E0E04
:100980000F0E070507050307050F050705070607EF
:100990000102050200070202070002070200020727
:1009A000020007060306070702020505020102020C
:1009B00004020005020205000607050507050203FB
:1009C00002020602000000000B00030003070507F7
:1009D00004070105020507070400030000070505D9
:1009E0000700050005020702000C000202020004D5
:1009F00000040201070507050704010704050702B3
:100A0000030207040701070606010107070707039A
:100A10000307000500000D0002050005050500059F
:100A2000020107030F090306030607070202050573
:100A30000707020707050703010705060702070561
:100A40000705040403070205070404070307070159
:100A50000607050707030307050307030604070145
:100A60000107010704070304030706070502050140
:100A70000601010704000705010204050700020141
:100A8000020808080003000603060707020205051E
:100A90000705020707050703010705060702070503
:100AA00007050404030702050704040703070701F9
:100AB00006070507070303070503070306040701E5
:100AC00001070107040703040307060705020501E0
:100AD00006010107040207050007000507020602D8
:100AE0000307050703053F213F1208120A100A0EEB
:100AF0001C0E0C1E0C141A14161F161E131E1E1B81
:100B00001E1E1F1E3F213F3A2F3A173D173F213F20
:100B1000181F02040A041F0E04040E1F0A1F0A0EE7
:100B20000E1F04110E2E252E2F2A2E262929021FD4
:100B300002081F08150E04040E150E15151B151BB3
:100B4000040604040C040000000017000300031F47
:100B50000A1F16371A1904130A153A000300000E6B
:100B600011110E000A040A040E04003000040404EB
:100B70000010001804031F111F121F101D1517115C
:100B8000151F07041F17151D1F151D01011F1F1518
:100B90001F17151F000A00003200040A110A0A0A72
:100BA000110A040115020E11171E051E1F150A0E4B
:100BB000110A1F110E1F15111F05010E111D1F0413
:100BC0001F111F1108100F1F041B1F10101F061FDD
:100BD0001E040F0E110E1F09060E112E1F051A12EC
:100BE0001509011F011F101F0F180F1F0C1F1B04D9
:100BF0001B031C03191513001F11030418111F00F8
:100C00000201022020200001020C121E1F120C0CF7
:100C100012120C121F0C1A14041E05242A1E1F0285
:100C20001C141D1020201D1F0814111F101E041E4F
:100C30001E021C0C120C3E0A040C123E1E0402146E
:100C4000160A020F120E101E0E100E1E081E120C97
:100C50001226281E322A26041E21001F00211E04EF
:100C60000102013F213F05077F4141417F3E5B4F2C
:100C70005B3E3E6B4F6B3E183C783C18183C7E3C0C
:100C8000181C577D571C1C5E7F5E1C007E43437EF4
:100C9000007E73737E007E7F7F7E7F4141417F3087
:100CA000483A060E06297929067F4141417F607046
:100CB0003F02042A1C361C2A7F3E1C080000081C28
:100CC0003E7F14227F22143C3C3C7EFF18423C8134
:100CD0007E3E6375633E3E616B633E3E636B6B3E7F
:100CE00004027F020410207F201008082A1C080834
:100CF0001C2A0808143E5541226375697563101853
:100D00001C1810040C1C0C04000000000000005F04
:100D100000000007000700147F147F14042A7F2AB4
:100D20001023130864623649562050000807030058
:100D3000001C2241000041221C002A1C3E1C2A08E3
:100D4000083E080800E06000000808080808006085
:100D500060000060100804033E5149453E00427F98
:100D6000400062514949462141494D331814127FD0
:100D70001027454545393C4A494930412111090769
:100D80003649494936064949291E00002400000019
:100D9000806400000814224100141414141400414B
:100DA00022140802015909063E415D594E7C121178
:100DB000127C7F494949363E414141227F414122CF
:100DC0001C7F494949417F090909013E414151328E
:100DD0007F0808087F00417F41002041413F017F9B
:100DE000081422417F404040407F020C027F7F0276
:100DF00004087F3E4141413E7F090909063E4161A9
:100E000041BE7F09192946264949493201017F011E
:100E1000013F4040403F1F2040201F3F4038403F9F
:100E200063140814630304780403615149454300C3
:100E30007F41410003040810600041417F0004022B
:100E40000102048080808080000307080020545441
:100E500078407F284444383844444428384444285F
:100E60007F3854545418087E09090218A4A49C78A9
:100E70007F0804047800447D4000006080847D7F0A
:100E80001010284400417F40007C047804787C08DE
:100E90000404783844444438FC18242418182424C2
:100EA00018FC7C080404080854545420043F4444AB
:100EB000203C4040207C1C2040201C3C4020403CEA
:100EC00044281028444C9090907C4464544C440036
:100ED0000836410000007F00000041360800180479
:100EE00008100C7F4141417F0A4E6F20534420631C
:100EF000617264206F720A6E6F204C4F41444552FC
:100F00002E4845580A0A153A45786974001D20464E
:100F10006C617368696E670A20206C6F616465722A
:100F20002E2E2E0A0A444F4E2754205455524E203E
:100F30004F464621006D560A0A504C454153450A1A
:100F40005455524E204F4646004C4F572042415474
:100F5000544552590A001773617665001662616341
:100F60006B001574797065000A0A0A153A6F6B6197
:100F70007920163A6564697400596F7520656E743E
:100F8000657265640A00540A03E181867F3E186D2C
:100F9000830F0F0E0183866033186DC3198F1803FA
:100FA000C38E6033186DE330CF1803C39E603630B4
:100FB000CDE360CF3006C79E7E3E30CDB360CF30EC
:100FC0000CC6F6603330D9B660CF33CFCCF6606153
:100FD000B0DB1E60CF30D86CE6C061B0DB1E618F25
:100FE00019986CC6C063B19B0E330F0FB078C6FF63
:100FF0007E1F1B061E0F175344001613780016138E
:101000001400151020001520100000000500893084
:1010100008023802497868140000450068010000A1
:101020000500680138010000050038016801000072
:10103000F6E8DBCFC3B8AEA49B928A827B746E685D
:10104000625C57524E4945413E3A3734312E2C2985
:10105000272523211F1D1C1A1917161514131211E9
:10106000100F0E0D0C0B0A090807066F1073100104
:1010700001F7030101FF0300000000240027002AFC
:101080000000000000250028002B000000000023C5
:1010900000260029000404040404040404020202DB
:1010A00002020203030303030301020408102040A9
:1010B0008001020408102001020408102000000032
:1010C0000700020100000304060000000000000009
:1010D0000000310A11241FBECFEFD8E0DEBFCDBF24
:1010E00012E0A0E0B1E0EEE8F3E702C005900D9257
:1010F000AE31B107D9F715E0AEE1B2E001C01D9203
:10110000A93EB107E1F710E1C4EDD0E104C0229798
:10111000FE010E942939C23DD107C9F70E94EC3473
:101120000C94C5390C940000FC01118A8FEF838B5D
:101130000895FC01628B0895FC0182890895FC01E9
:1011400090E0808118160CF491E0892F0895FC013D
:10115000638B0895FC01838908952FEFFC01238B95
:101160000895FC019581648184E6989FC001112453
:1011700070E00E94D738862F08958430E1F18530E1
:1011800050F4813001F18130C0F0823021F18330A0
:1011900009F061C028C0873009F445C0883030F4B8
:1011A000853089F1863009F056C035C0883009F4A1
:1011B00042C0893009F04FC046C0662309F04CC0D8
:1011C0002AEC32E04BC0662319F422E533E046C036
:1011D0002EE033E043C0662319F42AED33E03EC02D
:1011E00026E933E03BC0662319F428E634E036C034
:1011F0002EE134E033C0662319F426EF34E02EC02C
:1012000022EB34E02BC0662319F428E735E026C032
:101210002AE335E023C0662319F427EF35E01EC02A
:1012200026EB35E01BC0662319F422E836E016C031
:1012300028E336E013C0662319F426EF36E00EC02B
:101240002CEC36E00BC0662319F42AE637E006C022
:1012500020E237E003C0089526E832E0C90108958E
:10126000823089F0833028F48823D1F08130B9F4BA
:1012700007C0843071F0843048F0853081F40CC0B0
:1012800027E032E00FC021E132E00CC02BE132E078
:1012900009C025E232E006C02FE232E003C0089523
:1012A0002DEF31E0C9010895823089F0833028F4B0
:1012B0008823D1F08130B9F407C0843071F08430D4
:1012C00048F0853081F40CC02DEF31E00FC022E0F2
:1012D00032E00CC027E032E009C02CE032E006C06A
:1012E00021E132E003C0089528EF31E0C9010895FB
:1012F0000F931F93182F862F042F0E945409FC016F
:10130000E10FF11D8081482F425083508730E8F46F
:10131000242F30E0A02FB0E0F901E950FE4F80818A
:10132000992787FD90958A179B0711F481E00EC0DD
:10133000A950BE4F8C91992787FD909582179307EE
:1013400011F0041711F48FEF01C080E01F910F918D
:101350000895282FE42FF0E0E453FD4FE081EE23C1
:10136000A1F08E2F90E033E0959587953A95E1F7BF
:101370008770281751F48E2F8770681731F48E2FDD
:10138000829586958695837008958FEF08958330B2
:1013900030F0833019F42CE331E003C0089522E3E8
:1013A00031E0C9010895FF920F931F93062F10E0BB
:1013B000F82EFA9401508F2D602F412F0E94A90919
:1013C0008F3F11F081E004C01F5F1330A1F780E070
:1013D0001F910F91FF9008951F93FC01458110818B
:1013E000212F332727FD3095C901841B91090E94C5
:1013F000D738640F658370E0621773070CF41583A8
:101400001F910895689FC001112464E670E00E9456
:10141000D738862F0895982F442311F46F5F0BC09F
:10142000413011F49F5F07C0423011F4615003C096
:10143000433009F49150E091A402F091A502E85ADA
:10144000FE4F8081E855F140891711F090E007C008
:1014500090E0E75AFE4F8081861709F491E0892FCA
:10146000089510926F0210926E028AE192E09093BA
:101470006D0280936C020895282F30E040E050E028
:1014800060E070E080E090E00E944837862F089589
:101490000F931F93CF93DF93CCECD2E08FE00E94A9
:1014A0003C0A182F8FE00E943C0A082F84E00E941B
:1014B0003C0A8295880F880F807C110F110F110F45
:1014C000810F800F899382E0CF3CD80739F7DF91F5
:1014D000CF911F910F9108950F931F93E091C50233
:1014E000F0E0EF53FD4F8081882301F583E00E94F7
:1014F0003C0A8823D9F40091A4021091A5028EE041
:101500000E943C0A085A1E4F8F5FF80180830091A9
:10151000A4021091A5028EE00E943C0A075A1E4FB9
:101520008F5FF80180831092DC030CC081E0809310
:10153000DC03E091A402F091A502E85AFE4F84ED8D
:10154000819380831F910F91089566E970E08091E7
:10155000A7029091A802681B790B660F771F623370
:10156000710510F462E370E080E090E024EF31E078
:1015700040E050E00E9448377093DE036093DD0343
:101580000895AF92BF92CF92DF92EF92FF920F93A6
:101590001F93DF93CF930F92CDB7DEB78091A70251
:1015A0009091A80201969093A8028093A70284E0EC
:1015B0000E943C0A8093C502F82EFF0CFF0C02ED3E
:1015C00012E06801A3E0EA2EEF0C84E00E943C0ADE
:1015D0008295880F880F807C8E0DF601808384E0D1
:1015E0000E943C0A20EF30E0C20ED31E8295880F85
:1015F000880F807C8E0DF601808321E13FEFC20EC3
:10160000D31E32EEC31632E0D306F9F684E00E9410
:101610003C0A8295880F880F807C8E0DF8018083AC
:1016200084E00E943C0A8295880F880F807C8E0D92
:10163000F8018787005F1F4FF3E0023D1F0731F776
:1016400082E00E943C0AD82EDF0CF1E0AF2EB12CD4
:101650001EC029812C3008F03FC031E0F316E1F1C3
:101660008EE0F816C9F185E00E943C0A8823A1F5B6
:10167000F801E082F394005F1F4FFFE0FF1649F787
:101680000894A11CB11C2FE0A216B10449F08501F9
:101690000E511D4FFF24F3943A2D32503983D9CF88
:1016A00082E0809352038093610382E48093DA02A4
:1016B0008093CA030E94480A0E946C0A0E94A50AED
:1016C0000F90CF91DF911F910F91FF90EF90DF90DE
:1016D000CF90BF90AF90089584E00E943C0A82951D
:1016E000880F880F807C8D0DF8018083C3CF0F9306
:1016F0001F938C0161E070E080E090E023E030E037
:1017000040E050E00E944837F8018181860F8183D4
:101710008481860F8483808385838381860F83837E
:101720008281860F828386818F5F868321853285C1
:1017300047815085241B350B3287218790E09C011F
:10174000229FC001239F900D329F900D11249595EB
:101750008795908787831F910F9108956EEF7FEF94
:101760008FEF9FEF22E030E040E050E00E944837EA
:10177000862F08951F93CF93DF93182FEB0160E01E
:1017800070E080E090E022E030E040E050E00E9435
:1017900048371230F1F0133030F4112361F011307A
:1017A00009F047C011C0143069F11430D0F0153081
:1017B00009F03FC035C0E62FF0E0E051FE4F8081D8
:1017C0008E871F8685E034C0662321F58091EE0167
:1017D0002CC06623C9F48091D1028E871F861B8797
:1017E00028C0662331F48091D1028E871F8682E063
:1017F0001FC0E62FF0E0E451FE4F80818E871F86E8
:1018000083E016C0662331F48091EA018E871F863B
:1018100081E00EC08091E9018E871F861B8609C07A
:10182000E62FF0E0E251FE4F80818E871F8684E034
:101830008B87DF91CF911F910895282F30E040E0F2
:1018400050E061E070E080E090E00E944837862F31
:101850000895EF920F931F93CF93DF930091D203DC
:101860001091D3038091C6029091C702081B190BF7
:101870002091D4033091D5034091C8025091C90200
:10188000C80140968536910570F5E901C41BD50B5A
:101890008FEFC03FD8073CF1C133D10524F5E0916B
:1018A000DA038091DB03882379F02E2F220FE22FB9
:1018B000EC5F80918E0290918F0268E070E00E9450
:1018C000D73804970CF0EF5FF0E0EE0FFF1FE953FD
:1018D000FE4F208131818CE692E0602F4C2F00E09A
:1018E000EE240E942226DF91CF911F910F91EF905D
:1018F0000895E091A402F091A502E85AFE4F61918B
:1019000070E093E0660F771F9A95E1F78091C60229
:101910009091C702681B790B408150E083E0440F2F
:10192000551F8A95E1F78091C8029091C902481B22
:10193000590B2091C3013091C4018CE692E00E94C2
:10194000B42508951F93CF93DF93CCECD2E0188198
:10195000112399F1812F82958695869583700E9437
:10196000C7099C01812F90E0F3E095958795FA9542
:10197000E1F78770682F70E06F5F7F4FE3E0660FDD
:10198000771FEA95E1F78091C6029091C702681B24
:10199000790B1770412F50E04F5F5F4F73E0440F9A
:1019A000551F7A95E1F78091C8029091C902481BB2
:1019B000590B8CE692E00E94B425219682E0CF3C40
:1019C000D80729F6DF91CF911F9108955F926F920A
:1019D0007F928F929F92AF92BF92CF92DF92EF92BF
:1019E000FF920F931F93CF93DF93CC24DD246624C3
:1019F000772448C0F40100818091C6029091C7020B
:101A00007501E81AF90A4091C8025091C902C7014C
:101A100008968D35910510F5E301C41BD50BFFEF3A
:101A2000C83FDF07DCF0C133D105C4F4812F652D39
:101A30000E94D309882391F4E091A402F091A502B9
:101A4000E85AFE4F8081E855F140811709F073C0D4
:101A5000E75AFE4F8081851509F06DC01F5F80E158
:101A600090E0880E991EE8E0F0E0AE0EBF1E103147
:101A700009F60894C11CD11C6E0E7F1EF0E1CF1632
:101A8000D10459F05C2CB2ED8B2EB2E09B2E8C0C65
:101A90009D1C10E0AA24BB24ADCF0E94A20C0E9482
:101AA000790C8CE692E062E679E00E94D7268CE61B
:101AB00092E066E770E00E9428356091A70270917D
:101AC000A8028CE692E04AE050E00E9416368CE6CE
:101AD00092E06FE670E00E9428356091A902709153
:101AE000AA028CE692E04AE050E00E9416368CE6AC
:101AF00092E068E670E00E9428358CE692E0609102
:101B0000B5024AE050E00E9444368CE692E064EE72
:101B10007AE00E94D726DF91CF911F910F91FF901D
:101B2000EF90DF90CF90BF90AF909F908F907F907D
:101B30006F905F900895E02FF0E0EF73F070EE0F7C
:101B4000FF1FED55FE4F20813181029506950695C8
:101B500003708CE692E06E2D4C2FEE240E9422261C
:101B60007DCF8EE192E00E94062B0E94C10A64E0C4
:101B700070E080E090E028E030E040E050E00E943B
:101B800048377093D7036093D60364E070E080E039
:101B900090E028E030E040E050E00E9448379B01B0
:101BA0007093D9036093D8038091D6039091D703A3
:101BB00043E0880F991F4A95E1F79093D3038093F0
:101BC000D20383E0220F331F8A95E1F73093D503C8
:101BD0002093D4031092DA031092DB0384EF91E098
:101BE0009093DE038093DD0308950F931F9310926B
:101BF000D0021CE38EE192E00E94512B8823D1F3A6
:101C00001F3118F0012F025E0AC088E292E064E002
:101C10000E9474228823C9F41123B9F00CE31150F7
:101C20008091A4029091A502885A9E4F0E9447215C
:101C3000FC01868561E00E94BD089C018CE692E073
:101C4000602F40E00E94B425D5CF1F910F910895D9
:101C50001F9381E08093730210E08EE192E00E9476
:101C6000512B8823D1F38CE692E060E071E00E9472
:101C7000CA361123C1F08CE692E06DE171E00E945A
:101C8000CA36123080F08CE692E063E471E00E9484
:101C9000CA36123041F08CE692E06CE571E00E94A9
:101CA000CA36133049F488E292E064E00E9474225C
:101CB000882399F21F5FD1CF1092730283E31F91A3
:101CC00008956F927F929F92AF92BF92CF92DF92D0
:101CD000EF92FF920F931F93DF93CF9300D0CDB776
:101CE000DEB7982F262F442311F46F5F07C04130D1
:101CF00011F48F5F08C0423019F46150892F04C07D
:101D0000433009F48150622F5CEC652E52E0752E51
:101D1000DD24992E9A94A22EAA94B82EBA94C62E97
:101D2000CA94892D6A2D4D2D0E94A9098F3F41F437
:101D30008B2D6C2D4D2D0E94A9098F3F09F479C080
:101D4000F30110828823B9F400E00CC08091A40252
:101D50009091A502602F0E943D21FC0182818F5F3E
:101D600082830F5F8091A4029091A5020E9453216B
:101D7000081760F35EC08130B9F400E00CC08091B8
:101D8000A4029091A502602F0E943D21FC01818157
:101D90008F5F81830F5F8091A4029091A5020E94C2
:101DA0005321081760F345C08230B9F400E00CC03D
:101DB0008091A4029091A502602F0E943D21FC0118
:101DC00083818F5F83830F5F8091A4029091A5022E
:101DD0000E945321081760F32CC0833051F510E0A6
:101DE00020C08091A4029091A502612F0E943D2104
:101DF0007C018091A4029091A502612F0E943D2157
:101E00009A8389838091A4029091A502612F0E94F8
:101E10003D21FC018481E981FA818583F70180837A
:101E20001F5F8091A4029091A5020E945321181770
:101E3000C0F2D3940894611C711CF3E0DF1609F022
:101E400070CF0F900F90CF91DF911F910F91FF9066
:101E5000EF90DF90CF90BF90AF909F907F906F906A
:101E600008950F931F93CF93DF938091DB03882313
:101E700009F44EC08091D2039091D3034091D603D0
:101E80005091D70323E0440F551F2A95E1F784179B
:101E9000950759F08417950714F4019601C001972E
:101EA0009093D3038093D2031AC08091D40390916E
:101EB000D5032091D8033091D90303E0220F331FBB
:101EC0000A95E1F78217930751F08217930714F4EC
:101ED000019601C001979093D5038093D40380911C
:101EE000D8039091D90313E0880F991F1A95E1F751
:101EF0002091D4033091D5032817390749F48091F4
:101F0000D2039091D3038417950711F41092DB0349
:101F10008091DB03882309F009C1C091D603D091D9
:101F2000D7030091D8031091D90388E292E062E0D0
:101F300044E00E947E22882381F08091D603909114
:101F4000D703419660E170E00E94D7389093D703A1
:101F50008093D60381E08093DA0388E292E060E028
:101F600044E00E947E22882381F08091D6039091E4
:101F7000D7030F9660E170E00E94D7389093D703A3
:101F80008093D60383E08093DA0388E292E063E0F3
:101F900044E00E947E22882379F08091D8039091BA
:101FA000D903419660E170E00E94D7389093D9033D
:101FB0008093D8031092DA0388E292E061E044E073
:101FC0000E947E22882381F08091D8039091D903CA
:101FD0000F9660E170E00E94D7389093D903809308
:101FE000D80382E08093DA032091D6033091D7039F
:101FF0004091D8035091D903E22FF0E0B4E0EE0F06
:10200000FF1FBA95E1F7E40FF11DEE52FD4FE0819D
:10201000EF738E2F90E0019683709070892BA1F062
:10202000A091A402B091A502A85ABE4F8C91A855C8
:10203000B14090E028173907E1F4A75ABE4F8C91C0
:1020400090E048175907A9F4D093D703C093D6035B
:102050001093D9030093D803EC2FF0E0A4E0EE0F27
:10206000FF1FAA95E1F7E00FF11DEE52FD4FE08151
:10207000EF738091D6039091D703C817D90741F425
:102080008091D8039091D9030817190709F44EC01D
:1020900081E08093DB038E2F90E002968370907036
:1020A000892B09F043C00E94C10A8091D603909108
:1020B000D703009739F48FE090E09093D703809393
:1020C000D6031AC00F9729F41092D7031092D603A3
:1020D00013C08091D8039091D903009739F48FE011
:1020E00090E09093D9038093D80306C00F9721F412
:1020F0001092D9031092D8038091D6039091D70300
:1021000073E0880F991F7A95E1F79093D30380933A
:10211000D2038091D8039091D90363E0880F991F6F
:102120006A95E1F79093D5038093D40388E292E017
:1021300064E00E947422882331F18091D60360917B
:10214000D8034091DA030E94610E8091DC0388235A
:10215000D1F48091D6036091D8034091DA030E94B4
:102160000B0A882381F011E01093DF030E94A50A77
:10217000E091C502F0E0EF53FD4F80818F5F8083D7
:102180001093DC030AC08091DD030E943C0A88237F
:1021900031F40E94A50A1092DF0380E01DC08091F7
:1021A000DD039091DE0301979093DE038093DD03BE
:1021B0002091D4033091D503205130408091D20337
:1021C0009091D30382979093C7028093C602309375
:1021D000C9022093C80281E0DF91CF911F910F9136
:1021E00008950F931F93DF93CF93CDB7DEB7809100
:1021F000A4029091A5026B8D0E943D218C018D89D6
:102200009E89F80197878687888581838B8580835F
:1022100084838B8585838A858383898582838D8565
:1022200086838E859F859087878388899989928701
:1022300081878A898387CE0107960E949C08682F30
:10224000C8010E949908CF91DF911F910F910895C5
:102250008F929F92AF92BF92CF92EF920F931F9364
:10226000CF93DF938EE192E066E970E048E20E944E
:1022700039298EE192E063E870E042E00E940A2C86
:10228000882309F084C08091A4029091A5020E9445
:102290002D21882381F18EE192E06FE870E048E221
:1022A0000E943929A090A402B090A502C501885AC5
:1022B0009E4F0E944721182F092F8EE192E067E878
:1022C00070E044E00E940A2C482F8DB79EB74597D6
:1022D0000FB6F8949EBF0FBE8DBFCDB7DEB7219667
:1022E000DE01212F302FC901FC0184E101900D9204
:1022F0008150E1F740C08091A4029091A502885AD4
:102300009E4F0E9447218091A4029091A50260E017
:1023100040E020E000E0EE24CC24AA24BB24882462
:1023200099240E94AE208091A4029091A502885A1F
:102330009E4F0E944721182F092FA090A402B09011
:10234000A502C5010E945321482F8DB79EB745971E
:102350000FB6F8949EBF0FBE8DBFCDB7DEB72196E6
:10236000DE01212F302FC901FC0184E101900D9283
:102370008150E1F741504C8BC5010E94F1108DB79F
:102380009EB745960FB6F8949EBF0FBE8DBFDF91E6
:10239000CF911F910F91EF90CF90BF90AF909F90F2
:1023A0008F900895FC0166871786662311F082E1FD
:1023B00001C084E18183613011F082E101C084E1D8
:1023C00080838483858382E18383623009F484E19E
:1023D000828385E086838CE090E0908787831286F5
:1023E00011866E5F6387CF010E94990808958F92CE
:1023F0009F92AF92BF92CF92EF92FF920F931F9353
:10240000FF2410E08EE192E00E94512B8823D1F34B
:102410008CE692E065E04AE02CE730E00E94B425CB
:102420008CE692E06BE44AE02CE730E000E0EE243A
:10243000E3940E9422268F2D61E00E94BD089C013A
:10244000612F625E8CE692E048E10E94B42511168D
:1024500014F4185002C01111185F88E292E060E095
:102460000E947422882339F08F2D8F5F63E00E94D1
:10247000B638F92E18E288E292E062E00E947422F7
:10248000882331F0FA94F7FE02C032E0F32E18ED03
:1024900088E292E064E00E947422882309F4B2CFBB
:1024A0008091A4029091A50260E040E020E000E06D
:1024B000EE24CC24AA24BB24882499240E94AE2094
:1024C0008091A4029091A50260E00E943D216F2DB1
:1024D0000E94D211EF2DFF27E7FDF095DF01A555F2
:1024E000BD4F81E08C93EA54FD4F80838091B5020B
:1024F0008F5F8093B5028091C0028F5F8093C0028E
:1025000080E01F910F91FF90EF90CF90BF90AF9020
:102510009F908F900895DF92EF92FF920F931F93F9
:10252000CF93DF93EC01062FD42E623008F402E043
:10253000E02EFF24102F110F0E94AE0B810F898314
:102540000E94AE0B810F88838C838D830E94AE0B1B
:10255000810F8B830E94AE0B180F1A830E83EE9CA3
:10256000C001EF9C900DFE9C900D112495958795D0
:1025700098878F831A8619868D2DBE010E94BA0B0B
:10258000CE016B850E949908DF91CF911F910F9129
:10259000FF90EF90DF9008958F929F92AF92BF923D
:1025A000CF92EF920F931F93DF93CF9300D000D081
:1025B000CDB7DEB70E94310F882331F00E94E60CC0
:1025C0000E94290C80E092C08091DF03882309F0EB
:1025D00045C08AE00E943C0A8091A4029091A50225
:1025E000885A9E4F60E040E020E000E0EE24CC24DA
:1025F000AA24BB24882499240E94AE208091A4029E
:102600009091A502885A9E4F60E00E941B21E091A4
:10261000A402F091A502E55AFE4F81E08083CF012C
:1026200003970E9447219C838B832091A7023091BE
:10263000A802B90180E090E0F901F695E795F695DA
:10264000E7952E0F311D40E050E00E9448378B8106
:102650009C814091C5020E948B1247C0E091A40268
:10266000F091A502E55AFE4F108210E08091A4027D
:102670009091A502885A9E4F60E040E020E000E083
:10268000EE24CC24AA24BB24882499240E94AE20C2
:102690008091A4029091A502885A9E4F612F0E94BA
:1026A0003D219A8389832091A7023091A802B90124
:1026B00080E090E0F901F695E7952E0F311D40E09E
:1026C00050E00E94483789819A814091C5020E945A
:1026D0008B121F5F143051F68091A4029091A502D5
:1026E000885A9E4F60E00E941B2181E00F900F905E
:1026F0000F900F90CF91DF911F910F91EF90CF909E
:10270000BF90AF909F908F900895BF92CF92DF922D
:10271000EF92FF920F931F93DF93CF93CDB7DEB766
:10272000EA8CFB8C0EE116EBC12E12E0D12ECE0C02
:10273000DF1CBAE0BB2E8EE192E00E94512B882371
:10274000D1F3F6018081882329F06091E501709131
:10275000E60104C06091E1017091E2018CE692E033
:102760000E94C7361B2D101B8E2D61E00E94BD08F4
:102770009C018CE692E06CE3412F0E94B4258E2DE3
:1027800060E00E94BD089C018CE692E06EE1412F62
:102790000E94B4250111035088E292E064E00E9497
:1027A0007422882341F2CF91DF911F910F91FF9006
:1027B000EF90DF90CF90BF900895EF92FF920F932C
:1027C0001F930CE612E0C80164EE7AE00E94D7265F
:1027D0006091E3017091E401C8010E94C7366091E5
:1027E000A7027091A802C8014AE050E00E94163684
:1027F0008DE7E82E81E0F82EC801B7010E94C736A8
:102800006091E7017091E801C8010E94C7366091AC
:10281000A9027091AA02C8014AE050E00E9427363E
:102820006091E1017091E201C8010E94C736C801C0
:102830006091B5024AE050E00E944436C801B701F9
:102840000E94C7366091E5017091E601C8010E94BF
:10285000C736C8016091C0024AE050E00E94563677
:10286000C80163EA70E00E9428356091C20280913D
:10287000C102680F8091C302680F8091C402680F83
:10288000C8014AE050E00E9456361F910F91FF9018
:10289000EF9008955F926F927F928F929F92AF9286
:1028A000BF92CF92DF92EF92FF920F931F93DF932D
:1028B000CF93CDB7DEB758A0688C8A897E888D8883
:1028C0009B880C89AB8CBC8CC98CDA8C1EE1E82E01
:1028D000FF24E7FCF0948EE192E00E94512B8823C4
:1028E000D1F3852D61E00E94BD089C01412F4195E7
:1028F0008CE692E06CE30E94B425111113508CE633
:1029000092E061ED70E00E9428358CE692E0662D41
:102910004AE050E00E9456368CE692E06DEC70E0A2
:102920000E9428358CE692E0B7014AE050E00E9410
:10293000B4368CE692E06BEC70E00E9428358CE6B1
:1029400092E0672D4AE050E00E9456368CE692E015
:1029500064EC70E00E9428358CE692E0682D4AE035
:1029600050E00E9456368CE692E06FEB70E00E94D9
:1029700028358CE692E0692D4AE050E00E945636F8
:102980008CE692E06AEB70E00E9428358CE692E0DB
:10299000602F4AE050E00E9456368CE692E066EBEB
:1029A00070E00E9428358CE692E0B5014AE050E0E4
:1029B0000E9416368CE692E064EB70E00E942835A7
:1029C0008CE692E0B6014AE050E00E94273688E2A9
:1029D00092E064E00E947422882309F47CCFCF91B6
:1029E000DF911F910F91FF90EF90DF90CF90BF90FC
:1029F000AF909F908F907F906F905F900895CF924F
:102A0000DF92EF92FF921F93DF93CF93CDB7DEB7A4
:102A100064970FB6F894DEBF0FBECDBF10E06E0115
:102A20000894C11CD11C8EE192E00E94512B882396
:102A3000D1F301C01F5FE12EFF24F701E555FD4FE3
:102A40008081882319F41A30A8F323C01A3008F5BE
:102A5000C6010E949408F88AEF868DB79EB7449706
:102A60000FB6F8949EBF0FBE8DBFADB7BEB711961F
:102A7000F60184E101900D928150E1F70E948513E7
:102A80008DB79EB744960FB6F8949EBF0FBE8DBF0C
:102A900007C08EE192E066ED70E048E20E943929BD
:102AA0001F5F1A3008F4BFCF8091A4029091A50255
:102AB0000E94142164960FB6F894DEBF0FBECDBFFE
:102AC000CF91DF911F91FF90EF90DF90CF9008950D
:102AD0001F938091A4029091A50260E00E941B21A7
:102AE00010E030C08EE192E00E94512B882351F11A
:102AF0008091A4029091A5020E9447212DB73EB774
:102B0000245130400FB6F8943EBF0FBE2DBFADB775
:102B1000BEB71196FC0184E101900D928150E1F75E
:102B20000E944A141F5F8DB79EB744960FB6F89463
:102B30009EBF0FBE8DBF8091A4029091A502612F10
:102B40000E941B218091A4029091A5020E94532112
:102B5000181740F28EE192E00E94512B8823D1F3A6
:102B60000E94DD1388E292E064E00E9474228823D0
:102B700089F38091A4029091A5020E9414211F91D3
:102B80000895DF92EF92FF920F931F93CF93DF93FD
:102B90007C01EB0188818D83C7010E94AA08F7019F
:102BA00091812A81813081F4692F6695669570E064
:102BB000621B7109690F711D882777FD8095982F19
:102BC0000E942637D62E02C0D92ED21A8D2D0E94F1
:102BD0001D0C082FC7010E94AA08182FC7010E94C8
:102BE0009C08682F812F4B850E947809089F002D33
:102BF00011240D0D10160CF001E08881801B8883D4
:102C000087FD1882DF91CF911F910F91FF90EF9078
:102C1000DF9008950F931F93CF93DF93C091A40289
:102C2000D091A5028E01085A1E4F81E08093DF01EA
:102C3000C55ADE4F8881CB55D140882391F1C80118
:102C40000E944721FC01208127FD2F5F2595332716
:102C500027FD30952F5F3F4F442737FD4095542F78
:102C600060E070E080E090E00E94483761157105F7
:102C700081059105B1F41092E001C8010E9447213D
:102C8000DC011E96ED91FC911F97EA54FD4F81E007
:102C900080838093D0028091C0028F5F8093C002B6
:102CA0000EC0C8010E9447218C01CE010E9447211D
:102CB000BC01C8010E94C11581E08093E001DF9151
:102CC000CF911F910F910895DF92EF92FF920F9392
:102CD0001F93CF93DF938091A4029091A5020E944D
:102CE0004721FC01E380FF248091A4029091A5027A
:102CF0000E944721FC0183810E941D0CD82E8091E7
:102D0000A4029091A502885A9E4F0E944721FC017F
:102D1000038110E08091A4029091A502885A9E4FF1
:102D20000E944721FC0183810E941D0CED0CF11CC7
:102D3000080F111D2091A4023091A5020E151F0548
:102D40004CF4C9017C01EC01C85ADE4F81E080934C
:102D5000DF010AC0C901EC0198E5E92E91E0F92EE6
:102D6000EC0EFD1E1092DF01C7010E9447218C016D
:102D7000CE010E944721BC01C8010E94C115CE01AD
:102D80000E9447210E949F08882379F0CE010E946B
:102D900047218C01C7010E944721BC01C8010E9444
:102DA000C11581E08093E00102C01092E001DF9143
:102DB000CF911F910F91FF90EF90DF900895CF92E8
:102DC000DF92EF92FF920F933CE6E32E32E0F32E78
:102DD0002AEDC22E20E0D22EC70162E040E096012B
:102DE0000E94B4258091A4029091A502885A9E4F1A
:102DF0000E9447210E94B1086BE20E94020A282F1C
:102E0000C70163E041E006E00E94C023C70167E21A
:102E100049E296010E94B4258091A4029091A502F6
:102E20000E9447210E94B1086BE20E94020A282FEB
:102E300063E5681BC70149E20E94C0230F91FF9020
:102E4000EF90DF90CF9008951F9310E08EE192E015
:102E50000E94512B8823D1F30E94DF168091A40297
:102E60009091A502885A9E4F0E944721FC018685B9
:102E700061E00E94BD089C018CE692E06CE3412F6A
:102E80000E94B4258091A4029091A5020E9447213E
:102E9000FC01868560E00E94BD089C018CE692E002
:102EA00062E048E10E94B4251150173D79F61F9168
:102EB00008951F9318E18EE192E00E94512B882320
:102EC000D1F30E94DF168091A4029091A502885A46
:102ED0009E4F0E944721FC01868561E00E94BD084B
:102EE0009C018CE692E06CE340E00E94B425809166
:102EF000A4029091A5020E944721FC01868560E012
:102F00000E94BD089C018CE692E062E0412F0E9485
:102F1000B4251F5F113479F61F9108951F93809196
:102F2000A4029091A502885A9E4F0E9435218823C1
:102F300011F510E08091A4029091A502885A9E4F4D
:102F4000612F0E941B218091A4029091A502885AB2
:102F50009E4F0E9447210E949F088823A9F51F5F6A
:102F60008091A4029091A502885A9E4F0E945321FD
:102F7000181750F5DFCF8091A4029091A502885ACE
:102F80009E4F0E944721DC011E96ED91FC911F97F8
:102F9000E555FD4F80818823D1F48091A402909162
:102FA000A502885A9E4F0E944721DC011E96ED9192
:102FB000FC911F97E555FD4F81E080838091B5021C
:102FC0008F5F8093B50203C00E94F50DD4CF1F918F
:102FD0000895FF920F931F938091A4029091A502F0
:102FE0000E943521882309F061C08EE192E067E8F4
:102FF00070E044E00E940A2C682F8091A402909116
:10300000A5020E941B218091A4029091A5020E941A
:103010004721FC018081181644F78EE192E061E1BE
:1030200071E04CE30E9439291CE34CE1F42E8EE15F
:1030300092E00E94512B8823D1F31F3118F00F2DFD
:10304000011B0AC088E292E064E00E947422882397
:1030500069F5112359F102E011508091A402909179
:10306000A502885A9E4F0E944721FC01868561E097
:103070000E94BD089C018CE692E06CE340E00E9457
:10308000B4258091A4029091A5020E944721FC01E1
:10309000868560E00E94BD089C018CE692E0602F6E
:1030A00048E10E94B4250E94DF16C1CF1F910F9105
:1030B000FF900895CF93DF938091A4029091A50291
:1030C0000E941E21882329F08EE192E06AE071E0DF
:1030D00004C08EE192E066E071E043E20E9439298B
:1030E000C3E2D0E08EE192E00E94512B8823D1F31D
:1030F00021971C161D06B4F38091A4029091A5029D
:103100000E9414218091A4029091A502885A9E4F9A
:103110000E9414218091A4029091A502885A9E4F8A
:103120000E941821DF91CF9108951092B50210925C
:10313000A8021092A7021092AA021092A90282E39A
:103140008093A6028091A4029091A5020E9418216A
:103150000E94B10D08950F931F938091A402909146
:10316000A502885A9E4F0E9447218C0160E070E0C2
:1031700080E090E023E030E040E050E00E944837FB
:10318000C8010E94A7081F910F9108951F93809175
:10319000A4029091A5020E9447210E949C080E94CF
:1031A0003009BC018EE192E045E00E940A2C182F04
:1031B0001092CF02833019F0843059F407C0809107
:1031C000A4029091A5020E94142115C081E0809371
:1031D000CF028091A4029091A5020E944721612F05
:1031E0000E94A7088091A4029091A5020E94472105
:1031F000612F0E94A7081F9108958F929F92AF920E
:10320000BF92CF92DF92EF92FF920F931F93CF93D3
:10321000DF9354E1A52EB12CEE248EE192E00E94C2
:10322000512B8823D1F3A114B10409F442C00894AE
:10323000A108B108C50163E070E00E94D738892B6E
:1032400011F481E0E82688249924FF242BC0C601CC
:1032500081709070EE2019F0892B19F405C0892B2C
:1032600019F4209781F002C0209769F48CE692E06F
:103270006F2D412F24E007E00E94C0238CE692E0EE
:1032800061E00E9427230894C11CD11C195F1936E4
:10329000F1F60894811C911C84E0F80E8CE3F8167A
:1032A00009F4BBCFCC24DD2410E0E401C170D07060
:1032B000CECFDF91CF911F910F91FF90EF90DF90D4
:1032C000CF90BF90AF909F908F900895EF92FF9214
:1032D0000F931F938823C1F16F3108F479C08CE6F6
:1032E00092E062E00E9427236CEF7FEF8FEF9FEF69
:1032F00024E030E040E050E00E944837F62E6CEFCA
:103300007FEF8FEF9FEF24E030E040E050E00E943D
:103310004837162F60E070E080E090E024E030E075
:1033200040E050E00E944837062F60E070E080E007
:1033300090E024E030E040E050E00E944837E62E84
:1033400081E4F80E1B5F37C06F3108F441C08CE692
:1033500092E062E00E9427236CEF7FEF8FEF9FEFF8
:1033600024E030E040E050E00E944837F62E6CEF59
:103370007FEF8FEF9FEF24E030E040E050E00E94CD
:103380004837162F60E070E080E090E024E030E005
:1033900040E050E00E944837062F60E070E080E097
:1033A00090E024E030E040E050E00E944837E62E14
:1033B00085E0F80E145E8CE692E06F2D412F26E436
:1033C00031E00E9422268CE692E061E00E942723F1
:1033D0001F910F91FF90EF900895EF92FF920F933E
:1033E0001F938823C1F16F3108F479C08CE692E015
:1033F00062E00E9427236CEF7FEF8FEF9FEF24E0C6
:1034000030E040E050E00E944837F62E6CEF7FEF4E
:103410008FEF9FEF24E030E040E050E00E9448371B
:10342000162F60E070E080E090E024E030E040E0C3
:1034300050E00E944837062F60E070E080E090E0A6
:1034400024E030E040E050E00E944837E62E81E47E
:10345000F80E1B5F37C06F3108F441C08CE692E074
:1034600062E00E9427236CEF7FEF8FEF9FEF24E055
:1034700030E040E050E00E944837F62E6CEF7FEFDE
:103480008FEF9FEF24E030E040E050E00E944837AB
:10349000162F60E070E080E090E024E030E040E053
:1034A00050E00E944837062F60E070E080E090E036
:1034B00024E030E040E050E00E944837E62E85E00E
:1034C000F80E145E8CE692E06F2D412F28E631E075
:1034D0000E9422268CE692E061E00E9427231F9141
:1034E0000F91FF90EF900895EF92FF920F931F932B
:1034F0008823C1F16F3108F479C08CE692E062E074
:103500000E9427236CEF7FEF8FEF9FEF24E030E0E6
:1035100040E050E00E944837F62E6CEF7FEF8FEFCF
:103520009FEF24E030E040E050E00E944837162F43
:1035300060E070E080E090E024E030E040E050E0C7
:103540000E944837062F60E070E080E090E024E0C1
:1035500030E040E050E00E944837E62E81E4F80E6B
:103560001B5F37C06F3108F441C08CE692E062E027
:103570000E9427236CEF7FEF8FEF9FEF24E030E076
:1035800040E050E00E944837F62E6CEF7FEF8FEF5F
:103590009FEF24E030E040E050E00E944837162FD3
:1035A00060E070E080E090E024E030E040E050E057
:1035B0000E944837062F60E070E080E090E024E051
:1035C00030E040E050E00E944837E62E85E0F80EFB
:1035D000145E8CE692E06F2D412F2AE831E00E94C4
:1035E00022268CE692E061E00E9427231F910F9132
:1035F000FF90EF900895EF920F931F93882311F19E
:10360000663280F00DE210E0061B1109000F8CE617
:1036100092E062E00E94272344E1401B8CE692E0A6
:10362000045C32C06F31E8F1162F110F1C538CE689
:1036300092E062E00E94272344E1411B8CE692E085
:103640001F5B0FC0663278F0162F110F1A548CE6EC
:1036500092E062E00E9427234EE1411B8CE692E05B
:103660001E5F612F12C06F31E0F005E210E0061B13
:103670001109000F8CE692E062E00E9427234EE1E0
:10368000401B8CE692E00E5F602F2CEA31E000E0F8
:10369000EE24E3940E9422268CE692E061E00E94F0
:1036A00027231F910F91EF900895EF920F93062F0C
:1036B000882391F06F3160F18CE692E062E00E9425
:1036C00027236DE270E0601B7109660F771F645C51
:1036D0008CE692E042E011C06F31D0F08CE692E0CF
:1036E00062E00E942723602F70E06D527040660FE9
:1036F000771F675E8CE692E04CE126EB31E000E05C
:10370000EE240E9422268CE692E061E00E942723AC
:103710000F91EF900895EF920F93E82E062F862FCA
:1037200090E083709070892BC1F06CEF7FEF8FEF8A
:103730009FEF24E030E040E050E00E944837609383
:10374000CA026CEF7FEF8FEF9FEF24E030E040E0A4
:1037500050E00E9448376093CB02EE2071F00F31A9
:1037600030F18CE692E062E00E9427236091CA0269
:103770006F5B4091CB024B5F0DC00F31C0F08CE608
:1037800092E062E00E9427236091CA026B5F409141
:10379000CB024D5D8CE692E022EC31E000E0EE24BD
:1037A0000E9422268CE692E061E00E9427230F917E
:1037B000EF900895DF92EF92FF920F931F9388236B
:1037C000A1F16F3108F468C0BDE2DB2ED61A8CE699
:1037D00092E062E00E942723FF2424C0F0FC21C075
:1037E00067EF7FEF8FEF9FEF2AE030E040E050E09F
:1037F0000E944837162F67EF7FEF8FEF9FEF2AE089
:1038000030E040E050E00E944837462F1F5B465FA3
:103810008CE692E0612F22ED31E000E0EE240E9480
:103820002226F394FD14D0F232C06F31A8F1ADE23C
:10383000DA2ED61A8CE692E062E00E942723FF245B
:1038400024C0F0FC21C067EF7FEF8FEF9FEF2AE0ED
:1038500030E040E050E00E944837162F67EF7FEFDE
:103860008FEF9FEF2AE030E040E050E00E944837C1
:10387000462F165F445E8CE692E0612F22ED31E028
:1038800000E0EE240E942226F394FD14D0F28CE690
:1038900092E061E00E9427231F910F91FF90EF902B
:1038A000DF900895CF92DF92EF920F931F938823BA
:1038B00059F16F3108F454C01DE2C12ED12CC61A43
:1038C000D108CC0C8CE692E062E00E9427238CE3C6
:1038D000C80E8CE692E06C2D42E028ED31E000E06D
:1038E000EE240E9422268AE0C80E8CE692E06C2D1F
:1038F0004AE028ED31E00E9422268BEFC80E8CE6CC
:1039000092E06C2D44E123C06F3150F1162F110F5E
:103910001A558CE692E062E00E942723175E8CE63F
:1039200092E0612F4CE128ED31E000E0EE240E94AE
:1039300022261A508CE692E0612F44E228ED31E015
:103940000E9422261B5F8CE692E0612F48E228ED60
:1039500031E00E9422268CE692E061E00E9427235B
:103960001F910F91EF90DF90CF9008951F938823C0
:1039700081F06F3130F11DE2161B8CE692E062E0BF
:103980000E9427234AE0411B8CE692E0165C612FDF
:103990000FC06F31B0F01DE2161B8CE692E062E0C2
:1039A0000E9427236EE1611B1E5E8CE692E0412F90
:1039B0002DED31E00E94B4258CE692E061E00E949A
:1039C00027231F910895FF920F931F93182F862F7F
:1039D000042FF22E0E945409FC01E10FF11DE08139
:1039E000E43041F1E53048F4E130A9F0E13070F025
:1039F000E230B1F0E330B1F518C0E63029F1E6303D
:103A0000F0F0E73031F1E93069F528C0802F6F2DF3
:103A10000E94B61C27C0802F6F2D0E94521C22C00E
:103A2000802F6F2D0E948B1B1DC0802F6F2D0E9439
:103A3000DA1B18C0802F6F2D0E94551B13C0802FDA
:103A40006F2D0E94FB1A0EC0802F6F2D0E94741ADA
:103A500009C0802F6F2D0E94ED1904C0802F6F2D9B
:103A60000E9466191F910F91FF9008950F931F9365
:103A70000DE28EE192E00E94512B8823D1F30E9447
:103A8000DF16093140F4802F90E083709070029728
:103A900014F0063090F48091A4029091A5020E9447
:103AA0004721FC01868560E00E94BD089C018CE6F0
:103AB00092E062E048E10E94B4258091A4029091D6
:103AC000A502885A9E4F0E944721FC01868561E02D
:103AD0000E94BD089C018CE692E06CE340E00E94ED
:103AE000B4258091A4029091A502885A9E4F0E940D
:103AF00047210E94AA08182F8091A4029091A50244
:103B0000885A9E4F0E9447210E949C08682F812F4F
:103B100040E0202F0E94E31C002361F08091A4026A
:103B20009091A5020E944721602F70E00E94EC094D
:103B300001509FCF1F910F9108950F931F930DE296
:103B40008EE192E00E94512B8823D1F30E94DF1670
:103B5000093140F4802F90E083709070029714F048
:103B60000630A0F48091A4029091A502885A9E4F3D
:103B70000E944721FC01868561E00E94BD089C01EE
:103B80008CE692E06CE340E00E94B4258091A402B0
:103B90009091A5020E944721FC01868560E00E9469
:103BA000BD089C018CE692E062E048E10E94B425E9
:103BB0008091A4029091A5020E9447210E94AA0828
:103BC000182F8091A4029091A5020E9447210E9483
:103BD0009C08682F812F41E0202F0E94E31C0023C6
:103BE00071F08091A4029091A502885A9E4F0E9484
:103BF0004721602F70E00E94EC090150A1CF1F9176
:103C00000F9108958091DF01882349F00E949D1D46
:103C10008091E001882359F00E94361D08C00E945F
:103C2000361D8091E001882311F00E949D1D809136
:103C3000A4029091A502885A9E4F0E9447210E949B
:103C40009F08882319F40E9424170CC08091A402B5
:103C50009091A5020E9447210E949F08882311F499
:103C60000E9459178091A4029091A5020E944721B9
:103C70000E94AD088091A4029091A502885A9E4F9F
:103C80000E9447210E94AD080895EF92FF920F9382
:103C90001F938091A4029091A502885A9E4F0E9482
:103CA0003521882309F408C18091A4029091A502CE
:103CB0000E943521882309F4FFC08091CF02882318
:103CC00019F40E94641602C00E940A160E94021E85
:103CD0008091A4029091A502885A9E4F0E9447218C
:103CE0000E949F08882349F48091A9029091AA021A
:103CF00001969093AA028093A9028091D002882312
:103D000059F18091CF02882339F18091A4029091DA
:103D1000A502885A9E4F0E9447212DB73EB72451D5
:103D200030400FB6F8943EBF0FBE2DBFADB7BEB743
:103D30001196FC0184E101900D928150E1F70E94FF
:103D40004A148DB79EB744960FB6F8949EBF0FBE27
:103D50008DBF0E94281173C08091A4029091A5028A
:103D6000885A9E4F0E9447210E949F08882309F08D
:103D700066C08091A4029091A5020E9447210E94F2
:103D80009F08882309F45BC08091A4029091A5024A
:103D90000E9447218C01FC01E184F2848091A402FD
:103DA0009091A502885A9E4F0E944721FC0186816E
:103DB00090E0880F991F8E0D9F1DF80192878187D3
:103DC0008091A4029091A5020E944721FC010185E7
:103DD00012858091A4029091A5020E944721FC01C6
:103DE000878190858017910750F58091A40290916A
:103DF000A5020E9447210E94770B8091A402909116
:103E0000A5020E9447212DB73EB7245130400FB67E
:103E1000F8943EBF0FBE2DBFADB7BEB71196FC01E3
:103E200084E101900D928150E1F70E944A148DB710
:103E30009EB744960FB6F8949EBF0FBE8DBF80917B
:103E4000D0028823B9F58091A4029091A5020E9426
:103E50001E21882379F18091A4029091A502885AAD
:103E60009E4F0E941E21882329F18091A4029091E7
:103E7000A502885A9E4F0E9447210E949F088823CE
:103E800041F48091A4029091A502885A9E4F0E940D
:103E900014218091A4029091A5020E9447210E94C2
:103EA0009F08882349F48091A4029091A5020E9462
:103EB000142102C080E001C081E01F910F91FF90AA
:103EC000EF9008950E94FD18E091A402F091A502E0
:103ED000E55AFE4F8081882329F08EE192E060E26E
:103EE00071E004C08EE192E065E171E04EE10E9474
:103EF00039290E94F50D8091A4029091A5020E949B
:103F000014210E948E170E94E9170E94AB180E948C
:103F1000C6180E94451E8823A1F70E945A18809156
:103F2000A4029091A5020E941E21882311F080E036
:103F3000089583E608958CE692E066E67CE00E94B0
:103F4000D7268CE692E060E672E00E9473350E940C
:103F5000DD138CE692E068E572E00E9428358CE67D
:103F600092E066E572E00E9428358CE692E069E412
:103F700072E00E9473358CE692E067E472E00E9482
:103F800028358CE692E069E372E00E94733588E29E
:103F900092E064E00E947422882321F00E94951828
:103FA00080E0089588E292E066E00E94742288230F
:103FB00011F483E608958EE192E00E94D92980E011
:103FC00008958EE192E00E94512B882309F45CC091
:103FD0008091A602823309F448C0833330F48823E9
:103FE00059F0813009F04BC031C0833309F440C02F
:103FF000833609F044C03FC00E94CC128093A602D1
:1040000088E292E066E00E9474228823C1F18EE18A
:1040100092E06AE672E043E00E940A2C813039F0B7
:10402000823041F0882359F50E94681528C00E940B
:10403000FF1425C08EE192E00E94D9298EE192E022
:1040400060E772E048E20E94392919C00E94621FAD
:104050008093A602E1ECF2E08081882381F0319622
:1040600082E0E53CF807C1F70DC00E94280E05C0AC
:104070000E94F71102C00E949B1F8093A60210921B
:104080003602089583E6F9CF08950F931F93CF93D7
:10409000DF938EE192E00E94D42E8EE192E06CE7F5
:1040A00072E00E94CF2E8EE192E00E94062B80EB00
:1040B00091E00E94FB348C010E945621C8018A5A6B
:1040C0009F4F0E945621C80184559F4F0E94562140
:1040D000C8018E5F9E4F0E945621C801885A9E4F8C
:1040E0000E9456211093A5020093A40286E590E059
:1040F0000E94FB34182F092F0E945621E091A40240
:10410000F091A502EF01212F302FC901DC0186E5D6
:104110000D9009928150E1F7E155FE4F81E08083D7
:1041200086E590E00E94FB34182F092F0E9456214B
:10413000E091A402F091A502E85AFE4F212F302F02
:10414000C901DC0186E50D9001928150E1F70E94E2
:104150009518DF91CF911F910F9108956F927F92E3
:104160008F929F92AF92BF92CF92EF920F93DF9375
:10417000CF93CDB7DEB73C01522FFC01858184304F
:1041800008F046C090E0019624E130E0829FF00103
:10419000839FF00D929FF00D11240197E60DF71DFE
:1041A00060831182829FD001839FB00D929FB00DDA
:1041B0001124A60DB71D17960C93179716964C93BE
:1041C0001697FC01EE0FFF1FEE0FFF1FE80FF91F00
:1041D0003196EE0FFF1FEE0FFF1FE60DF71D468312
:1041E0001B964C931B9719965C9319971896EC9213
:1041F00018971C96CC921C971E96BC92AE921D9757
:1042000050969C928E921F97F30185818F5F8583D4
:10421000CF91DF910F91EF90CF90BF90AF909F9093
:104220008F907F906F9008952FEFFC012483089565
:10423000FC0115820895FC0164830895FC01258129
:1042400090E007C086817496181614F481E00895F2
:104250009F5F9217B8F380E0089520E0FC0185810C
:10426000843008F021E0822F089520E0FC01848151
:104270008F3F09F021E0822F089524E1629FB00171
:1042800011246A5F7F4F680F791FCB010895FC01ED
:10429000248184E1289F900111242A5F3F4F2E0F33
:1042A0003F1FC9010895FC0185810895EF92FF9297
:1042B0000F931F938C0106960E949408C8014A969A
:1042C0000E9494082EE2E22EF12CE00EF11EC701AE
:1042D0000E949408C70144960E949408F801158230
:1042E0008FEF84831F910F91FF90EF9008958823A3
:1042F00019F48CB5806202C08CB58F7D8CBD089599
:104300009CB5937F982B9CBD08952CB5382F3370A6
:104310002C7F322B3CBD2DB590E0959587959595DA
:10432000879581702E7F822B8DBD08958AE061E094
:104330000E9489348AE061E00E941D348CB580615E
:104340008CBD8CB580648CBD8DE061E00E941D3415
:104350008BE061E00E941D340895FC0181E08083C0
:10436000089585E070E00E94BD3308956F927F92BA
:104370008F929F92AF92BF92CF92DF92EF92FF9275
:104380000F931F93CF93DF93EC0189819A818C0166
:1043900024E0000F111F2A95E1F7081B190B85E196
:1043A0000E949B33BC01600F711F84E07695679576
:1043B0008A95E1F77A8369838881882381F12E8148
:1043C0003F816217730710F4B90106C0888599858B
:1043D0008617970708F4BC0100D000D080E090E079
:1043E00040E050E0E884F98400E010E0AD80BB24B8
:1043F000CC24DD246C80772488249924EDB7FEB783
:1044000061827282838294820E94DD366B830F9078
:104410000F900F900F9085E070E00E94BD33DF9108
:10442000CF911F910F91FF90EF90DF90CF90BF90B1
:10443000AF909F908F907F906F900895FC018CE3D8
:104440009FE09383828384E0818381E08487089561
:10445000CF93DF93EC018C8590E08F719070892B66
:1044600069F584E10E949B33AA2797FDA095BA2F96
:10447000BC01CD010E949C3726EE3FE34EEC50E498
:104480000E9428380E946E379B01AC017B836A83AF
:104490006115710589F084E08983B901FE0120E08E
:1044A000848195816817790710F429830AC02F5FEA
:1044B00032962430A9F702C08FEF89838C858F5FF5
:1044C0008C87DF91CF910895FC0188E0808389E09B
:1044D000818387E0828386E0838384E0848382E033
:1044E000858381E18683089520E0FC01E60FF11DBC
:1044F0008781813009F421E0822F0895E62FF0E0D2
:10450000423040F420E0E80FF91F878181508E3F50
:1045100088F40FC0E80FF91F87818F3F11F420E066
:1045200009C020E090E0642F70E00E94C33801973A
:1045300009F421E0822F08950F931F93CF93DF9307
:10454000EC0110E00FEF888162E00E941D34888149
:104550000E94BC342F81892B19F42F5F2F8307C051
:10456000222349F02F3F11F41F8201C00F8388815D
:1045700060E00E941D341F5F2196173021F7DF9104
:10458000CF911F910F910895FC01742F643508F0AD
:104590005DC047FD5BC040330CF058C0878D823052
:1045A00019F5842F859585958595992787FD909593
:1045B000462F552747FD509524E530E0829FF001B6
:1045C000839FF00D929FF00D1124E40FF51FE05230
:1045D000FC4F808190E0272F277002C0959587952A
:1045E0002A95E2F780958170972F959595959595E9
:1045F000462F552747FD5095272F27708823A1F474
:10460000E4E59E02F0011124E40FF51FE052FC4F97
:1046100081E090E002C0880F991F2A95E2F780950B
:104620002081282320830895E4E59E02F0011124CF
:10463000E40FF51FE052FC4F81E090E002C0880FCC
:10464000991F2A95E2F72081282B20830895FC01E9
:10465000678F60A30895FC01678F40A30895AF9210
:10466000BF92CF92DF92EF92FF920F931F93CF935F
:10467000DF93EC01162FF42EE22EAA24402F5527AB
:1046800047FD50958F2D992787FD9095481B590B15
:1046900057FF03C0509541955F4F2E2D332727FDBF
:1046A0003095812F992787FD9095281B390B37FF6F
:1046B00003C0309521953F4F2417350744F4AA24B1
:1046C000A3948F2DF12E182F802F0E2DE82EE1169A
:1046D00034F48E2DE12E182F802F0F2DF82EDE2C86
:1046E000D11A202F332727FD30958F2D992787FD4D
:1046F0009095281B390B37FF03C0309521953F4F0C
:10470000B22EF0161CF0CC24CA9402C0CC24C39460
:104710008D2DD7FC8F5F082F059511C0AA2021F0A1
:10472000CE016F2D412F03C0CE01612F4F2D0E946E
:10473000C4220B1907FF02C0FC0C0D0D1F5FE11610
:104740006CF7DF91CF911F910F91FF90EF90DF9069
:10475000CF90BF90AF9008950F93042F322F262F44
:104760002150230F0E942F230F9108950F93362F6E
:10477000042F0150020F232F0E942F230F91089521
:104780009F92AF92BF92CF92DF92EF92FF920F93E0
:104790001F93CF93DF936C01B62E942EA02EC0E012
:1047A000D0E0E62EFF24E7FCF094022F112707FD4E
:1047B00010950E0D1F1D06C0C601492D2A2D0E9401
:1047C000B62321966B2D6C0FCE018E0D9F1D801789
:1047D000910794F3DF91CF911F910F91FF90EF908C
:1047E000DF90CF90BF90AF909F9008952F923F920F
:1047F0005F926F927F928F929F92AF92BF92CF9271
:10480000DF92EF92FF920F931F93DF93CF9300D02D
:1048100000D000D0CDB7DEB79E838D83C62ED42EB8
:10482000EE24E394E21A8EEF289F502C1124842E5C
:104830008A94962E9A94A42EA394B62EB394F22E14
:10484000662423E0722E10E0C801847090709A8371
:104850008983F801E270F070FC83EB8398E0292EE5
:10486000312C202231220170107054C0E7FC04C0AA
:10487000FA94F2E05F0EE50C639489819A81892BAA
:1048800071F04F2D4D0D8D819E816B2D0E94C422A4
:104890006F2D6C0D8D819E814A2D0E94C422EB816B
:1048A000FC81EF2B71F04D2D4F198D819E816B2D69
:1048B0000E94C4226F2D6C0D8D819E81482D0E9417
:1048C000C4222114310471F06C2D6F198D819E81E9
:1048D0004A2D0E94C4224F2D4D0D8D819E81692D40
:1048E0000E94C4220115110571F06C2D6F198D8184
:1048F0009E81482D0E94C4224D2D4F198D819E818D
:10490000692D0E94C422E70CF2E07F0E8A949A94EB
:10491000A394B3946F140CF4A9CF26960FB6F89411
:10492000DEBF0FBECDBFCF91DF911F910F91FF90E2
:10493000EF90DF90CF90BF90AF909F908F907F903F
:104940006F905F903F902F9008954F925F926F927B
:104950007F928F929F92AF92BF92CF92DF92EF920F
:10496000FF920F931F93CF93DF93EC01A62E742E2B
:104970009E2DFF24F394F21A8EEF289F802C112491
:10498000B42EBA9453E0C52ECE0CE22EDD2443E0C3
:10499000942E10E031E0432E512C40225122692EFA
:1049A00063940270107034C0F7FC04C0EA9482E093
:1049B000880EF80CD3944114510489F06D2D6A0DC2
:1049C000472D4E192E2D220F260DCE010E94B62303
:1049D0006E2D6A0DCE014B2D2C2D0E94B623011594
:1049E000110589F06A2D6D19472D4E192E2D220FB4
:1049F000260DCE010E94B6236A2D6E19CE014B2DD5
:104A00002C2D0E94B623F90C82E0980EBA94C80EA1
:104A1000DE1454F2DF91CF911F910F91FF90EF9030
:104A2000DF90CF90BF90AF909F908F907F906F90CE
:104A30005F904F9008957F928F929F92AF92BF9216
:104A4000CF92DF92EF92FF920F931F936C01962EFD
:104A5000A42EF22E7E2C760E1EEFE19E102D112438
:104A6000812E820E672D282D0E94AC23B02EBA0C09
:104A7000BA94C601672D4B2D282D0E94AC23AE0C95
:104A8000100FC601692D4A2D212F0E94B623F90C63
:104A9000FA94C6016F2D4A2D212F0E94B623C6011C
:104AA000672D4A2D2E2D01E00E94F623FE18C60127
:104AB0006F2D4A2D2E2D02E00E94F623BE18C6014E
:104AC0006F2D4B2D2E2D04E00E94F623C601672D7D
:104AD0004B2D2E2D08E00E94F6231F910F91FF9081
:104AE000EF90DF90CF90BF90AF909F908F907F908E
:104AF00008958F929F92AF92BF92CF92DF92EF92E2
:104B0000FF920F931F936C01162FA42E922EF02E5E
:104B1000BE2C8E2C860E2EEFE29EE02C11242E2D24
:104B2000290D682D0E94C023AB0CFA94FE0C115085
:104B3000190D1B19C601612F4A2D2B2D01E0EF2CF9
:104B40000E94A524C601682D4A2D2B2D02E00E944B
:104B5000A5241F910F91FF90EF90DF90CF90BF9011
:104B6000AF909F908F9008953F924F925F926F9277
:104B70007F928F929F92AF92BF92CF92DF92EF92ED
:104B8000FF920F931F93CF93DF934C01362E442E49
:104B9000F901A490319654906F010894C11CD11C66
:104BA0008A2D992787FD9095079668E070E00E940E
:104BB000D738E62EFF24E7FCF09400E0C0E0D0E018
:104BC00060E8662E712C26C0E12FE595E595E59508
:104BD000FF27E7FDF095EC0FFD1FEC0DFD1DE491A7
:104BE0002E2F30E0812F8770A30102C05595479585
:104BF0008A95E2F724233523232B31F0612F630DAF
:104C0000C4014B2D0E94C4221F5F1A15ECF20F5FE6
:104C1000CE0DDF1D051524F410E0B02EB40CF5CF39
:104C2000DF91CF911F910F91FF90EF90DF90CF9088
:104C3000BF90AF909F908F907F906F905F904F90BC
:104C40003F9008952F923F924F925F926F927F9282
:104C50008F929F92AF92BF92CF92DF92EF92FF928C
:104C60000F931F93DF93CF9300D000D00F92CDB757
:104C7000DEB73C01862E4A83F901BE2C002329F4BD
:104C8000EE2019F40E94B4257AC0A4903196949035
:104C90001F010894211C311C037009838A2D992758
:104CA00087FD9095079668E070E00E94D738462E01
:104CB000552447FC5094C92CCA94FF241D821C82A1
:104CC0004A2D41504B8356C0E02FE595E595E5957B
:104CD000FF27E7FDF0958C819D81E80FF91FE20D1C
:104CE000F31DE4912E2F30E0802F8770A0E8B0E014
:104CF00002C0B595A7958A95E2F72A233B23232B7B
:104D000061F1B981B13051F0B13028F0B23049F0E1
:104D1000B33061F409C0102FEF2C08C0ED2C1F2D0B
:104D200005C01D2DEC2C02C01C2DE02EBB2069F00F
:104D3000E3E0BE228B2DB0FE03C0FA2DF11B1F2F26
:104D400081FF03C0492D4E19E42E180D5A81E50E3E
:104D5000C301612F4E2D0E94C4220F5FDA940A1501
:104D60000CF4B2CFF3948C819D81840D951D9D83AD
:104D70008C83CA94F9141CF4DB8000E0F0CF0F9010
:104D80000F900F900F900F90CF91DF911F910F9187
:104D9000FF90EF90DF90CF90BF90AF909F908F905B
:104DA0007F906F905F904F903F902F900895DC011F
:104DB000FB0184918F5F14968C93149731968491A4
:104DC0008F5F15968C93159731965E96FC93EE93B4
:104DD0005D9708953F924F925F926F927F928F926C
:104DE0009F92AF92BF92CF92DF92EF92FF920F937A
:104DF0001F93CF93DF93EC01862EA42E422F102F0A
:104E00003F8C23E526170CF4ABC03FE23A150CF4B7
:104E1000A7C0C02EDD248C8190E001979C01C29E2A
:104E2000C001C39E900DD29E900D1124262F3327D2
:104E300027FD3095820F931F181619060CF090C0AD
:104E40008D8190E09C01C29EC001C39E900DD29EB8
:104E5000900D11242A2D332727FD3095820F931FA3
:104E6000181619060CF07CC09924442E55246DC0E8
:104E70009C01215030404217530711F460E00EC0EE
:104E8000429EC001439E900D529E900D1124840FAE
:104E9000951FED8DFE8DE80FF91F64914C9DC001AB
:104EA0004D9D900D5C9D900D1124682C680EBB24C7
:104EB000792C780C3FC0E62EFF2460FF19C011301A
:104EC00039F44B2D4A0DCE01672D0E94C4222EC00D
:104ED0002C9DC0012D9D900D3C9D900D11244A2DBF
:104EE000480FCE01662D212F012F0E94C0231EC026
:104EF00098A18F8D9817D1F09F8F113039F44B2DD9
:104F00004A0DCE01672D0E94C4220FC02C9DC00106
:104F10002D9D900D3C9D900D11244A2D480FCE01E2
:104F2000662D212F012F0E94C0233F8EF594E79418
:104F30006E2DB3942B2D332727FD30958D8190E076
:104F4000281739070CF4B7CF9394492D552747FDFF
:104F500050958C8190E0481759070CF489CF3F8E0B
:104F6000DF91CF911F910F91FF90EF90DF90CF9045
:104F7000BF90AF909F908F907F906F905F904F9079
:104F80003F9008950F93CF93DF93EC01262F6A3063
:104F900049F48D819885899F802D11249A85980FD9
:104FA0009A8726C06D3029F169854A8508850E9457
:104FB000EA269C816885969F402D11248985480F9B
:104FC00049878F818823A9F0552747FD5095699F10
:104FD0009001112484E590E0821B930B84179507C0
:104FE00044F49D81699F902D11248A85890F8A87B9
:104FF000198681E090E0DF91CF910F9108951F9382
:10500000CF93DF93EC01162FF8948E8560E00E9419
:1050100089348F8518161CF460E00E9489341EBD07
:105020000DB407FEFDCF8EB58F8518161CF461E018
:105030000E9489347894DF91CF911F910895FF9257
:105040000F931F93CF93DF93EC01FF2400E010E058
:105050006F2D6064CE010E94FF27CE0160E80E94A0
:10506000FF278E8561E00E9489348F8518161CF415
:1050700060E00E948934F801E052FC4F90E08081AA
:105080008EBD0DB407FEFDCF8EB59F5F3196943572
:10509000B1F78F8518161CF461E00E948934F394EF
:1050A0000C5A1F4F86E0F81699F6CE0160E40E9474
:1050B000FF27DF91CF911F910F91FF900895CF931C
:1050C000DF93DC0188EF91E0E0EEF3E0EF019C017B
:1050D000199221503040E1F719961C9219971A96AF
:1050E0001C92DF91CF910895EF920F93CF93DF93AE
:1050F000EC014D876C872E87E88A0F8781E08887CF
:105100008F8F18A28F83CE0164EE7AE00E94D7269B
:105110000E94962181E00E94772185E00E948521EE
:105120008CE00E9480218D8561E00E941D348C8579
:1051300061E00E941D348E8561E00E941D348889E3
:1051400018161CF461E00E941D348F8518161CF49B
:1051500061E00E941D34888918166CF460E00E949A
:1051600089346AE070E080E090E00E943A338889F8
:1051700061E00E948934EC852E2F332727FD30957E
:10518000F901EB56FF4EE491F0E0EE0FFF1FEF57F1
:10519000FF4E859194919C8B8B8B27553F4EF90147
:1051A00084918A8FED852E2F332727FD3095F901C5
:1051B000EB56FF4EE491F0E0EE0FFF1FEF57FF4E6E
:1051C000859194919A8B898B27553F4EF901849153
:1051D000898FEF852E2F332727FD3095F901EB5668
:1051E000FF4EE491F0E0EE0FFF1FEF57FF4E859169
:1051F00094919E8B8D8B27553F4EF90184918B8F17
:10520000EE852E2F332727FD3095F901EB56FF4E03
:10521000E491F0E0EE0FFF1FEF57FF4E8591949160
:10522000988F8F8B27553F4EF90184918C8FCE013B
:1052300061E20E94FF27CE0164E10E94FF278B8577
:1052400087FF02C08FE78B876B856068CE010E9465
:10525000FF27CE0160E20E94FF27CE016CE00E9492
:10526000FF27CE010E941F28DF91CF910F91EF9071
:105270000895FC01ED57FF4F61937193445F4083A4
:105280000895CF93DF93DC01E0E8F7E785919491EF
:10529000ED01C75ADF4FAD0141595F4F8150904C2E
:1052A00009F04EC0E6E9F7E7E491E883E7E9F7E7BC
:1052B000E4911496EC931497E8E9F7E7E4911596D6
:1052C000EC931597E9E9F7E78591949117969C93EC
:1052D0008E931697EBE9F7E78591949119969C9335
:1052E0008E931897EDE9F7E7E4919B96EC939B97E3
:1052F000EEE9F7E7E4919A96EC939A97EFE9F7E7EE
:10530000E491EA01E883E0EAF7E7859194915D96FC
:105310009C938E935C97E2EAF7E7859194915F9670
:105320009C938E935E97E4EAF7E78591949191962A
:105330009C938E939097E6EAF7E78591949132C01B
:105340008CE3888314961C9214972FEF15962C9358
:10535000159780E293E017969C938E93169784EDB1
:1053600093E019969C938E93189781E09B968C936B
:105370009B979A968C939A97FA0120838CEA9DE0EA
:105380005D969C938E935C978EED9DE05F969C93CB
:105390008E935E9784E79EE091969C938E93909770
:1053A0008CE39FE093969C938E939297DF91CF919D
:1053B0000895EF92FF920F931F93CF93DF937C0199
:1053C0008C01025B1F4FC8010E945F28C8016DE07D
:1053D0007FE00E942835C8010E941F2883E00E94B8
:1053E000852188E991E0EEEFFFE3099584E590E0FF
:1053F000E80EF91EF7011082C80168EE7EE00E94F7
:105400007335C8010E941F28E701CA54D040CE015D
:105410000E949C22CE0164E00E947422882339F409
:1054200062E370E080E090E00E943A33F0CFDF91D9
:10543000CF911F910F91FF90EF9008950F931F93BD
:10544000CF93DF93EC018C01025B1F4FC80161E039
:1054500040E00E942B23FE01E95AFF4FCE5ADF4F56
:1054600085E59881891B808326961882C855D0408F
:10547000698D613009F43EC0613028F0888D653057
:1054800008F051C04BC0CE0185960E94D92FCE01A5
:1054900060E00E94B121C8010E945F28CA5ADF4F14
:1054A00081E08883C655D040C80169E47FE00E944E
:1054B00028356A8D7B8DC8014AE050E00E9416367F
:1054C000C80165E37FE00E942835C8010E941F28BB
:1054D00083B7817F846083BF83B7816083BF83B7D5
:1054E000816083BF889583B78E7F83BF83B78E7FAC
:1054F00083BF1FC0C059DF4F88819981AA81BB81BA
:105500008F709070A070B0700897A105B10518F465
:10551000C80167E00CC0C80168E709C0882349F0EA
:105520006B5FC80104C0882321F0C8016FE20E94AC
:105530004B35DF91CF911F910F910895AF92BF929C
:10554000CF92DF92EF92FF920F931F93CF93DF934F
:10555000EC01CB57DF4F8881C558D040882309F430
:105560004AC08C3010F010E002C01CE0181BCA5A70
:10557000DF4F81E08883C655D0406EE4C62ED12C23
:10558000CC0EDD1EC60160E00E94272353E5A52E48
:10559000B12CAC0EBD1EF50100814DE2F42E4F2D55
:1055A000401B410F0D5FC60160E024E533E0E32EB0
:1055B0000E947925C60161E00E942723F501008140
:1055C000F01AF10E0D5FC60160E04F2D24E50E9438
:1055D0001B25C95ADF4F84E08993F5018081181B90
:1055E000115D1883AB9669917991C6010E942835A7
:1055F000888181508883DF91CF911F910F91FF9017
:10560000EF90DF90CF90BF90AF9008954F925F9250
:105610006F927F928F929F92AF92BF92CF92DF92C2
:10562000EF92FF920F931F932C01FC01628C738CFD
:1056300060947094882499240E9414335B016C0157
:105640000E9414337B018C01F201418052800E9440
:105650001433460E571EA094B094C094D094E09496
:10566000F09400951095C601B501A80197010E941C
:105670008B38A40193010E948B38460E571EC2013D
:105680000E9466371F910F91FF90EF90DF90CF90AF
:10569000BF90AF909F908F907F906F905F904F9052
:1056A0000895AF92BF92CF92DF92EF92FF920F9345
:1056B0001F93CF93DF93EC01EFE7AE2EB12CA80E32
:1056C000B91EF501E080F180028113810E9406334A
:1056D000E61AF70A080B190B7EE7C72ED12CCC0E61
:1056E000DD1EF601808190E0A0E0B0E08E159F0500
:1056F000A007B10708F081C08E0106581F4FF801BE
:1057000080819181A281B3810097A105B10509F43F
:1057100074C00E940633F6012081620F711D811D45
:10572000911DF5016083718382839383FE01E059AB
:10573000FF4F80819181A281B3810196A11DB11D8E
:1057400080839183A283B383F80110821182128235
:1057500013820E941433CA58DF4F688379838A8387
:105760009B83C657D040CE010E94B621CE010A9637
:105770000E949C22CE0148960E94282281E032C0DD
:105780008E010B5D1F4FC8010E942730C8010E9487
:105790009E30C8010E948131CE010E949E2ACE0116
:1057A0000E941E2A8E01025B1F4FC8010E941F2803
:1057B000CC5ADF4F8881C455D040882319F4C801E2
:1057C0000E945F280E941433C658DF4F6883798394
:1057D0008A839B83249728813981621B730B7A9378
:1057E0006A9380E0DF91CF911F910F91FF90EF902E
:1057F000DF90CF90BF90AF900895C658DF4F88815B
:105800009981AA81BB81CA57D0400097A105B105F3
:1058100041F7B6CF2F923F924F925F926F927F9255
:105820008F929F92AF92BF92CF92DF92EF92FF92B0
:105830000F931F93DF93CF93CDB7DEB762970FB669
:10584000F894DEBF0FBECDBF6C016C837D834B83AC
:1058500024E530E0C20ED31EF60110822CEA3FEFA1
:10586000C20ED31E1AE0A12EB12CAC0CBD1CB5E2A9
:105870002B2E312C2C0C3D1CAEE44A2E512C4C0C02
:105880005D1C1A823FEF398310E0F0E37F2E66241F
:10589000A601495A5F4F5F834E83C601885A9F4FC6
:1058A00099878887F601EA5AFF4FFB87EA879601B6
:1058B0002B5A3F4F3D872C87E3E58E2E912C8C0C85
:1058C0009D1C5B81452F50E05F874E878B81815007
:1058D000888BC6010E94512B8823D9F3C50164E04F
:1058E0000E947422882369F4C50165E00E94742235
:1058F000882339F4C50166E00E947422882309F4E4
:10590000D3C0F4010081C50164E00E9474228823A1
:1059100029F0C1010E94DE311983CBC0C1010E9470
:10592000E431C7C0C50163E044E00E947E228823C1
:1059300021F01F5FC1010E94EA31C50161E044E02E
:105940000E947E22882321F01150C1010E94EA3179
:10595000812F992787FD90952E853F858217930784
:1059600011F410E002C017FD1889F4018081819FB5
:10597000902D11248C5F682E691A28C0872D9927D5
:1059800087FD9095262D332727FD3095821B930B9D
:105990000297D4F4898162960FB6F894DEBF0FBEE9
:1059A000CDBFCF91DF911F910F91FF90EF90DF90CE
:1059B000CF90BF90AF909F908F907F906F905F90AF
:1059C0004F903F902F900895F1E0FA83862D99270C
:1059D00087FD9095272D332727FD3095820F931F44
:1059E00062E070E00E94D738762EEE81FF8110824F
:1059F000E885F985608321E0EA85FB852083EC85D5
:105A0000FD8510822C813D81C9019A8B898B00E034
:105A1000E12EFF24E7FCF09420C0802F90E08E154B
:105A20009F0569F423E0EE81FF812083F4018081EA
:105A30008E9D802D1124870DE885F9858083E98965
:105A4000FA8965917491C2010E9473350F5F2989AB
:105A50003A892E5F3F4F3A8B298B3B810317E8F23F
:105A6000C20160E00E942723F40140814E9D402D39
:105A700011244150470DC20160E024E50E94AC238F
:105A8000C20161E00E942723F40100810E9D402D98
:105A900011244250470D0D5FC20160E024E573E020
:105AA000E72E0E941B2515CFFA81FF2309F066CF50
:105AB00039CF802F90E0909581959F4F2E853F851F
:105AC000AC01249FC001259F900D349F900D11249F
:105AD0006EEF662E680E52CF2F923F924F925F92DA
