:100000000C9446040C946E040C946E040C946E04D0
:100010000C946E040C946E040C946E040C946E0498
:100020000C946E040C946E040C946E040C94931D4A
:100030000C946E040C946E040C946E040C946E0478
:100040000C94971E0C946E040C946E040C946E0425
:100050000C946E040C946E040C946E040C946E0458
:100060000C946E040C946E044D6169732071756577
:100070002021202E2E2E001010000000000000076E
:10008000C01C00301020F063804C00183810E011C4
:100090008003000200000000003010FFFFFFFFFFA0
:1000A000F8800004000008800004000008800000C0
:1000B000000008802000008008802000008008FFE9
:1000C000FFFFFFFFF8C00000000000C000000000BC
:1000D00000C00000000000C00000000000C00000E0
:1000E000000000C00000000000C00000000000C0D0
:1000F0000000000000C00000000000301000000000
:1001000000001800000000001800000000001800A7
:1001100000000000180000000000180000000000AF
:100120001800000000001800000000001800000087
:10013000000018FFFFFFFFFFF88008000020088084
:100140000800002008800000000008800001000076
:1001500008800001000008FFFFFFFFFFF8C604D27F
:1001600004DC04E704456E206176616E742100555D
:100170006E2073706163656D6F6E20617474617160
:100180007565210046757475726F6D6F6E00F304AE
:10019000FA0402050705F304FA040E050705F30443
:1001A000FA0412050705F304FA04190507051818DF
:1001B000000800003400003400006E00006E0001F2
:1001C000E7800318C00608600C0830080018180003
:1001D0000831E3CC20630460630640000240000362
:1001E000C00001800001800001F8FE1F84E021FCB6
:1001F000E03FAA0055FFFFFF181800080000340078
:10020000003400006E00006E0001F7800310C0068D
:1002100038600C6C3008461818830831118C21188E
:10022000C4612C46412842432843C624518C267D74
:100230008C6625BCD735A8BB1FE8A809880009FF34
:10024000FFFF18180000800003C00006E0000DA0AA
:100250000039380067EC007C3E01C0070300070648
:1002600000090CF819081811100825300065200045
:100270004D2040592FC07D40404540004543FE6120
:100280004E03E178007B60000FC0000318180000E7
:10029000000000000000800001800002C01C05403A
:1002A000178F4034FA40643A40463E60C203A09241
:1002B00000E09200309303588903FC89020689000C
:1002C0000291002391003992006FA20001A63FFD28
:1002D00087E007FE0001181800000000000000FF82
:1002E000C007C8F81E083E3FFFFF7FE3FF5C000E1B
:1002F0004C738C5F73B873003D3300471E1E2E0F86
:10030000807C01E3E001E1C007807008001808006C
:100310000C107F0630E3867FE3FFE7C1E78800111A
:10032000181800000000000000FFC007C8F81E08F1
:100330003E3FFFFF7FE3FF5C220E4C220C5FE37821
:1003400073E3FD3363471E232E0FE1FC01E3E0015D
:10035000E1C007807008001808000C107F0630E329
:10036000867FE3FFE7C1E78800111818000000004E
:1003700000000000005545545545545545547FC76D
:10038000FC4044044044047DC7DC05005005005097
:100390000F1C5009B6D818E3881780C81C007831A4
:1003A000FF9878E71E4C4233C40061FE7C7FAB00AF
:1003B00055FFFFFF18180000000000000000005566
:1003C00045545545545545547FC7FC40440440446A
:1003D000047DC7DC0500500500500F1C5009B6D83D
:1003E00018EB881794C81C2678326B187689DE447F
:1003F000DE43C5D259CD134D892061FFFFFF0808A8
:100400000024420810422400080800420018180086
:100410004200080808484A4A4A4A0A080808BD66CD
:10042000E79999E766BD080805020500A04AA40AF5
:100430000808005004400210024008080004445517
:100440005555555508083C26DBA5AD93443C080896
:100450007E547C107C10284408083E343C101C104C
:1004600010180808FC7C7C107C10284408087C2CA0
:100470003C083808081808087E547C107C10282096
:1004800008087E547C107C10280808083E343C1074
:100490003050284408083E343C141810181408083A
:1004A000FC7C7C107C1028200808FC7C7C107C10D4
:1004B000280808087C2C3C080C0A142208087C2C0C
:1004C0003C28180818284D6563686542697A61728E
:1004D0006400466C6F7474696C6C65004368616D90
:1004E0007069466F7274005465727261426166662B
:1004F0006C65004368617267650045737175697664
:10050000650046657578004368616E676500456102
:100510007500506C616E74650074657272650003DD
:10052000053F213F1208120A100A0E1C0E0C1E0C69
:10053000141A14161F161E131E1E1B1E1E1F1E3FEE
:10054000213F3A2F3A173D173F213F181F02040A57
:10055000041F0E04040E1F0A1F0A0E0E1F04110EA4
:100560002E252E2F2A2E262929021F02081F0815A4
:100570000E04040E150E15151B151B040604040CA1
:10058000040000000017000300031F0A1F16371A9B
:100590001904130A153A000300000E11110E000A87
:1005A000040A040E040030000404040010001804BF
:1005B000031F111F121F101D151711151F07041FF0
:1005C00017151D1F151D01011F1F151F17151F00D2
:1005D0000A00003200040A110A0A0A110A0401156D
:1005E000020E11171E051E1F150A0E110A1F110EED
:1005F0001F15111F05010E111D1F041F111F1108CA
:10060000100F1F041B1F10101F061F1E040F0E11BA
:100610000E1F09060E112E1F051A121509011F01C2
:100620001F101F0F180F1F0C1F1B041B031C031987
:100630001513001F11030418111F000201022020CE
:10064000200001020C121E1F120C0C12120C121FA1
:100650000C1A14041E05242A1E1F021C141D10202F
:10066000201D1F0814111F101E041E1E021C0C1238
:100670000C3E0A040C123E1E040214160A020F124B
:100680000E101E0E100E1E081E120C1226281E32F0
:100690002A26041E21001F00211E040102013F2101
:1006A0003F0A4E6F2053442063617264206F720AC8
:1006B0006E6F204C4F414445522E4845580A0A154A
:1006C0003A45786974001D20466C617368696E67ED
:1006D0000A20206C6F616465722E2E2E0A0A444F28
:1006E0004E2754205455524E204F464621006D56F9
:1006F0000A0A504C454153450A5455524E204F4624
:1007000046004C4F5720424154544552590A001755
:100710007361766500166261636B001574797065AC
:10072000000A0A0A153A6F6B617920163A65646906
:100730007400596F7520656E74657265640A0054A3
:100740000A03E181867F3E186D830F0F0E018386B9
:100750006033186DC3198F1803C38E6033186DE3AF
:1007600030CF1803C39E603630CDE360CF3006C76C
:100770009E7E3E30CDB360CF300CC6F6603330D9AC
:10078000B660CF33CFCCF66061B0DB1E60CF30D81F
:100790006CE6C061B0DB1E618F19986CC6C063B196
:1007A0009B0E330F0FB078C6FF7E1F1B061E0F1760
:1007B000534400161378001613140015102000156A
:1007C00020100000000500893008023802497868CE
:1007D00014000045006801000005006801380100B0
:1007E000000500380168010000F6E8DBCFC3B8AEB1
:1007F000A49B928A827B746E68625C57524E494514
:10080000413E3A3734312E2C29272523211F1D1C28
:100810001A1917161514131211100F0E0D0C0B0ABE
:100820000908070628082C080101F7030101FF0346
:1008300000000000240027002A000000000025001E
:1008400028002B00000000002300260029000404DB
:100850000404040404040202020202020303030368
:100860000303010204081020408001020408102044
:10087000010204081020000000070002010000032C
:1008800004060000000000000000D30411241FBE75
:10089000CFEFD8E0DEBFCDBF11E0A0E0B1E0E6ECE5
:1008A000F9E402C005900D92A435B107D9F714E020
:1008B000A4E5B1E001C01D92AB3FB107E1F718E03C
:1008C000CCE8D8E004C02297FE010E944524CA3833
:1008D000D107C9F70E94C5200C94E1240C940000B4
:1008E000FC0116868FEF818B0895FC01618B0895C2
:1008F0002FEFFC01218B0895FC01808124E6820208
:10090000C0011124648170E00E94F323862F0895B2
:10091000813061F0813028F0823081F08330F1F451
:1009200015C06623E1F428EF31E01BC0662319F4FB
:100930002CE832E016C022E432E013C0662319F43A
:1009400020E233E00EC026ED32E00BC0662319F43E
:1009500024EB33E006C02AE633E003C008952EEA14
:1009600031E0C9010895813039F0813078F082306A
:1009700031F0833051F406C026E931E009C02EE998
:1009800031E006C026EA31E003C008952EE831E0E8
:10099000C9010895689FC001112464E670E00E94B7
:1009A000F323862F08951092A5011092A4018FE4DD
:1009B00091E09093A3018093A2010895EF920F9389
:1009C0001F93CF93DF930091E1021091E202809197
:1009D000E9029091EA02081B190B2091E302309181
:1009E000E4024091EB025091EC02C801409685363A
:1009F000910570F5E901C41BD50B8FEFC03FD807F7
:100A00003CF1C133D10524F5E091ED028091EE0275
:100A1000882379F02E2F220FE22FEC5F8091C40102
:100A20009091C50168E070E00E94F32304970CF0F8
:100A3000EF5FF0E0EE0FFF1FE35DFE4F208131819D
:100A400082EA91E0602F4C2F00E0EE240E94FB111F
:100A5000DF91CF911F910F91EF9008958F929F9208
:100A6000AF92BF92CF92DF92EF920F93CF93DF932B
:100A7000CC24DD248824992443C0F5010081809191
:100A8000E9029091EA02BE01681B790B4091EB02EA
:100A90005091EC02CB0108968D359105F0F4C4011C
:100AA000841B950BAC019FEF483F5907B4F04133CD
:100AB00051059CF4E02FF0E0EF73F070EE0FFF1F94
:100AC000E35EFE4F20813181029506950695037005
:100AD00082EA91E0EE240E94FB11E0E1F0E0AE0E2C
:100AE000BF1E2896C038D10541F60894C11CD11C00
:100AF00088E090E0880E991E90E1C916D10449F073
:100B000051EEA52E51E0B52EAC0CBD1CC0E0D0E0DE
:100B1000B4CFDF91CF910F91EF90DF90CF90BF9046
:100B2000AF909F908F90089568EE73E080E090E022
:100B300024EC39E040E050E00E9471222091DD0178
:100B40003091DE01A901449F9001459F300D549FD3
:100B5000300D1124621B730B7093F1026093F0024D
:100B60000895CF92DF92EF92FF920F931F93CF934E
:100B7000DF938091DD019091DE0101969093DE017B
:100B80008093DD0160E070E080E090E022E030E002
:100B900040E050E00E947122D62EDD0CDD0C01EE0B
:100BA00011E0E801F3E0EF2EED0C60E070E080E092
:100BB00090E024E030E040E050E00E947122629535
:100BC000660F660F607C6E0D688360E070E080E009
:100BD00090E024E030E040E050E00E947122C051FB
:100BE000DF4F6295660F660F607C6E0D6883CF5E87
:100BF000D04081E0C13FD807C1F660E070E080E0FE
:100C000090E024E030E040E050E00E9471226295E4
:100C1000660F660F607C6E0DF801608360E070E027
:100C200080E090E024E030E040E050E00E9471225B
:100C30006295660F660F607C6E0DF8016787005F36
:100C40001F4FF2E0013E1F07C1F660E070E080E058
:100C500090E022E030E040E050E00E947122F62E69
:100C6000FD0C01E010E02AC060E070E080E090E060
:100C700027E030E040E050E00E94712261157105EC
:100C80008105910511F4E88210C060E070E080E019
:100C900090E024E030E040E050E00E947122629554
:100CA000660F660F607C6F0D68836096CC15DD055E
:100CB000D9F60F5F1F4F0F30110551F0E801CF50EB
:100CC000DE4FE1EDCE2EE2E0DE2EC00ED11ECCCF07
:100CD00082E08093610282E48093700282E88093D4
:100CE000E90182EC8093D9020E949405DF91CF91B3
:100CF0001F910F91FF90EF90DF90CF9008950F9389
:100D00001F93CF93DF938091EE02C091E502D091C3
:100D1000E602882391F18091E1029091E202FE01C6
:100D200053E0EE0FFF1F5A95E1F78E179F0759F01A
:100D30008E179F0714F4019601C001979093E20269
:100D40008093E10207C18091E3029091E402209137
:100D5000E7023091E80243E0220F331F4A95E1F7A2
:100D60008217930739F08217930714F40196EEC0A7
:100D70000197ECC01092EE02EDC00091E7021091D5
:100D8000E8028EE591E062E044E00E94570E88237D
:100D900081F08091E5029091E602419660E170E079
:100DA0000E94F3239093E6028093E50281E0809312
:100DB000ED028EE591E060E044E00E94570E88234A
:100DC00081F08091E5029091E6020F9660E170E07B
:100DD0000E94F3239093E6028093E50283E08093E0
:100DE000ED028EE591E063E044E00E94570E882317
:100DF00079F08091E7029091E802419660E170E01D
:100E00000E94F3239093E8028093E7021092ED0290
:100E10008EE591E061E044E00E94570E882381F066
:100E20008091E7029091E8020F9660E170E00E94E5
:100E3000F3239093E8028093E70282E08093ED022F
:100E40008091E702E091E502F0E094E0EE0FFF1FF1
:100E50009A95E1F7E80FF11DEF51FE4FE081EF7336
:100E6000E33011F0E730A9F4D093E602C093E50235
:100E70001093E8020093E702EC2FF0E084E0EE0F1D
:100E8000FF1F8A95E1F7E00FF11DEF51FE4FE08162
:100E9000EF738091E5029091E602C817D90741F4FB
:100EA0008091E7029091E8020817190709F452C0EF
:100EB00081E08093EE02E23019F0E43009F04AC09C
:100EC00084E591E068E670E04CE30E9412150E9410
:100ED000B1058091E5029091E602009739F48FE028
:100EE00090E09093E6028093E5021AC00F9729F4F0
:100EF0001092E6021092E50213C08091E7029091F1
:100F0000E802009739F48FE090E09093E802809334
:100F1000E70206C00F9721F41092E8021092E70250
:100F20008091E5029091E602B3E0880F991FBA958F
:100F3000E1F79093E2028093E1028091E7029091C1
:100F4000E802A3E0880F991FAA95E1F79093E402C5
:100F50008093E3022091F0023091F102442737FDA3
:100F60004095542F60E070E080E090E00E94712294
:100F7000611571058105910521F40E94940580E0B9
:100F80001DC08091F0029091F10201979093F102BF
:100F90008093F0022091E3023091E402205130402E
:100FA0008091E1029091E20282979093EA0280930D
:100FB000E9023093EC022093EB0281E0DF91CF91C4
:100FC0001F910F91089584E591E00E94DF160E9421
:100FD000B10564E070E080E090E028E030E040E0BF
:100FE00050E00E9471227093E6026093E50264E093
:100FF00070E080E090E028E030E040E050E00E94C7
:1010000071229B017093E8026093E7028091E502F0
:101010009091E60273E0880F991F7A95E1F790931B
:10102000E2028093E10263E0220F331F6A95E1F749
:101030003093E4022093E3021092ED021092EE024C
:101040001092EF0284EF91E09093F1028093F0020E
:1010500008950F931F930E947F06882331F00E940A
:101060002E050E94DE0480E070C082E190E00E94C4
:10107000D7208C010E94700460E070E080E090E076
:1010800024E030E040E050E00E947122F8017487D3
:10109000638761E070E080E090E024E030E040E0D1
:1010A00050E00E947122F801618365836AE070E07C
:1010B00080E090E024E130E040E050E00E947122C6
:1010C000F8016083648361E070E080E090E025E0F7
:1010D00030E040E050E00E947122F80163836783B2
:1010E00061E070E080E090E025E030E040E050E03A
:1010F0000E947122F801628366838DB79EB7429782
:101100000FB6F8949EBF0FBE8DBF8091DA0190910B
:10111000DB018096ADB7BEB7119622E101900D922A
:101120002150E1F70E94C60CEDB7FEB772960FB6DC
:10113000F894FEBF0FBEEDBF8091DA019091DB0104
:10114000809660E00E94F70C81E01F910F91089556
:101150008091DA019091DB01809660E00E94F70CAB
:1011600008950F931F938091DA019091DB010E9403
:101170001C0D8C018091DA019091DB0180960E9418
:101180001C0DFC018081D80111969C91891B8083E4
:1011900087FD10828091DA019091DB0180960E9498
:1011A0001C0D8C018091DA019091DB010E941C0DD5
:1011B000FC018081D80111969C91891B808387FD59
:1011C00010828091DA019091DB010E941C0D0E9437
:1011D00078048091DA019091DB0180960E941C0DC9
:1011E0000E9478041F910F9108950F931F9384E537
:1011F00091E06FE671E04CE30E9412151CE384E578
:1012000091E00E942A178823D1F31F3118F0012F93
:10121000025E0AC08EE591E064E00E944D0E8823D4
:10122000C1F41123B1F00CE311508091DA019091D7
:10123000DB0180960E941C0DFC01838561E00E9409
:1012400088049C0182EA91E0602F40E00E948D11A9
:10125000D6CF1F910F910895EF92FF920F93E2EA7C
:10126000EE2EE1E0FE2EC70162E040E029E930E029
:101270000E948D118091DA019091DB0180960E948D
:101280001C0D0E947C046BE20E94CA04282FC70137
:1012900063E041E006E00E94990FC70167E240E287
:1012A0002BEF30E00E948D118091DA019091DB01EB
:1012B0000E941C0D0E947C046BE20E94CA04282F2D
:1012C00063E5681BC70149E20E94990F0F91FF90E7
:1012D000EF900895CF92DF92EF92FF920F931F93BA
:1012E0000AE5E02E16E4C12EB0E2DB2E84E591E0A3
:1012F0000E942A178823D1F30E942C0981E38E15BE
:1013000050F08E2D63E00E94D323992321F4EEE167
:10131000EE1508F454C08091DA019091DB018096BB
:101320000E941C0DFC01838561E00E9488049C01E1
:1013300082EA91E06CE340E00E948D118091DA0135
:101340009091DB010E941C0DFC01838560E00E94EE
:1013500088049C0182EA91E062E048E10E948D11DC
:10136000FBE4FE1570F40E2D10E00B541040000F3E
:10137000111FF02E82EA91E062E00E94000F6D2DB5
:1013800010C08CE38E15D8F40E2D10E00C531040D5
:10139000000F111FF02E82EA91E062E00E94000F20
:1013A0006C2D6F1982EA91E0402F27E730E00E9410
:1013B0008D1182EA91E061E00E94000F09C08EE584
:1013C00091E064E00E944D0E882321F4EE2011F09C
:1013D000EA948CCF1F910F91FF90EF90DF90CF9008
:1013E00008958F929F92AF92BF92CF92DF92EF9229
:1013F000FF920F931F93CF93DF9384E1A82EB12C1C
:10140000EE2484E591E00E942A178823D1F3A114E9
:10141000B10409F442C00894A108B108C50163E011
:1014200070E00E94F323892B11F481E0E8268824E0
:101430009924FF242BC0C60181709070EE2019F012
:10144000892B19F405C0892B19F4209781F002C06B
:10145000209769F482EA91E06F2D412F24E007E0A4
:101460000E94990F82EA91E061E00E94000F0894C7
:10147000C11CD11C195F1936F1F60894811C911C0E
:1014800084E0F80E8CE3F81609F4BBCFCC24DD24FD
:1014900010E0E401C170D070CECFDF91CF911F91E9
:1014A0000F91FF90EF90DF90CF90BF90AF909F9003
:1014B0008F9008958091DA019091DB0180960E94CF
:1014C000140D882389F18091DA019091DB010E944B
:1014D000140D882349F10E94B1080E946A09809185
:1014E000DA019091DB0180960E94FA0C882349F47E
:1014F0008091DF019091E00101969093E00180934B
:10150000DF018091DA019091DB010E94FA0C8823BF
:1015100061F08091DA019091DB0180960E94FA0CD3
:10152000882319F081E0089581E008958091DA011F
:101530009091DB010E94F00C8091DA019091DB0127
:1015400080960E94F00C8091DA019091DB018096E8
:101550000E94F40C08958091DA019091DB0180964D
:101560000E941C0D60E00E94750408951F938091F5
:10157000DA019091DB010E941C0DFC0183850E9421
:10158000B304BC0184E591E044E00E94E317182F06
:10159000833031F48091DA019091DB010E94F00CEC
:1015A0008091DA019091DB010E941C0D612F0E9455
:1015B00075048091DA019091DB010E941C0D612F6E
:1015C0000E9475041F910895FF920F931F938091BD
:1015D000DA019091DB010E94140D882309F060C0AC
:1015E00084E591E06DE571E044E00E94E317682F27
:1015F0008091DA019091DB010E94F70C8091DA0171
:101600009091DB010E941C0DFC018081181644F7AB
:1016100084E591E065E671E04CE30E9412151CE35D
:101620009CE1F92E84E591E00E942A178823D1F3EA
:101630001F3118F00F2D011B0AC08EE591E064E008
:101640000E944D0E882361F5112351F102E01150E3
:101650008091DA019091DB0180960E941C0DFC01C3
:10166000838561E00E9488049C0182EA91E06CE33A
:1016700040E00E948D118091DA019091DB010E947F
:101680001C0DFC01838560E00E9488049C0182EAB5
:1016900091E0602F48E10E948D110E942C09C2CF79
:1016A0001F910F91FF9008950E94F1090E94F50883
:1016B0008091DA019091DB010E94F00C0E94A80851
:1016C0000E94E40A0E94AB0A0E94B60A0E945A0ACB
:1016D0008823A1F70E94960A80E0089584E591E0AE
:1016E0000E942A17882381F18091DC01882319F058
:1016F000813041F403C00E94290802C00E94540BAB
:101700008093DC0110926C0182EA91E060E071E06C
:101710000E9403226091DD017091DE0182EA91E076
:101720004AE050E00E94F22182EA91E068E071E034
:101730000E9403226091DF017091E00182EA91E052
:101740004AE050E00E94F22108958F929F92AF925A
:10175000BF92DF92EF92FF920F931F93CF93DF938D
:101760001092DE011092DD011092E0011092DF0173
:101770001092DC0184E591E00E94AD1A84E591E0CD
:1017800064E871E00E94A81A84E591E00E94DF16E7
:101790008AE290E00E94D7208C010E94280DC801A7
:1017A00008960E94280DC80140960E94280DC80185
:1017B00048960E94280DC80180960E94280D10931B
:1017C000DB010093DA0188E090E00E94D720182F17
:1017D000092F0E94280D2091DA013091DB01C90107
:1017E000DC01212F302FC901FC0188E001900D920E
:1017F0008150E1F782E190E00E94D7208C010E94A5
:101800007004F8011486138682E0818385833EE1AB
:10181000D32ED082D48225E0F22EF382F782EE24FA
:10182000E394E282E68282E190E00E94D7204C01BC
:101830000E94700481E090E0F4019487838783E044
:1018400081838583D082D482F382F782E282E6822A
:1018500082E190E00E94D7205C010E94700482E047
:1018600090E0F5019487838784E081838583D0822B
:10187000D482F382F782E282E68282E190E00E94E3
:10188000D720EC010E94700483E090E09C878B8756
:10189000F982FD82D882DC82FB82FF82EA82EE82BC
:1018A0008DB79EB742970FB6F8949EBF0FBE8DBFFF
:1018B0008091DA019091DB01ADB7BEB71196F801C6
:1018C00022E101900D922150E1F70E94C60C809117
:1018D000DA019091DB01ADB7BEB71196F40122E1B8
:1018E00001900D922150E1F70E94C60C8091DA011F
:1018F0009091DB01ADB7BEB71196F50122E10190E1
:101900000D922150E1F70E94C60C8091DA0190916E
:10191000DB01ADB7BEB71196FE0122E101900D9239
:101920002150E1F70E94C60CE091DA01F091DB0151
:1019300081E081A7EDB7FEB772960FB6F894FEBFAF
:101940000FBEEDBF88E090E00E94D720182F092F2E
:101950000E94280DE091DA01F091DB01B096212F71
:10196000302FC901DC0188E00D9001928150E1F730
:101970000E94E307DF91CF911F910F91FF90EF90AD
:10198000DF90BF90AF909F908F900895DF93CF939B
:10199000CDB7DEB7DC0115962C9115972430E8F40D
:1019A00082E1289FC001112416964D915C911797F2
:1019B0002A8B480F591F9E012B5F3F4F82E1F9018F
:1019C00001909F01FA010192AF018150C1F7159674
:1019D0008C9115978F5F15968C93CF91DF91089519
:1019E0002FEFFC0124830895FC0115820895FC016A
:1019F00064830895DC0115964C91159790E020E0E2
:101A000030E00EC01696ED91FC911797E20FF31F90
:101A100080812E5E3F4F181614F481E008959F5F79
:101A2000941780F380E0089520E0FC0184818F3FCB
:101A300009F021E0822F0895FC01848122E1829F38
:101A4000C001112426813781280F391FC90108954B
:101A5000DF92EF92FF920F931F937C01FC0115829E
:101A60008FEF848388E490E00E94D420D92E082F41
:101A7000192F0E947004C80142960E947004C80188
:101A800084960E947004C801C6960E947004F701F3
:101A90000683D7821F910F91FF90EF90DF900895FA
:101AA000882319F48CB5806202C08CB58F7D8CBD03
:101AB00008959CB5937F982B9CBD08952CB5382F25
:101AC00033702C7F322B3CBD2DB590E095958795DA
:101AD0009595879581702E7F822B8DBD08958AE024
:101AE00061E00E9462208AE061E00E94F61F8CB5EE
:101AF00080618CBD8CB580648CBD8DE061E00E94FE
:101B0000F61F8BE061E00E94F61F0895FC0181E062
:101B10008083089585E070E00E94961F08956F927B
:101B20007F928F929F92AF92BF92CF92DF92EF926D
:101B3000FF920F931F93CF93DF93EC0189819A81DA
:101B40008C0124E0000F111F2A95E1F7081B190BE7
:101B500085E10E94741FBC01600F711F84E07695BF
:101B600067958A95E1F77A8369838881882381F173
:101B70002E813F816217730710F4B90106C0888572
:101B800099858617970708F4BC0100D000D080E043
:101B900090E040E050E0E884F98400E010E0AD809F
:101BA000BB24CC24DD246C80772488249924EDB7D1
:101BB000FEB761827282838294820E9406226B83C6
:101BC0000F900F900F900F9085E070E00E94961F8D
:101BD000DF91CF911F910F91FF90EF90DF90CF9009
:101BE000BF90AF909F908F907F906F900895FC0171
:101BF0008CE39FE09383828384E0818381E0848708
:101C00000895CF93DF93EC018C8590E08F719070F5
:101C1000892B69F584E10E94741FAA2797FDA0957E
:101C2000BA2FBC01CD010E94C52226EE3FE34EEC47
:101C300050E40E9451230E9497229B01AC017B83B8
:101C40006A836115710589F084E08983B901FE0119
:101C500020E0848195816817790710F429830AC0F0
:101C60002F5F32962430A9F702C08FEF89838C85CD
:101C70008F5F8C87DF91CF910895FC0188E080838E
:101C800089E0818387E0828386E0838384E08483A4
:101C900082E0858381E18683089520E0FC01E60FE0
:101CA000F11D8781813009F421E0822F0895E62F0C
:101CB000F0E0423040F420E0E80FF91F87818150C6
:101CC0008E3F88F40FC0E80FF91F87818F3F11F412
:101CD00020E009C020E090E0642F70E00E94DF2344
:101CE000019709F421E0822F08950F931F93CF935A
:101CF000DF93EC0110E00FEF888162E00E94F61F95
:101D000088810E9495202F81892B19F42F5F2F83C2
:101D100007C0222349F02F3F11F41F8201C00F8317
:101D2000888160E00E94F61F1F5F2196173021F71F
:101D3000DF91CF911F910F910895FC01742F6435AD
:101D400008F05DC047FD5BC040330CF058C0878D84
:101D5000823019F5842F859585958595992787FD7E
:101D60009095462F552747FD509524E530E0829FFA
:101D7000F001839FF00D929FF00D1124E40FF51FE9
:101D8000EE50FD4F808190E0272F277002C095957F
:101D900087952A95E2F780958170972F959595956F
:101DA0009595462F552747FD5095272F2770882357
:101DB000A1F4E4E59E02F0011124E40FF51FEE50BA
:101DC000FD4F81E090E002C0880F991F2A95E2F74D
:101DD00080952081282320830895E4E59E02F00168
:101DE0001124E40FF51FEE50FD4F81E090E002C09A
:101DF000880F991F2A95E2F72081282B20830895C8
:101E0000FC01678F60A30895FC01678F40A30895CC
:101E1000AF92BF92CF92DF92EF92FF920F931F93F8
:101E2000CF93DF93EC01162FF42EE22EAA24402F3D
:101E3000552747FD50958F2D992787FD9095481B75
:101E4000590B57FF03C0509541955F4F2E2D3327F7
:101E500027FD3095812F992787FD9095281B390BF9
:101E600037FF03C0309521953F4F2417350744F4C1
:101E7000AA24A3948F2DF12E182F802F0E2DE82E3B
:101E8000E11634F48E2DE12E182F802F0F2DF82E11
:101E9000DE2CD11A202F332727FD30958F2D99273F
:101EA00087FD9095281B390B37FF03C0309521958E
:101EB0003F4FB22EF0161CF0CC24CA9402C0CC24A2
:101EC000C3948D2DD7FC8F5F082F059511C0AA20D4
:101ED00021F0CE016F2D412F03C0CE01612F4F2D78
:101EE0000E949D0E0B1907FF02C0FC0C0D0D1F5F19
:101EF000E1166CF7DF91CF911F910F91FF90EF905A
:101F0000DF90CF90BF90AF9008950F93042F322FA2
:101F1000262F2150230F0E94080F0F9108950F9331
:101F2000362F042F0150020F232F0E94080F0F910C
:101F300008959F92AF92BF92CF92DF92EF92FF925D
:101F40000F931F93CF93DF936C01B62E942EA02E88
:101F5000C0E0D0E0E62EFF24E7FCF094022F11272A
:101F600007FD10950E0D1F1D06C0C601492D2A2D17
:101F70000E948F0F21966B2D6C0FCE018E0D9F1D31
:101F80008017910794F3DF91CF911F910F91FF90EC
:101F9000EF90DF90CF90BF90AF909F9008952F92D9
:101FA0003F925F926F927F928F929F92AF92BF9279
:101FB000CF92DF92EF92FF920F931F93DF93CF9315
:101FC00000D000D000D0CDB7DEB79E838D83C62E63
:101FD000D42EEE24E394E21A8EEF289F502C112485
:101FE000842E8A94962E9A94A42EA394B62EB394FB
:101FF000F22E662423E0722E10E0C80184709070E7
:102000009A838983F801E270F070FC83EB8398E097
:10201000292E312C202231220170107054C0E7FC8F
:1020200004C0FA94F2E05F0EE50C639489819A8112
:10203000892B71F04F2D4D0D8D819E816B2D0E944E
:102040009D0E6F2D6C0D8D819E814A2D0E949D0EDF
:10205000EB81FC81EF2B71F04D2D4F198D819E810D
:102060006B2D0E949D0E6F2D6C0D8D819E81482DD4
:102070000E949D0E2114310471F06C2D6F198D8119
:102080009E814A2D0E949D0E4F2D4D0D8D819E816A
:10209000692D0E949D0E0115110571F06C2D6F19AF
:1020A0008D819E81482D0E949D0E4D2D4F198D8151
:1020B0009E81692D0E949D0EE70CF2E07F0E8A94AE
:1020C0009A94A394B3946F140CF4A9CF26960FB6E8
:1020D000F894DEBF0FBECDBFCF91DF911F910F915E
:1020E000FF90EF90DF90CF90BF90AF909F908F9038
:1020F0007F906F905F903F902F9008954F925F92E6
:102100006F927F928F929F92AF92BF92CF92DF9207
:10211000EF92FF920F931F93CF93DF93EC01A62EC4
:10212000742E9E2DFF24F394F21A8EEF289F802C9C
:102130001124B42EBA9453E0C52ECE0CE22EDD2429
:1021400043E0942E10E031E0432E512C40225122E6
:10215000692E63940270107034C0F7FC04C0EA94D6
:1021600082E0880EF80CD3944114510489F06D2D4F
:102170006A0D472D4E192E2D220F260DCE010E94DD
:102180008F0F6E2D6A0DCE014B2D2C2D0E948F0FBF
:102190000115110589F06A2D6D19472D4E192E2D47
:1021A000220F260DCE010E948F0F6A2D6E19CE01CF
:1021B0004B2D2C2D0E948F0FF90C82E0980EBA94B3
:1021C000C80EDE1454F2DF91CF911F910F91FF9052
:1021D000EF90DF90CF90BF90AF909F908F907F90C7
:1021E0006F905F904F9008957F928F929F92AF92E1
:1021F000BF92CF92DF92EF92FF920F931F936C01E9
:10220000962EA42EF22E7E2C760E1EEFE19E102D21
:102210001124812E820E672D282D0E94850FB02E4D
:10222000BA0CBA94C601672D4B2D282D0E94850F3C
:10223000AE0C100FC601692D4A2D212F0E948F0F61
:10224000F90CFA94C6016F2D4A2D212F0E948F0F91
:10225000C601672D4A2D2E2D01E00E94CF0FFE18DA
:10226000C6016F2D4A2D2E2D02E00E94CF0FBE1801
:10227000C6016F2D4B2D2E2D04E00E94CF0FC601FD
:10228000672D4B2D2E2D08E00E94CF0F1F910F912F
:10229000FF90EF90DF90CF90BF90AF909F908F9086
:1022A0007F9008958F929F92AF92BF92CF92DF92CC
:1022B000EF92FF920F931F936C01162FA42E922E74
:1022C000F02EBE2C8E2C860E2EEFE29EE02C1124DA
:1022D0002E2D290D682D0E94990FAB0CFA94FE0C3F
:1022E0001150190D1B19C601612F4A2D2B2D01E02C
:1022F000EF2C0E947E10C601682D4A2D2B2D02E086
:102300000E947E101F910F91FF90EF90DF90CF9071
:10231000BF90AF909F908F9008953F924F925F92A1
:102320006F927F928F929F92AF92BF92CF92DF92E5
:10233000EF92FF920F931F93CF93DF934C01362EB2
:10234000442EF901A490319654906F010894C11C59
:10235000D11C8A2D992787FD9095079668E070E03B
:102360000E94F323E62EFF24E7FCF09400E0C0E097
:10237000D0E060E8662E712C26C0E12FE595E5954A
:10238000E595FF27E7FDF095EC0FFD1FEC0DFD1D1A
:10239000E4912E2F30E0812F8770A30102C0559564
:1023A00047958A95E2F724233523232B31F0612FBB
:1023B000630DC4014B2D0E949D0E1F5F1A15ECF298
:1023C0000F5FCE0DDF1D051524F410E0B02EB40C08
:1023D000F5CFDF91CF911F910F91FF90EF90DF909C
:1023E000CF90BF90AF909F908F907F906F905F90B5
:1023F0004F903F9008952F923F924F925F926F922D
:102400007F928F929F92AF92BF92CF92DF92EF9284
:10241000FF920F931F93DF93CF9300D000D00F92C2
:10242000CDB7DEB73C01862E4A83F901BE2C0023CE
:1024300029F4EE2019F40E948D117AC0A4903196EF
:1024400094901F010894211C311C037009838A2D6C
:10245000992787FD9095079668E070E00E94F32326
:10246000462E552447FC5094C92CCA94FF241D8243
:102470001C824A2D41504B8356C0E02FE595E595CF
:10248000E595FF27E7FDF0958C819D81E80FF91F09
:10249000E20DF31DE4912E2F30E0802F8770A0E82D
:1024A000B0E002C0B595A7958A95E2F72A233B23B1
:1024B000232B61F1B981B13051F0B13028F0B23045
:1024C00049F0B33061F409C0102FEF2C08C0ED2C97
:1024D0001F2D05C01D2DEC2C02C01C2DE02EBB2095
:1024E00069F0E3E0BE228B2DB0FE03C0FA2DF11B94
:1024F0001F2F81FF03C0492D4E19E42E180D5A815C
:10250000E50EC301612F4E2D0E949D0E0F5FDA94E0
:102510000A150CF4B2CFF3948C819D81840D951D26
:102520009D838C83CA94F9141CF4DB8000E0F0CF07
:102530000F900F900F900F900F90CF91DF911F9100
:102540000F91FF90EF90DF90CF90BF90AF909F9052
:102550008F907F906F905F904F903F902F90089555
:10256000DC01FB0184918F5F14968C931497319654
:1025700084918F5F15968C93159731965E96FC9398
:10258000EE935D9708953F924F925F926F927F9284
:102590008F929F92AF92BF92CF92DF92EF92FF9273
:1025A0000F931F93CF93DF93EC01862EA42E422F1F
:1025B000102F3F8C23E526170CF4ABC03FE23A15F1
:1025C0000CF4A7C0C02EDD248C8190E001979C0103
:1025D000C29EC001C39E900DD29E900D1124262F45
:1025E000332727FD3095820F931F181619060CF01C
:1025F00090C08D8190E09C01C29EC001C39E900D51
:10260000D29E900D11242A2D332727FD3095820F5D
:10261000931F181619060CF07CC09924442E5524DB
:102620006DC09C01215030404217530711F460E007
:102630000EC0429EC001439E900D529E900D1124EB
:10264000840F951FED8DFE8DE80FF91F64914C9D51
:10265000C0014D9D900D5C9D900D1124682C680E5D
:10266000BB24792C780C3FC0E62EFF2460FF19C0F4
:10267000113039F44B2D4A0DCE01672D0E949D0E6D
:102680002EC02C9DC0012D9D900D3C9D900D1124C0
:102690004A2D480FCE01662D212F012F0E94990F40
:1026A0001EC098A18F8D9817D1F09F8F113039F4EB
:1026B0004B2D4A0DCE01672D0E949D0E0FC02C9D03
:1026C000C0012D9D900D3C9D900D11244A2D480F69
:1026D000CE01662D212F012F0E94990F3F8EF59478
:1026E000E7946E2DB3942B2D332727FD30958D81E4
:1026F00090E0281739070CF4B7CF9394492D55274C
:1027000047FD50958C8190E0481759070CF489CF0C
:102710003F8EDF91CF911F910F91FF90EF90DF904F
:10272000CF90BF90AF909F908F907F906F905F9071
:102730004F903F9008950F93CF93DF93EC01262F96
:102740006A3049F48D819885899F802D11249A855E
:10275000980F9A8726C06D3029F169854A850885CA
:102760000E94C3129C816885969F402D1124898503
:10277000480F49878F818823A9F0552747FD509539
:10278000699F9001112484E590E0821B930B8417CC
:10279000950744F49D81699F902D11248A85890FA6
:1027A0008A87198681E090E0DF91CF910F9108959B
:1027B0001F93CF93DF93EC01162FF8948E8560E082
:1027C0000E9462208F8518161CF460E00E9462202F
:1027D0001EBD0DB407FEFDCF8EB58F8518161CF4F7
:1027E00061E00E9462207894DF91CF911F9108955B
:1027F000FF920F931F93CF93DF93EC01FF2400E030
:1028000010E06F2D6064CE010E94D813CE0160E805
:102810000E94D8138E8561E00E9462208F85181671
:102820001CF460E00E946220F801EE50FD4F90E041
:1028300080818EBD0DB407FEFDCF8EB59F5F3196B2
:102840009435B1F78F8518161CF461E00E94622060
:10285000F3940C5A1F4F86E0F81699F6CE0160E407
:102860000E94D813DF91CF911F910F91FF9008958F
:10287000CF93DF93DC0188EF91E0E2EFF2E0EF012C
:102880009C01199221503040E1F719961C9219973A
:102890001A961C92DF91CF910895EF920F93CF93E8
:1028A000DF93EC014D876C872E87E88A0F8781E0E4
:1028B00088878F8F18A28F83CE016FE175E00E9409
:1028C000B0120E946F0D81E00E94500D85E00E94C1
:1028D0005E0D8CE00E94590D8D8561E00E94F61F0F
:1028E0008C8561E00E94F61F8E8561E00E94F61FD4
:1028F000888918161CF461E00E94F61F8F8518164F
:102900001CF461E00E94F61F888918166CF460E0E0
:102910000E9462206AE070E080E090E00E94131F55
:10292000888961E00E946220EC852E2F332727FDE5
:102930003095F901E25BF74FE491F0E0EE0FFF1FF5
:10294000E65CF74F859194919C8B8B8B2E59374F7A
:10295000F90184918A8FED852E2F332727FD30953D
:10296000F901E25BF74FE491F0E0EE0FFF1FE65C48
:10297000F74F859194919A8B898B2E59374FF90196
:102980008491898FEF852E2F332727FD3095F9010C
:10299000E25BF74FE491F0E0EE0FFF1FE65CF74FCC
:1029A000859194919E8B8D8B2E59374FF90184918F
:1029B0008B8FEE852E2F332727FD3095F901E25BB3
:1029C000F74FE491F0E0EE0FFF1FE65CF74F8591C3
:1029D0009491988F8F8B2E59374FF90184918C8F5A
:1029E000CE0161E20E94D813CE0164E10E94D813A7
:1029F0008B8587FF02C08FE78B876B856068CE0170
:102A00000E94D813CE0160E20E94D813CE016CE080
:102A10000E94D813CE010E94F813DF91CF910F913D
:102A2000EF900895FC01ED57FF4F61937193445F60
:102A300040830895CF93DF93DC01E0E8F7E78591C9
:102A40009491ED01C75ADF4FAD0141595F4F81505D
:102A5000904C09F04EC0E6E9F7E7E491E883E7E936
:102A6000F7E7E4911496EC931497E8E9F7E7E4911B
:102A70001596EC931597E9E9F7E7859194911796E8
:102A80009C938E931697EBE9F7E7859194911996AD
:102A90009C938E931897EDE9F7E7E4919B96EC935E
:102AA0009B97EEE9F7E7E4919A96EC939A97EFE912
:102AB000F7E7E491EA01E883E0EAF7E7859194918A
:102AC0005D969C938E935C97E2EAF7E785919491EB
:102AD0005F969C938E935E97E4EAF7E785919491D5
:102AE00091969C938E939097E6EAF7E7859194915F
:102AF00032C08CE3888314961C9214972FEF15969E
:102B00002C93159780E293E017969C938E931697DB
:102B100084ED93E019969C938E93189781E09B9691
:102B20008C939B979A968C939A97FA0120838CEAC0
:102B30009DE05D969C938E935C978EED9DE05F96F5
:102B40009C938E935E9784E79EE091969C938E93E0
:102B500090978CE39FE093969C938E939297DF914E
:102B6000CF910895EF92FF920F931F93CF93DF932E
:102B70007C018C01025B1F4FC8010E943814C80100
:102B800066EC76E00E940421C8010E94F81383E0FD
:102B90000E945E0D82E191E0EEEFFFE3099584E58E
:102BA00090E0E80EF91EF7011082C80161EA76E0B4
:102BB0000E944F21C8010E94F813E701CA54D04077
:102BC000CE010E94750ECE0164E00E944D0E882356
:102BD00039F462E370E080E090E00E94131FF0CFD0
:102BE000DF91CF911F910F91FF90EF9008950F9378
:102BF0001F93CF93DF93EC018C01025B1F4FC80141
:102C000061E040E00E94040FFE01E95AFF4FCE5AF6
:102C1000DF4F85E59881891B808326961882C855E9
:102C2000D040698D613009F43EC0613028F0888D54
:102C3000653008F051C04BC0CE0185960E94B21B92
:102C4000CE0160E00E948A0DC8010E943814CA5A61
:102C5000DF4F81E08883C655D040C80162E077E04D
:102C60000E9404216A8D7B8DC8014AE050E00E94D9
:102C7000F221C8016EEE76E00E940421C8010E9494
:102C8000F81383B7817F846083BF83B7816083BF7C
:102C900083B7816083BF889583B78E7F83BF83B7F7
:102CA0008E7F83BF1FC0C059DF4F88819981AA8161
:102CB000BB818F709070A070B0700897A105B105AE
:102CC00018F4C80167E00CC0C80168E709C0882390
:102CD00049F06B5FC80104C0882321F0C8016FE28E
:102CE0000E942721DF91CF911F910F910895AF92FC
:102CF000BF92CF92DF92EF92FF920F931F93CF93E9
:102D0000DF93EC01CB57DF4F8881C558D040882333
:102D100009F44AC08C3010F010E002C01CE0181B0F
:102D2000CA5ADF4F81E08883C655D0406EE4C62E74
:102D3000D12CCC0EDD1EC60160E00E94000F53E5D1
:102D4000A52EB12CAC0EBD1EF50100814DE2F42E76
:102D50004F2D401B410F0D5FC60160E024E533E0BD
:102D6000E32E0E945211C60161E00E94000FF5019E
:102D70000081F01AF10E0D5FC60160E04F2D24E5D1
:102D80000E94F410C95ADF4F84E08993F5018081D5
:102D9000181B115D1883AB9669917991C6010E9449
:102DA0000421888181508883DF91CF911F910F91F9
:102DB000FF90EF90DF90CF90BF90AF9008954F922B
:102DC0005F926F927F928F929F92AF92BF92CF92BB
:102DD000DF92EF92FF920F931F932C01FC01628C04
:102DE000738C60947094882499240E94ED1E5B017A
:102DF0006C010E94ED1E7B018C01F201418052802A
:102E00000E94ED1E460E571EA094B094C094D0941C
:102E1000E094F09400951095C601B501A8019701C2
:102E20000E94B423A40193010E94B423460E571EAE
:102E3000C2010E948F221F910F91FF90EF90DF90AF
:102E4000CF90BF90AF909F908F907F906F905F904A
:102E50004F900895AF92BF92CF92DF92EF92FF9280
:102E60000F931F93CF93DF93EC01EFE7AE2EB12CBE
:102E7000A80EB91EF501E080F180028113810E9445
:102E8000DF1EE61AF70A080B190B7EE7C72ED12CB6
:102E9000CC0EDD1EF601808190E0A0E0B0E08E1542
:102EA0009F05A007B10708F081C08E0106581F4F8B
:102EB000F80180819181A281B3810097A105B105BC
:102EC00009F474C00E94DF1EF6012081620F711D9B
:102ED000811D911DF5016083718382839383FE01BF
:102EE000E059FF4F80819181A281B3810196A11D9C
:102EF000B11D80839183A283B383F8011082118274
:102F0000128213820E94ED1ECA58DF4F68837983B4
:102F10008A839B83C657D040CE010E948F0DCE017D
:102F20000A960E94750ECE0148960E94010E81E01D
:102F300032C08E010B5D1F4FC8010E94001CC801EA
:102F40000E94771CC8010E945A1DCE010E9477166C
:102F5000CE010E94F7158E01025B1F4FC8010E942F
:102F6000F813CC5ADF4F8881C455D040882319F418
:102F7000C8010E9438140E94ED1EC658DF4F6883B6
:102F800079838A839B83249728813981621B730B01
:102F90007A936A9380E0DF91CF911F910F91FF9018
:102FA000EF90DF90CF90BF90AF900895C658DF4F5D
:102FB00088819981AA81BB81CA57D0400097A10519
:102FC000B10541F7B6CF2F923F924F925F926F9229
:102FD0007F928F929F92AF92BF92CF92DF92EF92A9
:102FE000FF920F931F93DF93CF93CDB7DEB7629716
:102FF0000FB6F894DEBF0FBECDBF6C016C837D832E
:103000004B8324E530E0C20ED31EF60110822CEA79
:103010003FEFC20ED31E1AE0A12EB12CAC0CBD1C8A
:10302000B5E22B2E312C2C0C3D1CAEE44A2E512C3B
:103030004C0C5D1C1A823FEF398310E0F0E37F2EC9
:103040006624A601495A5F4F5F834E83C601885AA2
:103050009F4F99878887F601EA5AFF4FFB87EA87D7
:1030600096012B5A3F4F3D872C87E3E58E2E912CFE
:103070008C0C9D1C5B81452F50E05F874E878B81B8
:103080008150888BC6010E942A178823D9F3C50175
:1030900064E00E944D0E882369F4C50165E00E943A
:1030A0004D0E882339F4C50166E00E944D0E882339
:1030B00009F4D3C0F4010081C50164E00E944D0E03
:1030C000882329F0C1010E94B71D1983CBC0C1011B
:1030D0000E94BD1DC7C0C50163E044E00E94570EB9
:1030E000882321F01F5FC1010E94C31DC50161E05B
:1030F00044E00E94570E882321F01150C1010E9424
:10310000C31D812F992787FD90952E853F858217B6
:10311000930711F410E002C017FD1889F4018081B3
:10312000819F902D11248C5F682E691A28C0872DED
:10313000992787FD9095262D332727FD3095821BF3
:10314000930B0297D4F4898162960FB6F894DEBF90
:103150000FBECDBFCF91DF911F910F91FF90EF90E8
:10316000DF90CF90BF90AF909F908F907F906F90A7
:103170005F904F903F902F900895F1E0FA83862D55
:10318000992787FD9095272D332727FD3095820FAE
:10319000931F62E070E00E94F323762EEE81FF81A0
:1031A0001082E885F985608321E0EA85FB8520832C
:1031B000EC85FD8510822C813D81C9019A8B898B1C
:1031C00000E0E12EFF24E7FCF09420C0802F90E087
:1031D0008E159F0569F423E0EE81FF812083F401C1
:1031E00080818E9D802D1124870DE885F98580834F
:1031F000E989FA8965917491C2010E944F210F5F9C
:1032000029893A892E5F3F4F3A8B298B3B810317DF
:10321000E8F2C20160E00E94000FF40140814E9D7F
:10322000402D11244150470DC20160E024E50E9469
:10323000850FC20161E00E94000FF40100810E9D24
:10324000402D11244250470D0D5FC20160E024E57E
:1032500073E0E72E0E94F41015CFFA81FF2309F0E6
:1032600066CF39CF802F90E0909581959F4F2E8526
:103270003F85AC01249FC001259F900D349F900D88
:1032800011246EEF662E680E52CF2F923F924F920E
:103290005F926F927F928F929F92AF92BF92CF92E6
:1032A000DF92EF92FF920F931F93DF93CF93CDB7EF
:1032B000DEB72B970FB6F894DEBF0FBECDBF9B874E
:1032C0008A877A8369835C834B838C0101591F4F02
:1032D000F8018081882309F422C18A859B858A5A56
:1032E0009F4F9B878A8781E0EA85FB8580831292C6
:1032F0001292E455F040FB87EA87108E9EE4E92E97
:10330000F12CEE0EFF1EC70161E00E94000F8AE063
:10331000282E312C8A859B85280E391EB5E26B2E0E
:10332000712C680E791EE981FA81F491FD83A7E57D
:103330008A2E912C880E991EF8E5CF2ED12CC80E1E
:10334000D91EE2E54E2E512C480E591E8D5A9F4F24
:103350009F838E8370E7A72EB12C8A859B85A80E4C
:10336000B91E198708878A859B850E942A1788239A
:10337000D1F39D81992311F410E003C0EE81FF8108
:103380001081C70160E040E02FE337E00E948D111B
:103390008B819C81892B41F0145FC70160E0412F34
:1033A0002B813C810E948D11F40110828CE0F6018A
:1033B0008083C70169817A810E940421F201208102
:1033C00030E0C901880F991F820F931F9095819556
:1033D0009F4F8D5AF4018083EE81FF81208130E080
:1033E000C901880F991F820F931F909581959F4F58
:1033F000835DF6018083F501808184FF04C0C701ED
:103400006FEB77E003C0C7016BEB77E00E944F21C1
:10341000F201208130E0C901880F991F820F931FAC
:10342000909581959F4F8D5AF4018083F60180819C
:103430008F5F8083EA85FB8582A5882321F0C70101
:1034400067EB77E003C0C70163EB77E00E944F2191
:10345000F201808190E09C01220F331F280F391F59
:10346000309521953F4F2D5AF4012083F60180813C
:103470008F5F8083C7016FEA77E00E944F21C1010F
:1034800065E00E944D0E882351F0EA85FB8562A518
:103490006F5FC3010E94C91DC3010E94C31DC1010A
:1034A00064E00E944D0E882399F4E885F9856081D7
:1034B000262F30E040E050E0F50180819181A2812B
:1034C000B38182179307A407B50708F16F3FF9F09E
:1034D0008A859B8581599F4F9B878A878FEFEA85D5
:1034E000FB858083EF56F040FB87EA87C30160E0ED
:1034F0000E94A71BC3010E94B71D81E0EA85FB85DE
:10350000808F0DC08A859B850E94B2152CCFC1018A
:1035100066E00E944D0E882309F425CFF3CF2B9649
:103520000FB6F894DEBF0FBECDBFCF91DF911F91D4
:103530000F91FF90EF90DF90CF90BF90AF909F9052
:103540008F907F906F905F904F903F902F90089555
:1035500040E050E00E9445190895AF92BF92CF928B
:10356000DF92EF920F93CF93DF936C018EE790E0A1
:10357000C80ED91E82E3F601808381E090E0A0E0CE
:10358000B0E0B293A293929382936F0185EF9FEF85
:10359000C80ED91E8FEFF601808381E99FEFC80E18
:1035A000D91EC6010E941A15C6010E94860DC601C9
:1035B0006FEF0E948A0D4AE0A42EB12CAC0CBD1C0A
:1035C000C5010E943D0EC5010E94750EC6014896B8
:1035D0000E94F70DC601825B9F4F6DE04BE020E13A
:1035E0000FE03EE0E32E0E944D14E601A596CE01C9
:1035F0000E94D61DC50165E00E944D0E882329F06A
:10360000CE0160E00E94C91D06C0CE0165EC77E0E6
:1036100040E00E94B61BDF91CF910F91EF90DF90B9
:10362000CF90BF90AF9008950F93DC01002309F075
:1036300069C0623009F443C0633030F4662359F046
:10364000613009F05FC00DC0633009F444C06430DC
:1036500009F058C04CC04B3008F04AE056964C93E5
:1036600051C0842F90E0880F991F1F962D913C9197
:103670005097280F391FF9018591949190969C934A
:103680008E935F97FC014591549114968C911497F9
:10369000849F602D112491966C939197252F332749
:1036A000862F90E02817390708F4652F14968C911F
:1036B0001497689F802D112492968C9323C01496A2
:1036C0008C911497489F802D112459968C9359976B
:1036D0005A962C9317C014968C911497489F802D5E
:1036E00011245B968C935B975C962C930BC014967D
:1036F0008C911497489F802D11245D968C935D9733
:103700005E962C930F910895FC01222371F4648B33
:103710008481489F802D1124858B15A214A213A2A9
:1037200081E0878B8093EB04108E0895FC01662363
:1037300069F4178A158A14A213A2108E1092EE044F
:103740001092ED041092EB041092B4000895CF9300
:10375000DF93EC01662319F40E94961B1982DF9116
:10376000CF91089560E00E94A71B08950F931F93C7
:10377000CF93DF93EC018B01442371F460E00E944E
:10378000A71B1E870D871B8A1A8A81E0898389E01F
:103790008E8B198E1B8E1D8EDF91CF911F910F91F5
:1037A0000895CF93DF93EC01662339F58881882350
:1037B00021F18981882309F5898590E0880F991F77
:1037C000EF81F885E80FF91F859194912FEF8F3FD6
:1037D000920711F4188211C09C8790E0880F991FFE
:1037E000EA85FB85E80FF91F65917491CE0140E0F1
:1037F0000E94B61B89858F5F8987DF91CF910895DD
:1038000060E00E94D11B08950F93CF93DF93EC01EA
:10381000662309F068C08981882309F464C08D8912
:10382000882309F060C0EA89FB89EE0FFF1F4D85F0
:103830005E85E40FF51F259134912115310509F0BE
:1038400040C08989813031F41B8A1A8AFA01259196
:10385000349137C019828881882379F0CE0160E0E5
:103860000E94D11B8A899B89880F991FED85FE854F
:10387000E80FF91F2591349124C0CE0160E00E9429
:10388000961B31C0E6E036952795EA95E1F76F7013
:10389000422F4F7175E0369527957A95E1F72051C3
:1038A000CE0100E00E94141B8A899B8901969B8BA4
:1038B0008A8B880F991FED85FE85E80FF91F2591EA
:1038C0003491B901769567957695679520FDDACFA5
:1038D0006F73432FCE0120E00E94841B8A899B894D
:1038E00001969B8B8A8BDF91CF910F91089560E0B9
:1038F0000E94041C0895CF93DF93EC01662309F026
:10390000D6C08F89882309F4D2C08D89882321F4F9
:10391000CE010E94961BCBC081508D8B8DA1882338
:1039200009F03BC08BA19CA10196880F991FEF8DD8
:10393000F8A1E80FF91F85919491282F27702EA3E5
:10394000AC0163E0569547956A95E1F79A01369583
:103950002795892F9927869586958FA32F738C811C
:10396000289F202D11242DA341704093EF048BA19B
:103970009CA101969CA38BA329A130E082179307F9
:1039800060F08AA1882329F0281B31093CA32BA3CE
:1039900004C0CE0160E00E94961B8DA181508DA3D2
:1039A000988D9F5F988F2FA18C89280F8C85280F69
:1039B0002A836B8D662369F0892F992787FD90955F
:1039C00070E00E94F3238C8D869F802D1124820F3E
:1039D0008A838A8190E0CB966BE370E00E94F323A8
:1039E0008A832E892B83698D662379F0888D7727CA
:1039F00067FD7095992787FD90950E94F3238A8D26
:103A0000869F802D1124820F8B836D8D662399F004
:103A1000888D992787FD909570E00E94F323CB0154
:103A200062E070E00E94F3239E8D899F802D112417
:103A30009B81890F8B838B818A300CF089E087FD15
:103A400080E08B838C898F3309F41B82F894EA81A0
:103A5000F0E0E751F84FE491E093EC042D8130E081
:103A60008B81992787FD9095A901489F9001499FD7
:103A7000300D589F300D112488A590E0A901489F72
:103A80009001499F300D589F300D11248EA1992728
:103A900087FD9095AC01249FC001259F900D349F18
:103AA000900D11248093ED048093EE047894DF91BF
:103AB000CF91089560E00E947B1C08956091ED0411
:103AC000662381F18091EA048F5F8093EA049091EC
:103AD000EC04891738F130E08091EB04882309F475
:103AE00031E03093EB041092EA048091EF048823D4
:103AF000A9F08091450123E4829FC0011124895BD4
:103B00008093450190E070E00E94DF238093EE04F3
:103B100005C08091EE048093B40008953323C9F763
:103B200080E0F9CF08951F920F920FB60F921124E3
:103B30002F933F934F935F936F937F938F939F93B5
:103B4000AF93BF93EF93FF930E945E1DFF91EF91A0
:103B5000BF91AF919F918F917F916F915F914F91A5
:103B60003F912F910F900FBE0F901F90189561EE0F
:103B700077E040E00E94B61B089569ED77E040E0F1
:103B80000E94B61B089563ED77E040E00E94B61BEB
:103B90000895FC01862F668170E06F5F7F4F992743
:103BA00087FD90950E94F323858308950F93FC0170
:103BB00081E0848384E080A784E298E0908B87870B
:103BC000CF0161E040E020E000E00E94141B83E0B0
:103BD00061E070E00E94961FE1EBF0E08081887F59
:103BE00081608083F89410928000E1E8F0E0108218
:103BF000109285001092840088E191E090938900F2
:103C00008093880080818860808380818160808348
:103C1000EFE6F0E080818260808378940F910895D0
:103C20000F931F93CF93DF93BC018230910510F463
:103C300062E070E0E091F904F091FA04A0E0B0E0F5
:103C400040E050E024C08081918186179707D0F032
:103C50008617970771F482819381109729F0139644
:103C60009C938E9312972CC09093FA048093F9043E
:103C700027C04115510519F08417950718F4EF0175
:103C80008D01AC01DF01828193819C01F9013097A4
:103C9000D1F641155105F9F0CA01861B970B843006
:103CA000910580F48A819B810115110521F0F801AD
:103CB0009383828304C09093FA048093F904FE01F5
:103CC00032962FC0FE01E80FF91F6193719302979E
:103CD0009983888326C08DB79EB7885790402091DE
:103CE00046013091470128173907C8F4AC01421B3F
:103CF000530B4617570798F0CB0102964817590700
:103D000070F0820F931F9093470180934601909328
:103D1000490180934801F9016193719302C0E0E089
:103D2000F0E0CF01DF91CF911F910F9108951F9285
:103D30000F920FB60F9211242F933F938F939F935F
:103D4000AF93BF938091F4049091F504A091F60491
:103D5000B091F7043091F8040196A11DB11D232FF5
:103D60002D5F2D3720F02D570196A11DB11D2093F9
:103D7000F8048093F4049093F504A093F604B093B0
:103D8000F7048091F0049091F104A091F204B091B5
:103D9000F3040196A11DB11D8093F0049093F104EA
:103DA000A093F204B093F304BF91AF919F918F91D0
:103DB0003F912F910F900FBE0F901F9018958FB7C6
:103DC000F8942091F4043091F5044091F604509158
:103DD000F7048FBFB901CA0108959FB7F8942091E5
:103DE000F0043091F1044091F2045091F30486B54F
:103DF000A89B06C08F3F21F02F5F3F4F4F4F5F4F73
:103E00009FBF542F432F322F2227280F311D411DD2
:103E1000511D82E0220F331F441F551F8A95D1F791
:103E2000B901CA010895EF92FF920F931F93CF93A8
:103E3000DF937B018C010E94ED1EEB010EC00E94FE
:103E4000ED1E6C1B7D0B685E7340C8F30894E1089F
:103E5000F10801091109C851DC4FE114F104010511
:103E6000110569F7DF91CF911F910F91FF90EF90AE
:103E70000895789484B5826084BD84B5816084BDE2
:103E800085B5826085BD85B5816085BDEEE6F0E0D3
:103E9000808181608083E1E8F0E01082808182602F
:103EA0008083808181608083E0E8F0E080818160B0
:103EB0008083E1EBF0E0808184608083E0EBF0E0E0
:103EC000808181608083EAE7F0E080818460808384
:103ED000808182608083808181608083808180682E
:103EE00080831092C1000895982F8E3008F09E5064
:103EF000977080914A018295880F880F807C892B6A
:103F000080937C0080917A00806480937A00809115
:103F10007A0086FDFCCF2091780040917900942FA3
:103F200080E030E0282B392BC90108951F93CF93EF
:103F3000DF93182FEB0161E00E94F61F209709F430
:103F40004AC0CF3FD10509F449C0E12FF0E0EA585B
:103F5000F74F84918330C1F0843028F4813051F0E0
:103F60008230B1F50CC0863019F1873049F18430C8
:103F700079F514C084B5806884BDC7BD33C084B5ED
:103F8000806284BDC8BD2EC080918000806880930F
:103F90008000D0938900C093880024C08091800065
:103FA000806280938000D0938B00C0938A001AC0F7
:103FB0008091B00080688093B000C093B30012C0BD
:103FC0008091B00080628093B000C093B4000AC0BA
:103FD000C038D1051CF4812F60E002C0812F61E060
:103FE0000E946220DF91CF911F910895CF93DF93BC
:103FF000482F50E0CA018E59974FFC013491425B23
:10400000574FFA018491882369F190E0880F991F36
:10401000FC01E05DF74FA591B491FC01E65CF74F20
:10402000C591D491662351F42FB7F8948C91932FB6
:10403000909589238C93888189230BC0623061F429
:104040002FB7F8948C91932F909589238C93888126
:10405000832B88832FBF06C09FB7F8948C91832B46
:104060008C939FBFDF91CF910895833071F084309E
:1040700028F48130A1F0823021F514C08630B1F0EF
:104080008730D1F08430E9F404C0809180008F77CC
:1040900003C0809180008F7D80938000089584B557
:1040A0008F7702C084B58F7D84BD08958091B00064
:1040B0008F778093B00008958091B0008F7D8093BA
:1040C000B0000895FF920F931F93F62E482F50E0F3
:1040D000CA018A58974FFC012491CA018E59974F03
:1040E000FC011491425B574FFA0104910023C9F07F
:1040F000222319F0822F0E943520E02FF0E0EE0FEE
:10410000FF1FE65CF74FA591B4919FB7F894FF208D
:1041100021F48C911095812302C08C91812B8C937A
:104120009FBF1F910F91FF9008950F931F93482FEA
:1041300050E0CA018A58974FFC012491CA018E5958
:10414000974FFC010491425B574FFA0114911123E0
:1041500019F420E030E015C0222319F0822F0E94CC
:104160003520812F90E0880F991F8C5B974FFC01C1
:10417000A591B4918C9120E030E0802311F021E0F2
:1041800030E0C9011F910F910895CF93DF930E94F2
:10419000391F0E94A50BC0E0D0E00E946E0B209753
:1041A000E1F30E940000F9CF0E94101E08950E94C2
:1041B000101E0895CF92DF92EF92FF920F931F93FC
:1041C000CF93DF937C016B018A01C0E0D0E00FC088
:1041D000D6016D916D01D701ED91FC910190F081B7
:1041E000E02DC7010995C80FD91F015010400115D6
:1041F000110571F7CE01DF91CF911F910F91FF90C3
:10420000EF90DF90CF900895EF92FF920F931F935E
:10421000CF93DF937C018B01C0E0D0E0F8010F5F0A
:104220001F4F6491662359F0D701ED91FC910190E5
:10423000F081E02DC7010995C80FD91FEFCFCE013E
:10424000DF91CF911F910F91FF90EF900895DC01C6
:10425000ED91FC910190F081E02D09950895EF9288
:10426000FF920F931F938C01DC01ED91FC91019063
:10427000F081E02D6DE009957C01D801ED91FC9174
:104280000190F081E02DC8016AE009959C012E0D96
:104290003F1DC9011F910F91FF90EF900895EF927C
:1042A000FF920F931F937C010E9404218C01C70190
:1042B0000E942F219C01200F311FC9011F910F91D6
:1042C000FF90EF900895CF93DF93EC016115710596
:1042D00019F420E030E00FC0DB010D900020E9F779
:1042E0001197A61BB70BE881F9810280F381E02DBD
:1042F000AD0109959C01C901DF91CF9108954F92BD
:104300005F927F928F929F92AF92BF92CF92DF92F5
:10431000EF92FF920F931F93DF93CF93CDB7DEB74A
:10432000A1970FB6F894DEBF0FBECDBF2C01742E3F
:10433000CB01223008F42AE019A231E2C32ED12C9D
:10434000CC0EDD1E822E9924AA24BB24672D752F46
:10435000A50194010E94062479018A01C801B701D0
:10436000A50194010E94B423472D461B0894C1085F
:10437000D1084A3014F4405D01C0495CF601408325
:10438000E114F1040105110521F07E2C5F2DC80117
:10439000DDCFC201B6010E946321A1960FB6F89449
:1043A000DEBF0FBECDBFCF91DF911F910F91FF9068
:1043B000EF90DF90CF90BF90AF909F908F907F90C5
:1043C0005F904F900895DC012115310541F4ED9186
:1043D000FC910190F081E02D642F099508950E94D1
:1043E0007F210895EF92FF920F931F939A017B0113
:1043F00000E010E0B801A7010E94E3211F910F9196
:10440000FF90EF9008950E94632108952F923F92AC
:104410004F925F926F927F928F929F92AF92BF92D4
:10442000CF92DF92EF92FF920F931F93DF93CF9380
:10443000CDB7DEB73B014C0119012A016D897E8998
:104440008F89988D6A197B098C099D09621A730AF4
:10445000840A950AA40193010E94B423E218F30888
:1044600004091509A80197010E9428242A0D3B1D63
:104470004C1D5D1DB901CA01CF91DF911F910F91B4
:10448000FF90EF90DF90CF90BF90AF909F908F9074
:104490007F906F905F904F903F902F900895EF9294
:1044A000FF920F931F937B018C01611571058105AC
:1044B000910529F420E030E040E050E00BC00E947C
:1044C0009C24A80197010E942824AC01CB01DA01A9
:1044D0009C01AD01B901CA011F910F91FF90EF90AE
:1044E0000895EF92FF920F931F937B018C01621747
:1044F00073078407950764F4261B370B480B590B89
:10450000CA01B9010E944F22E60EF71E081F191FAB
:10451000B701C8011F910F91FF90EF900895009788
:1045200029F0BC0180E090E00E94A124089598D079
:1045300088F09F5790F0B92F9927B751A0F0D1F08C
:10454000660F771F881F991F1AF0BA95C9F712C016
:10455000B13081F09FD0B1E008959CC0672F782FD3
:104560008827B85F39F0B93FCCF386957795679582
:10457000B395D9F73EF490958095709561957F4FEE
:104580008F4F9F4F0895E89409C097FB3EF4909594
:104590008095709561957F4F8F4F9F4F9923A9F01C
:1045A000F92F96E9BB279395F695879577956795AB
:1045B000B795F111F8CFFAF4BB0F11F460FF1BC0EF
:1045C0006F5F7F4F8F4F9F4F16C0882311F096E982
:1045D00011C0772321F09EE8872F762F05C0662330
:1045E00071F096E8862F70E060E02AF09A95660FE9
:1045F000771F881FDAF7880F9695879597F90895A2
:1046000097F99F6780E870E060E008959FEF80EC85
:10461000089500240A941616170618060906089528
:1046200000240A9412161306140605060895092E8E
:104630000394000C11F4882352F0BB0F40F4BF2BFD
:1046400011F460FF04C06F5F7F4F8F4F9F4F08953D
:1046500057FD9058440F551F59F05F3F71F0479533
:10466000880F97FB991F61F09F3F79F08795089518
:10467000121613061406551FF2CF4695F1DF08C037
:10468000161617061806991FF1CF86957105610554
:1046900008940895E894BB2766277727CB0197F9FC
:1046A00008950BD0C4CFB5DF28F0BADF18F09523FA
:1046B00009F0A6CFABCF1124EECFCADFA0F3959FB0
:1046C000D1F3950F50E0551F629FF001729FBB27F9
:1046D000F00DB11D639FAA27F00DB11DAA1F649FA5
:1046E0006627B00DA11D661F829F2227B00DA11D58
:1046F000621F739FB00DA11D621F839FA00D611DDE
:10470000221F749F3327A00D611D231F849F600DFE
:10471000211D822F762F6A2F11249F5750408AF037
:10472000E1F088234AF0EE0FFF1FBB1F661F771FC3
:10473000881F91505040A9F79E3F510570F060CFFF
:10474000AACF5F3FECF3983EDCF3869577956795AB
:10475000B795F795E7959F5FC1F7FE2B880F911DE1
:104760009695879597F90895629FD001739FF00100
:10477000829FE00DF11D649FE00DF11D929FF00DF1
:10478000839FF00D749FF00D659FF00D9927729F28
:10479000B00DE11DF91F639FB00DE11DF91FBD01B3
:1047A000CF0111240895991B79E004C0991F961731
:1047B00008F0961B881F7A95C9F780950895AA1B63
:1047C000BB1B51E107C0AA1FBB1FA617B70710F0FC
:1047D000A61BB70B881F991F5A95A9F7809590952E
:1047E000BC01CD01089597FB092E07260AD077FD5D
:1047F00004D0E5DF06D000201AF4709561957F4F54
:104800000895F6F7909581959F4F0895A1E21A2E8D
:10481000AA1BBB1BFD010DC0AA1FBB1FEE1FFF1F64
:10482000A217B307E407F50720F0A21BB30BE40BB4
:10483000F50B661F771F881F991F1A9469F76095FB
:104840007095809590959B01AC01BD01CF010895B5
:1048500097FB092E05260ED057FD04D0D7DF0AD0CE
:10486000001C38F450954095309521953F4F4F4F9F
:104870005F4F0895F6F790958095709561957F4FFD
:104880008F4F9F4F0895EE0FFF1F0590F491E02D7D
:104890000994A0E0B0E0EFE4F4E20C94B224EC015F
:1048A000A880B980CA80DB80A114B104C104D104FE
:1048B00041F484E2A82E89EDB82E8BE5C82E87E05E
:1048C000D82EC601B5012DE133EF41E050E00E9442
:1048D000282427EA31E440E050E00E94B4237B0121
:1048E0008C01C601B5012DE133EF41E050E00E949B
:1048F0002824CA01B9012CEE34EF4FEF5FEF0E947C
:10490000B4236E0D7F1D801F911F97FF04C061505F
:10491000704080409048688379838A839B839B01A1
:10492000AC015F77B901CA01CDB7DEB7EAE00C94FC
:10493000CE240E944924089589E191E00E944924EF
:1049400008956093190170931A0180931B0190934D
:104950001C0108952F923F924F925F926F927F9227
:104960008F929F92AF92BF92CF92DF92EF92FF927F
:104970000F931F93CF93DF93CDB7DEB7CA1BDB0B2B
:104980000FB6F894DEBF0FBECDBF09942A883988D0
:1049900048885F846E847D848C849B84AA84B984D7
:1049A000C884DF80EE80FD800C811B81AA81B981E3
:1049B000CE0FD11D0FB6F894DEBF0FBECDBFED01F7
:0649C0000895F894FFCFFA
:1049C60041726561203A20002E204B696C6C203ABA
:1049D60020004C4F414445520001000000FE0308F0
:1049E6000412041C04260430043A0444044E0458F9
:1049F6000462046C04760480048A0494049E04A869
:104A060004B204BC0401FB04640001000000009B26
:044A160013DA20008F
:00000001FF
