:100000000C94CE030C94F6030C94F6030C94F603B4
:100010000C94F6030C94F6030C94F6030C94F6037C
:100020000C94F6030C94F6030C94F6030C94411C08
:100030000C94F6030C94F6030C94F6030C94F6035C
:100040000C94451D0C94F6030C94F6030C94F603E3
:100050000C94F6030C94F6030C94F6030C94F6033C
:100060000C94F6030C94F60308087E547C107C1064
:10007000284420520020490020590058001810FF41
:10008000FFFF8000018000018000018000018000EE
:10009000018FFFFF880000880000880000880000B2
:1000A000880000880000880000880000F800001820
:1000B0001000001F000011000011000011000011CD
:1000C000000011000011000011000011FFFFF1807D
:1000D0000001800001800001800001800001FFFF1D
:1000E000FF101000000000000007C01C00301020AE
:1000F000F063804C00183810E0118003000200000B
:10010000000000D603E203EC03F703456E2061769E
:10011000616E742100556E206775696E6F6D6F6E2C
:10012000207361757661676521006C657320706569
:1001300074697473206D6F6E737472657300030459
:100140000A041204170403040A041E041704030417
:100150000A042204170403040A04290417041818C3
:10016000000800003400003400006E00006E000142
:10017000E7800318C00608600C0830080018180053
:100180000831E3CC206304606306400002400003B2
:10019000C00001800001800001F8FE1F84E021FC06
:1001A000E03FAA0055FFFFFF1818000800003400C8
:1001B000003400006E00006E0001F7800310C006DE
:1001C00038600C6C3008461818830831118C2118DF
:1001D000C4612C46412842432843C624518C267DC5
:1001E0008C6625BCD735A8BB1FE8A809880009FF85
:1001F000FFFF18180000800003C00006E0000DA0FB
:100200000039380067EC007C3E01C0070300070698
:1002100000090CF819081811100825300065200095
:100220004D2040592FC07D40404540004543FE6170
:100230004E03E178007B60000FC000031818000037
:10024000000000000000800001800002C01C05408A
:10025000178F4034FA40643A40463E60C203A09291
:1002600000E09200309303588903FC89020689005C
:100270000291002391003992006FA20001A63FFD78
:1002800087E007FE0001181800000000000000FFD2
:10029000C007C8F81E083E3FFFFF7FE3FF5C000E6B
:1002A0004C738C5F73B873003D3300471E1E2E0FD6
:1002B000807C01E3E001E1C00780700800180800BD
:1002C0000C107F0630E3867FE3FFE7C1E78800116B
:1002D000181800000000000000FFC007C8F81E0842
:1002E0003E3FFFFF7FE3FF5C220E4C220C5FE37872
:1002F00073E3FD3363471E232E0FE1FC01E3E001AE
:10030000E1C007807008001808000C107F0630E379
:10031000867FE3FFE7C1E78800111818000000009E
:1003200000000000005545545545545545547FC7BD
:10033000FC4044044044047DC7DC050050050050E7
:100340000F1C5009B6D818E3881780C81C007831F4
:10035000FF9878E71E4C4233C40061FE7C7FAB00FF
:1003600055FFFFFF181800000000000000000055B6
:1003700045545545545545547FC7FC4044044044BA
:10038000047DC7DC0500500500500F1C5009B6D88D
:1003900018EB881794C81C2678326B187689DE44CF
:1003A000DE43C5D259CD134D892061FFFFFF0808F8
:1003B00005020500A04AA40A080800044455555542
:1003C00055550808005004400210024008083C2619
:1003D000DBA5AD93443C4D6563686542697A617203
:1003E0006400466C6F7474696C6C65004368616D81
:1003F0007069466F7274005465727261426166661C
:100400006C65004368617267650045737175697654
:10041000650046657578004368616E6765004561F3
:100420007500506C616E74650074657272650003CE
:10043000053F213F1208120A100A0E1C0E0C1E0C5A
:10044000141A14161F161E131E1E1B1E1E1F1E3FDF
:10045000213F3A2F3A173D173F213F181F02040A48
:10046000041F0E04040E1F0A1F0A0E0E1F04110E95
:100470002E252E2F2A2E262929021F02081F081595
:100480000E04040E150E15151B151B040604040C92
:10049000040000000017000300031F0A1F16371A8C
:1004A0001904130A153A000300000E11110E000A78
:1004B000040A040E040030000404040010001804B0
:1004C000031F111F121F101D151711151F07041FE1
:1004D00017151D1F151D01011F1F151F17151F00C3
:1004E0000A00003200040A110A0A0A110A0401155E
:1004F000020E11171E051E1F150A0E110A1F110EDE
:100500001F15111F05010E111D1F041F111F1108BA
:10051000100F1F041B1F10101F061F1E040F0E11AB
:100520000E1F09060E112E1F051A121509011F01B3
:100530001F101F0F180F1F0C1F1B041B031C031978
:100540001513001F11030418111F000201022020BF
:10055000200001020C121E1F120C0C12120C121F92
:100560000C1A14041E05242A1E1F021C141D102020
:10057000201D1F0814111F101E041E1E021C0C1229
:100580000C3E0A040C123E1E040214160A020F123C
:100590000E101E0E100E1E081E120C1226281E32E1
:1005A0002A26041E21001F00211E040102013F21F2
:1005B0003F0A4E6F2053442063617264206F720AB9
:1005C0006E6F204C4F414445522E4845580A0A153B
:1005D0003A45786974001D20466C617368696E67DE
:1005E0000A20206C6F616465722E2E2E0A0A444F19
:1005F0004E2754205455524E204F464621006D56EA
:100600000A0A504C454153450A5455524E204F4614
:1006100046004C4F5720424154544552590A001746
:100620007361766500166261636B0015747970659D
:10063000000A0A0A153A6F6B617920163A656469F7
:100640007400596F7520656E74657265640A005494
:100650000A03E181867F3E186D830F0F0E018386AA
:100660006033186DC3198F1803C38E6033186DE3A0
:1006700030CF1803C39E603630CDE360CF3006C75D
:100680009E7E3E30CDB360CF300CC6F6603330D99D
:10069000B660CF33CFCCF66061B0DB1E60CF30D810
:1006A0006CE6C061B0DB1E618F19986CC6C063B187
:1006B0009B0E330F0FB078C6FF7E1F1B061E0F1751
:1006C000534400161378001613140015102000155B
:1006D00020100000000500893008023802497868BF
:1006E00014000045006801000005006801380100A1
:1006F000000500380168010000F6E8DBCFC3B8AEA2
:10070000A49B928A827B746E68625C57524E494504
:10071000413E3A3734312E2C29272523211F1D1C19
:100720001A1917161514131211100F0E0D0C0B0AAF
:100730000908070638073C070101F7030101FF0319
:1007400000000000240027002A000000000025000F
:1007500028002B00000000002300260029000404CC
:100760000404040404040202020202020303030359
:100770000303010204081020408001020408102035
:10078000010204081020000000070002010000031D
:10079000040600000000000000005B0411241FBEDE
:1007A000CFEFD8E0DEBFCDBF11E0A0E0B1E0E6EED4
:1007B000F7E402C005900D92A232B107D9F714E018
:1007C000A2E2B1E001C01D92AC3BB107E1F717E036
:1007D000CCE9D7E004C02297FE010E945523CA3914
:1007E000D107C9F70E94731F0C94F1230C940000E9
:1007F000FC0116868FEF818B0895FC01618B0895B3
:100800002FEFFC01218B0895FC01808124E68202F8
:10081000C0011124648170E00E940323862F089593
:10082000813061F0813028F0823081F08330F1F442
:1008300015C06623E1F428EA31E01BC0662319F4F1
:100840002CE332E016C022EF31E013C0662319F426
:1008500020ED32E00EC026E832E00BC0662319F42A
:1008600024E633E006C02AE133E003C008952EE514
:1008700031E0C9010895813039F0813078F082305B
:1008800031F0833051F406C026E431E009C02EE493
:1008900031E006C026E531E003C008952EE331E0E3
:1008A000C9010895689FC001112464E670E00E94A8
:1008B0000323862F089510927301109272018DE127
:1008C00091E0909371018093700108958F929F92AF
:1008D000AF92BF92CF92DF92EF920F931F93CF937D
:1008E000DF93CC24DD248824992460C0F5010081A5
:1008F000E091AF02F091B002BE016E1B7F0BA091A0
:10090000B102B091B202CB0108968D359105D0F5B8
:10091000A4014A1B5B0B8FEF483F58079CF1413302
:10092000510584F52091AD023091AE028091AB0269
:100930009091AC0213E0880F991F1A95E1F78E1B76
:100940009F0B8617970751F413E0220F331F1A9558
:10095000E1F72A1B3B0B24173507A1F010E0F80143
:10096000E370F070EE0FFF1FE55FFE4F20813181D5
:100970001595079515950795037080E791E0EE248E
:100980000E94A910E0E1F0E0AE0EBF1E2896C0382C
:10099000D10509F0ABCF0894C11CD11C88E090E0D0
:1009A000880E991E90E1C916D10449F06BEAA62E73
:1009B00061E0B62EAC0CBD1CC0E0D0E097CFDF915B
:1009C000CF911F910F91EF90DF90CF90BF90AF909C
:1009D0009F908F900895EF920F931F936091AB02B9
:1009E0007091AC02E3E0660F771FEA95E1F7809122
:1009F000AF029091B002681B790B4091AD0250910B
:100A0000AE022091B1023091B202CB014096853600
:100A10009105B0F473E0440F551F7A95E1F7421B3E
:100A2000530B8FEF403F58075CF04133510544F4BE
:100A300080E791E028E630E000E0EE240E94A91073
:100A400080E791E06BE770E00E94B21F6091AB021B
:100A50007091AC0280E791E04AE050E00E940321EF
:100A600080E791E068E770E00E94B21F6091AD02FC
:100A70007091AE0280E791E04AE050E00E940321CD
:100A80008091AD02E091AB02F0E024E0EE0FFF1F99
:100A90002A95E1F7E80FF11DE555FE4F108113701F
:100AA00080E791E065E770E00E94B21F80E791E087
:100AB000612F4AE050E00E94B1208091AD02E091A8
:100AC000AB02F0E094E0EE0FFF1F9A95E1F7E80F1C
:100AD000F11DE555FE4F008110E015950795159520
:100AE0000795037080E791E062E770E00E94B21F13
:100AF00080E791E0602F4AE050E00E94B1201F9112
:100B00000F91EF900895EF92FF920F931F93009132
:100B1000AB02E090AC021091AD02F090AE028CE21C
:100B200091E062E044E00E94050D882369F0809125
:100B3000AB029091AC02419660E170E00E94032309
:100B40009093AC028093AB028CE291E060E044E0D1
:100B50000E94050D882369F08091AB029091AC0250
:100B60000F9660E170E00E9403239093AC028093A3
:100B7000AB028CE291E063E044E00E94050D882323
:100B800069F08091AD029091AE02419660E170E013
:100B90000E9403239093AE028093AD028CE291E019
:100BA00061E044E00E94050D882369F08091AD0268
:100BB0009091AE020F9660E170E00E940323909343
:100BC000AE028093AD028091AD02E091AB02F0E005
:100BD00094E0EE0FFF1F9A95E1F7E80FF11DE55540
:100BE000FE4FE081E370E330A9F40093AB02E092A2
:100BF000AC021093AD02F092AE02E02FF0E084E080
:100C0000EE0FFF1F8A95E1F7E10FF11DE555FE4F4D
:100C1000E081E370E13089F460E070E080E090E032
:100C200024E630E040E050E00E948121611571052A
:100C30008105910511F480E03BC0E091AD02F09197
:100C4000AE02329703E0EE0FFF1F0A95E1F78091A5
:100C5000AB029091AC0213E0880F991F1A95E1F74F
:100C60004091AF025091B0029A01220F331F240F1E
:100C7000351F820F931F829764E070E00E94032368
:100C80007093B0026093AF022091B1023091B20232
:100C9000C901880F991F820F931F8E0F9F1F64E059
:100CA00070E00E9403237093B2026093B10281E06E
:100CB0001F910F91FF90EF900895CF92DF92FF92D6
:100CC0000F931F93CF93DF930BEA11E0E80160E0ED
:100CD00070E080E090E024E030E040E050E00E94EE
:100CE0008121660F660F6D5F688360E070E080E0D1
:100CF00090E024E030E040E050E00E948121C051CB
:100D0000DF4F660F660F6D5F6883CF5ED04081E076
:100D1000CB3BD807E1F660E070E080E090E024E0B3
:100D200030E040E050E00E948121660F660F6D5F69
:100D3000F801608360E070E080E090E024E030E063
:100D400040E050E00E948121660F660F6D5FF80160
:100D50006787005F1F4FF2E00B3A1F07E1F601E0E3
:100D600010E027C060E070E080E090E024E030E038
:100D700040E050E00E948121F62E81E0F81611F447
:100D8000F8820EC060E070E080E090E024E030E0A7
:100D900040E050E00E948121660F660F6F0D68836E
:100DA0006096CC15DD05F1F60F5F1F4F0F30110572
:100DB00051F0E801C554DE4F2BE9C22E22E0D22EBD
:100DC000C00ED11ECFCFDF91CF911F910F91FF9019
:100DD000DF90CF90089582E291E00E948D150E94ED
:100DE0005D0681E090E09093AC028093AB0290931B
:100DF000AE028093AD0208950F931F930E94830566
:100E0000882331F00E9466040E94EB0480E070C0E9
:100E100082E190E00E94851F8C010E94F80360E04F
:100E200070E080E090E024E030E040E050E00E949C
:100E30008121F8017487638761E070E080E090E0D1
:100E400024E030E040E050E00E948121F80161831D
:100E500065836AE070E080E090E024E130E040E00B
:100E600050E00E948121F8016083648361E070E0BA
:100E700080E090E025E030E040E050E00E948121F9
:100E8000F8016383678361E070E080E090E025E033
:100E900030E040E050E00E948121F80162836683E7
:100EA0008DB79EB742970FB6F8949EBF0FBE8DBF09
:100EB0008091A8019091A9018096ADB7BEB7119617
:100EC00022E101900D922150E1F70E948E0BEDB7C7
:100ED000FEB772960FB6F894FEBF0FBEEDBF8091BD
:100EE000A8019091A901809660E00E94BF0B81E06B
:100EF0001F910F9108958091A8019091A90180966A
:100F000060E00E94BF0B08950F931F938091A8018A
:100F10009091A9010E94CA0B8C018091A801909127
:100F2000A90180960E94CA0BFC018081D80111960C
:100F30009C91891B808387FD10828091A8019091EC
:100F4000A90180960E94CA0B8C018091A801909102
:100F5000A9010E94CA0BFC018081D80111969C91C5
:100F6000891B808387FD10828091A8019091A9013F
:100F70000E94CA0B0E9400048091A8019091A901CF
:100F800080960E94CA0B0E9400041F910F91089541
:100F90008F929F92AF92BF92CF92DF92EF92FF9289
:100FA0000F931F93CF93DF9334E1A32EB12CEE2444
:100FB00082E291E00E94D8158823D1F3A114B104F4
:100FC00009F442C00894A108B108C50163E070E0CB
:100FD0000E940323892B11F481E0E82688249924B8
:100FE000FF242BC0C60181709070EE2019F0892B70
:100FF00019F405C0892B19F4209781F002C02097BD
:1010000069F480E791E06F2D412F24E007E00E9412
:10101000470E80E791E061E00E94AE0D0894C11C8C
:10102000D11C195F1936F1F60894811C911C84E0DB
:10103000F80E8CE3F81609F4BBCFCC24DD2410E0C5
:10104000E401C170D070CECFDF91CF911F910F918D
:10105000FF90EF90DF90CF90BF90AF909F908F90D8
:101060000895CF92DF92EF92FF920F931F93EAE5DC
:10107000EE2E73E5C72E66E4D62E82E291E00E9442
:10108000D8158823D1F380E791E062E040E02DE7B6
:1010900030E00E943B108091A8019091A9018096B8
:1010A0000E94CA0B0E94040466E10E945204282F89
:1010B00080E791E063E041E006E00E94470E80E7B0
:1010C00091E06CE340E22FEA30E00E943B10809117
:1010D000A8019091A9010E94CA0B0E94040466E134
:1010E0000E945204282F6C2D681B80E791E049E292
:1010F0000E94470E81E38E1550F08E2D63E00E9412
:10110000E322992321F4EEE1EE1508F454C0809116
:10111000A8019091A90180960E94CA0BFC018385C9
:1011200061E00E9410049C0180E791E06CE340E0E4
:101130000E943B108091A8019091A9010E94CA0BC6
:10114000FC01838560E00E9410049C0180E791E02F
:1011500062E048E10E943B10FBE4FE1570F40E2DA6
:1011600010E00B541040000F111FF02E80E791E0AB
:1011700062E00E94AE0D60E210C08CE38E15D8F4E0
:101180000E2D10E00C531040000F111FF02E80E7C1
:1011900091E062E00E94AE0D6D2D6F1980E791E045
:1011A000402F21EE30E00E943B1080E791E061E0AB
:1011B0000E94AE0D09C08CE291E064E00E94FB0C3D
:1011C000882321F4EE2011F0EA9457CF1F910F915C
:1011D000FF90EF90DF90CF9008958091A8019091BB
:1011E000A90180960E94C20B882319F18091A80161
:1011F0009091A9010E94C20B8823D9F00E94840714
:101200000E9431088091A8019091A9010E94CA0B07
:10121000FC018081882371F08091A8019091A9013F
:1012200080960E94CA0BFC018081882319F081E01E
:10123000089581E008958091A8019091A9010E94EC
:10124000B80B8091A8019091A90180960E94B80BDB
:101250008091A8019091A90180960E94BC0B0895ED
:101260008091A8019091A90180960E94CA0B60E02C
:101270000E94FD0308951F938091A8019091A901F8
:101280000E94CA0BFC0183850E943B04BC0182E2E0
:1012900091E044E00E949116182F833031F4809140
:1012A000A8019091A9010E94B80B8091A80190918A
:1012B000A9010E94CA0B612F0E94FD038091A80121
:1012C0009091A9010E94CA0B612F0E94FD031F91FA
:1012D0000895DF92EF92FF920F931F938091A801E0
:1012E0009091A9010E94C20B882309F090C082E26C
:1012F00091E063E071E044E00E949116682F8091D4
:10130000A8019091A9010E94BF0B82E291E06BE0DD
:1013100071E04CE30E94C0131CE3B3E5DB2EACE1AB
:10132000EA2E82E291E00E94D8158823D1F31F3182
:1013300018F0FE2CF11A0DC08CE291E064E00E94DE
:10134000FB0C882309F063C0112309F460C0F2E0AC
:10135000FF2E115080E791E062E040E02DE730E0A1
:101360000E943B108091A8019091A90180960E9453
:10137000CA0BFC01838561E00E9410049C0180E798
:1013800091E06CE340E00E943B108091A8019091B5
:10139000A90180960E94CA0B0E94040466E10E9483
:1013A0005204282F80E791E063E041E006E00E94CC
:1013B000470E80E791E06CE340E22FEA30E00E94C4
:1013C0003B108091A8019091A9010E94CA0BFC01D9
:1013D000838560E00E9410049C0180E791E06F2DFE
:1013E00048E10E943B108091A8019091A9010E94C0
:1013F000CA0B0E94040466E10E945204282F6D2D3E
:10140000681B80E791E049E20E94470E8ACF1F9156
:101410000F91FF90EF90DF9008950F931F9382E25A
:1014200091E065E171E04CE30E94C0131CE382E2AD
:1014300091E00E94D8158823D1F31F3118F0012FB5
:10144000025E0AC08CE291E064E00E94FB0C8823FB
:10145000C1F41123B1F00CE311508091A8019091D7
:10146000A90180960E94CA0BFC01838561E00E945D
:1014700010049C0180E791E0602F40E00E943B1047
:10148000D6CF1F910F9108950E94C8070E940D0AA0
:101490008091A8019091A9010E94B80B0E947B073E
:1014A0000E9469090E9430090E943B090E94ED08D0
:1014B0008823A1F70E941B0980E0089582E291E051
:1014C0000E94D815882381F08091AA01882319F001
:1014D000813041F403C00E94FC0602C00E94440A0D
:1014E0008093AA0110923A0108958F929F92AF9231
:1014F000BF92DF92EF92FF920F931F93CF93DF93F0
:101500001092AA0182E291E00E945B1982E291E0CE
:101510006AE271E00E94561982E291E00E948D1504
:101520008AE290E00E94851F8C010E94D60BC801C0
:1015300008960E94D60BC80140960E94D60BC8019F
:1015400048960E94D60BC80180960E94D60B109335
:10155000A9010093A80188E090E00E94851F182F40
:10156000092F0E94D60B2091A8013091A901C90131
:10157000DC01212F302FC901FC0188E001900D9280
:101580008150E1F782E190E00E94851F8C010E946A
:10159000F803F8011486138682E0818385839EE137
:1015A000D92ED082D48285E0F82EF382F782EE2401
:1015B000E394E282E68282E190E00E94851F4C0182
:1015C0000E94F80381E090E0F4019487838783E030
:1015D00081838583D082D482F382F782E282E6829D
:1015E00082E190E00E94851F5C010E94F80382E086
:1015F00090E0F5019487838784E081838583D0829E
:10160000D482F382F782E282E68282E190E00E9455
:10161000851FEC010E94F80383E090E09C878B8794
:10162000F982FD82D882DC82FB82FF82EA82EE822E
:101630008DB79EB742970FB6F8949EBF0FBE8DBF71
:101640008091A8019091A901ADB7BEB71196F8019C
:1016500022E101900D922150E1F70E948E0B8091C2
:10166000A8019091A901ADB7BEB71196F40122E18E
:1016700001900D922150E1F70E948E0B8091A801FC
:101680009091A901ADB7BEB71196F50122E1019085
:101690000D922150E1F70E948E0B8091A80190914C
:1016A000A901ADB7BEB71196FE0122E101900D92DE
:1016B0002150E1F70E948E0BE091A801F091A90161
:1016C00081E081A7EDB7FEB772960FB6F894FEBF22
:1016D0000FBEEDBF88E090E00E94851F182F092FF4
:1016E0000E94D60BE091A801F091A901B096212F9C
:1016F000302FC901DC0188E00D9001928150E1F7A3
:101700000E94EB06DF91CF911F910F91FF90EF9018
:10171000DF90BF90AF909F908F900895DF93CF930D
:10172000CDB7DEB7DC0115962C9115972430E8F47F
:1017300082E1289FC001112416964D915C91179764
:101740002A8B480F591F9E012B5F3F4F82E1F90101
:1017500001909F01FA010192AF018150C1F71596E6
:101760008C9115978F5F15968C93CF91DF9108958B
:101770002FEFFC0124830895FC0115820895FC01DC
:101780006483089520E0FC0184818F3F09F021E00B
:10179000822F0895FC01848122E1829FC0011124DF
:1017A00026813781280F391FC9010895DF92EF92F2
:1017B000FF920F931F937C01FC0115828FEF8483AE
:1017C00088E490E00E94821FD92E082F192F0E94D2
:1017D000F803C80142960E94F803C80184960E944B
:1017E000F803C801C6960E94F803F7010683D78262
:1017F0001F910F91FF90EF90DF900895882319F4C7
:101800008CB5806202C08CB58F7D8CBD08959CB56F
:10181000937F982B9CBD08952CB5382F33702C7F67
:10182000322B3CBD2DB590E0959587959595879584
:1018300081702E7F822B8DBD08958AE061E00E9429
:10184000101F8AE061E00E94A41E8CB580618CBDEF
:101850008CB580648CBD8DE061E00E94A41E8BE09D
:1018600061E00E94A41E0895FC0181E08083089538
:1018700085E070E00E94441E08956F927F928F92DF
:101880009F92AF92BF92CF92DF92EF92FF920F930F
:101890001F93CF93DF93EC0189819A818C0124E01F
:1018A000000F111F2A95E1F7081B190B85E10E9413
:1018B000221EBC01600F711F84E0769567958A95A2
:1018C000E1F77A8369838881882381F12E813F81C2
:1018D0006217730710F4B90106C0888599858617C9
:1018E000970708F4BC0100D000D080E090E040E011
:1018F00050E0E884F98400E010E0AD80BB24CC2403
:10190000DD246C80772488249924EDB7FEB76182AA
:101910007282838294820E9416216B830F900F90B3
:101920000F900F9085E070E00E94441EDF91CF91F0
:101930001F910F91FF90EF90DF90CF90BF90AF90ED
:101940009F908F907F906F900895FC018CE39FE0B3
:101950009383828384E0818381E084870895CF9399
:10196000DF93EC018C8590E08F719070892B69F585
:1019700084E10E94221EAA2797FDA095BA2FBC01E0
:10198000CD010E94D52126EE3FE34EEC50E40E94AB
:1019900061220E94A7219B01AC017B836A836115B0
:1019A000710589F084E08983B901FE0120E084811A
:1019B00095816817790710F429830AC02F5F329642
:1019C0002430A9F702C08FEF89838C858F5F8C87C5
:1019D000DF91CF910895FC0188E0808389E08183C5
:1019E00087E0828386E0838384E0848382E085834A
:1019F00081E18683089520E0FC01E60FF11D8781D7
:101A0000813009F421E0822F0895E62FF0E0423082
:101A100040F420E0E80FF91F878181508E3F88F461
:101A20000FC0E80FF91F87818F3F11F420E009C034
:101A300020E090E0642F70E00E94EF22019709F40B
:101A400021E0822F08950F931F93CF93DF93EC0132
:101A500010E00FEF888162E00E94A41E88810E943E
:101A6000431F2F81892B19F42F5F2F8307C0222357
:101A700049F02F3F11F41F8201C00F83888160E07D
:101A80000E94A41E1F5F2196173021F7DF91CF918E
:101A90001F910F910895FC01742F643508F05DC00B
:101AA00047FD5BC040330CF058C0878D823019F57C
:101AB000842F859585958595992787FD9095462F47
:101AC000552747FD509524E530E0829FF001839F24
:101AD000F00D929FF00D1124E40FF51FED54FD4F12
:101AE000808190E0272F277002C0959587952A95D1
:101AF000E2F780958170972F959595959595462F4E
:101B0000552747FD5095272F27708823A1F4E4E53A
:101B10009E02F0011124E40FF51FED54FD4F81E00A
:101B200090E002C0880F991F2A95E2F780952081E6
:101B3000282320830895E4E59E02F0011124E40F98
:101B4000F51FED54FD4F81E090E002C0880F991F12
:101B50002A95E2F72081282B20830895FC01678FC6
:101B600060A30895FC01678F40A30895AF92BF92D0
:101B7000CF92DF92EF92FF920F931F93CF93DF9359
:101B8000EC01162FF42EE22EAA24402F552747FDF4
:101B900050958F2D992787FD9095481B590B57FF1E
:101BA00003C0509541955F4F2E2D332727FD30956B
:101BB000812F992787FD9095281B390B37FF03C08C
:101BC000309521953F4F2417350744F4AA24A39458
:101BD0008F2DF12E182F802F0E2DE82EE11634F4C4
:101BE0008E2DE12E182F802F0F2DF82EDE2CD11ADE
:101BF000202F332727FD30958F2D992787FD90952E
:101C0000281B390B37FF03C0309521953F4FB22E6B
:101C1000F0161CF0CC24CA9402C0CC24C3948D2DA1
:101C2000D7FC8F5F082F059511C0AA2021F0CE01A7
:101C30006F2D412F03C0CE01612F4F2D0E944B0D00
:101C40000B1907FF02C0FC0C0D0D1F5FE1166CF7AE
:101C5000DF91CF911F910F91FF90EF90DF90CF9088
:101C6000BF90AF9008950F93042F322F262F21504D
:101C7000230F0E94B60D0F9108950F93362F042F56
:101C80000150020F232F0E94B60D0F9108959F92CD
:101C9000AF92BF92CF92DF92EF92FF920F931F937A
:101CA000CF93DF936C01B62E942EA02EC0E0D0E02F
:101CB000E62EFF24E7FCF094022F112707FD109574
:101CC0000E0D1F1D06C0C601492D2A2D0E943D0E76
:101CD00021966B2D6C0FCE018E0D9F1D80179107E5
:101CE00094F3DF91CF911F910F91FF90EF90DF90D0
:101CF000CF90BF90AF909F9008952F923F925F92A8
:101D00006F927F928F929F92AF92BF92CF92DF920B
:101D1000EF92FF920F931F93DF93CF9300D000D0E9
:101D200000D0CDB7DEB79E838D83C62ED42EEE2491
:101D3000E394E21A8EEF289F502C1124842E8A946B
:101D4000962E9A94A42EA394B62EB394F22E6624C3
:101D500023E0722E10E0C801847090709A8389830A
:101D6000F801E270F070FC83EB8398E0292E312CAF
:101D7000202231220170107054C0E7FC04C0FA9494
:101D8000F2E05F0EE50C639489819A81892B71F0F2
:101D90004F2D4D0D8D819E816B2D0E944B0D6F2D12
:101DA0006C0D8D819E814A2D0E944B0DEB81FC8133
:101DB000EF2B71F04D2D4F198D819E816B2D0E945F
:101DC0004B0D6F2D6C0D8D819E81482D0E944B0D0A
:101DD0002114310471F06C2D6F198D819E814A2D73
:101DE0000E944B0D4F2D4D0D8D819E81692D0E94BE
:101DF0004B0D0115110571F06C2D6F198D819E81B0
:101E0000482D0E944B0D4D2D4F198D819E81692DBE
:101E10000E944B0DE70CF2E07F0E8A949A94A394F3
:101E2000B3946F140CF4A9CF26960FB6F894DEBFC6
:101E30000FBECDBFCF91DF911F910F91FF90EF901B
:101E4000DF90CF90BF90AF909F908F907F906F90DA
:101E50005F903F902F9008954F925F926F927F9284
:101E60008F929F92AF92BF92CF92DF92EF92FF92AA
:101E70000F931F93CF93DF93EC01A62E742E9E2D0C
:101E8000FF24F394F21A8EEF289F802C1124B42E95
:101E9000BA9453E0C52ECE0CE22EDD2443E0942EFE
:101EA00010E031E0432E512C40225122692E6394E0
:101EB0000270107034C0F7FC04C0EA9482E0880E0F
:101EC000F80CD3944114510489F06D2D6A0D472DFF
:101ED0004E192E2D220F260DCE010E943D0E6E2D85
:101EE0006A0DCE014B2D2C2D0E943D0E01151105C2
:101EF00089F06A2D6D19472D4E192E2D220F260DB2
:101F0000CE010E943D0E6A2D6E19CE014B2D2C2D57
:101F10000E943D0EF90C82E0980EBA94C80EDE14B1
:101F200054F2DF91CF911F910F91FF90EF90DF90CE
:101F3000CF90BF90AF909F908F907F906F905F9069
:101F40004F9008957F928F929F92AF92BF92CF92BF
:101F5000DF92EF92FF920F931F936C01962EA42EA7
:101F6000F22E7E2C760E1EEFE19E102D1124812E76
:101F7000820E672D282D0E94330EB02EBA0CBA9413
:101F8000C601672D4B2D282D0E94330EAE0C100F6D
:101F9000C601692D4A2D212F0E943D0EF90CFA949D
:101FA000C6016F2D4A2D212F0E943D0EC601672DBF
:101FB0004A2D2E2D01E00E947D0EFE18C6016F2DC8
:101FC0004A2D2E2D02E00E947D0EBE18C6016F2DF7
:101FD0004B2D2E2D04E00E947D0EC601672D4B2D4A
:101FE0002E2D08E00E947D0E1F910F91FF90EF9023
:101FF000DF90CF90BF90AF909F908F907F9008958B
:102000008F929F92AF92BF92CF92DF92EF92FF9208
:102010000F931F936C01162FA42E922EF02EBE2C20
:102020008E2C860E2EEFE29EE02C11242E2D290DF3
:10203000682D0E94470EAB0CFA94FE0C1150190D3E
:102040001B19C601612F4A2D2B2D01E0EF2C0E9498
:102050002C0FC601682D4A2D2B2D02E00E942C0F5B
:102060001F910F91FF90EF90DF90CF90BF90AF90B6
:102070009F908F9008953F924F925F926F927F92C0
:102080008F929F92AF92BF92CF92DF92EF92FF9288
:102090000F931F93CF93DF934C01362E442EF901FB
:1020A000A490319654906F010894C11CD11C8A2DC4
:1020B000992787FD9095079668E070E00E940323BA
:1020C000E62EFF24E7FCF09400E0C0E0D0E060E8FA
:1020D000662E712C26C0E12FE595E595E595FF2745
:1020E000E7FDF095EC0FFD1FEC0DFD1DE4912E2F8B
:1020F00030E0812F8770A30102C0559547958A95DE
:10210000E2F724233523232B31F0612F630DC40123
:102110004B2D0E944B0D1F5F1A15ECF20F5FCE0D79
:10212000DF1D051524F410E0B02EB40CF5CFDF91BF
:10213000CF911F910F91FF90EF90DF90CF90BF90C4
:10214000AF909F908F907F906F905F904F903F9057
:1021500008952F923F924F925F926F927F928F924B
:102160009F92AF92BF92CF92DF92EF92FF920F9326
:102170001F93DF93CF9300D000D00F92CDB7DEB77F
:102180003C01862E4A83F901BE2C002329F4EE205F
:1021900019F40E943B107AC0A490319694901F01CC
:1021A0000894211C311C037009838A2D992787FD0F
:1021B0009095079668E070E00E940323462E552410
:1021C00047FC5094C92CCA94FF241D821C824A2DBE
:1021D00041504B8356C0E02FE595E595E595FF27E7
:1021E000E7FDF0958C819D81E80FF91FE20DF31D4D
:1021F000E4912E2F30E0802F8770A0E8B0E002C07D
:10220000B595A7958A95E2F72A233B23232B61F105
:10221000B981B13051F0B13028F0B23049F0B3306B
:1022200061F409C0102FEF2C08C0ED2C1F2D05C044
:102230001D2DEC2C02C01C2DE02EBB2069F0E3E02C
:10224000BE228B2DB0FE03C0FA2DF11B1F2F81FF84
:1022500003C0492D4E19E42E180D5A81E50EC30115
:10226000612F4E2D0E944B0D0F5FDA940A150CF46E
:10227000B2CFF3948C819D81840D951D9D838C83B9
:10228000CA94F9141CF4DB8000E0F0CF0F900F909B
:102290000F900F900F90CF91DF911F910F91FF90B2
:1022A000EF90DF90CF90BF90AF909F908F907F90F6
:1022B0006F905F904F903F902F900895DC01FB014D
:1022C00084918F5F14968C931497319684918F5FCD
:1022D00015968C93159731965E96FC93EE935D97C9
:1022E00008953F924F925F926F927F928F929F924A
:1022F000AF92BF92CF92DF92EF92FF920F931F9314
:10230000CF93DF93EC01862EA42E422F102F3F8C0B
:1023100023E526170CF4ABC03FE23A150CF4A7C036
:10232000C02EDD248C8190E001979C01C29EC001EB
:10233000C39E900DD29E900D1124262F332727FD8A
:102340003095820F931F181619060CF090C08D81DE
:1023500090E09C01C29EC001C39E900DD29E900D44
:1023600011242A2D332727FD3095820F931F18162D
:1023700019060CF07CC09924442E55246DC09C0194
:10238000215030404217530711F460E00EC0429EC6
:10239000C001439E900D529E900D1124840F951FF5
:1023A000ED8DFE8DE80FF91F64914C9DC0014D9D90
:1023B000900D5C9D900D1124682C680EBB24792C27
:1023C000780C3FC0E62EFF2460FF19C0113039F4AD
:1023D0004B2D4A0DCE01672D0E944B0D2EC02C9D1A
:1023E000C0012D9D900D3C9D900D11244A2D480F4C
:1023F000CE01662D212F012F0E94470E1EC098A1ED
:102400008F8D9817D1F09F8F113039F44B2D4A0DD5
:10241000CE01672D0E944B0D0FC02C9DC0012D9D3C
:10242000900D3C9D900D11244A2D480FCE01662D34
:10243000212F012F0E94470E3F8EF594E7946E2DB9
:10244000B3942B2D332727FD30958D8190E02817ED
:1024500039070CF4B7CF9394492D552747FD509574
:102460008C8190E0481759070CF489CF3F8EDF919B
:10247000CF911F910F91FF90EF90DF90CF90BF9081
:10248000AF909F908F907F906F905F904F903F9014
:1024900008950F93CF93DF93EC01262F6A3049F410
:1024A0008D819885899F802D11249A85980F9A8710
:1024B00026C06D3029F169854A8508850E94711111
:1024C0009C816885969F402D11248985480F4987F6
:1024D0008F818823A9F0552747FD5095699F90016A
:1024E000112484E590E0821B930B8417950744F434
:1024F0009D81699F902D11248A85890F8A8719866D
:1025000081E090E0DF91CF910F9108951F93CF93D9
:10251000DF93EC01162FF8948E8560E00E94101F67
:102520008F8518161CF460E00E94101F1EBD0DB4AC
:1025300007FEFDCF8EB58F8518161CF461E00E9452
:10254000101F7894DF91CF911F910895FF920F9300
:102550001F93CF93DF93EC01FF2400E010E06F2D79
:102560006064CE010E948612CE0160E80E9486124D
:102570008E8561E00E94101F8F8518161CF460E0A4
:102580000E94101FF801ED54FD4F90E080818EBD38
:102590000DB407FEFDCF8EB59F5F31969435B1F730
:1025A0008F8518161CF461E00E94101FF3940C5ADA
:1025B0001F4F86E0F81699F6CE0160E40E9486125D
:1025C000DF91CF911F910F91FF900895CF93DF93EB
:1025D000DC0188EF91E0E3EBF2E0EF019C0119925E
:1025E00021503040E1F719961C9219971A961C92C7
:1025F000DF91CF910895EF920F93CF93DF93EC018A
:102600004D876C872E87E88A0F8781E088878F8FB8
:1026100018A28F83CE016FE274E00E945E110E94C7
:102620001D0C81E00E94FE0B85E00E940C0C8CE0EA
:102630000E94070C8D8561E00E94A41E8C8561E0DC
:102640000E94A41E8E8561E00E94A41E888918162F
:102650001CF461E00E94A41E8F8518161CF461E032
:102660000E94A41E888918166CF460E00E94101F56
:102670006AE070E080E090E00E94C11D888961E01E
:102680000E94101FEC852E2F332727FD3095F9016E
:10269000E25AF84FE491F0E0EE0FFF1FE65BF84FCF
:1026A000859194919C8B8B8B2E58384FF901849196
:1026B0008A8FED852E2F332727FD3095F901E25AB9
:1026C000F84FE491F0E0EE0FFF1FE65BF84F8591C5
:1026D00094919A8B898B2E58384FF9018491898F68
:1026E000EF852E2F332727FD3095F901E25AF84F59
:1026F000E491F0E0EE0FFF1FE65BF84F85919491B7
:102700009E8B8D8B2E58384FF90184918B8FEE85DF
:102710002E2F332727FD3095F901E25AF84FE49127
:10272000F0E0EE0FFF1FE65BF84F85919491988FD4
:102730008F8B2E58384FF90184918C8FCE0161E236
:102740000E948612CE0164E10E9486128B8587FF6B
:1027500002C08FE78B876B856068CE010E9486126E
:10276000CE0160E20E948612CE016CE00E948612C9
:10277000CE010E94A612DF91CF910F91EF900895A4
:10278000FC01ED57FF4F61937193445F40830895BF
:10279000CF93DF93DC01E0E8F7E785919491ED01B9
:1027A000C75ADF4FAD0141595F4F8150904C09F03E
:1027B0004EC0E6E9F7E7E491E883E7E9F7E7E4915B
:1027C0001496EC931497E8E9F7E7E4911596EC93E7
:1027D0001597E9E9F7E78591949117969C938E9365
:1027E0001697EBE9F7E78591949119969C938E9350
:1027F0001897EDE9F7E7E4919B96EC939B97EEE948
:10280000F7E7E4919A96EC939A97EFE9F7E7E4916A
:10281000EA01E883E0EAF7E7859194915D969C935D
:102820008E935C97E2EAF7E7859194915F969C938B
:102830008E935E97E4EAF7E78591949191969C9345
:102840008E939097E6EAF7E78591949132C08CE3F6
:10285000888314961C9214972FEF15962C93159736
:1028600080E293E017969C938E93169784ED93E005
:1028700019969C938E93189781E09B968C939B97C7
:102880009A968C939A97FA0120838CEA9DE05D9644
:102890009C938E935C978EED9DE05F969C938E93B8
:1028A0005E9784E79EE091969C938E9390978CE33D
:1028B0009FE093969C938E939297DF91CF9108958A
:1028C000EF92FF920F931F93CF93DF937C018C01C4
:1028D000025B1F4FC8010E94E612C80166ED75E059
:1028E0000E94B21FC8010E94A61283E00E940C0C35
:1028F00080E091E0EEEFFFE3099584E590E0E80EDB
:10290000F91EF7011082C80161EB75E00E94FD1FFE
:10291000C8010E94A612E701CA54D040CE010E940D
:10292000230DCE0164E00E94FB0C882339F462E39E
:1029300070E080E090E00E94C11DF0CFDF91CF9168
:102940001F910F91FF90EF9008950F931F93CF93D6
:10295000DF93EC018C01025B1F4FC80161E040E096
:102960000E94B20DFE01E95AFF4FCE5ADF4F85E5B6
:102970009881891B808326961882C855D040698D1E
:10298000613009F43EC0613028F0888D653008F070
:1029900051C04BC0CE0185960E94601ACE0160E006
:1029A0000E94380CC8010E94E612CA5ADF4F81E02B
:1029B0008883C655D040C80162E176E00E94B21F0C
:1029C0006A8D7B8DC8014AE050E00E94A020C801BA
:1029D0006EEF75E00E94B21FC8010E94A61283B775
:1029E000817F846083BF83B7816083BF83B7816049
:1029F00083BF889583B78E7F83BF83B78E7F83BF66
:102A00001FC0C059DF4F88819981AA81BB818F7017
:102A10009070A070B0700897A105B10518F4C801B6
:102A200067E00CC0C80168E709C0882349F06B5F04
:102A3000C80104C0882321F0C8016FE20E94D51F9D
:102A4000DF91CF911F910F910895AF92BF92CF92D6
:102A5000DF92EF92FF920F931F93CF93DF93EC01DE
:102A6000CB57DF4F8881C558D040882309F44AC02E
:102A70008C3010F010E002C01CE0181BCA5ADF4F67
:102A800081E08883C655D0406EE4C62ED12CCC0E92
:102A9000DD1EC60160E00E94AE0D53E5A52EB12CEF
:102AA000AC0EBD1EF50100814DE2F42E4F2D401BF2
:102AB000410F0D5FC60160E024E533E0E32E0E9484
:102AC0000010C60161E00E94AE0DF5010081F01A10
:102AD000F10E0D5FC60160E04F2D24E50E94A20FAC
:102AE000C95ADF4F84E08993F5018081181B115D7D
:102AF0001883AB9669917991C6010E94B21F8881B3
:102B000081508883DF91CF911F910F91FF90EF90BB
:102B1000DF90CF90BF90AF9008954F925F926F92E9
:102B20007F928F929F92AF92BF92CF92DF92EF925D
:102B3000FF920F931F932C01FC01628C738C6094A5
:102B40007094882499240E949B1D5B016C010E9453
:102B50009B1D7B018C01F201418052800E949B1DD4
:102B6000460E571EA094B094C094D094E094F09474
:102B700000951095C601B501A80197010E94C422D5
:102B8000A40193010E94C422460E571EC2010E9456
:102B90009F211F910F91FF90EF90DF90CF90BF90FA
:102BA000AF909F908F907F906F905F904F9008951F
:102BB000AF92BF92CF92DF92EF92FF920F931F934B
:102BC000CF93DF93EC01EFE7AE2EB12CA80EB91E28
:102BD000F501E080F180028113810E948D1DE61ACB
:102BE000F70A080B190B7EE7C72ED12CCC0EDD1E81
:102BF000F601808190E0A0E0B0E08E159F05A0076F
:102C0000B10708F081C08E0106581F4FF80180817E
:102C10009181A281B3810097A105B10509F474C027
:102C20000E948D1DF6012081620F711D811D911D75
:102C3000F5016083718382839383FE01E059FF4F26
:102C400080819181A281B3810196A11DB11D8083F4
:102C50009183A283B383F8011082118212821382BE
:102C60000E949B1DCA58DF4F688379838A839B83A8
:102C7000C657D040CE010E943D0CCE010A960E945C
:102C8000230DCE0148960E94AF0C81E032C08E0128
:102C90000B5D1F4FC8010E94AE1AC8010E94251B80
:102CA000C8010E94081CCE010E942515CE010E9479
:102CB000A5148E01025B1F4FC8010E94A612CC5AB8
:102CC000DF4F8881C455D040882319F4C8010E9481
:102CD000E6120E949B1DC658DF4F688379838A8362
:102CE0009B83249728813981621B730B7A936A93A3
:102CF00080E0DF91CF911F910F91FF90EF90DF90D7
:102D0000CF90BF90AF900895C658DF4F88819981CA
:102D1000AA81BB81CA57D0400097A105B10541F7F0
:102D2000B6CF2F923F924F925F926F927F928F9287
:102D30009F92AF92BF92CF92DF92EF92FF920F934A
:102D40001F93DF93CF93CDB7DEB762970FB6F8949A
:102D5000DEBF0FBECDBF6C016C837D834B8324E54A
:102D600030E0C20ED31EF60110822CEA3FEFC20EF5
:102D7000D31E1AE0A12EB12CAC0CBD1CB5E22B2E3B
:102D8000312C2C0C3D1CAEE44A2E512C4C0C5D1CFD
:102D90001A823FEF398310E0F0E37F2E6624A6010C
:102DA000495A5F4F5F834E83C601885A9F4F998768
:102DB0008887F601EA5AFF4FFB87EA8796012B5A6C
:102DC0003F4F3D872C87E3E58E2E912C8C0C9D1C6C
:102DD0005B81452F50E05F874E878B818150888BC8
:102DE000C6010E94D8158823D9F3C50164E00E946A
:102DF000FB0C882369F4C50165E00E94FB0C882365
:102E000039F4C50166E00E94FB0C882309F4D3C0A5
:102E1000F4010081C50164E00E94FB0C882329F0C5
:102E2000C1010E94651C1983CBC0C1010E946B1CAB
:102E3000C7C0C50163E044E00E94050D882321F06E
:102E40001F5FC1010E94711CC50161E044E00E9446
:102E5000050D882321F01150C1010E94711C812FA2
:102E6000992787FD90952E853F858217930711F44A
:102E700010E002C017FD1889F4018081819F902D18
:102E800011248C5F682E691A28C0872D992787FD29
:102E90009095262D332727FD3095821B930B0297A3
:102EA000D4F4898162960FB6F894DEBF0FBECDBF11
:102EB000CF91DF911F910F91FF90EF90DF90CF9016
:102EC000BF90AF909F908F907F906F905F904F904A
:102ED0003F902F900895F1E0FA83862D992787FD82
:102EE0009095272D332727FD3095820F931F62E0A1
:102EF00070E00E940323762EEE81FF811082E88528
:102F0000F985608321E0EA85FB852083EC85FD85DA
:102F100010822C813D81C9019A8B898B00E0E12EC2
:102F2000FF24E7FCF09420C0802F90E08E159F05D1
:102F300069F423E0EE81FF812083F40180818E9D7E
:102F4000802D1124870DE885F9858083E989FA8928
:102F500065917491C2010E94FD1F0F5F29893A8912
:102F60002E5F3F4F3A8B298B3B810317E8F2C2015A
:102F700060E00E94AE0DF40140814E9D402D112471
:102F80004150470DC20160E024E50E94330EC201AA
:102F900061E00E94AE0DF40100810E9D402D1124D0
:102FA0004250470D0D5FC20160E024E573E0E72E5B
:102FB0000E94A20F15CFFA81FF2309F066CF39CF07
:102FC000802F90E0909581959F4F2E853F85AC0195
:102FD000249FC001259F900D349F900D11246EEF0A
:102FE000662E680E52CF2F923F924F925F926F9251
:102FF0007F928F929F92AF92BF92CF92DF92EF9289
:10300000FF920F931F93DF93CF93CDB7DEB72B972C
:103010000FB6F894DEBF0FBECDBF9B878A877A8339
:1030200069835C834B838C0101591F4FF8018081B8
:10303000882309F422C18A859B858A5A9F4F9B87E2
:103040008A8781E0EA85FB85808312921292E4559B
:10305000F040FB87EA87108E9EE4E92EF12CEE0EFD
:10306000FF1EC70161E00E94AE0D8AE0282E312CC0
:103070008A859B85280E391EB5E26B2E712C680E51
:10308000791EE981FA81F491FD83A7E58A2E912CBE
:10309000880E991EF8E5CF2ED12CC80ED91EE2E578
:1030A0004E2E512C480E591E8D5A9F4F9F838E8352
:1030B00070E7A72EB12C8A859B85A80EB91E1987AB
:1030C00008878A859B850E94D8158823D1F39D8126
:1030D000992311F410E003C0EE81FF811081C70134
:1030E00060E040E02FE436E00E943B108B819C8141
:1030F000892B41F0145FC70160E0412F2B813C8197
:103100000E943B10F40110828CE0F6018083C7011D
:1031100069817A810E94B21FF201208130E0C901E9
:10312000880F991F820F931F909581959F4F8D5AFD
:10313000F4018083EE81FF81208130E0C901880F96
:10314000991F820F931F909581959F4F835DF60184
:103150008083F501808184FF04C0C7016FEC76E0B5
:1031600003C0C7016BEC76E00E94FD1FF2012081D5
:1031700030E0C901880F991F820F931F90958195A8
:103180009F4F8D5AF4018083F60180818F5F808389
:10319000EA85FB8582A5882321F0C70167EC76E0EC
:1031A00003C0C70163EC76E00E94FD1FF20180813D
:1031B00090E09C01220F331F280F391F3095219575
:1031C0003F4F2D5AF4012083F60180818F5F808369
:1031D000C7016FEB76E00E94FD1FC10165E00E9410
:1031E000FB0C882351F0EA85FB8562A56F5FC30164
:1031F0000E94771CC3010E94711CC10164E00E94FF
:10320000FB0C882399F4E885F9856081262F30E04E
:1032100040E050E0F50180819181A281B381821765
:103220009307A407B50708F16F3FF9F08A859B85DE
:1032300081599F4F9B878A878FEFEA85FB85808323
:10324000EF56F040FB87EA87C30160E00E94551A01
:10325000C3010E94651C81E0EA85FB85808F0DC05B
:103260008A859B850E9460142CCFC10166E00E9474
:10327000FB0C882309F425CFF3CF2B960FB6F894D7
:10328000DEBF0FBECDBFCF91DF911F910F91FF9099
:10329000EF90DF90CF90BF90AF909F908F907F90F6
:1032A0006F905F904F903F902F90089540E050E0D6
:1032B0000E94F3170895AF92BF92CF92DF92EF92E0
:1032C0000F93CF93DF936C018EE790E0C80ED91E69
:1032D00082E3F601808381E090E0A0E0B0E0B29369
:1032E000A293929382936F0185EF9FEFC80ED91E30
:1032F0008FEFF601808381E99FEFC80ED91EC601CA
:103300000E94C813C6010E94340CC6016FEF0E94D0
:10331000380C4AE0A42EB12CAC0CBD1CC5010E9497
:10332000EB0CC5010E94230DC60148960E94A50C16
:10333000C601825B9F4F6DE04BE020E10FE03EE075
:10334000E32E0E94FB12E601A596CE010E94841C8A
:10335000C50165E00E94FB0C882329F0CE0160E0E6
:103360000E94771C06C0CE0165ED76E040E00E9429
:10337000641ADF91CF910F91EF90DF90CF90BF90C3
:10338000AF9008950F93DC01002309F069C062300B
:1033900009F443C0633030F4662359F0613009F01A
:1033A0005FC00DC0633009F444C0643009F058C0F8
:1033B0004CC04B3008F04AE056964C9351C0842FD5
:1033C00090E0880F991F1F962D913C915097280FE0
:1033D000391FF9018591949190969C938E935F97F4
:1033E000FC014591549114968C911497849F602D03
:1033F000112491966C939197252F3327862F90E077
:103400002817390708F4652F14968C911497689F34
:10341000802D112492968C9323C014968C9114972E
:10342000489F802D112459968C9359975A962C9326
:1034300017C014968C911497489F802D11245B9689
:103440008C935B975C962C930BC014968C9114977D
:10345000489F802D11245D968C935D975E962C93EA
:103460000F910895FC01222371F4648B8481489F9D
:10347000802D1124858B15A214A213A281E0878BC5
:103480008093AC04108E0895FC01662369F4178ABA
:10349000158A14A213A2108E1092AF041092AE04DB
:1034A0001092AC041092B4000895CF93DF93EC0116
:1034B000662319F40E94441A1982DF91CF9108956E
:1034C00060E00E94551A08950F931F93CF93DF93E6
:1034D000EC018B01442371F460E00E94551A1E87B1
:1034E0000D871B8A1A8A81E0898389E08E8B198E69
:1034F0001B8E1D8EDF91CF911F910F910895CF9359
:10350000DF93EC01662339F58881882321F18981D5
:10351000882309F5898590E0880F991FEF81F88548
:10352000E80FF91F859194912FEF8F3F920711F4C7
:10353000188211C09C8790E0880F991FEA85FB854F
:10354000E80FF91F65917491CE0140E00E94641A62
:1035500089858F5F8987DF91CF91089560E00E9410
:103560007F1A08950F93CF93DF93EC01662309F040
:1035700068C08981882309F464C08D89882309F093
:1035800060C0EA89FB89EE0FFF1F4D855E85E40F61
:10359000F51F259134912115310509F040C0898925
:1035A000813031F41B8A1A8AFA012591349137C08F
:1035B00019828881882379F0CE0160E00E947F1A09
:1035C0008A899B89880F991FED85FE85E80FF91F71
:1035D0002591349124C0CE0160E00E94441A31C08C
:1035E000E6E036952795EA95E1F76F70422F4F7127
:1035F00075E0369527957A95E1F72051CE0100E0E8
:103600000E94C2198A899B8901969B8B8A8B880F9D
:10361000991FED85FE85E80FF91F25913491B901B9
:10362000769567957695679520FDDACF6F73432F72
:10363000CE0120E00E94321A8A899B8901969B8BD9
:103640008A8BDF91CF910F91089560E00E94B21AAA
:103650000895CF93DF93EC01662309F0D6C08F89DC
:10366000882309F4D2C08D89882321F4CE010E94D9
:10367000441ACBC081508D8B8DA1882309F03BC0AB
:103680008BA19CA10196880F991FEF8DF8A1E80FDF
:10369000F91F85919491282F27702EA3AC0163E028
:1036A000569547956A95E1F79A0136952795892FA2
:1036B0009927869586958FA32F738C81289F202D1F
:1036C00011242DA341704093B0048BA19CA10196BD
:1036D0009CA38BA329A130E08217930760F08AA1F5
:1036E000882329F0281B31093CA32BA304C0CE0159
:1036F00060E00E94441A8DA181508DA3988D9F5F38
:10370000988F2FA18C89280F8C85280F2A836B8D89
:10371000662369F0892F992787FD909570E00E94B4
:1037200003238C8D869F802D1124820F8A838A81AA
:1037300090E0CB966BE370E00E9403238A832E898E
:103740002B83698D662379F0888D772767FD7095C7
:10375000992787FD90950E9403238A8D869F802D4F
:103760001124820F8B836D8D662399F0888D9927A4
:1037700087FD909570E00E940323CB0162E070E02A
:103780000E9403239E8D899F802D11249B81890F88
:103790008B838B818A300CF089E087FD80E08B83FE
:1037A0008C898F3309F41B82F894EA81F0E0E750AA
:1037B000F94FE491E093AD042D8130E08B8199279E
:1037C00087FD9095A901489F9001499F300D589F12
:1037D000300D112488A590E0A901489F9001499FD0
:1037E000300D589F300D11248EA1992787FD90959B
:1037F000AC01249FC001259F900D349F900D112492
:103800008093AE048093AF047894DF91CF910895B4
:1038100060E00E94291B08956091AE04662381F147
:103820008091AB048F5F8093AB049091AD048917B6
:1038300038F130E08091AC04882309F431E0309312
:10384000AC041092AB048091B0048823A9F080915D
:10385000130123E4829FC0011124895B809313012B
:1038600090E070E00E94EF228093AF0405C0809149
:10387000AF048093B40008953323C9F780E0F9CFF3
:1038800008951F920F920FB60F9211242F933F931A
:103890004F935F936F937F938F939F93AF93BF9358
:1038A000EF93FF930E940C1CFF91EF91BF91AF919A
:1038B0009F918F917F916F915F914F913F912F9148
:1038C0000F900FBE0F901F90189561EF76E040E0CB
:1038D0000E94641A089569EE76E040E00E94641A3E
:1038E000089563EE76E040E00E94641A0895FC01BA
:1038F000862F668170E06F5F7F4F992787FD9095D7
:103900000E940323858308950F93FC0181E0848343
:1039100084E080A784E397E0908B8787CF0161E004
:1039200040E020E000E00E94C21983E061E070E026
:103930000E94441EE1EBF0E08081887F81608083FB
:10394000F89410928000E1E8F0E010821092850077
:103950001092840088E191E0909389008093880020
:10396000808188608083808181608083EFE6F0E0E1
:1039700080818260808378940F9108950F931F93C4
:10398000CF93DF93BC018230910510F462E070E0C8
:10399000E091BA04F091BB04A0E0B0E040E050E058
:1039A00024C08081918186179707D0F086179707EA
:1039B00071F482819381109729F013969C938E93D2
:1039C00012972CC09093BB048093BA0427C0411572
:1039D000510519F08417950718F4EF018D01AC011A
:1039E000DF01828193819C01F9013097D1F6411565
:1039F0005105F9F0CA01861B970B8430910580F4BC
:103A00008A819B810115110521F0F801938382833E
:103A100004C09093BB048093BA04FE0132962FC079
:103A2000FE01E80FF91F61937193029799838883D0
:103A300026C08DB79EB788579040209114013091D1
:103A4000150128173907C8F4AC01421B530B461760
:103A5000570798F0CB0102964817590770F0820F6C
:103A6000931F9093150180931401909317018093F5
:103A70001601F9016193719302C0E0E0F0E0CF011B
:103A8000DF91CF911F910F9108951F920F920FB662
:103A90000F9211242F933F938F939F93AF93BF93D4
:103AA0008091B5049091B604A091B704B091B80488
:103AB0003091B9040196A11DB11D232F2D5F2D3723
:103AC00020F02D570196A11DB11D2093B9048093BC
:103AD000B5049093B604A093B704B093B804809152
:103AE000B1049091B204A091B304B091B4040196D2
:103AF000A11DB11D8093B1049093B204A093B304AF
:103B0000B093B404BF91AF919F918F913F912F914A
:103B10000F900FBE0F901F9018958FB7F8942091BB
:103B2000B5043091B6044091B7045091B8048FBFEA
:103B3000B901CA0108959FB7F8942091B10430915A
:103B4000B2044091B3045091B40486B5A89B06C05A
:103B50008F3F21F02F5F3F4F4F4F5F4F9FBF542F3D
:103B6000432F322F2227280F311D411D511D82E086
:103B7000220F331F441F551F8A95D1F7B901CA017F
:103B80000895EF92FF920F931F93CF93DF937B01E2
:103B90008C010E949B1DEB010EC00E949B1D6C1BA3
:103BA0007D0B685E7340C8F30894E108F1080109D1
:103BB0001109C851DC4FE114F1040105110569F741
:103BC000DF91CF911F910F91FF90EF90089578941E
:103BD00084B5826084BD84B5816084BD85B5826012
:103BE00085BD85B5816085BDEEE6F0E080818160B0
:103BF0008083E1E8F0E010828081826080838081B0
:103C000081608083E0E8F0E0808181608083E1EB87
:103C1000F0E0808184608083E0EBF0E0808181606F
:103C20008083EAE7F0E08081846080838081826025
:103C3000808380818160808380818068808310920E
:103C4000C1000895982F8E3008F09E509770809193
:103C500018018295880F880F807C892B80937C00C7
:103C600080917A00806480937A0080917A0086FD4A
:103C7000FCCF2091780040917900942F80E030E0D3
:103C8000282B392BC90108951F93CF93DF93182F49
:103C9000EB0161E00E94A41E209709F44AC0CF3FC7
:103CA000D10509F449C0E12FF0E0EA57F84F8491BB
:103CB0008330C1F0843028F4813051F08230B1F586
:103CC0000CC0863019F1873049F1843079F514C081
:103CD00084B5806884BDC7BD33C084B5806284BDAF
:103CE000C8BD2EC080918000806880938000D093F2
:103CF0008900C093880024C08091800080628093F6
:103D00008000D0938B00C0938A001AC08091B000CD
:103D100080688093B000C093B30012C08091B0005F
:103D200080628093B000C093B4000AC0C038D1054F
:103D30001CF4812F60E002C0812F61E00E94101FFF
:103D4000DF91CF911F910895CF93DF93482F50E0DB
:103D5000CA018E58984FFC013491425A584FFA01CB
:103D60008491882369F190E0880F991FFC01E05C41
:103D7000F84FA591B491FC01E65BF84FC591D49141
:103D8000662351F42FB7F8948C91932F9095892343
:103D90008C93888189230BC0623061F42FB7F8942B
:103DA0008C91932F909589238C938881832B888382
:103DB0002FBF06C09FB7F8948C91832B8C939FBF25
:103DC000DF91CF910895833071F0843028F48130F1
:103DD000A1F0823021F514C08630B1F08730D1F0E7
:103DE0008430E9F404C0809180008F7703C0809113
:103DF00080008F7D80938000089584B58F7702C006
:103E000084B58F7D84BD08958091B0008F778093B5
:103E1000B00008958091B0008F7D8093B000089528
:103E2000FF920F931F93F62E482F50E0CA018A5736
:103E3000984FFC012491CA018E58984FFC011491AF
:103E4000425A584FFA0104910023C9F0222319F075
:103E5000822F0E94E31EE02FF0E0EE0FFF1FE65BD3
:103E6000F84FA591B4919FB7F894FF2021F48C915D
:103E70001095812302C08C91812B8C939FBF1F9141
:103E80000F91FF9008950F931F93482F50E0CA01A0
:103E90008A57984FFC012491CA018E58984FFC0113
:103EA0000491425A584FFA011491112319F420E059
:103EB00030E015C0222319F0822F0E94E31E812FCB
:103EC00090E0880F991F8C5A984FFC01A591B491EE
:103ED0008C9120E030E0802311F021E030E0C90136
:103EE0001F910F910895CF93DF930E94E71D0E94C9
:103EF000750AC0E0D0E00E945E0A2097E1F30E94BC
:103F00000000F9CF0E94BE1C08950E94BE1C0895B7
:103F1000CF92DF92EF92FF920F931F93CF93DF9395
:103F20007C016B018A01C0E0D0E00FC0D6016D9129
:103F30006D01D701ED91FC910190F081E02DC70159
:103F40000995C80FD91F015010400115110571F7CF
:103F5000CE01DF91CF911F910F91FF90EF90DF90F5
:103F6000CF900895EF92FF920F931F93CF93DF931B
:103F70007C018B01C0E0D0E0F8010F5F1F4F64911E
:103F8000662359F0D701ED91FC910190F081E02D6D
:103F9000C7010995C80FD91FEFCFCE01DF91CF918F
:103FA0001F910F91FF90EF900895DC01ED91FC912E
:103FB0000190F081E02D09950895EF92FF920F9303
:103FC0001F938C01DC01ED91FC910190F081E02DBB
:103FD0006DE009957C01D801ED91FC910190F08193
:103FE000E02DC8016AE009959C012E0D3F1DC90115
:103FF0001F910F91FF90EF900895EF92FF920F9312
:104000001F937C010E94B21F8C01C7010E94DD1F1B
:104010009C01200F311FC9011F910F91FF90EF905C
:104020000895CF93DF93EC016115710519F420E039
:1040300030E00FC0DB010D900020E9F71197A61BBF
:10404000B70BE881F9810280F381E02DAD0109957C
:104050009C01C901DF91CF9108954F925F927F92A9
:104060008F929F92AF92BF92CF92DF92EF92FF9288
:104070000F931F93DF93CF93CDB7DEB7A1970FB602
:10408000F894DEBF0FBECDBF2C01742ECB012230C1
:1040900008F42AE019A231E2C32ED12CCC0EDD1E89
:1040A000822E9924AA24BB24672D752FA501940183
:1040B0000E94162379018A01C801B701A501940164
:1040C0000E94C422472D461B0894C108D1084A30DB
:1040D00014F4405D01C0495CF6014083E114F10431
:1040E0000105110521F07E2C5F2DC801DDCFC20135
:1040F000B6010E941120A1960FB6F894DEBF0FBE44
:10410000CDBFCF91DF911F910F91FF90EF90DF9086
:10411000CF90BF90AF909F908F907F905F904F9087
:104120000895DC012115310541F4ED91FC910190D8
:10413000F081E02D642F099508950E942D200895A7
:10414000EF92FF920F931F939A017B0100E010E022
:10415000B801A7010E9491201F910F91FF90EF904D
:104160000895EF92FF920F931F939A01E62EFF247A
:1041700000E010E0B801A7010E9491201F910F916B
:10418000FF90EF900895CF92DF92EF92FF920F93FE
:104190001F93CF93DF93EC016A017B012115310559
:1041A00041F4E881F9810190F081E02D642F0995B7
:1041B0001FC02A303105D1F477FF17C0E881F9819B
:1041C0000190F081E02D6DE209958C01442755277F
:1041D000BA014C195D096E097F09CE012AE00E94DF
:1041E0002D209801280F391F04C02AE00E942D209D
:1041F0009C01C901DF91CF911F910F91FF90EF902A
:10420000DF90CF900895EF92FF920F931F937B0161
:104210009A010027F7FC0095102FB801A7010E9412
:10422000C3201F910F91FF90EF9008952F923F921E
:104230004F925F926F927F928F929F92AF92BF92B6
:10424000CF92DF92EF92FF920F931F93DF93CF9362
:10425000CDB7DEB73B014C0119012A016D897E897A
:104260008F89988D6A197B098C099D09621A730AD6
:10427000840A950AA40193010E94C422E218F3085B
:1042800004091509A80197010E9438232A0D3B1D36
:104290004C1D5D1DB901CA01CF91DF911F910F9196
:1042A000FF90EF90DF90CF90BF90AF909F908F9056
:1042B0007F906F905F904F903F902F900895EF9276
:1042C000FF920F931F937B018C016115710581058E
:1042D000910529F420E030E040E050E00BC00E945E
:1042E000AC23A80197010E943823AC01CB01DA016D
:1042F0009C01AD01B901CA011F910F91FF90EF9090
:104300000895EF92FF920F931F937B018C01621728
:1043100073078407950764F4261B370B480B590B6A
:10432000CA01B9010E945F21E60EF71E081F191F7E
:10433000B701C8011F910F91FF90EF90089500976A
:1043400029F0BC0180E090E00E94B123089598D04C
:1043500088F09F5790F0B92F9927B751A0F0D1F06E
:10436000660F771F881F991F1AF0BA95C9F712C0F8
:10437000B13081F09FD0B1E008959CC0672F782FB5
:104380008827B85F39F0B93FCCF386957795679564
:10439000B395D9F73EF490958095709561957F4FD0
:1043A0008F4F9F4F0895E89409C097FB3EF4909576
:1043B0008095709561957F4F8F4F9F4F9923A9F0FE
:1043C000F92F96E9BB279395F6958795779567958D
:1043D000B795F111F8CFFAF4BB0F11F460FF1BC0D1
:1043E0006F5F7F4F8F4F9F4F16C0882311F096E964
:1043F00011C0772321F09EE8872F762F05C0662312
:1044000071F096E8862F70E060E02AF09A95660FCA
:10441000771F881FDAF7880F9695879597F9089583
:1044200097F99F6780E870E060E008959FEF80EC67
:10443000089500240A94161617061806090608950A
:1044400000240A9412161306140605060895092E70
:104450000394000C11F4882352F0BB0F40F4BF2BDF
:1044600011F460FF04C06F5F7F4F8F4F9F4F08951F
:1044700057FD9058440F551F59F05F3F71F0479515
:10448000880F97FB991F61F09F3F79F087950895FA
:10449000121613061406551FF2CF4695F1DF08C019
:1044A000161617061806991FF1CF86957105610536
:1044B00008940895E894BB2766277727CB0197F9DE
:1044C00008950BD0C4CFB5DF28F0BADF18F09523DC
:1044D00009F0A6CFABCF1124EECFCADFA0F3959F92
:1044E000D1F3950F50E0551F629FF001729FBB27DB
:1044F000F00DB11D639FAA27F00DB11DAA1F649F87
:104500006627B00DA11D661F829F2227B00DA11D39
:10451000621F739FB00DA11D621F839FA00D611DBF
:10452000221F749F3327A00D611D231F849F600DE0
:10453000211D822F762F6A2F11249F5750408AF019
:10454000E1F088234AF0EE0FFF1FBB1F661F771FA5
:10455000881F91505040A9F79E3F510570F060CFE1
:10456000AACF5F3FECF3983EDCF38695779567958D
:10457000B795F795E7959F5FC1F7FE2B880F911DC3
:104580009695879597F90895629FD001739FF001E2
:10459000829FE00DF11D649FE00DF11D929FF00DD3
:1045A000839FF00D749FF00D659FF00D9927729F0A
:1045B000B00DE11DF91F639FB00DE11DF91FBD0195
:1045C000CF0111240895991B79E004C0991F961713
:1045D00008F0961B881F7A95C9F780950895AA1B45
:1045E000BB1B51E107C0AA1FBB1FA617B70710F0DE
:1045F000A61BB70B881F991F5A95A9F78095909510
:10460000BC01CD01089597FB092E07260AD077FD3E
:1046100004D0E5DF06D000201AF4709561957F4F35
:104620000895F6F7909581959F4F0895A1E21A2E6F
:10463000AA1BBB1BFD010DC0AA1FBB1FEE1FFF1F46
:10464000A217B307E407F50720F0A21BB30BE40B96
:10465000F50B661F771F881F991F1A9469F76095DD
:104660007095809590959B01AC01BD01CF01089597
:1046700097FB092E05260ED057FD04D0D7DF0AD0B0
:10468000001C38F450954095309521953F4F4F4F81
:104690005F4F0895F6F790958095709561957F4FDF
:1046A0008F4F9F4F0895EE0FFF1F0590F491E02D5F
:1046B0000994A0E0B0E0EFE5F3E20C94C223EC0132
:1046C000A880B980CA80DB80A114B104C104D104E0
:1046D00041F484E2A82E89EDB82E8BE5C82E87E040
:1046E000D82EC601B5012DE133EF41E050E00E9424
:1046F000382327EA31E440E050E00E94C4227B01E5
:104700008C01C601B5012DE133EF41E050E00E947C
:104710003823CA01B9012CEE34EF4FEF5FEF0E944E
:10472000C4226E0D7F1D801F911F97FF04C0615032
:10473000704080409048688379838A839B839B0183
:10474000AC015F77B901CA01CDB7DEB7EAE00C94DE
:10475000DE230E945923089587E091E00E945923A7
:104760000895609307017093080180930901909365
:104770000A0108952F923F924F925F926F927F921B
:104780008F929F92AF92BF92CF92DF92EF92FF9261
:104790000F931F93CF93DF93CDB7DEB7CA1BDB0B0D
:1047A0000FB6F894DEBF0FBECDBF09942A883988B2
:1047B00048885F846E847D848C849B84AA84B984B9
:1047C000C884DF80EE80FD800C811B81AA81B981C5
:1047D000CE0FD11D0FB6F894DEBF0FBECDBFED01D9
:0647E0000895F894FFCFDC
:1047E6004C4F414445520001000000AE03B803C2DD
:1047F60003CC0301BC0464000100000000491288D8
:024806001F0091
:00000001FF
