:100000000C944A0D0C94720D0C94720D0C94720D9C
:100010000C94720D0C94720D0C94720D0C94720D64
:100020000C94720D0C94720D0C94720D0C94FE35A0
:100030000C94720D0C94720D0C94720D0C94720D44
:100040000C94B0370C94720D0C94720D0C94720DCC
:100050000C94720D0C94720D0C94720D0C94720D24
:100060000C94720D0C94720D0C0E120E1A0E220EC0
:100070002A0E320E3A0E420E4A0E520E5A0E620EE0
:100080006A0E720E7A0E820E8A0E920E9A0EA20ED0
:10009000AA0EB20EBA0EC20ECA0ED20EDA0E5669F1
:1000A00065206D617821002E5675653A002E4B69EA
:1000B0006C6C3A00417265613A00AC12B012B41235
:1000C000BA12C012C6125175656C20706C616365FE
:1000D0003F00416A6F75742064752066757475728F
:1000E0006F6D6F6E3F0020002F0058503A002F00B8
:1000F0004465663A002F00466F723A002F00566939
:10010000743A002F005669653A004C764C3A004626
:10011000696E003007FFFFFFFFFFF880000400005A
:100120000880000400000880000000000880200013
:10013000008008802000008008FFFFFFFFFFF830EC
:1001400007FFFFFFFFFFF88008000020088008007D
:1001500000200880000000000880000100000880E6
:100160000001000008FFFFFFFFFFF82E2E2E0059B0
:100170006F7570792100456E206176616E74210083
:10018000556E206465666920647265737365757267
:10019000202100556E2046757475726F6D6F6E204C
:1001A00061747461717565210010103FF82000AF13
:1001B000FCA004A074A814ABD4AA14AA5488D588AF
:1001C000118FD18005FF0D00010FFF1010010001FC
:1001D0000001000100010001000380028002800490
:1001E0004008201FF0183820044002800110100041
:1001F000802100308419828FE44C382812199D190F
:10020000985810AC3C07E205851880204010800803
:10021000081D264991A6C8B0C01005C00038E78562
:100220000272790404080EE070381C16122A4B552D
:10023000A5954A24180804406090E008037F00FE5A
:10024000100C00000F803800602041E0C7009800CB
:10025000307021C02300060004000200010402CC1B
:1002600012D312DA12DF12E212CC12D312E812DF2A
:1002700012E212CC12D312EC12DF12E212CC12D321
:1002800012F312DF12E212CC12D312F912DF12E2D1
:1002900012CC12D312FE12DF12E21220746F206D04
:1002A00061696E206D656E7500170020746F2063A4
:1002B0006F6E74696E7565001500507265737320FA
:1002C0003A0047616D65206F7665720002130D1369
:1002D00017134368616E67652067616D6500467539
:1002E0007475726F6D6F6E00181400200000D000DE
:1002F00000B00001B000039C000466000823001059
:100300000080300080638E40418C40408820400057
:1003100030C0001080001080001081F010F981F0D2
:10032000940290FFFFF0181400200000D00000B0ED
:100330000001B00003DC0004460008E30011108057
:100340003318C0624C4042664042A220C6A230CC64
:10035000B2109893D0999150BB59F0D2A0D0900090
:1003600090FFFFF01816000C00003C0000E40701AD
:10037000041907C4711C3CC13C1B89700F19C60DC0
:10038000328A0326860664F03444D8564488974659
:1003900089116299F332F00711C00D997F19D91DA7
:1003A000F07100001D0000071816003000003C002E
:1003B000E027009820808E23E0833C3891D83C9839
:1003C000F01E4CB01364C01F26600D22200322676C
:1003D000E262EC624688C44CC98488E70C99B03864
:1003E0009B98F08E0F80B80000E00000181600FF08
:1003F000C007C8F81E083E33FFF377E3FB5C000F2D
:100400004C738D5F73B973003D3300471E1E2E0F72
:10041000807C01E3E000E1C007807008001808005C
:100420000C107F0630E3867FE3FFE7C1E788001109
:10043000181600FFC007C8F81E083E3BFFF377E21E
:100440007B5C220F4C220D5FE27973E3ED3363474F
:100450001E232E0FE17C01E3E001E1C0078070085C
:10046000001808000C107F0630E3867FE3FFE7C129
:10047000E788001118155545545545545545547F86
:10048000C7FC4044044044047DC7DC05005005001F
:10049000500F1C5009B6D818E3881780C81C007884
:1004A00031FF9878E71E4C4233C40061FE7C7FAB7D
:1004B0000055FFFFFF1815554554554554554554F3
:1004C0007FC7FC4044044044047DC7DC0500500560
:1004D00000500F1C5009B6D818EB881794C81C267A
:1004E00078326B187689DE44DE43C5D259CD134D80
:1004F000892061FFFFFF18173FFFF8200008230144
:1005000088230188303818287C28281028300018C3
:1005100023FF8822AA8823FF882000083F83F80051
:100520009200009200049240029280019300FC929B
:100530007E948252F783DE900012FFFFFE18173F71
:10054000FFF821550823FF8823018836BAD82A44AA
:10055000A82A44A83644D822BA8823018823EF88E1
:100560002139083F83F80092000092000492400273
:100570009280019300FC927EB4825AFF83FEB00009
:100580001AFFFFFE1816060FC003F8700630180099
:10059000200C0060040042243047741C42241FF8E1
:1005A000043080040180040322240677740C222482
:1005B0001800042000047FFFFECAAAAB800001C01F
:1005C00000037555563FFFFC181603F0600E1FC060
:1005D000180C603004002006002442002EE20C2497
:1005E0004238201FF820010C2001802444C02EEE48
:1005F000602444302000182000047FFFFED55553AE
:10060000800001C000036AAAAE3FFFFC181402007C
:10061000001E7FF0363800FE1FF0FF1FF03F1E0067
:100620001F1FF01F1F001F1FF0FF1FF03F9F801FA5
:100630009FC01F9FC07F9FC07FDFC07FDFC07FFF45
:10064000C03FFFC0FFFF80FFFF801814000800FFBD
:10065000CF8003CEC0FF8FF0FF8FF0078F80FF8F1A
:10066000800F8F80FF8F80FF8FF03F9F803F9F80A4
:100670003F9F803F9FE03FBFE03FBFE03FFFE03F45
:10068000FFC01FFFF01FFFF0181801FF8001188046
:10069000015A8001188001FF80001800001800FF37
:1006A00018FF191898F9FF9F191898FF18FF0018DC
:1006B000000018001FFFF818181818181818181834
:1006C000181818186618184218180018FE007FAA83
:1006D0000055181801FF80015A8001FF80015A80DF
:1006E00001FF80001800001800FF18FF191898FF7C
:1006F000FFFF191898FF18FF0018000018001FFFCF
:10070000F81818181818181818181818181866183B
:10071000184218180018FE007FAA00551815C000CE
:1007200018C0003839FEE00F038008008019FCC0B3
:1007300030F86020703020201020001027FF90211A
:1007400032103FFFF008944008B66019A220113320
:1007500020211130633190422090C630D81815C046
:100760000018C0003839FEE00F03800878801800B8
:10077000C031FE6020003023FF1020001027FF90C2
:100780002000103FFFF008944008B66019A2201125
:100790003320211130633190422090C630D8181494
:1007A0001E001812003C3300662100C26100824125
:1007B0009CBBDCB68990E38990D5A994C1A994C962
:1007C000A990E389D0B6895D9CBB6100822100C2FB
:1007D0003300421200661E003C00001818141E0070
:1007E0001812003C3300662100C265008A459CBB9C
:1007F000DCB6A994E3ADB4C9ADB4DDADB4C9AD9474
:10080000E3ADD4B6A95D9CBB65008A2100C233006C
:10081000421200661E003C000018181801414007F3
:10082000FFE00C003019E79831428C61C386C000AC
:1008300003803C01900009B9FFDD91554981FFC15A
:10084000815541FFFFFF4194622714341C6618183C
:10085000C30C1094841C489C006300002200001408
:1008600000000800181802814006FF600EC3701ACD
:10087000FF5832004C63FFC6C2004382004185002E
:10088000A1F8FF1F8518A1821841822441FFFFFFB4
:100890004194622714341C761818CB0C11A1841DC6
:1008A000149C018B00006200003400000800181640
:1008B0000FE7F00824100924100925900824100FD0
:1008C000E7F001008001008001008001008001004C
:1008D000800100800100800100800100800FFFF096
:1008E00018001C387E16683C13C800118FFFF1FEFB
:1008F000007F18160FE7F00FE7F00FE7F00FE7F0B3
:100900000FE7F00FE7F00100800100800100800197
:100910000080010080010080010080010080010052
:10092000800FFFF018001C39FF9669FF93C9FF91F3
:100930008FFFF1FE007F18180FFFE009012008105B
:10094000200FEFE0002800F729DE952952DDEF7631
:10095000800002DDEF76952952F729DE002800009D
:1009600028000028000FABF838AA0E60EE02C07C09
:1009700003FC003F800001FC003F807E01FFC3FFBD
:1009800018180FFFE00A44A00A44A00FEFE0002867
:1009900000F729DE952952DDEF76800002DDEF7643
:1009A000952952F729DE0028000028000028000FB2
:1009B000ABF838AA0E60EE42D27C6BB4012BA5795D
:1009C000ADA500B5A17E17FFC3FF18180FFFE00A01
:1009D000AAA00FFFE00A00A00E44E00A00A00FFF4B
:1009E000E038003840000481C702414504394538E9
:1009F00011451021C7084000044038042028081081
:100A000028100DFF601155102155083FFFF8018394
:100A10000001830018180FFFE00AAAA00FFFE00AE8
:100A200000A00EFEE00A00A00FFFE039CE384231F0
:100A3000048C48C242310439CE3810841021324827
:100A40004249244249242132481084100E78E01093
:100A500084102102083FFFF8018300018300101772
:100A6000FFE08020BBA0AAA080208E208020D5603F
:100A7000AAA080208020FFE09F208E208E2084204E
:100A80008020FFE0FFE02080208020802080101761
:100A9000FFE0FFE0A0A0A0A091208A2084208A206F
:100AA0009120A0A0C060FFE08420FFE08020802093
:100AB0008020FFE0FFE02080208020802080181828
:100AC0007FFFE0900090A8015090609080601080BF
:100AD0000010FFFFF0924930FFFFF0800010FFFF91
:100AE000F0999990999990E66670E66670FFFFF02C
:100AF000800010800010FFFFF01202401E03C012A1
:100B000002401E03C012024018187FFFE08A051041
:100B10008E07108A05108E07108A0510FFFFF092CD
:100B20004930FFFFF0800010FFFFF09999909999EC
:100B300090E66670E66670FFFFF08000108000109F
:100B4000FFFFF01202401E03C01202401E03C0123B
:100B5000024018187F8FF050A85070A87000F8005D
:100B6000008400814A04C1020860B418334B600C51
:100B7000308004008002490002B5000484800448EB
:100B80008002310003030004788004488002CD0015
:100B9000014A00014A00014A0001CE0018187F8F67
:100BA000F050A85070A87000F80000840C81021862
:100BB000C102306084203B4B400C30800400800236
:100BC0006900034B00048480044880020100030391
:100BD0000004788004488002CD00014A00014A00E8
:100BE000014A0001CE001816007FE001C030030C5E
:100BF00008063B84046066044032E4C01AA8860BF1
:100C0000E98F094909094D080945081B450C72651A
:100C100007C22500062580047DE018CE3FE0800055
:100C20003F800001800007FFFFFC181607FE000C44
:100C300003801030C021DC606606204C022058037F
:100C400027D0611590F1979090929010B2D810A291
:100C50004E30A243E0A66000A42001A41807BE07FE
:100C6000FC73FC0001800001E000013FFFFF181849
:100C7000070700050500038E000088000C89800C22
:100C800089807C89F04C89904FFF907D55F00D55FF
:100C9000807D55F05555506FFFB057FF507F8FF056
:100CA0000F87801F07C03E03C07C03E07C01F0F883
:100CB00000F0E000F8800008181807070007070098
:100CC000038E000088000C89800C89807C89F07C70
:100CD00089F07FFFF07FFFF00FFF807FFFF07FFF45
:100CE000F06FFFB07FFFF0798CF00F87801F07C097
:100CF0003E03C07C03E07C01F0F800F0E000F880E7
:100D0000000818143C07802404804208405A0B4015
:100D10005A0B4042E8404318405E0F404A0A404A9E
:100D20000A404F1E404000403FFF806250E09A530F
:100D300090CE5E30865810C0003080E010FF1FF06B
:100D400018143C07802404804208405A0B405A0B78
:100D5000405AEB405B1B40580340460C404CE64079
:100D60004802404000403FFF806250E09A5390CEDE
:100D70005E30865810C0003080E010FF1FF0181859
:100D8000080100990C90D606A04402B0A80150AB0F
:100D90009D50FA95F08BFD108A55108A5510FE076C
:100DA000F0C0A03078A1E00EA70003FE0002020010
:100DB000027200068B000A8A80128A40FE8BF0A81D
:100DC0008950808810FF8FF01818080100990C9046
:100DD000D606A04402B0A80150AB9D50FB9DF0CBBD
:100DE000FD30AB0D509B9D90FE67F0C0E03079B1B7
:100DF000E00F1F0003FE00020200027200068B00DB
:100E00000A8A80128A40FE8BF0A88950808810FFE1
:100E10008FF018177FFFF84000085FCFE840000808
:100E20007FFFF80030000030001FFFE0300030602E
:100E30000018E0001CFF03FC8884448F87C488846A
:100E400044FF03FC80780CC0843870FCE01F87806E
:100E500000FC0000840000780018177FFFF8608411
:100E60001851FE284A01487FFFF80030000030008A
:100E70001FFFE03484B0693258EE49DC8A854C8F1C
:100E800003C480000481FE0482010484788CC08441
:100E90003870FCE01F878000FC00008400007800B0
:100EA0001818073800052800073800021000021043
:100EB0000002100003F800060C0004A40004040063
:100EC0000404003FFF804000403FFF8010010030DD
:100ED000A1806040C040A04040004040A040C040D1
:100EE0006080A020800020FFFFE018180738000570
:100EF000280007380002100002100002100003F85A
:100F000000075C000554000554000554003FFF80B5
:100F10004000403FFF8010010030A1806040C04091
:100F2000A040400040400040D40560880220940565
:100F300020800020101405000A80088005000200AF
:100F40001F8030F025102850285024A030A01520F4
:100F50001A600D4004C006B87DECC5448924101405
:100F600005000A800880050002001F8030F0201074
:100F70002D90201022203220102018600C4004C038
:100F800006B87DECC54489241818FFFFE0AAAAA082
:100F9000FFFFE0AB1AA0FF5FE0AB1AA0FFFFE0AAE3
:100FA000AAA0FFFFE0A000A0E7FCE0A6ACA0E5F44B
:100FB000E0A71CA0E514E0A71CA0E514E0A71CA076
:100FC000E000E0BFFFA0D55560FFFFE0120900126E
:100FD00009001818FFFFE0AAAAA0FFFFE0ABFAA0E3
:100FE000FFFFE0ABFAA0FFFFE0AAAAA0FFFFE0AA84
:100FF000AAA0FFFFE0AAAAA0FFFFE0AAAAA0FFFF05
:10100000E0AAAAA0FFFFE0AAAAA0FFFFE0AAAAA068
:10101000FFFFE0FFFFE01209001209001818107826
:101020000077C1B8C40E0881FB0C2309C4260FE663
:101030002400302440986CE1C848408D48000548A1
:101040001F0D2C31882460C807001841FFE25800AA
:101050000E4C007843FFC26800060C78FC07CF8076
:10106000000000000000181810780077C1B8C40E06
:101070000881FB0C2301C42600E624183024301814
:101080006C058848A48D48ACC548C00D2C5D08246B
:10109000070807001841FFE258000E4C007843FF94
:1010A000C26800060C78FC07CF800000000000003A
:1010B000181800780007CF000801C01006603383BD
:1010C000B026001840C60863EF0820000822000878
:1010D00022000833F8D01803900F00304107EC6568
:1010E00004303FDFCC290478E9061089221C8136C0
:1010F000E07937B8CF76CC88C3601818007800073D
:10110000CF000801C0100060312030212218434276
:1011100008634C483979C82FB30820DE88307F90A7
:101120001830100F60304147EC6564303FFFCC2928
:101130002478E9261089221C8136E07937B8CF76E9
:10114000CC88C3600808007E5A7E3C18000008085E
:1011500000207020202000000808A1A5A5A5A5A5B5
:1011600085850808FEAAFEAAFEAAFE00080810202F
:101170004080000102040808004020181804020002
:10118000080881818181818181810808FF818181B5
:10119000818181FF080800244208104224000808C9
:1011A0000042001818004200080808484A4A4A4A03
:1011B0000A080808BD66E79999E766BD08080502B0
:1011C00005005020500008080002200000024000E6
:1011D0000808000444555555555508083C26DBA51C
:1011E000AD93443C0808000004000000000008081B
:1011F00000002000000008000808000000000000B7
:1012000000000808BD008199998100BD08081010F0
:10121000100F10E0101008080028140814224400D1
:10122000080808142241081422410808C3FF42425A
:101230004242FFC308087E547C107C1028440808F2
:101240003E343C101C1010180808FC7C7C107C10EC
:10125000284408087C2C3C083808081808087E54E4
:101260007C107C10282008087E547C107C102808F4
:1012700008083E343C103050284408083E343C14E2
:10128000181018140808FC7C7C107C102820080812
:10129000FC7C7C107C10280808087C2C3C080C0A7C
:1012A000142208087C2C3C28180818284F7569005F
:1012B0004E6F6E0046757420310046757420320002
:1012C0004675742033004675742034004772696691
:1012D0006665004368617267650046657578002D34
:1012E0003E0043617463680045617500506C616E37
:1012F000746500746572726500456C6563005073B7
:1013000079004D6F6E206571756970650046757462
:1013100075726F646578004368616E676520676108
:101320006D650003030705070504050504050306AD
:10133000030207020201020203020E090E0E0D0E45
:101340000E0F0E070507050307050F05070507061E
:10135000070102050200070202070002070200025D
:10136000070200070603060707020205050201023D
:101370000204020005020205000607050507050232
:101380000302020602000000000B00030003070531
:10139000070407010502050707040003000007050D
:1013A000050700050005020702000C00020202000A
:1013B00004000402010705070507040107040507E7
:1013C00002030207040701070606010107070707D2
:1013D000030307000500000D0002050005050500D8
:1013E00005020107030F09030603060707020205AA
:1013F0000507070207070507030107050607020798
:10140000050705040403070205070404070307078B
:10141000010607050707030307050307030604077B
:101420000101070107040703040307060705020576
:101430000106010107040007050102040507000277
:101440000102080808000300060306070702020558
:101450000507050207070507030107050607020739
:10146000050705040403070205070404070307072B
:10147000010607050707030307050307030604071B
:101480000101070107040703040307060705020516
:10149000010601010704020705000700050702060F
:1014A000020307050703053F213F1208120A100A2D
:1014B0000E1C0E0C1E0C141A14161F161E131E1EC4
:1014C0001B1E1E1F1E3F213F3A2F3A173D173F217B
:1014D0003F181F02040A041F0E04040E1F0A1F0AED
:1014E0000E0E1F04110E2E252E2F2A2E262929021C
:1014F0001F02081F08150E04040E150E15151B15E6
:101500001B040604040C0400000000170003000381
:101510001F0A1F16371A1904130A153A0003000090
:101520000E11110E000A040A040E04003000040417
:10153000040010001804031F111F121F101D15179F
:1015400011151F07041F17151D1F151D01011F1F52
:10155000151F17151F000A00003200040A110A0A9D
:101560000A110A040115020E11171E051E1F150A85
:101570000E110A1F110E1F15111F05010E111D1F3F
:10158000041F111F1108100F1F041B1F10101F062E
:101590001F1E040F0E110E1F09060E112E1F051A15
:1015A000121509011F011F101F0F180F1F0C1F1B01
:1015B000041B031C03191513001F11030418111F2A
:1015C000000201022020200001020C121E1F120C3A
:1015D0000C12120C121F0C1A14041E05242A1E1FB2
:1015E000021C141D1020201D1F0814111F101E04A2
:1015F0001E1E021C0C120C3E0A040C123E1E04029B
:1016000014160A020F120E101E0E100E1E081E12C5
:101610000C1226281E322A26041E21001F00211E1D
:10162000040102013F213F05077F4141417F3E5BAD
:101630004F5B3E3E6B4F6B3E183C783C18183C7E2F
:101640003C181C577D571C1C5E7F5E1C007E43436C
:101650007E007E73737E007E7F7F7E7F4141417F6F
:1016600030483A060E06297929067F4141417F60BC
:10167000703F02042A1C361C2A7F3E1C080000080A
:101680001C3E7F14227F22143C3C3C7EFF18423CCF
:10169000817E3E6375633E3E616B633E3E636B6B72
:1016A0003E04027F020410207F201008082A1C0834
:1016B000081C2A0808143E55412263756975631099
:1016C000181C1810040C1C0C040000000000000082
:1016D0005F00000007000700147F147F14042A7FB6
:1016E0002A10231308646236495620500008070365
:1016F00000001C2241000041221C002A1C3E1C2A22
:1017000008083E080800E060000008080808080013
:101710006060000060100804033E5149453E0042ED
:101720007F400062514949462141494D3318141206
:101730007F1027454545393C4A4949304121110927
:10174000073649494936064949291E000024000048
:1017500000806400000814224100141414141400C2
:101760004122140802015909063E415D594E7C127E
:1017700011127C7F494949363E414141227F414116
:10178000221C7F494949417F090909013E414151D4
:10179000327F0808087F00417F41002041413F011E
:1017A0007F081422417F404040407F020C027F7F2F
:1017B0000204087F3E4141413E7F090909063E413E
:1017C0006141BE7F09192946264949493201017FF5
:1017D00001013F4040403F1F2040201F3F40384014
:1017E0003F631408146303047804036151494543BB
:1017F000007F41410003040810600041417F000464
:1018000002010204808080808000030708002054C9
:101810005478407F28444438384444442838444469
:10182000287F3854545418087E09090218A4A49C2F
:10183000787F0804047800447D4000006080847D47
:101840007F1010284400417F40007C047804787C9D
:10185000080404783844444438FC18242418182414
:101860002418FC7C080404080854545420043F4401
:1018700044203C4040207C1C2040201C3C40204018
:101880003C44281028444C9090907C4464544C4430
:10189000000836410000007F0000004136080018B3
:1018A0000408100C7F4141417F0A4E6F20534420B1
:1018B00063617264206F720A6E6F204C4F41444521
:1018C000522E4845580A0A153A45786974001D2079
:1018D000466C617368696E670A20206C6F6164658D
:1018E000722E2E2E0A0A444F4E2754205455524E23
:1018F000204F464621006D560A0A504C454153453B
:101900000A5455524E204F4646004C4F57204241F4
:1019100054544552590A0017736176650016626186
:10192000636B001574797065000A0A0A153A6F6BCB
:10193000617920163A6564697400596F7520656E87
:1019400074657265640A00540A03E181867F3E185B
:101950006D830F0F0E0183866033186DC3198F18C6
:1019600003C38E6033186DE330CF1803C39E603617
:1019700030CDE360CF3006C79E7E3E30CDB360CF22
:10198000300CC6F6603330D9B660CF33CFCCF660BA
:1019900061B0DB1E60CF30D86CE6C061B0DB1E6189
:1019A0008F19986CC6C063B19B0E330F0FB078C609
:1019B000FF7E1F1B061E0F175344001613780016D8
:1019C00013140015102000152010000000050089D8
:1019D00030080238024978681400004500680100A8
:1019E00000050068013801000005003801680100A9
:1019F00000F6E8DBCFC3B8AEA49B928A827B746EFC
:101A000068625C57524E4945413E3A3734312E2C7C
:101A100029272523211F1D1C1A1917161514131207
:101A200011100F0E0D0C0B0A09080706301A341A94
:101A30000101F7030101FF0300000000240027005B
:101A40002A0000000000250028002B0000000000F4
:101A500023002600290004040404040404040202F0
:101A6000020202020303030303030102040810201D
:101A70004080010204081020010204081020000028
:101A8000000700020100000304060000000000003F
:101A900000005C0F11241FBECFEFD8E0DEBFCDBF2A
:101AA00011E0A0E0B1E0E2EFFCE702C005900D928A
:101AB000AE3BB107D9F715E0AEEBB1E001C01D9226
:101AC000AA3AB107E1F71AE1C4E9DAE104C02297C2
:101AD000FE010E943C3EC239D107C9F70E94293A53
:101AE0000C94773E0C940000A0E0B0E0EAE7FDE043
:101AF0000C94483EEC01A880B980CA80DB80A11418
:101B0000B104C104D10441F484E2A82E89EDB82EB9
:101B10008BE5C82E87E0D82EC601B5012DE133EF45
:101B200041E050E00E941F3E27EA31E440E050E0EF
:101B30000E94B73D7B018C01C601B5012DE133EF59
:101B400041E050E00E941F3ECA01B9012CEE34EF83
:101B50004FEF5FEF0E94B73D6E0D7F1D801F911FFD
:101B600097FF04C06150704080409048688379833B
:101B70008A839B839B01AC015F77B901CA01CDB712
:101B8000DEB7EAE00C94643E0E94740D08958FE184
:101B900091E00E94740D089560931F0170932001DD
:101BA00080932101909322010895FC01148A8FEF04
:101BB000868B0895FC01658B0895FC018589089545
:101BC000FC0190E0808118160CF491E0892F0895B3
:101BD000FC01668B0895FC01868908952FEFFC01B6
:101BE000268B0895FC019581648184E6989FC0014D
:101BF000112470E00E94EA3D862F0895E82FF0E05E
:101C0000EB31F10508F0DEC0EC5CFF4FEE0FFF1F7B
:101C10000590F491E02D0994662309F0D4C026E2E2
:101C200033E0D3C0662319F428EA33E0CEC024E6BB
:101C300033E0CBC0662319F420E334E0C6C02CEEB9
:101C400033E0C3C0662319F425EB34E0BEC024E7BB
:101C500034E0BBC0662319F42DE335E0B6C026EFAF
:101C600034E0B3C0662319F428EC35E0AEC024E8B4
:101C700035E0ABC0662319F42AE436E0A6C02CE0B8
:101C800036E0A3C0662319F422ED36E09EC028E8B2
:101C900036E09BC0662319F42DE537E096C02CE1B1
:101CA00037E093C0662319F42CED37E08EC02EE99F
:101CB00037E08BC0662319F424E638E086C02AE1B9
:101CC00038E083C0662319F422EF38E07EC02EEAA4
:101CD00038E07BC0662319F420E839E076C026E3BB
:101CE00039E073C0662319F424E13AE06EC02AECAF
:101CF00039E06BC0662319F42EE83AE066C02EE5A1
:101D00003AE063C0662319F428E03BE05EC02EEBA6
:101D10003AE05BC0662319F42CE93BE056C022E5AB
:101D20003BE053C0662319F42AE23CE04EC026EEA5
:101D30003BE04BC0662319F428EB3CE046C02EE69E
:101D40003CE043C0662319F420E43DE03EC022E0BD
:101D50003DE03BC0662319F428EC3DE036C02EE799
:101D60003DE033C0662319F429E53EE02EC022E1B0
:101D70003EE02BC0662319F42AEE3EE026C020EA9E
:101D80003EE023C0662319F42EE53FE01EC024E3A5
:101D90003FE01BC0662319F422ED3FE016C028E89F
:101DA0003FE013C0662319F426E630E10EC02CE1B3
:101DB00030E10BC0662319F42AEF30E106C020EBB6
:101DC00030E103C0089528EE32E0C9010895823061
:101DD00089F0833028F48823D1F08130B9F407C02A
:101DE000843071F0843048F0853081F40CC029E6ED
:101DF00032E00FC023E732E00CC02DE732E009C02B
:101E000027E832E006C021E932E003C008952FE55B
:101E100032E0C9010895823089F0833028F48823A4
:101E2000D1F08130B9F407C0843071F0843048F0CB
:101E3000853081F40CC02DE931E00FC022EA31E099
:101E40000CC027EA31E009C02CEA31E006C021EBE2
:101E500031E003C0089528E931E0C90108951F93D6
:101E6000182F862F0E940B0FFC01E10FF11DE0815E
:101E70008E2F8350863010F080E006C0F0E0E85AE4
:101E8000FD4F8081811181E01F9108951F93FC0116
:101E900045811081212F332727FD3095C901841BEF
:101EA00091090E94EA3D640F658370E06217730731
:101EB0000CF415831F91089510920F0210920E02D8
:101EC0008AEB91E090930D0280930C020895EF92BB
:101ED0000F931F93CF93DF9300918E0310918F0385
:101EE0008091960390919703081B190B2091900302
:101EF000309191034091980350919903C801409605
:101F00008536910570F5E901C41BD50B8FEFC03FF5
:101F1000D8073CF1C133D10524F5E0919A038091B3
:101F20009B03882379F02E2F220FE22FEC5F809104
:101F30002E0290912F0268E070E00E94EA3D049723
:101F40000CF0EF5FF0E0EE0FFF1FED5AFE4F208127
:101F500031818CE092E0602F4C2F00E0EE240E9453
:101F6000552ADF91CF911F910F91EF90089562E371
:101F700070E080E090E024EF31E040E050E00E942B
:101F8000743C70939D0360939C030895AF92BF923D
:101F9000DF92EF92FF920F931F93DF93CF930F92F5
:101FA000CDB7DEB780914702909148020196909399
:101FB00048028093470260E070E080E090E026E015
:101FC00030E040E050E00E94743C60938902F62EBD
:101FD000FF0CFF0C0EE812E0580163E0D62EDF0C78
:101FE00060E070E080E090E024E030E040E050E02D
:101FF0000E94743C6295660F660F607C6D0DF50162
:10200000608360E070E080E090E024E030E040E059
:1020100050E00E94743C80EF90E0A80EB91E6295DB
:10202000660F660F607C6D0DF501608381E19FEFA7
:10203000A80EB91E9EE9A91692E0B90689F660E0DD
:1020400070E080E090E024E030E040E050E00E946A
:10205000743C6295660F660F607C6D0DF8016083BD
:1020600060E070E080E090E024E030E040E050E0AC
:102070000E94743C6295660F660F607C6D0DF801DE
:102080006787005F1F4FF3E00E381F07C1F660E05F
:1020900070E080E090E022E030E040E050E00E941C
:1020A000743CE62EEF0C51E0A52EB12C29C089819D
:1020B0008C3008F045C091E0F91609F441C0EEE01B
:1020C000FE16F1F160E070E080E090E025E030E0A5
:1020D00040E050E00E94743C611571058105910556
:1020E00079F5F801D082F394005F1F4FFFE0FF16EF
:1020F000F1F60894A11CB11C8FE0A816B10449F0B8
:10210000850102561D4FFF24F3949A2D9250998316
:10211000CECF82E080930E0380931D0382E48093F0
:102120009602809386030E94B70F0F90CF91DF91A4
:102130001F910F91FF90EF90DF90BF90AF900895A7
:1021400060E070E080E090E024E030E040E050E0CB
:102150000E94743C6295660F660F607C6E0DF801FC
:102160006083C1CFFF920F931F938C01FC01F68017
:1021700061E070E080E090E025E030E040E050E099
:102180000E94743C6F0DF80166836183F48061E006
:1021900070E080E090E025E030E040E050E00E9418
:1021A000743C6F0DF801648360836583F08461E0A3
:1021B00070E080E090E025E030E040E050E00E94F8
:1021C000743C6F0DF80160876383F78061E070E015
:1021D00080E090E025E030E040E050E00E94743C78
:1021E0006F0DF8016783628381858F5F8187248506
:1021F000358542855385241B350B3587248790E030
:102200009C01229FC001239F900D329F900D1124AD
:1022100095958795938782871F910F91FF900895D9
:102220001F93CF93DF93182FEB018230B9F18330E6
:1022300030F4882371F0813009F0D6C01EC084309C
:1022400009F487C0843008F44DC0853009F0CCC053
:10225000B7C060E070E080E090E024E030E040E073
:1022600050E00E94743CDC01CB0184579E4FFC017E
:102270008081898B1A8A85E0B6C060E070E080E0DA
:1022800090E022E030E040E050E00E94743C6115B4
:1022900071058105910509F07FC092C060E070E092
:1022A00080E090E022E030E040E050E00E94743CAA
:1022B000611571058105910509F05AC060E070E073
:1022C00080E090E025E030E040E050E00E94743C87
:1022D000DC01CB0183589E4FFC018081898B1A8AD7
:1022E0001E8782C060E070E080E090E022E030E095
:1022F00040E050E00E94743C611571058105910534
:10230000A1F460E070E080E090E025E030E040E0A3
:1023100050E00E94743CDC01CB0183589E4FFC01CD
:102320008081898B1A8A82E05EC060E070E080E084
:1023300090E025E030E040E050E00E94743CDC0199
:10234000CB018E579E4FFC018081898B1A8A83E0D6
:102350004AC060E070E080E090E022E030E040E0E1
:1023600050E00E94743C6115710581059105A1F44E
:1023700060E070E080E090E024E030E040E050E099
:102380000E94743CDC01CB0187589E4FFC01808188
:10239000898B1A8A81E027C060E070E080E090E0DD
:1023A00024E030E040E050E00E94743CDC01CB01CE
:1023B0008B589E4FFC018081898B1A8A1E8614C01F
:1023C00060E070E080E090E025E030E040E050E048
:1023D0000E94743CDC01CB0189579E4FFC01808137
:1023E000898B1A8A84E08E87DF91CF911F9108959F
:1023F000282F30E040E050E061E070E080E090E0C5
:102400000E94743C862F08958F929F92AF92BF9244
:10241000CF92DF92EF92FF920F931F93DF93CF93B0
:10242000CDB7DEB7E8A0F9A00D891B89BF88AE88BB
:10243000998C8A8CCB8CDC8C8091440290914502E3
:102440006EA10E947025FC01F28AE18A0183068355
:10245000108314831583B382B086A282A7829186EB
:1024600092868386D586C486CF91DF911F910F9186
:10247000FF90EF90DF90CF90BF90AF909F908F90A4
:1024800008950F931F93CF93DF9380919B0388232D
:1024900009F44EC080918E0390918F034091920376
:1024A0005091930373E0440F551F7A95E1F7841719
:1024B000950759F08417950714F4019601C0019708
:1024C00090938F0380938E031AC080919003909114
:1024D0009103209194033091950363E0220F331F01
:1024E0006A95E1F78217930751F08217930714F466
:1024F000019601C00197909391038093900380917E
:1025000094039091950323E0880F991F2A95E1F792
:1025100020919003309191032817390749F4809155
:102520008E0390918F038417950711F410929B03EB
:1025300080919B03882309F0F0C0C0919203D09151
:102540009303009194031091950388EC91E062E06D
:1025500044E00E94B126882381F0809192039091FB
:102560009303419660E170E00E94EA3D90939303EB
:102570008093920381E080939A0388EC91E060E07D
:1025800044E00E94B126882381F0809192039091CB
:1025900093030F9660E170E00E94EA3D90939303ED
:1025A0008093920383E080939A0388EC91E063E048
:1025B00044E00E94B126882379F0809194039091A1
:1025C0009503419660E170E00E94EA3D9093950387
:1025D0008093940310929A0388EC91E061E044E0C8
:1025E0000E94B126882381F08091940390919503F5
:1025F0000F9660E170E00E94EA3D9093950380930E
:10260000940382E080939A0380919403E091920373
:10261000F0E094E0EE0FFF1F9A95E1F7E80FF11D4F
:10262000E257FD4FE081EF738E2F90E001968370AB
:102630009070892BA9F4D0939303C09392031093C5
:10264000950300939403EC2FF0E084E0EE0FFF1F5E
:102650008A95E1F7E00FF11DE257FD4FE081EF733E
:102660008091920390919303C817D90741F4809108
:102670009403909195030817190709F44EC081E05F
:1026800080939B038E2F90E0029683709070892B2D
:1026900009F043C00E94C60F80919203909193036A
:1026A000009739F48FE090E0909393038093920326
:1026B0001AC00F9729F4109293031092920313C03B
:1026C0008091940390919503009739F48FE090E006
:1026D000909395038093940306C00F9721F4109272
:1026E0009503109294038091920390919303B3E029
:1026F000880F991FBA95E1F790938F0380938E030B
:102700008091940390919503A3E0880F991FAA9557
:10271000E1F7909391038093900320919C03309173
:102720009D03442737FD4095542F60E070E080E022
:1027300090E00E94743C611571058105910529F4B2
:102740000E94B70F10929E0367C020919C033091A6
:102750009D03220F331F442737FD4095542F60E01F
:1027600070E080E090E00E94743C61157105810585
:10277000910529F58EEB91E06EE970E04CE30E9443
:10278000732D00E013C08091440290914502602FA8
:102790000E947025EC018091440290914502602FC7
:1027A0000E947025FC01848188830F5F8091440220
:1027B000909145020E948625081728F338C0809121
:1027C0009C0390919D039C01220F331F280F391FFA
:1027D000442737FD4095542F60E070E080E090E0A2
:1027E0000E94743C6115710581059105B9F4E09171
:1027F0008902F0E0ED57FD4F80818230C0F481E026
:1028000080939E030E94B70FE0918902F0E0ED579C
:10281000FD4F80818F5F808380E01DC080919C038D
:1028200090919D03019790939D0380939C03209129
:102830009003309191032051304080918E0390910C
:102840008F03829790939703809396033093990315
:102850002093980381E0DF91CF911F910F9108950C
:102860008F929F92AF92BF92CF92DF92EF920F938F
:10287000CF93DF93CC24DD248824992443C0F50131
:1028800000818091960390919703BE01681B790B9C
:102890004091980350919903CB0108968D3591058D
:1028A000F0F4C401841B950BAC019FEF483F59071E
:1028B000B4F0413351059CF4E02FF0E0EF73F07079
:1028C000EE0FFF1FED5DFE4F2081318102950695D1
:1028D000069503708CE092E0EE240E94552AE0E118
:1028E000F0E0AE0EBF1E2896C038D10541F6089420
:1028F000C11CD11C88E090E0880E991E90E1C91699
:10290000D10449F0EEE8AE2EE2E0BE2EAC0CBD1CC8
:10291000C0E0D0E0B4CF8CE092E063E273E10E94CB
:102920000A2B8CE092E064EB70E00E94673A6091C1
:102930004702709148028CE092E04AE050E00E9429
:10294000553B8CE092E06DEA70E00E94673A60913E
:10295000490270914A028CE092E04AE050E00E9405
:10296000553B8CE092E067EA70E00E94673A8CE0A9
:1029700092E0609166024AE050E00E94833B8CE066
:1029800092E065EA74E10E940A2BDF91CF910F91EA
:10299000EF90DF90CF90BF90AF909F908F90089571
:1029A0008EEB91E00E94402F0E94C60F64E070E021
:1029B00080E090E028E030E040E050E00E94743C8D
:1029C000709393036093920364E070E080E090E082
:1029D00028E030E040E050E00E94743C9B0170939E
:1029E000950360939403809192039091930343E045
:1029F000880F991F4A95E1F790938F0380938E0378
:102A0000B3E0220F331FBA95E1F73093910320937F
:102A1000900310929A0310929B0384EF91E090939D
:102A20009D0380939C0308958F929F92AF92BF92D3
:102A3000CF92EF920F931F93DF93CF93CDB7DEB773
:102A400067970FB6F894DEBF0FBECDBF8EEB91E057
:102A500062ED70E048E20E94732D8EEB91E06AEB2C
:102A600070E042E00E944430882309F067C0809102
:102A70004402909145020E946025882309F43EC0DB
:102A80008EEB91E066EC70E048E20E94732DA0901E
:102A90004402B0904502C50188579E4F0E947A2596
:102AA000182F092F8EEB91E06EEB70E044E00E944E
:102AB0004430682F8DB79EB748970FB6F8949EBFE5
:102AC0000FBE8DBF4DB75EB74F5F5F4FDA01212F4D
:102AD000302FC901FC0187E101900D928150E1F78F
:102AE000FA01678BC5010E9404128DB79EB7489604
:102AF0000FB6F8949EBF0FBE8DBF20C080914402D8
:102B00009091450288579E4F0E947A25DE011196CA
:102B1000FC0187E101900D928150E1F7AB84BC8408
:102B20008D849E8480914402909145026A894D81F2
:102B300029850F81E884CA840E94FE2467960FB617
:102B4000F894DEBF0FBECDBFCF91DF911F910F91E3
:102B5000EF90CF90BF90AF909F908F9008950F937C
:102B60001F938C01FC01128A118A60E070E080E002
:102B700090E02AE030E040E050E00E94743C665F64
:102B8000F8016183668360E070E080E090E02AE015
:102B900030E040E050E00E94743C665FF8016083E2
:102BA0006483658360E070E080E090E02AE030E0DC
:102BB00040E050E00E94743C665FF80163836087E8
:102BC00060E070E080E090E02AE030E040E050E03B
:102BD0000E94743C665FF8016283678385E08187A9
:102BE0008CE090E09387828715861486C80160E0A8
:102BF0000E94DA0DF80116861F910F9108958F92A9
:102C00009F92AF92BF92CF92EF920F931092660273
:102C1000109248021092470210924A021092490202
:102C200010924602809144029091450260E040E09B
:102C300020E000E0EE24CC24AA24BB24882499249C
:102C40000E94FE24809144029091450260E00E941F
:102C500070250E94AF1581E080934B02809367023C
:102C6000809166028F5F80936602809182028F5FFF
:102C7000809382020E94D0140F91EF90CF90BF906A
:102C8000AF909F908F900895CF92DF92EF92FF9236
:102C90000F93DF93CF9300D0CDB7DEB76C01062F33
:102CA000E42E623008F402E0202F30E03A832983DA
:102CB000F980FF0C60E070E080E090E02AE030E016
:102CC00040E050E00E94743C6F0DD60111966C9369
:102CD000119716966C9360E070E080E090E02AE037
:102CE00030E040E050E00E94743C6F0DF6016083DC
:102CF0006483658360E070E080E090E02AE030E08B
:102D000040E050E00E94743C6F0DD60113966C9326
:102D1000139718966C9360E070E080E090E02AE0F2
:102D200030E040E050E00E94743C6F0DF601628399
:102D30006783018729813A81229FC001239F900DDB
:102D4000329F900D112495958795938782871586DC
:102D500014868E2DB6010E941011C601D6011E9652
:102D60006C910E94DA0D0F900F90CF91DF910F912F
:102D7000FF90EF90DF90CF9008958F929F92AF9247
:102D8000BF92CF92EF92FF920F931F930E94411236
:102D9000882331F00E9430140E94670F80E09EC0AB
:102DA00080919E03882309F048C060E070E080E0D5
:102DB00090E02BE130E040E050E00E94743C8091D4
:102DC00044029091450288579E4F60E040E020E029
:102DD00000E0EE24CC24AA24BB24882499240E9459
:102DE000FE24809144029091450288579E4F60E0F6
:102DF0000E944E25E0914402F0914502E557FE4FB6
:102E000081E08083CF0103970E947A258C01E091B5
:102E10004702F09148029F0136952795B90180E05D
:102E200090E02E0F3F1F40E050E00E94743CC8012C
:102E3000409189020E94441650C0E0914402F091F2
:102E40004502E557FE4F1082FF2460E070E080E00D
:102E500090E02BE130E040E050E00E94743C809133
:102E600044029091450288579E4F60E040E020E088
:102E700000E0EE24CC24AA24BB24882499240E94B8
:102E8000FE24809144029091450288579E4F6F2DF9
:102E90000E9470258C01E0914702F09148029F0149
:102EA00036952795B90180E090E02E0F3F1F40E056
:102EB00050E00E94743CC801409189020E9444166F
:102EC000F39484E0F81609F680914402909145024B
:102ED00088579E4F60E00E944E2581E01F910F9120
:102EE000FF90EF90CF90BF90AF909F908F900895FC
:102EF000BF92CF92DF92EF92FF920F931F93DF93D7
:102F0000CF93CDB7DEB7ED8CFE8C0EE1F7E6CF2E7A
:102F1000F2E0DF2ECE0CDF1CEAE0BE2E8EEB91E05D
:102F20000E948B2F8823D1F3F6018081882329F01A
:102F3000609171017091720104C060916D01709196
:102F40006E018CE092E00E94063C1B2D101B8E2D22
:102F500061E00E94FE0D9C018CE092E06CE3412F49
:102F60000E94E7298E2D60E00E94FE0D9C018CE0FE
:102F700092E06EE1412F0E94E7290111035088EC95
:102F800091E064E00E94A726882341F2CF91DF916F
:102F90001F910F91FF90EF90DF90CF90BF90089519
:102FA0000F931F9310928D02E0914402F09145021D
:102FB000E557FE4F8081882349F08EEB91E063E96D
:102FC00071E04CE30E94732D1CE305C08EEB91E091
:102FD00060E871E0F6CF8EEB91E00E948B2F8823A2
:102FE000D1F31F3118F0012F025E0AC088EC91E086
:102FF00064E00E94A7268823C9F41123B9F00CE3EA
:103000001150809144029091450288579E4F0E9432
:103010007A25FC01818961E00E94FE0D9C018CE013
:1030200092E0602F40E00E94E729D5CF1F910F91D9
:103030000895CF93DF938CE092E065EA74E10E94FB
:103040000A2B60916F01709170018CE092E00E94F8
:10305000063C60914702709148028CE092E04AE0A1
:1030600050E00E94553B60917301709174018CE0B7
:1030700092E00E94063C6091490270914A028CE005
:1030800092E04AE050E00E94663B60916D017091D1
:103090006E018CE092E00E94063C8CE092E0609130
:1030A00066024AE050E00E94833B6091710170919A
:1030B00072018CE092E00E94063C8CE092E060910C
:1030C00082024AE050E00E94953BC1E0D0E060916E
:1030D0006F01709170018CE092E00E94063C8CE0E0
:1030E00092E0BE014AE050E00E94F33B8CE092E0A7
:1030F00066EE70E00E94673AFE01EE57FD4F8CE0ED
:1031000092E060814AE050E00E94953B2196C730F2
:10311000D105E9F6DF91CF9108952F923F924F921A
:103120005F926F927F928F929F92AF92BF92CF9257
:10313000DF92EF92FF920F931F93DF93CF93CDB760
:10314000DEB72EA03E8C8D89498C588C6D8C7E8884
:103150008B8C9F880C8DA9A0BAA0CF8CD8A01EE123
:10316000E82EFF24E7FCF0948EEB91E00E948B2F79
:103170008823D1F3822D61E00E94FE0D9C01412F36
:1031800041958CE092E06CE30E94E7291111135005
:103190008CE092E06AE071E00E94673A8CE092E095
:1031A000632D4AE050E00E94953B8CE092E065E0A0
:1031B00071E00E94673A8CE092E0B7014AE050E08B
:1031C0000E94F33B8CE092E063E071E00E94673A7A
:1031D0008CE092E0642D4AE050E00E94953B8CE048
:1031E00092E06EEF70E00E94673A8CE092E0652D0D
:1031F0004AE050E00E94833B8CE092E06CEF70E08C
:103200000E94673A8CE092E0662D4AE050E00E940E
:10321000953B8CE092E067EF70E00E94673A8CE0AB
:1032200092E0672D4AE050E00E94833B8CE092E000
:1032300065EF70E00E94673A8CE092E0682D4AE00A
:1032400050E00E94953B8CE092E060EF70E00E94BD
:10325000673A8CE092E0692D4AE050E00E94833B9F
:103260008CE092E06EEE70E00E94673A8CE092E0B3
:10327000602F4AE050E00E94953B8CE092E06AEEBD
:1032800070E00E94673A8CE092E0B5014AE050E0BD
:103290000E94553B8CE092E068EE70E00E94673A35
:1032A0008CE092E0B6014AE050E00E94663B88EC78
:1032B00091E064E00E94A726882309F455CFCF91BE
:1032C000DF911F910F91FF90EF90DF90CF90BF9013
:1032D000AF909F908F907F906F905F904F903F90B6
:1032E0002F900895CF92DF92EF92FF921F93DF937A
:1032F000CF93CDB7DEB767970FB6F894DEBF0FBE9A
:10330000CDBF10E06E010894C11CD11C8EEB91E082
:103310000E948B2F8823D1F301C01F5FE12EFF2471
:10332000F701E55BFD4F8081882319F41B31A8F379
:1033300023C01B3108F5C6010E94D50DFB8AEA8A1D
:103340008DB79EB747970FB6F8949EBF0FBE8DBF3F
:10335000ADB7BEB71196F60187E101900D9281508D
:10336000E1F70E9478178DB79EB747960FB6F8948D
:103370009EBF0FBE8DBF07C08EEB91E06FE071E086
:1033800048E20E94732D1F5F1B3108F4BFCF80916C
:103390004402909145020E94472567960FB6F89423
:1033A000DEBF0FBECDBFCF91DF911F91FF90EF9099
:1033B000DF90CF9008951F93809144029091450231
:1033C00060E00E944E2510E030C08EEB91E00E943C
:1033D0008B2F882351F180914402909145020E94E5
:1033E0007A252DB73EB7275130400FB6F8943EBF2F
:1033F0000FBE2DBFADB7BEB71196FC0187E101909E
:103400000D928150E1F70E948D181F5F8DB79EB716
:1034100047960FB6F8949EBF0FBE8DBF80914402B1
:1034200090914502612F0E944E2580914402909117
:1034300045020E948625181740F28EEB91E00E940B
:103440008B2F8823D1F30E94191888EC91E064E057
:103450000E94A726882389F3809144029091450217
:103460000E9447251F910895EF92FF920F931F939B
:10347000CF93DF938C01EB0188818D83F801E1808C
:103480008A81E81AC8010E94EB0DF82EC8010E943B
:10349000DD0D682F8F2D4E850E942F0F882311F48C
:1034A0000E2D05C08E2D0E94F811082F0E0DCE0195
:1034B0000E94EB0D182FCE010E94DD0D682F812F89
:1034C0004E850E942F0F882391F0802F07FD8F5F7C
:1034D0008595F02FF81B8F2F0E94F811682F802FF1
:1034E000992787FD909570E00E94EA3D062F1016FF
:1034F0000CF001E08881801B888387FD1882DF91B2
:10350000CF911F910F91FF90EF900895FF920F932D
:103510001F93CF93DF9380914402909145020E94C4
:103520007A2580914402909145020E947A25DC011F
:1035300013968C910E94F81180914402909145025B
:1035400088579E4F0E947A258091440290914502AF
:1035500088579E4F0E947A25FC0183810E94F811B2
:10356000C0914402D09145028E0108571E4FFF249E
:10357000F394F0926B01C557DE4F8881CB58D14050
:10358000882351F1C8010E947A25FC01208133274C
:1035900027FD3095432F532F60E070E080E090E0EE
:1035A0000E94743C6115710581059105A9F4109282
:1035B0006C01C8010E947A25DC015196ED91FC91C5
:1035C0005297E959FD4FF082F0928D02809182026C
:1035D0008F5F809382020EC0C8010E947A258C0101
:1035E000CE010E947A25BC01C8010E94341A81E0F4
:1035F00080936C01DF91CF911F910F91FF900895FF
:10360000DF92EF92FF920F931F93CF93DF938091FE
:103610004402909145020E947A25FC01E380FF2438
:1036200080914402909145020E947A25FC01838199
:103630000E94F811D82E809144029091450288573B
:103640009E4F0E947A25FC01038110E08091440284
:103650009091450288579E4F0E947A25FC018381F4
:103660000E94F811ED0CF11C080F111D209144026D
:10367000309145020E151F054CF4C9017C01EC0187
:10368000C857DE4F81E080936B010AC0C901EC018D
:10369000A8E8EA2EA1E0FA2EE80EF91E10926B01BE
:1036A000C7010E947A258C01CE010E947A25BC01B7
:1036B000C8010E94341ACE010E947A250E94E00DB2
:1036C000882379F0CE010E947A258C01C7010E94DF
:1036D0007A25BC01C8010E94341A81E080936C01F4
:1036E00002C010926C01DF91CF911F910F91FF905A
:1036F000EF90DF900895EF92FF920F931F93BCE03D
:10370000EB2EB2E0FB2EC70162E040E023E131E0A6
:103710000E94E729809144029091450288579E4F6C
:103720000E947A250E94F20D1BE2819FC0011124A4
:1037300064E670E00E94EA3D262FC70163E041E0A5
:1037400006E00E94F327C70167E249E22FE331E078
:103750000E94E72980914402909145020E947A25B7
:103760000E94F20D819FC001112464E670E00E9466
:10377000EA3D262F63E5621BC70149E20E94F32759
:103780001F910F91FF90EF9008951F9310E08EEB23
:1037900091E00E948B2F8823D1F30E947B1B8091A4
:1037A00044029091450288579E4F0E947A25FC0161
:1037B000818961E00E94FE0D9C018CE092E06CE347
:1037C000412F0E94E72980914402909145020E9476
:1037D0007A25FC01818960E00E94FE0D9C018CE04D
:1037E00092E062E048E10E94E7291150173D79F626
:1037F0001F9108951F9318E18EEB91E00E948B2F8B
:103800008823D1F30E947B1B809144029091450252
:1038100088579E4F0E947A25FC01818961E00E94B1
:10382000FE0D9C018CE092E06CE340E00E94E729F1
:1038300080914402909145020E947A25FC01818981
:1038400060E00E94FE0D9C018CE092E062E0412F5E
:103850000E94E7291F5F113479F61F9108951F9385
:10386000809144029091450288579E4F0E9468259E
:10387000882309F510E08091440290914502885711
:103880009E4F612F0E944E258091440290914502E7
:1038900088579E4F0E947A250E94E00D882359F494
:1038A0001F5F809144029091450288579E4F0E946D
:1038B0008625181700F3809144029091450288579D
:1038C0009E4F0E947A25DC015196ED91FC91529712
:1038D000E55BFD4F80818823B1F480914402909193
:1038E000450288579E4F0E947A25DC015196ED9142
:1038F000FC915297E55BFD4F81E0808380916602E9
:103900008F5F809366021F910895FF920F931F931C
:1039100080914402909145020E946825882309F015
:1039200061C08EEB91E06EEB70E044E00E944430A9
:10393000682F80914402909145020E944E2580910B
:103940004402909145020E947A25FC01808118165C
:1039500044F78EEB91E066E771E04CE30E94732D33
:103960001CE30CE1F02E8EEB91E00E948B2F88235C
:10397000D1F31F3118F00F2D011B0AC088EC91E024
:1039800064E00E94A726882369F5112359F102E01B
:103990001150809144029091450288579E4F0E9499
:1039A0007A25FC01818961E00E94FE0D9C018CE07A
:1039B00092E06CE340E00E94E729809144029091FC
:1039C00045020E947A25FC01818960E00E94FE0D7B
:1039D0009C018CE092E0602F48E10E94E7290E9460
:1039E0007B1BC1CF1F910F91FF900895CF93DF9361
:1039F00080914402909145020E945125882329F02C
:103A00008EEB91E06FE671E004C08EEB91E06BE627
:103A100071E043E20E94732DC3E2D0E08EEB91E0AF
:103A20000E948B2F8823D1F321971C161D06B4F317
:103A300080914402909145020E9447258091440262
:103A40009091450288579E4F0E94472580914402DD
:103A50009091450288579E4F0E944B25DF91CF9150
:103A600008950F931F9380914402909145028857C7
:103A70009E4F0E947A258C0160E070E080E090E02B
:103A800023E030E040E050E00E94743CC8010E9416
:103A9000E80D1F910F9108951F938091440290911A
:103AA00045020E947A250E94DD0D0E94E70EBC01AE
:103AB0008EEB91E045E00E944430182F10928C026A
:103AC000833019F0843059F407C0809144029091FA
:103AD00045020E94472515C081E080938C028091A9
:103AE0004402909145020E947A25612F0E94E80DC0
:103AF00080914402909145020E947A25612F0E9494
:103B0000E80D1F9108958F929F92AF92BF92CF922E
:103B1000DF92EF92FF920F931F93CF93DF9384E195
:103B2000A82EB12CEE248EEB91E00E948B2F8823DF
:103B3000D1F3A114B10409F442C00894A108B1085A
:103B4000C50163E070E00E94EA3D892B11F481E039
:103B5000E82688249924FF242BC0C6018170907028
:103B6000EE2019F0892B19F405C0892B19F4209740
:103B700081F002C0209769F48CE092E06F2D412F14
:103B800024E007E00E94F3278CE092E061E00E94CD
:103B90005A270894C11CD11C195F1936F1F60894F4
:103BA000811C911C84E0F80E8CE3F81609F4BBCF5D
:103BB000CC24DD2410E0E401C170D070CECFDF91C1
:103BC000CF911F910F91FF90EF90DF90CF90BF901A
:103BD000AF909F908F900895EF92FF920F931F9355
:103BE0008823C1F16F3108F479C08CE092E062E083
:103BF0000E945A276CEF7FEF8FEF9FEF24E030E0B9
:103C000040E050E00E94743CF62E6CEF7FEF8FEFA7
:103C10009FEF24E030E040E050E00E94743C162F1B
:103C200060E070E080E090E024E030E040E050E0D0
:103C30000E94743C062F60E070E080E090E024E099
:103C400030E040E050E00E94743CE62E81E4F80E43
:103C50001B5F37C06F3108F441C08CE092E062E036
:103C60000E945A276CEF7FEF8FEF9FEF24E030E048
:103C700040E050E00E94743CF62E6CEF7FEF8FEF37
:103C80009FEF24E030E040E050E00E94743C162FAB
:103C900060E070E080E090E024E030E040E050E060
:103CA0000E94743C062F60E070E080E090E024E029
:103CB00030E040E050E00E94743CE62E85E0F80ED3
:103CC000145E8CE092E06F2D412F29EA31E00E94D2
:103CD000552A8CE092E061E00E945A271F910F91D3
:103CE000FF90EF900895EF92FF920F931F93882318
:103CF000C1F16F3108F479C08CE092E062E00E947B
:103D00005A276CEF7FEF8FEF9FEF24E030E040E029
:103D100050E00E94743CF62E6CEF7FEF8FEF9FEF28
:103D200024E030E040E050E00E94743C162F60E058
:103D300070E080E090E024E030E040E050E00E945D
:103D4000743C062F60E070E080E090E024E030E01A
:103D500040E050E00E94743CE62E81E4F80E1B5FC8
:103D600037C06F3108F441C08CE092E062E00E94FD
:103D70005A276CEF7FEF8FEF9FEF24E030E040E0B9
:103D800050E00E94743CF62E6CEF7FEF8FEF9FEFB8
:103D900024E030E040E050E00E94743C162F60E0E8
:103DA00070E080E090E024E030E040E050E00E94ED
:103DB000743C062F60E070E080E090E024E030E0AA
:103DC00040E050E00E94743CE62E85E0F80E145E60
:103DD0008CE092E06F2D412F2BEC31E00E94552AB0
:103DE0008CE092E061E00E945A271F910F91FF90B2
:103DF000EF900895EF92FF920F931F938823C1F1E4
:103E00006F3108F479C08CE092E062E00E945A279A
:103E10006CEF7FEF8FEF9FEF24E030E040E050E069
:103E20000E94743CF62E6CEF7FEF8FEF9FEF24E043
:103E300030E040E050E00E94743C162F60E070E0FB
:103E400080E090E024E030E040E050E00E94743CEC
:103E5000062F60E070E080E090E024E030E040E099
:103E600050E00E94743CE62E81E4F80E1B5F37C0E0
:103E70006F3108F441C08CE092E062E00E945A2762
:103E80006CEF7FEF8FEF9FEF24E030E040E050E0F9
:103E90000E94743CF62E6CEF7FEF8FEF9FEF24E0D3
:103EA00030E040E050E00E94743C162F60E070E08B
:103EB00080E090E024E030E040E050E00E94743C7C
:103EC000062F60E070E080E090E024E030E040E029
:103ED00050E00E94743CE62E85E0F80E145E8CE003
:103EE00092E06F2D412F2DEE31E00E94552A8CE09B
:103EF00092E061E00E945A271F910F91FF90EF908E
:103F00000895EF920F931F93882311F1663280F08A
:103F10000DE210E0061B1109000F8CE092E062E058
:103F20000E945A2744E1401B8CE092E0045C32C0BE
:103F30006F31E8F1162F110F1C538CE092E062E014
:103F40000E945A2744E1411B8CE092E01F5B0FC0A6
:103F5000663278F0162F110F1A548CE092E062E06E
:103F60000E945A274EE1411B8CE092E01E5F612FB8
:103F700012C06F31E0F005E210E0061B1109000FDE
:103F80008CE092E062E00E945A274EE1401B8CE0F8
:103F900092E00E5F602F2FE032E000E0EE24E39429
:103FA0000E94552A8CE092E061E00E945A271F91FE
:103FB0000F91EF900895EF920F93062F882391F0C1
:103FC0006F3160F18CE092E062E00E945A276DE26E
:103FD00070E0601B7109660F771F645C8CE092E0F3
:103FE00042E011C06F31D0F08CE092E062E00E94BC
:103FF0005A27602F70E06D527040660F771F675E22
:104000008CE092E04CE129E132E000E0EE240E94F5
:10401000552A8CE092E061E00E945A270F91EF90C0
:104020000895EF920F93E82E062F862F90E083706D
:104030009070892BC1F06CEF7FEF8FEF9FEF24E042
:1040400030E040E050E00E94743C60938A026CEFE4
:104050007FEF8FEF9FEF24E030E040E050E00E94E0
:10406000743C60938B02EE2071F00F3130F18CE0E4
:1040700092E062E00E945A2760918A026F5B409151
:104080008B024B5F0DC00F31C0F08CE092E062E01C
:104090000E945A2760918A026B5F40918B024D5DAE
:1040A0008CE092E025E232E000E0EE240E94552A06
:1040B0008CE092E061E00E945A270F91EF90089502
:1040C000DF92EF92FF920F931F938823A1F16F313C
:1040D00008F468C04DE2D42ED61A8CE092E062E07B
:1040E0000E945A27FF2424C0F0FC21C067EF7FEF15
:1040F0008FEF9FEF2AE030E040E050E00E94743CF8
:10410000162F67EF7FEF8FEF9FEF2AE030E040E060
:1041100050E00E94743C462F1F5B465F8CE092E0AB
:10412000612F25E332E000E0EE240E94552AF3944B
:10413000FD14D0F232C06F31A8F13DE2D32ED61A71
:104140008CE092E062E00E945A27FF2424C0F0FC39
:1041500021C067EF7FEF8FEF9FEF2AE030E040E074
:1041600050E00E94743C162F67EF7FEF8FEF9FEFB8
:104170002AE030E040E050E00E94743C462F165F99
:10418000445E8CE092E0612F25E332E000E0EE2413
:104190000E94552AF394FD14D0F28CE092E061E085
:1041A0000E945A271F910F91FF90EF90DF90089582
:1041B000CF92DF92EF920F931F93882359F16F31C3
:1041C00008F454C05DE2C52ED12CC61AD108CC0C1F
:1041D0008CE092E062E00E945A278CE3C80E8CE0EB
:1041E00092E06C2D42E02BE332E000E0EE240E94EE
:1041F000552A8AE0C80E8CE092E06C2D4AE02BE351
:1042000032E00E94552A8BEFC80E8CE092E06C2DB4
:1042100044E123C06F3150F1162F110F1A558CE075
:1042200092E062E00E945A27175E8CE092E0612FD4
:104230004CE12BE332E000E0EE240E94552A1A50B4
:104240008CE092E0612F44E22BE332E00E94552A99
:104250001B5F8CE092E0612F48E22BE332E00E948A
:10426000552A8CE092E061E00E945A271F910F913D
:10427000EF90DF90CF9008951F93882381F06F31E6
:1042800030F11DE2161B8CE092E062E00E945A279A
:104290004AE0411B8CE092E0165C612F0FC06F3149
:1042A000B0F01DE2161B8CE092E062E00E945A27FB
:1042B0006EE1611B1E5E8CE092E0412F20E432E053
:1042C0000E94E7298CE092E061E00E945A271F914A
:1042D0000895FF920F931F93182F862F042FF22E0D
:1042E0000E940B0FFC01E10FF11DE081E43041F170
:1042F000E53048F4E130A9F0E13070F0E230B1F09F
:10430000E330B1F518C0E63029F1E630F0F0E730DF
:1043100031F1E93069F528C0802F6F2D0E943C21D2
:1043200027C0802F6F2D0E94D82022C0802F6F2D94
:104330000E9460201DC0802F6F2D0E94112018C088
:10434000802F6F2D0E94DB1F13C0802F6F2D0E94C6
:10435000811F0EC0802F6F2D0E94FA1E09C0802F72
:104360006F2D0E94731E04C0802F6F2D0E94EC1DC4
:104370001F910F91FF9008950F931F930DE28EEB05
:1043800091E00E948B2F8823D1F30E947B1B09317F
:1043900040F4802F90E083709070029714F0063004
:1043A00090F480914402909145020E947A25FC018C
:1043B000818960E00E94FE0D9C018CE092E062E049
:1043C00048E10E94E7298091440290914502885774
:1043D0009E4F0E947A25FC01818961E00E94FE0DBA
:1043E0009C018CE092E06CE340E00E94E729809120
:1043F00044029091450288579E4F0E947A250E9460
:10440000EB0D182F809144029091450288579E4FE2
:104410000E947A250E94DD0D682F812F40E0202F19
:104420000E946921002361F080914402909145022D
:104430000E947A25602F70E00E94460F01509FCFA6
:104440001F910F9108950F931F930DE28EEB91E052
:104450000E948B2F8823D1F30E947B1B093140F4EB
:10446000802F90E083709070029714F00630A0F4D3
:10447000809144029091450288579E4F0E947A2570
:10448000FC01818961E00E94FE0D9C018CE092E0BC
:104490006CE340E00E94E72980914402909145023C
:1044A0000E947A25FC01818960E00E94FE0D9C013A
:1044B0008CE092E062E048E10E94E72980914402AA
:1044C000909145020E947A250E94EB0D182F809151
:1044D0004402909145020E947A250E94DD0D682FCA
:1044E000812F41E0202F0E946921002371F08091EB
:1044F00044029091450288579E4F0E947A25602F72
:1045000070E00E94460F0150A1CF1F910F910895B6
:1045100080916B01882349F00E94232280916C01D5
:10452000882359F00E94BC2108C00E94BC218091C0
:104530006C01882311F00E94232280914402909103
:10454000450288579E4F0E947A250E94E00D8823DD
:1045500019F40E94C51B0CC0809144029091450241
:104560000E947A250E94E00D882311F40E94FA1B14
:1045700080914402909145020E947A250E94EE0D9E
:10458000809144029091450288579E4F0E947A255F
:104590000E94EE0D0895EF92FF920F931F9380916A
:1045A00044029091450288579E4F0E9468258823B7
:1045B00009F408C180914402909145020E94682547
:1045C000882309F4FFC080918C02882319F40E948B
:1045D000001B02C00E94861A0E9488228091440219
:1045E0009091450288579E4F0E947A250E94E00DC7
:1045F000882349F48091490290914A020196909350
:104600004A028093490280918D02882359F180915A
:104610008C02882339F18091440290914502885799
:104620009E4F0E947A252DB73EB7275130400FB6D6
:10463000F8943EBF0FBE2DBFADB7BEB71196FC01BB
:1046400087E101900D928150E1F70E948D188DB79E
:104650009EB747960FB6F8949EBF0FBE8DBF0E94BF
:10466000141573C0809144029091450288579E4F63
:104670000E947A250E94E00D882309F066C080918F
:104680004402909145020E947A250E94E00D882301
:1046900009F45BC080914402909145020E947A2502
:1046A0008C01FC01E484F5848091440290914502E0
:1046B00088579E4F0E947A25FC01818590E0880FE3
:1046C000991F8E0D9F1DF801958784878091440264
:1046D000909145020E947A25FC0104851585809100
:1046E0004402909145020E947A25FC0182859385BF
:1046F0008017910750F580914402909145020E94E5
:104700007A250E94B21080914402909145020E9445
:104710007A252DB73EB7275130400FB6F8943EBFEB
:104720000FBE2DBFADB7BEB71196FC0187E101905A
:104730000D928150E1F70E948D188DB79EB7479674
:104740000FB6F8949EBF0FBE8DBF80918D02882357
:10475000B9F580914402909145020E945125882329
:1047600079F1809144029091450288579E4F0E94B2
:104770005125882329F18091440290914502885760
:104780009E4F0E947A250E94E00D882341F480917B
:1047900044029091450288579E4F0E944725809180
:1047A0004402909145020E947A250E94E00D8823E0
:1047B00049F480914402909145020E94472502C02D
:1047C00080E001C081E01F910F91FF90EF9008956C
:1047D0000E94831D0E94D01780914402909145024F
:1047E0000E9447250E942F1C0E94851C0E94311D9B
:1047F0000E944C1D0E94CB228823A1F70E94F61C28
:1048000080914402909145020E945125882311F025
:1048100080E0089583E608958CE092E067E276E117
:104820000E940A2B8CE092E062EC72E00E94B23AA5
:104830000E9419188CE092E06AEB72E00E94673ADD
:104840008CE092E068EB72E00E94673A8CE092E0C4
:104850006BEA72E00E94B23A8CE092E069EA72E0A0
:104860000E94673A8CE092E06BE972E00E94B23AF3
:1048700088EC91E064E00E94A726882321F00E9442
:10488000FF1580E0089588EC91E066E00E94A7267D
:10489000882311F483E608958EEB91E00E94132E95
:1048A00080E008958EEB91E00E948B2F8823E1F148
:1048B00080914602813079F1813018F0833691F58C
:1048C0002DC00E94BD168093460288EC91E066E000
:1048D0000E94A726882331F18EEB91E06CEC72E008
:1048E00043E00E944430813039F0823041F0882327
:1048F000C9F40E94DB1916C00E94721913C08EEB16
:1049000091E00E94132E8EEB91E062ED72E048E29E
:104910000E94732D07C00E94E82302C00E940C244D
:10492000809346021092D60108950F931F93CF9360
:10493000DF938EEB91E00E940E338EEB91E06EEDF3
:1049400072E00E9409338EEB91E00E94402F8CEEC2
:1049500091E00E943A3A8C010E948925C8018E5943
:104960009F4F0E948925C8018C539F4F0E94892523
:10497000C8018A5D9E4F0E948925C80188579E4FB5
:104980000E948925109345020093440282E690E03C
:104990000E943A3A182F092F0E948925E09144027B
:1049A000F0914502EF01212F302FC901DC0182E691
:1049B0000D9009928150E1F7E551FE4F81E080832F
:1049C00082E690E00E943A3A182F092F0E9489252A
:1049D000E0914402F0914502E857FE4F212F302F1D
:1049E000C901DC0182E60D9001928150E1F70E943D
:1049F000FF15DF91CF911F910F9108958F929F9294
:104A0000AF92BF92CF92EF920F93DF93CF93CDB738
:104A1000DEB7DC01522F15968C911597843068F51E
:104A200090E0019627E130E0829FF001839FF00D36
:104A3000929FF00D11240197EA0FFB1F60831182F2
:104A4000829FF001839FF00D929FF00D1124EA0FD9
:104A5000FB1F078304874683428743875187568716
:104A6000E086E586C786B18AA08A938A828A1596EF
:104A70008C9115978F5F15968C93CF91DF910F9145
:104A8000EF90CF90BF90AF909F908F9008952FEFB1
:104A9000FC0124830895FC0115820895FC016483C0
:104AA0000895FC01258190E007C08681779618164D
:104AB00014F481E008959F5F9217B8F380E00895A1
:104AC00020E0FC018581843008F021E0822F0895E8
:104AD00020E0FC0184818F3F09F021E0822F0895BE
:104AE00027E1629FB00111246A5F7F4F680F791F31
:104AF000CB010895FC01248187E1289F90011124B6
:104B00002A5F3F4F2E0F3F1FC9010895FC01858189
:104B10000895EF92FF920F931F938C0106960E94C7
:104B2000D50DC8014D960E94D50D84E3E82EF12CD9
:104B3000E00EF11EC7010E94D50DC70147960E94E5
:104B4000D50DF80115828FEF84831F910F91FF908F
:104B5000EF900895882319F48CB5806202C08CB55B
:104B60008F7D8CBD08959CB5937F982B9CBD089537
:104B70002CB5382F33702C7F322B3CBD2DB590E0F7
:104B8000959587959595879581702E7F822B8DBD04
:104B900008958AE061E00E9481398AE061E00E9424
:104BA00042398CB580618CBD8CB580648CBD8DE044
:104BB00061E00E9442398BE061E00E944239089531
:104BC000FC0181E08083089585E070E00E94E23876
:104BD00008956F927F928F929F92AF92BF92CF92E1
:104BE000DF92EF92FF920F931F93CF93DF93EC012D
:104BF00089819A818C0124E0000F111F2A95E1F729
:104C0000081B190B85E10E94C038BC01600F711FA1
:104C100084E0769567958A95E1F77A836983888140
:104C2000882381F12E813F816217730710F4B90147
:104C300006C0888599858617970708F4BC0100D0BF
:104C400000D080E090E040E050E0E884F98400E0AB
:104C500010E0AD80BB24CC24DD246C807724882434
:104C60009924EDB7FEB761827282838294820E949A
:104C7000093C6B830F900F900F900F9085E070E0D0
:104C80000E94E238DF91CF911F910F91FF90EF903A
:104C9000DF90CF90BF90AF909F908F907F906F905C
:104CA0000895FC018CE39FE09383828384E08183F9
:104CB00081E084870895CF93DF93EC018C8590E0A9
:104CC0008F719070892B69F584E10E94C038AA2702
:104CD00097FDA095BA2FBC01CD010E94C83C26EEDD
:104CE0003FE34EEC50E40E94543D0E949A3C9B01ED
:104CF000AC017B836A836115710589F084E0898347
:104D0000B901FE0120E0848195816817790710F4CC
:104D100029830AC02F5F32962430A9F702C08FEF93
:104D200089838C858F5F8C87DF91CF910895FC01FB
:104D300088E0808389E0818387E0828386E08383C3
:104D400084E0848382E0858381E18683089520E086
:104D5000FC01E60FF11D8781813009F421E0822FEB
:104D60000895E62FF0E0423040F420E0E80FF91F0C
:104D7000878181508E3F88F40FC0E80FF91F87812B
:104D80008F3F11F420E009C020E090E0642F70E034
:104D90000E94D63D019709F421E0822F08950F93D8
:104DA0001F93CF93DF93EC0110E00FEF888162E057
:104DB0000E94423988810E94D5392F81892B19F4AC
:104DC0002F5F2F8307C0222349F02F3F11F41F824A
:104DD00001C00F83888160E00E9442391F5F2196E5
:104DE000173021F7DF91CF911F910F910895FC01AA
:104DF000742F643508F05DC047FD5BC040330CF094
:104E000058C0878D823019F5842F859585958595B5
:104E1000992787FD9095462F552747FD509524E506
:104E200030E0829FF001839FF00D929FF00D1124DE
:104E3000E40FF51FE156FC4F808190E0272F27708B
:104E400002C0959587952A95E2F780958170972FF6
:104E5000959595959595462F552747FD5095272F64
:104E600027708823A1F4E4E59E02F0011124E40FE9
:104E7000F51FE156FC4F81E090E002C0880F991FBA
:104E80002A95E2F780952081282320830895E4E580
:104E90009E02F0011124E40FF51FE156FC4F81E062
:104EA00090E002C0880F991F2A95E2F72081282BF5
:104EB00020830895FC01678F60A30895FC01678F2C
:104EC00040A30895AF92BF92CF92DF92EF92FF92EC
:104ED0000F931F93CF93DF93EC01162FF42EE22E46
:104EE000AA24402F552747FD50958F2D992787FDE0
:104EF0009095481B590B57FF03C0509541955F4F44
:104F00002E2D332727FD3095812F992787FD9095EA
:104F1000281B390B37FF03C0309521953F4F2417CD
:104F2000350744F4AA24A3948F2DF12E182F802F37
:104F30000E2DE82EE11634F48E2DE12E182F802F41
:104F40000F2DF82EDE2CD11A202F332727FD309578
:104F50008F2D992787FD9095281B390B37FF03C0AC
:104F6000309521953F4FB22EF0161CF0CC24CA94F8
:104F700002C0CC24C3948D2DD7FC8F5F082F0595DC
:104F800011C0AA2021F0CE016F2D412F03C0CE0108
:104F9000612F4F2D0E94F7260B1907FF02C0FC0C52
:104FA0000D0D1F5FE1166CF7DF91CF911F910F91EF
:104FB000FF90EF90DF90CF90BF90AF9008950F9348
:104FC000042F322F262F2150230F0E9462270F918A
:104FD00008950F93362F042F0150020F232F0E94A4
:104FE00062270F9108959F92AF92BF92CF92DF9266
:104FF000EF92FF920F931F93CF93DF936C01B62E26
:10500000942EA02EC0E0D0E0E62EFF24E7FCF09422
:10501000022F112707FD10950E0D1F1D06C0C6019A
:10502000492D2A2D0E94E92721966B2D6C0FCE0168
:105030008E0D9F1D8017910794F3DF91CF911F91E3
:105040000F91FF90EF90DF90CF90BF90AF909F9027
:1050500008952F923F925F926F927F928F929F92CC
:10506000AF92BF92CF92DF92EF92FF920F931F9376
:10507000DF93CF9300D000D000D0CDB7DEB79E83B2
:105080008D83C62ED42EEE24E394E21A8EEF289F51
:10509000502C1124842E8A94962E9A94A42EA39494
:1050A000B62EB394F22E662423E0722E10E0C801CF
:1050B000847090709A838983F801E270F070FC83A9
:1050C000EB8398E0292E312C2022312201701070C0
:1050D00054C0E7FC04C0FA94F2E05F0EE50C639460
:1050E00089819A81892B71F04F2D4D0D8D819E8183
:1050F0006B2D0E94F7266F2D6C0D8D819E814A2DA0
:105100000E94F726EB81FC81EF2B71F04D2D4F199A
:105110008D819E816B2D0E94F7266F2D6C0D8D81E8
:105120009E81482D0E94F7262114310471F06C2DC8
:105130006F198D819E814A2D0E94F7264F2D4D0DAE
:105140008D819E81692D0E94F7260115110571F050
:105150006C2D6F198D819E81482D0E94F7264D2D53
:105160004F198D819E81692D0E94F726E70CF2E090
:105170007F0E8A949A94A394B3946F140CF4A9CFDD
:1051800026960FB6F894DEBF0FBECDBFCF91DF914C
:105190001F910F91FF90EF90DF90CF90BF90AF9055
:1051A0009F908F907F906F905F903F902F90089589
:1051B0004F925F926F927F928F929F92AF92BF9227
:1051C000CF92DF92EF92FF920F931F93CF93DF93D3
:1051D000EC01A62E742E9E2DFF24F394F21A8EEF6E
:1051E000289F802C1124B42EBA9453E0C52ECE0CE7
:1051F000E22EDD2443E0942E10E031E0432E512CCA
:1052000040225122692E63940270107034C0F7FC62
:1052100004C0EA9482E0880EF80CD394411451043F
:1052200089F06D2D6A0D472D4E192E2D220F260D5A
:10523000CE010E94E9276E2D6A0DCE014B2D2C2D3B
:105240000E94E9270115110589F06A2D6D19472D76
:105250004E192E2D220F260DCE010E94E9276A2D10
:105260006E19CE014B2D2C2D0E94E927F90C82E0FE
:10527000980EBA94C80EDE1454F2DF91CF911F91AC
:105280000F91FF90EF90DF90CF90BF90AF909F90E5
:105290008F907F906F905F904F9008957F928F9244
:1052A0009F92AF92BF92CF92DF92EF92FF920F93B5
:1052B0001F936C01962EA42EF22E7E2C760E1EEFDE
:1052C000E19E102D1124812E820E672D282D0E9423
:1052D000DF27B02EBA0CBA94C601672D4B2D282DAE
:1052E0000E94DF27AE0C100FC601692D4A2D212F19
:1052F0000E94E927F90CFA94C6016F2D4A2D212F3F
:105300000E94E927C601672D4A2D2E2D01E00E943B
:105310002928FE18C6016F2D4A2D2E2D02E00E946D
:105320002928BE18C6016F2D4B2D2E2D04E00E949A
:105330002928C601672D4B2D2E2D08E00E94292813
:105340001F910F91FF90EF90DF90CF90BF90AF90A3
:105350009F908F907F9008958F929F92AF92BF926F
:10536000CF92DF92EF92FF920F931F936C01162F53
:10537000A42E922EF02EBE2C8E2C860E2EEFE29EA8
:10538000E02C11242E2D290D682D0E94F327AB0C43
:10539000FA94FE0C1150190D1B19C601612F4A2DEC
:1053A0002B2D01E0EF2C0E94D828C601682D4A2D34
:1053B0002B2D02E00E94D8281F910F91FF90EF90B3
:1053C000DF90CF90BF90AF909F908F9008953F92C5
:1053D0004F925F926F927F928F929F92AF92BF9205
:1053E000CF92DF92EF92FF920F931F93CF93DF93B1
:1053F0004C01362E442EF901A490319654906F0141
:105400000894C11CD11C8A2D992787FD9095079679
:1054100068E070E00E94EA3DE62EFF24E7FCF0948D
:1054200000E0C0E0D0E060E8662E712C26C0E12FDD
:10543000E595E595E595FF27E7FDF095EC0FFD1F58
:10544000EC0DFD1DE4912E2F30E0812F8770A3011C
:1054500002C0559547958A95E2F724233523232BDF
:1054600031F0612F630DC4014B2D0E94F7261F5FA1
:105470001A15ECF20F5FCE0DDF1D051524F410E0B8
:10548000B02EB40CF5CFDF91CF911F910F91FF900B
:10549000EF90DF90CF90BF90AF909F908F907F90D4
:1054A0006F905F904F903F9008952F923F924F9250
:1054B0005F926F927F928F929F92AF92BF92CF92A4
:1054C000DF92EF92FF920F931F93DF93CF9300D061
:1054D00000D00F92CDB7DEB73C01862E4A83F9018A
:1054E000BE2C002329F4EE2019F40E94E7297AC08B
:1054F000A490319694901F010894211C311C0370D4
:1055000009838A2D992787FD9095079668E070E0BA
:105510000E94EA3D462E552447FC5094C92CCA945B
:10552000FF241D821C824A2D41504B8356C0E02F20
:10553000E595E595E595FF27E7FDF0958C819D8143
:10554000E80FF91FE20DF31DE4912E2F30E0802FBC
:105550008770A0E8B0E002C0B595A7958A95E2F7FC
:105560002A233B23232B61F1B981B13051F0B130B3
:1055700028F0B23049F0B33061F409C0102FEF2C9D
:1055800008C0ED2C1F2D05C01D2DEC2C02C01C2DBC
:10559000E02EBB2069F0E3E0BE228B2DB0FE03C0FD
:1055A000FA2DF11B1F2F81FF03C0492D4E19E42E48
:1055B000180D5A81E50EC301612F4E2D0E94F7266A
:1055C0000F5FDA940A150CF4B2CFF3948C819D81AD
:1055D000840D951D9D838C83CA94F9141CF4DB8083
:1055E00000E0F0CF0F900F900F900F900F90CF91A1
:1055F000DF911F910F91FF90EF90DF90CF90BF90C0
:10560000AF909F908F907F906F905F904F903F9062
:105610002F900895DC01FB0184918F5F14968C9389
:105620001497319684918F5F15968C9315973196C8
:105630005E96FC93EE935D9708953F924F925F9232
:105640006F927F928F929F92AF92BF92CF92DF9292
:10565000EF92FF920F931F93CF93DF93EC01862E6F
:10566000A42E422F102F3F8C23E526170CF4ABC03D
:105670003FE23A150CF4A7C0C02EDD248C8190E0E7
:1056800001979C01C29EC001C39E900DD29E900DB9
:105690001124262F332727FD3095820F931F1816CC
:1056A00019060CF090C08D8190E09C01C29EC00153
:1056B000C39E900DD29E900D11242A2D332727FDD5
:1056C0003095820F931F181619060CF07CC0992490
:1056D000442E55246DC09C01215030404217530781
:1056E00011F460E00EC0429EC001439E900D529E98
:1056F000900D1124840F951FED8DFE8DE80FF91F7D
:1057000064914C9DC0014D9D900D5C9D900D1124A8
:10571000682C680EBB24792C780C3FC0E62EFF2441
:1057200060FF19C0113039F44B2D4A0DCE01672DA1
:105730000E94F7262EC02C9DC0012D9D900D3C9DF2
:10574000900D11244A2D480FCE01662D212F012FD7
:105750000E94F3271EC098A18F8D9817D1F09F8FBC
:10576000113039F44B2D4A0DCE01672D0E94F726DA
:105770000FC02C9DC0012D9D900D3C9D900D1124BE
:105780004A2D480FCE01662D212F012F0E94F327AD
:105790003F8EF594E7946E2DB3942B2D332727FD80
:1057A00030958D8190E0281739070CF4B7CF93948A
:1057B000492D552747FD50958C8190E04817590792
:1057C0000CF489CF3F8EDF91CF911F910F91FF9005
:1057D000EF90DF90CF90BF90AF909F908F907F9091
:1057E0006F905F904F903F9008950F93CF93DF930A
:1057F000EC01262F6A3049F48D819885899F802D90
:1058000011249A85980F9A8726C06D3029F16985F1
:105810004A8508850E941D2B9C816885969F402D96
:1058200011248985480F49878F818823A9F055273E
:1058300047FD5095699F9001112484E590E0821BFB
:10584000930B8417950744F49D81699F902D112433
:105850008A85890F8A87198681E090E0DF91CF9150
:105860000F9108951F93CF93DF93EC01162FF894B7
:105870008E8560E00E9481398F8518161CF460E0E7
:105880000E9481391EBD0DB407FEFDCF8EB58F85F8
:1058900018161CF461E00E9481397894DF91CF9151
:1058A0001F910895FF920F931F93CF93DF93EC0105
:1058B000FF2400E010E06F2D6064CE010E94322CC6
:1058C000CE0160E80E94322C8E8561E00E94813911
:1058D0008F8518161CF460E00E948139F801E156AA
:1058E000FC4F90E080818EBD0DB407FEFDCF8EB5DC
:1058F0009F5F31969435B1F78F8518161CF461E0DF
:105900000E948139F3940C5A1F4F86E0F81699F6DD
:10591000CE0160E40E94322CDF91CF911F910F9154
:10592000FF900895CF93DF93DC0188EF91E0EFE9DA
:10593000F3E0EF019C01199221503040E1F71996F4
:105940001C9219971A961C92DF91CF910895EF92AD
:105950000F93CF93DF93EC014D876C872E87E88AF6
:105960000F8781E088878F8F18A28F83E5EAF4E1A3
:1059700084918F5F8C83319684918F5F8D83319674
:10598000FE8FED8F0E94C92581E00E94AA2585E047
:105990000E94B8258CE00E94B3258D8561E00E94AD
:1059A00042398C8561E00E9442398E8561E00E9417
:1059B0004239888918161CF461E00E9442398F85AB
:1059C00018161CF461E00E944239888918166CF49C
:1059D00060E00E9481396AE070E080E090E00E941F
:1059E0002C38888961E00E948139EC852E2F33277D
:1059F00027FD3095F901EA5AF54EE491F0E0EE0FFB
:105A0000FF1FEE5BF54E859194919C8B8B8B2659F5
:105A1000354EF90184918A8FED852E2F332727FD8E
:105A20003095F901EA5AF54EE491F0E0EE0FFF1FD0
:105A3000EE5BF54E859194919A8B898B2659354E64
:105A4000F9018491898FEF852E2F332727FD30951B
:105A5000F901EA5AF54EE491F0E0EE0FFF1FEE5B1C
:105A6000F54E859194919E8B8D8B2659354EF9017B
:105A700084918B8FEE852E2F332727FD3095F901EA
:105A8000EA5AF54EE491F0E0EE0FFF1FEE5BF54EA3
:105A900085919491988F8F8B2659354EF901849179
:105AA0008C8FCE0161E20E94322CCE0164E10E9413
:105AB000322C8B8587FF02C08FE78B876B856068F0
:105AC000CE010E94322CCE0160E20E94322CCE0127
:105AD0006CE00E94322CCE010E94522CDF91CF91BB
