:100000000C94340D0C945C0D0C945C0D0C945C0DF4
:100010000C945C0D0C945C0D0C945C0D0C945C0DBC
:100020000C945C0D0C945C0D0C945C0D0C940E36D1
:100030000C945C0D0C945C0D0C945C0D0C945C0D9C
:100040000C94C0370C945C0D0C945C0D0C945C0DFE
:100050000C945C0D0C945C0D0C945C0D0C945C0D7C
:100060000C945C0D0C945C0DF60DFC0D040E0C0E46
:10007000140E1C0E240E2C0E340E3C0E440E4C0E90
:10008000540E5C0E640E6C0E740E7C0E840E8C0E80
:10009000940E9C0EA40EAC0EB40EBC0EC40E56698B
:1000A00065206D617821002E5675653A002E4B69EA
:1000B0006C6C3A00417265613A00801284128812B9
:1000C0008E1294129A125175656C20706C61636582
:1000D0003F00416A6F75742064752066757475728F
:1000E0006F6D6F6E3F0020002F0058503A002F00B8
:1000F0004465663A002F00466F723A002F00566939
:10010000743A002F005669653A004C764C3A004626
:10011000696E003007FFFFFFFFFFF8AAAAAAAAAA8C
:10012000A880000200000880000000000880200075
:10013000002008AAAAAAAAAAA8FFFFFFFFFFF82E7C
:100140002E2E00596F7570792100456E2061766101
:100150006E742100556E2064656669206472657353
:10016000736575722100556E2046757475726F6DDA
:100170006F6E2061747461717565210010103FF815
:100180002000AFFCA004A074A814ABD4AA14AA54F5
:1001900088D588118FD18005FF0D00010FFF101049
:1001A0000100010001000100010001000380028044
:1001B0000280044008201FF018382004400280010B
:1001C000101000802100308419828FE44C382812EE
:1001D000199D19985810AC3C07E2058518802040FD
:1001E000108008081D264991A6C8B0C01005C0009F
:1001F00038E7850272790404080EE070381C161284
:100200002A4B55A5954A24180804406090E008033D
:100210007F00FE100C00000F803800602041E0C716
:10022000009800307021C023000600040003000580
:10023000040102A012A712AE12B312B612A012A7A6
:1002400012BC12B312B612A012A712C012B312B689
:1002500012A012A712C712B312B612A012A712CD83
:1002600012B312B612A012A712D212B312B61220F3
:10027000746F206D61696E206D656E7500170020CA
:10028000746F20636F6E74696E756500150050722F
:10029000657373203A0047616D65206F7665720063
:1002A000D612E112EB124368616E67652067616DDB
:1002B000650046757475726F6D6F6E0018140020BE
:1002C0000000D00000B00001B000039C00046600F4
:1002D000082300100080300080638E40418C404035
:1002E0008820400030C0001080001080001081F095
:1002F00010F981F0940290FFFFF018140020000024
:10030000D00000B00001B00003DC0004460008E3A8
:10031000001110803318C0624C4042664042A22057
:10032000C6A230CCB2109893D0999150BB59F0D25C
:10033000A0D0900090FFFFF01816000C00003C00C9
:1003400000E40701041907C4711C3CC13C1B8970FF
:100350000F19C60D328A0326860664F03444D85637
:100360004488974689116299F332F00711C00D99BC
:100370007F19D91DF07100001D000007181600300C
:1003800000003C00E027009820808E23E0833C386A
:1003900091D83C98F01E4CB01364C01F26600D220B
:1003A00020032267E262EC624688C44CC98488E775
:1003B0000C99B0389B98F08E0F80B80000E00000D8
:1003C000181600FFC007C8F81E083E33FFF377E396
:1003D000FB5C000F4C738D5F73B973003D330047B6
:1003E0001E1E2E0F807C01E3E000E1C00780700834
:1003F000001808000C107F0630E3867FE3FFE7C19A
:10040000E7880011181600FFC007C8F81E083E3B19
:10041000FFF377E27B5C220F4C220D5FE27973E3FE
:10042000ED3363471E232E0FE17C01E3E001E1C0C1
:1004300007807008001808000C107F0630E3867FE4
:10044000E3FFE7C1E7880011181555455455455499
:100450005545547FC7FC4044044044047DC7DC0537
:1004600000500500500F1C5009B6D818E3881780BB
:10047000C81C007831FF9878E71E4C4233C40061F5
:10048000FE7C7FAB0055FFFFFF18155545545545C1
:10049000545545547FC7FC4044044044047DC7DCA8
:1004A0000500500500500F1C5009B6D818EB8817EE
:1004B00094C81C2678326B187689DE44DE43C5D298
:1004C00059CD134D892061FFFFFF18173FFFF8201A
:1004D0000008230188230188303818287C28281038
:1004E0002830001823FF8822AA8823FF88200008CC
:1004F0003F83F80092000092000492400292800133
:100500009300FC927E948252F783DE900012FFFFEC
:10051000FE18173FFFF821550823FF88230188366E
:10052000BAD82A44A82A44A83644D822BA88230133
:100530008823EF882139083F83F800920000920059
:10054000049240029280019300FC927EB4825AFF92
:1005500083FEB0001AFFFFFE1816060FC003F870E6
:1005600006301800200C0060040042243047741C40
:1005700042241FF8043080040180040322240677FB
:10058000740C22241800042000047FFFFECAAAABCA
:10059000800001C000037555563FFFFC181603F09C
:1005A000600E1FC0180C60300400200600244200BA
:1005B0002EE20C244238201FF820010C2001802458
:1005C00044C02EEE602444302000182000047FFF39
:1005D000FED55553800001C000036AAAAE3FFFFC60
:1005E00018140200001E7FF0363800FE1FF0FF1FB7
:1005F000F03F1E001F1FF01F1F001F1FF0FF1FF006
:100600003F9F801F9FC01F9FC07F9FC07FDFC07F15
:10061000DFC07FFFC03FFFC0FFFF80FFFF801814D7
:10062000000800FFCF8003CEC0FF8FF0FF8FF007E0
:100630008F80FF8F800F8F80FF8F80FF8FF03F9F15
:10064000803F9F803F9F803F9FE03FBFE03FBFE0F4
:100650003FFFE03FFFC01FFFF01FFFF0181801FF32
:1006600080011880015A8001188001FF8000180065
:10067000001800FF18FF191898F9FF9F191898FF24
:1006800018FF0018000018001FFFF8181818181895
:10069000181818181818181866181842181800187A
:1006A000FE007FAA0055181801FF80015A8001FF43
:1006B00080015A8001FF80001800001800FF18FF19
:1006C000191898FFFFFF191898FF18FF001800006D
:1006D00018001FFFF81818181818181818181818E4
:1006E00018186618184218180018FE007FAA00553E
:1006F0001815C00018C0003839FEE00F038008004C
:100700008019FCC030F860207030202010200010CC
:1007100027FF902132103FFFF008944008B660197F
:10072000A220113320211130633190422090C63035
:10073000D81815C00018C0003839FEE00F03800833
:1007400078801800C031FE6020003023FF102000A8
:100750001027FF902000103FFFF008944008B6607B
:1007600019A220113320211130633190422090C60C
:1007700030D818141E001812003C3300662100C245
:10078000610082419CBBDCB68990E38990D5A99435
:10079000C1A994C9A990E389D0B6895D9CBB6100C9
:1007A000822100C23300421200661E003C00001885
:1007B00018141E001812003C3300662100C26500A8
:1007C0008A459CBBDCB6A994E3ADB4C9ADB4DDAD3C
:1007D000B4C9AD94E3ADD4B6A95D9CBB65008A21D4
:1007E00000C23300421200661E003C0000181818B8
:1007F00001414007FFE00C003019E79831428C615D
:10080000C386C00003803C01900009B9FFDD91550B
:100810004981FFC1815541FFFFFF41946227143494
:100820001C661818C30C1094841C489C00630000BC
:100830002200001400000800181802814006FF6022
:100840000EC3701AFF5832004C63FFC6C2004382C9
:1008500000418500A1F8FF1F8518A182184182245C
:1008600041FFFFFF4194622714341C761818CB0C0B
:1008700011A1841D149C018B000062000034000053
:10088000080018160FE7F008241009241009259015
:100890000824100FE7F001008001008001008001B2
:1008A00000800100800100800100800100800100C3
:1008B000800FFFF018001C387E16683C13C800112A
:1008C0008FFFF1FE007F18160FE7F00FE7F00FE73C
:1008D000F00FE7F00FE7F00FE7F001008001008074
:1008E0000100800100800100800100800100800182
:1008F00000800100800FFFF018001C39FF9669FF8F
:1009000093C9FF918FFFF1FE007F18180FFFE009D8
:1009100001200810200FEFE0002800F729DE9529BC
:1009200052DDEF76800002DDEF76952952F729DE61
:100930000028000028000028000FABF838AA0E603D
:10094000EE02C07C03FC003F800001FC003F807E83
:1009500001FFC3FF18180FFFE00A44A00A44A00FCC
:10096000EFE0002800F729DE952952DDEF768000C0
:1009700002DDEF76952952F729DE002800002800D5
:100980000028000FABF838AA0E60EE42D27C6BB4A0
:10099000012BA579ADA500B5A17E17FFC3FF1818DF
:1009A0000FFFE00AAAA00FFFE00A00A00E44E00A31
:1009B00000A00FFFE038003840000481C702414525
:1009C0000439453811451021C70840000440380457
:1009D0002028081028100DFF601155102155083FE0
:1009E000FFF801830001830018180FFFE00AAAA096
:1009F0000FFFE00A00A00EFEE00A00A00FFFE039A2
:100A0000CE384231048C48C242310439CE38108489
:100A1000102132484249244249242132481084108E
:100A20000E78E01084102102083FFFF801830001D6
:100A300083001017FFE08020BBA0AAA080208E209A
:100A40008020D560AAA080208020FFE09F208E20FB
:100A50008E2084208020FFE0FFE020802080208006
:100A600020801017FFE0FFE0A0A0A0A091208A2026
:100A700084208A209120A0A0C060FFE08420FFE0B5
:100A8000802080208020FFE0FFE0208020802080E8
:100A9000208018187FFFE0900090A801509060908F
:100AA000806010800010FFFFF0924930FFFFF0805F
:100AB0000010FFFFF0999990999990E66670E666AC
:100AC00070FFFFF0800010800010FFFFF012024066
:100AD0001E03C01202401E03C012024018187FFFFE
:100AE000E08A05108E07108A05108E07108A0510FF
:100AF000FFFFF0924930FFFFF0800010FFFFF099F8
:100B00009990999990E66670E66670FFFFF0800014
:100B100010800010FFFFF01202401E03C0120240BE
:100B20001E03C012024018187F8FF050A85070A802
:100B30007000F800008400814A04C1020860B41803
:100B4000334B600C308004008002490002B5000481
:100B50008480044880023100030300047880044844
:100B60008002CD00014A00014A00014A0001CE0086
:100B700018187F8FF050A85070A87000F8000084FB
:100B80000C810218C102306084203B4B400C308045
:100B9000040080026900034B000484800448800242
:100BA000010003030004788004488002CD00014A5C
:100BB00000014A00014A0001CE001816007FE00142
:100BC000C030030C08063B84046066044032E4C075
:100BD0001AA8860BE98F094909094D080945081B20
:100BE000450C726507C22500062580047DE018CEFD
:100BF0003FE080003F800001800007FFFFFC1816E7
:100C000007FE000C03801030C021DC606606204C1B
:100C10000220580327D0611590F197909092901080
:100C2000B2D810A24E30A243E0A66000A42001A4D6
:100C30001807BE07FC73FC0001800001E000013FC3
:100C4000FFFF1818070700050500038E0000880045
:100C50000C89800C89807C89F04C89904FFF907DB5
:100C600055F00D55807D55F05555506FFFB057FF2D
:100C7000507F8FF00F87801F07C03E03C07C03E0CA
:100C80007C01F0F800F0E000F88000081818070771
:100C900000070700038E000088000C89800C898003
:100CA0007C89F07C89F07FFFF07FFFF00FFF807F71
:100CB000FFF07FFFF06FFFB07FFFF0798CF00F87C0
:100CC000801F07C03E03C07C03E07C01F0F800F009
:100CD000E000F880000818143C07802404804208D3
:100CE000405A0B405A0B4042E8404318405E0F40C8
:100CF0004A0A404A0A404F1E404000403FFF80627F
:100D000050E09A5390CE5E30865810C0003080E09C
:100D100010FF1FF018143C07802404804208405A3A
:100D20000B405A0B405AEB405B1B40580340460CAB
:100D3000404CE6404802404000403FFF806250E0A7
:100D40009A5390CE5E30865810C0003080E010FF7D
:100D50001FF01818080100990C90D606A04402B0A4
:100D6000A80150AB9D50FA95F08BFD108A55108A62
:100D70005510FE07F0C0A03078A1E00EA70003FEDA
:100D800000020200027200068B000A8A80128A406A
:100D9000FE8BF0A88950808810FF8FF0181808018A
:100DA00000990C90D606A04402B0A80150AB9D500B
:100DB000FB9DF0CBFD30AB0D509B9D90FE67F0C0CE
:100DC000E03079B1E00F1F0003FE00020200027262
:100DD00000068B000A8A80128A40FE8BF0A8895098
:100DE000808810FF8FF018177FFFF84000085FCF52
:100DF000E84000087FFFF80030000030001FFFE0EF
:100E0000300030600018E0001CFF03FC8884448F31
:100E100087C4888444FF03FC80780CC0843870FC4D
:100E2000E01F878000FC0000840000780018177F16
:100E3000FFF860841851FE284A01487FFFF800300F
:100E4000000030001FFFE03484B0693258EE49DC06
:100E50008A854C8F03C480000481FE0482010484CF
:100E6000788CC0843870FCE01F878000FC00008410
:100E7000000078001818073800052800073800021D
:100E8000100002100002100003F800060C0004A479
:100E9000000404000404003FFF804000403FFF8046
:100EA00010010030A1806040C040A04040004040A0
:100EB000A040C0406080A020800020FFFFE0181804
:100EC0000738000528000738000210000210000251
:100ED000100003F800075C00055400055400055499
:100EE000003FFF804000403FFF8010010030A180A4
:100EF0006040C040A040400040400040D4056088B1
:100F00000220940520800020101405000A8008802B
:100F1000050002001F8030F020102D9020102220AC
:100F20003220102018600C4004C006B87DECC54487
:100F30008924101405000A800880050002001F8023
:100F400030F025102850285024A030A015201A6019
:100F50000D4004C006B87DECC54489241818FFFF75
:100F6000E0AAAAA0FFFFE0AB1AA0FF5FE0AB1AA0C7
:100F7000FFFFE0AAAAA0FFFFE0A000A0E7FCE0A618
:100F8000ACA0E5F4E0A71CA0E514E0A71CA0E514C4
:100F9000E0A71CA0E000E0BFFFA0D55560FFFFE088
:100FA0001209001209001818FFFFE0AAAAA0FFFF0B
:100FB000E0ABFAA0FFFFE0ABFAA0FFFFE0AAAAA017
:100FC000FFFFE0AAAAA0FFFFE0AAAAA0FFFFE0AAF5
:100FD000AAA0FFFFE0AAAAA0FFFFE0AAAAA0FFFF25
:100FE000E0AAAAA0FFFFE0FFFFE01209001209003B
:100FF000181810780077C1B8C40E0881FB0C2309BB
:10100000C4260FE62400302440986CE1C848408D87
:10101000480005481F0D2C31882460C8070018417E
:10102000FFE258000E4C007843FFC26800060C78BF
:10103000FC07CF800000000000001818107800772F
:10104000C1B8C40E0881FB0C2301C42600E6241895
:10105000302430186C058848A48D48ACC548C00DB4
:101060002C5D0824070807001841FFE258000E4CC9
:10107000007843FFC26800060C78FC07CF800000B0
:1010800000000000181800780007CF000801C01009
:1010900006603383B026001840C60863EF082000BE
:1010A0000822000822000833F8D01803900F0030FF
:1010B0004107EC6504303FDFCC290478E90610894C
:1010C000221C8136E07937B8CF76CC88C3601818F7
:1010D00000780007CF000801C010006031203021E7
:1010E0002218434208634C483979C82FB30820DEE0
:1010F00088307F901830100F60304147EC656430C5
:101100003FFFCC292478E9261089221C8136E0791A
:1011100037B8CF76CC88C3600808007E5A7E3C186A
:101120000000080800207020202000000808A1A569
:10113000A5A5A5A585850808FEAAFEAAFEAAFE000B
:101140000808102040800001020408080040201810
:101150001804020008088181818181818181080849
:10116000FF818181818181FF0808002442081042AB
:101170002400080800420018180042000808084827
:101180004A4A4A4A0A080808BD66E79999E766BDCF
:101190000808050205005020500008080002200041
:1011A00000024000080800044455555555550808EC
:1011B0003C26DBA5AD93443C080800000400000079
:1011C00000000808000020000000080008080000D7
:1011D0000000000000000808BD008199998100BD51
:1011E00008081010100F10E010100808002814084C
:1011F0001422440008080814224108142241080857
:10120000C3FF42424242FFC308087E547C107C1058
:10121000284408083E343C101C1010180808FC7CB8
:101220007C107C10284408087C2C3C0838080818DE
:1012300008087E547C107C10282008087E547C10FE
:101240007C10280808083E343C1030502844080818
:101250003E343C14181018140808FC7C7C107C10D8
:1012600028200808FC7C7C107C10280808087C2CAE
:101270003C080C0A142208087C2C3C281808182862
:101280004F7569004E6F6E004675742031004675CB
:101290007420320046757420330046757420340083
:1012A00047726966666500436861726765004665F6
:1012B0007578002D3E0043617463680045617500D8
:1012C000506C616E746500746572726500456C6582
:1012D0006300507379004D6F6E206571756970659C
:1012E0000046757475726F646578004368616E6757
:1012F000652067616D6500030307050705040505A3
:1013000004050306030207020201020203020E099A
:101310000E0E0D0E0E0F0E070507050307050F0530
:10132000070507060701020502000702020700027F
:10133000070200020702000706030607070202056C
:10134000050201020204020005020205000607056B
:10135000050705020302020602000000000B00035D
:10136000000307050704070105020507070400033A
:1013700000000705050700050005020702000C0034
:101380000202020004000402010705070507040128
:101390000704050702030207040701070606010107
:1013A00007070707030307000500000D00020500FB
:1013B0000505050005020107030F090306030607DB
:1013C00007020205050707020707050703010705CE
:1013D00006070207050705040403070205070404BE
:1013E00007030707010607050707030307050307A8
:1013F00003060407010107010704070304030706A6
:1014000007050205010601010704000705010204A2
:10141000050700020102080808000300060306078A
:10142000070202050507050207070507030107056F
:10143000060702070507050404030702050704045D
:101440000703070701060705070703030705030747
:101450000306040701010701070407030403070645
:101460000705020501060101070402070500070040
:1014700005070206020307050703053F213F12087F
:10148000120A100A0E1C0E0C1E0C141A14161F162B
:101490001E131E1E1B1E1E1F1E3F213F3A2F3A17F2
:1014A0003D173F213F181F02040A041F0E04040EBB
:1014B0001F0A1F0A0E0E1F04110E2E252E2F2A2E74
:1014C000262929021F02081F08150E04040E150EF6
:1014D00015151B151B040604040C0400000000175E
:1014E000000300031F0A1F16371A1904130A153ABE
:1014F000000300000E11110E000A040A040E04007D
:1015000030000404040010001804031F111F121FF0
:10151000101D151711151F07041F17151D1F151D69
:1015200001011F1F151F17151F000A0000320004BC
:101530000A110A0A0A110A040115020E11171E05E2
:101540001E1F150A0E110A1F110E1F15111F05016E
:101550000E111D1F041F111F1108100F1F041B1F48
:1015600010101F061F1E040F0E110E1F09060E116C
:101570002E1F051A121509011F011F101F0F180F2A
:101580001F0C1F1B041B031C03191513001F110341
:101590000418111F000201022020200001020C1279
:1015A0001E1F120C0C12120C121F0C1A14041E0512
:1015B000242A1E1F021C141D1020201D1F08141198
:1015C0001F101E041E1E021C0C120C3E0A040C12DC
:1015D0003E1E040214160A020F120E101E0E100EEA
:1015E0001E081E120C1226281E322A26041E210056
:1015F0001F00211E040102013F213F05077F4141D9
:10160000417F3E5B4F5B3E3E6B4F6B3E183C783CF0
:1016100018183C7E3C181C577D571C1C5E7F5E1CB6
:10162000007E43437E007E73737E007E7F7F7E7FDD
:101630004141417F30483A060E06297929067F410B
:1016400041417F60703F02042A1C361C2A7F3E1CE9
:10165000080000081C3E7F14227F22143C3C3C7E84
:10166000FF18423C817E3E6375633E3E616B633E84
:101670003E636B6B3E04027F020410207F20100843
:10168000082A1C08081C2A0808143E5541226375C4
:1016900069756310181C1810040C1C0C0400000061
:1016A000000000005F00000007000700147F147FA7
:1016B00014042A7F2A1023130864623649562050E6
:1016C0000008070300001C2241000041221C002AE0
:1016D0001C3E1C2A08083E080800E06000000808BC
:1016E000080808006060000060100804033E5149CB
:1016F000453E00427F400062514949462141494DE3
:10170000331814127F1027454545393C4A49493062
:1017100041211109073649494936064949291E0020
:10172000002400000080640000081422410014140A
:10173000141414004122140802015909063E415DA7
:10174000594E7C1211127C7F494949363E41414134
:10175000227F4141221C7F494949417F09090901F2
:101760003E414151327F0808087F00417F410020FF
:1017700041413F017F081422417F404040407F02A9
:101780000C027F7F0204087F3E4141413E7F0909F0
:1017900009063E416141BE7F09192946264949494A
:1017A0003201017F01013F4040403F1F2040201F88
:1017B0003F4038403F631408146303047804036116
:1017C00051494543007F4141000304081060004136
:1017D000417F0004020102048080808080000307B2
:1017E000080020545478407F284444383844444406
:1017F00028384444287F3854545418087E09090274
:1018000018A4A49C787F0804047800447D4000005C
:101810006080847D7F1010284400417F40007C045C
:101820007804787C080404783844444438FC18244C
:10183000241818242418FC7C080404080854545460
:1018400020043F4444203C4040207C1C2040201C7D
:101850003C4020403C44281028444C9090907C44CC
:1018600064544C44000836410000007F00000041F1
:10187000360800180408100C7F4141417F0A4E6F62
:101880002053442063617264206F720A6E6F204C93
:101890004F414445522E4845580A0A153A45786941
:1018A00074001D20466C617368696E670A20206CA5
:1018B0006F616465722E2E2E0A0A444F4E27542003
:1018C0005455524E204F464621006D560A0A504C40
:1018D000454153450A5455524E204F4646004C4F01
:1018E0005720424154544552590A00177361766596
:1018F00000166261636B001574797065000A0A0A4C
:10190000153A6F6B617920163A6564697400596FF6
:101910007520656E74657265640A00540A03E1817E
:10192000867F3E186D830F0F0E0183866033186D1E
:10193000C3198F1803C38E6033186DE330CF1803BB
:10194000C39E603630CDE360CF3006C79E7E3E300A
:10195000CDB360CF300CC6F6603330D9B660CF332C
:10196000CFCCF66061B0DB1E60CF30D86CE6C061D2
:10197000B0DB1E618F19986CC6C063B19B0E330F2C
:101980000FB078C6FF7E1F1B061E0F1753440016AC
:1019900013780016131400151020001520100000F5
:1019A00000050089300802380249786814000045B3
:1019B00000680100000500680138010000050038DA
:1019C0000168010000F6E8DBCFC3B8AEA49B928AA1
:1019D000827B746E68625C57524E4945413E3A378D
:1019E00034312E2C29272523211F1D1C1A191716C7
:1019F0001514131211100F0E0D0C0B0A090807060F
:101A0000041A081A0101F7030101FF030000000096
:101A1000240027002A0000000000250028002B00D9
:101A2000000000002300260029000404040404042C
:101A3000040402020202020203030303030301027D
:101A4000040810204080010204081020010204084C
:101A5000102000000007000201000003040600003F
:101A60000000000000005F0F11241FBECFEFD8E080
:101A7000DEBFCDBF11E0A0E0B1E0E2E1FDE702C0D2
:101A800005900D92A03CB107D9F715E0A0ECB1E0AC
:101A900001C01D92AC3AB107E1F71AE1C8E6DAE1FC
:101AA00004C02297FE010E944C3EC636D107C9F7FA
:101AB0000E94393A0C94873E0C940000A0E0B0E0FC
:101AC000E4E6FDE00C94583EEC01A880B980CA80A1
:101AD000DB80A114B104C104D10441F484E2A82E36
:101AE00089EDB82E8BE5C82E87E0D82EC601B5014A
:101AF0002DE133EF41E050E00E942F3E27EA31E430
:101B000040E050E00E94C73D7B018C01C601B50159
:101B10002DE133EF41E050E00E942F3ECA01B901B0
:101B20002CEE34EF4FEF5FEF0E94C73D6E0D7F1D2F
:101B3000801F911F97FF04C0615070408040904803
:101B4000688379838A839B839B01AC015F77B901AA
:101B5000CA01CDB7DEB7EAE00C94743E0E945E0D78
:101B6000089581E291E00E945E0D08956093210145
:101B70007093220180932301909324010895FC0126
:101B8000148A8FEF868B0895FC01658B0895FC0104
:101B900085890895FC0190E0808118160CF491E08D
:101BA000892F0895FC01668B0895FC0186890895AC
:101BB0002FEFFC01268B0895FC019581648184E65A
:101BC000989FC001112470E00E94FA3D862F08956D
:101BD000E82FF0E0EB31F10508F0DEC0EC5CFF4FE0
:101BE000EE0FFF1F0590F491E02D0994662309F094
:101BF000D4C02AEF32E0D3C0662319F42CE733E0D7
:101C0000CEC028E333E0CBC0662319F424E034E0EF
:101C1000C6C020EC33E0C3C0662319F429E834E0E1
:101C2000BEC028E434E0BBC0662319F421E135E0EE
:101C3000B6C02AEC34E0B3C0662319F42CE935E0D1
:101C4000AEC028E535E0ABC0662319F42EE136E0DE
:101C5000A6C020EE35E0A3C0662319F426EA36E0DC
:101C60009EC02CE536E09BC0662319F421E337E0E3
:101C700096C020EF36E093C0662319F420EB37E0DE
:101C80008EC022E737E08BC0662319F428E338E0E2
:101C900086C02EEE37E083C0662319F426EC38E0C8
:101CA0007EC022E838E07BC0662319F424E539E0E1
:101CB00076C02AE039E073C0662319F428EE39E0D3
:101CC0006EC02EE939E06BC0662319F422E63AE0D3
:101CD00066C022E33AE063C0662319F42CED3AE0D3
:101CE0005EC022E93AE05BC0662319F420E73BE0DE
:101CF00056C026E23BE053C0662319F42EEF3BE0CA
:101D00004EC02AEB3BE04BC0662319F42CE83CE0C4
:101D100046C022E43CE043C0662319F424E13DE0E0
:101D20003EC026ED3CE03BC0662319F42CE93DE0C3
:101D300036C022E53DE033C0662319F42DE23EE0D3
:101D40002EC026EE3DE02BC0662319F42EEB3EE0BC
:101D500026C024E73EE023C0662319F422E33FE0D7
:101D60001EC028E03FE01BC0662319F426EA3FE0CE
:101D700016C02CE53FE013C0662319F42AE330E1D6
:101D80000EC020EF3FE00BC0662319F42EEC30E1CB
:101D900006C024E830E103C008952CEB32E0C9010D
:101DA0000895823089F0833028F48823D1F081307F
:101DB000B9F407C0843071F0843048F0853081F484
:101DC0000CC02DE332E00FC027E432E00CC021E567
:101DD00032E009C02BE532E006C025E632E003C060
:101DE000089523E332E0C9010895823089F08330F9
:101DF00028F48823D1F08130B9F407C0843071F021
:101E0000843048F0853081F40CC02FE931E00FC0F8
:101E100024EA31E00CC029EA31E009C02EEA31E0C1
:101E200006C023EB31E003C008952AE931E0C9017F
:101E300008950F931F93182F862F042F0E94F50EDD
:101E4000FC01E10FF11DE0818E2F83508730E8F413
:101E50002E2F30E022503040A02FB0E0F901E35D9A
:101E6000FD4F8081992787FD90958A179B0711F474
:101E700081E00CC0A35DBD4F8C91992787FD9095A3
:101E80008217930711F48FEF01C080E01F910F912B
:101E900008951F93FC0145811081212F332727FDD1
:101EA0003095C901841B91090E94FA3D640F658336
:101EB00070E0621773070CF415831F910895109258
:101EC0001102109210028CEB91E090930F0280931C
:101ED0000E020895EF920F931F93CF93DF9300911B
:101EE0009003109191038091980390919903081B9E
:101EF000190B209192033091930340919A035091D2
:101F00009B03C80140968536910570F5E901C41B15
:101F1000D50B8FEFC03FD8073CF1C133D10524F575
:101F2000E0919C0380919D03882379F02E2F220F4E
:101F3000E22FEC5F809130029091310268E070E016
:101F40000E94FA3D04970CF0EF5FF0E0EE0FFF1FE8
:101F5000EB5AFE4F208131818EE092E0602F4C2FB2
:101F600000E0EE240E94652ADF91CF911F910F912E
:101F7000EF90089562E370E080E090E024EF31E0BC
:101F800040E050E00E94843C70939F0360939E0366
:101F90000895AF92BF92DF92EF92FF920F931F933B
:101FA000DF93CF930F92CDB7DEB780914902909126
:101FB0004A02019690934A028093490260E070E0E1
:101FC00080E090E026E030E040E050E00E94843C79
:101FD00060938B02F62EFF0CFF0C00E912E0580113
:101FE00063E0D62EDF0C60E070E080E090E024E05B
:101FF00030E040E050E00E94843C6295660F660F3E
:10200000607C6D0DF501608360E070E080E090E041
:1020100024E030E040E050E00E94843C80EF90E01B
:10202000A80EB91E6295660F660F607C6D0DF501F6
:10203000608381E19FEFA80EB91E90EAA91692E095
:10204000B90689F660E070E080E090E024E030E0DE
:1020500040E050E00E94843C6295660F660F607C11
:102060006D0DF801608360E070E080E090E024E0B6
:1020700030E040E050E00E94843C6295660F660FBD
:10208000607C6D0DF8016787005F1F4FF3E000393A
:102090001F07C1F660E070E080E090E022E030E0F1
:1020A00040E050E00E94843CE62EEF0C51E0A52E6B
:1020B000B12C29C089818C3008F045C091E0F91617
:1020C00009F441C0EEE0FE16F1F160E070E080E05E
:1020D00090E025E030E040E050E00E94843C611553
:1020E00071058105910579F5F801D082F394005FBF
:1020F0001F4FFFE0FF16F1F60894A11CB11C8FE002
:10210000A816B10449F0850100561D4FFF24F39431
:102110009A2D92509983CECF82E0809310038093C2
:102120001F0382E480939802809388030E94BA0F71
:102130000F90CF91DF911F910F91FF90EF90DF9063
:10214000BF90AF90089560E070E080E090E024E000
:1021500030E040E050E00E94843C6295660F660FDC
:10216000607C6E0DF8016083C1CFFF920F931F93C7
:102170008C01FC01F68061E070E080E090E025E0F9
:1021800030E040E050E00E94843C6F0DF80166832F
:102190006183F48061E070E080E090E025E030E071
:1021A00040E050E00E94843C6F0DF801648360833E
:1021B0006583F08461E070E080E090E025E030E04D
:1021C00040E050E00E94843C6F0DF801608763831B
:1021D000F78061E070E080E090E025E030E040E0F2
:1021E00050E00E94843C6F0DF80167836283818513
:1021F0008F5F81872485358542855385241B350B68
:102200003587248790E09C01229FC001239F900D79
:10221000329F900D112495958795938782871F9102
:102220000F91FF9008951F93CF93DF93182FEB0129
:102230008230B9F1833030F4882371F0813009F0B5
:10224000D6C01EC0843009F487C0843008F44DC065
:10225000853009F0CCC0B7C060E070E080E090E06D
:1022600024E030E040E050E00E94843CDC01CB01FF
:1022700082579E4FFC018081898B1A8A85E0B6C007
:1022800060E070E080E090E022E030E040E050E08C
:102290000E94843C611571058105910509F07FC09C
:1022A00092C060E070E080E090E022E030E040E04A
:1022B00050E00E94843C611571058105910509F08B
:1022C0005AC060E070E080E090E025E030E040E05F
:1022D00050E00E94843CDC01CB0181589E4FFC0100
:1022E0008081898B1A8A1E8782C060E070E080E05E
:1022F00090E022E030E040E050E00E94843C611534
:10230000710581059105A1F460E070E080E090E046
:1023100025E030E040E050E00E94843CDC01CB014D
:1023200081589E4FFC018081898B1A8A82E05EC0B1
:1023300060E070E080E090E025E030E040E050E0D8
:102340000E94843CDC01CB018C579E4FFC018081B4
:10235000898B1A8A83E04AC060E070E080E090E0F8
:1023600022E030E040E050E00E94843C61157105BD
:1023700081059105A1F460E070E080E090E024E048
:1023800030E040E050E00E94843CDC01CB01855805
:102390009E4FFC018081898B1A8A81E027C060E012
:1023A00070E080E090E024E030E040E050E00E9407
:1023B000843CDC01CB0189589E4FFC018081898BD4
:1023C0001A8A1E8614C060E070E080E090E025E08C
:1023D00030E040E050E00E94843CDC01CB018757B4
:1023E0009E4FFC018081898B1A8A84E08E87DF9161
:1023F000CF911F910895282F30E040E050E061E038
:1024000070E080E090E00E94843C862F08950F9356
:102410001F93CF93DF9380919D03882309F44EC0CF
:102420008091900390919103409194035091950372
:1024300073E0440F551F7A95E1F78417950759F01B
:102440008417950714F4019601C0019790939103A6
:10245000809390031AC080919203909193032091EE
:1024600096033091970363E0220F331F6A95E1F7DB
:102470008217930751F08217930714F4019601C055
:102480000197909393038093920380919603909188
:10249000970323E0880F991F2A95E1F72091920373
:1024A000309193032817390749F480919003909154
:1024B00091038417950711F410929D0380919D0359
:1024C000882309F0F0C0C0919403D0919503009146
:1024D0009603109197038AEC91E062E044E00E9439
:1024E000C126882381F080919403909195034196B1
:1024F00060E170E00E94FA3D90939503809394030D
:1025000081E080939C038AEC91E060E044E00E94CB
:10251000C126882381F080919403909195030F96B2
:1025200060E170E00E94FA3D9093950380939403DC
:1025300083E080939C038AEC91E063E044E00E9496
:10254000C126882379F08091960390919703419654
:1025500060E170E00E94FA3D9093970380939603A8
:1025600010929C038AEC91E061E044E00E94C12655
:10257000882381F080919603909197030F9660E1F4
:1025800070E00E94FA3D909397038093960382E057
:1025900080939C0380919603E0919403F0E094E093
:1025A000EE0FFF1F9A95E1F7E80FF11DE057FD4F81
:1025B000E081EF738E2F90E0019683709070892BED
:1025C000A9F4D0939503C0939403109397030093B9
:1025D0009603EC2FF0E084E0EE0FFF1F8A95E1F701
:1025E000E00FF11DE057FD4FE081EF738091940300
:1025F00090919503C817D90741F480919603909163
:1026000097030817190709F44EC081E080939D03D2
:102610008E2F90E0029683709070892B09F043C052
:102620000E94C90F8091940390919503009739F40B
:102630008FE090E090939503809394031AC00F97D6
:1026400029F4109295031092940313C0809196037D
:1026500090919703009739F48FE090E0909397035F
:102660008093960306C00F9721F41092970310925F
:1026700096038091940390919503B3E0880F991F7E
:10268000BA95E1F79093910380939003809196031C
:1026900090919703A3E0880F991FAA95E1F7909373
:1026A00093038093920320919E0330919F034427CC
:1026B00037FD4095542F60E070E080E090E00E948C
:1026C000843C611571058105910529F40E94BA0FBA
:1026D0001092A00367C020919E0330919F03220FA8
:1026E000331F442737FD4095542F60E070E080E0B1
:1026F00090E00E94843C611571058105910529F5E2
:1027000080EC91E06EE970E04CE30E94832D00E0E4
:1027100013C08091460290914702602F0E9480254D
:10272000EC018091460290914702602F0E94802523
:10273000FC01848188830F5F80914602909147025B
:102740000E949625081728F338C080919E03909127
:102750009F039C01220F331F280F391F442737FD89
:102760004095542F60E070E080E090E00E94843C4F
:102770006115710581059105B9F4E0918B02F0E0D6
:10278000EB57FD4F80818230C0F481E08093A0033D
:102790000E94BA0FE0918B02F0E0EB57FD4F808171
:1027A0008F5F808380E01DC080919E0390919F0386
:1027B000019790939F0380939E0320919203309101
:1027C0009303205130408091900390919103829720
:1027D000909399038093980330939B0320939A03DB
:1027E00081E0DF91CF911F910F9108958F929F9279
:1027F000AF92BF92CF92DF92EF920F93CF93DF937E
:10280000CC24DD248824992443C0F50100818091E3
:10281000980390919903BE01681B790B40919A032C
:1028200050919B03CB0108968D359105F0F4C401BE
:10283000841B950BAC019FEF483F5907B4F041331F
:1028400051059CF4E02FF0E0EF73F070EE0FFF1FE6
:10285000EB5DFE4F20813181029506950695037050
:102860008EE092E0EE240E94652AE0E1F0E0AE0EF8
:10287000BF1E2896C038D10541F60894C11CD11C52
:1028800088E090E0880E991E90E1C916D10449F0C5
:10289000E0E9AE2EE2E0BE2EAC0CBD1CC0E0D0E004
:1028A000B4CF8EE092E067EF72E10E941A2B8EE0C7
:1028B00092E064EB70E00E94773A60914902709177
:1028C0004A028EE092E04AE050E00E94653B8EE0D2
:1028D00092E06DEA70E00E94773A60914B0270914D
:1028E0004C028EE092E04AE050E00E94653B8EE0B0
:1028F00092E067EA70E00E94773A8EE092E06091A1
:1029000068024AE050E00E94933B8EE092E069E763
:1029100074E10E941A2BDF91CF910F91EF90DF901D
:10292000CF90BF90AF909F908F90089580EC91E0F2
:102930000E94502F0E94C90F64E070E080E090E098
:1029400028E030E040E050E00E94843C7093950322
:102950006093940364E070E080E090E028E030E071
:1029600040E050E00E94843C9B0170939703609389
:102970009603809194039091950343E0880F991FEB
:102980004A95E1F79093910380939003B3E0220F6F
:10299000331FBA95E1F7309393032093920310927B
:1029A0009C0310929D0384EF91E090939F0380938A
:1029B0009E0308950F931F93DF93CF93CDB7DEB798
:1029C00080914602909147026E8D0E9480258C0175
:1029D000888D998DF801928B818B8D85818386837B
:1029E0008B85808384838B8585838F858383808794
:1029F0008E858283878389899A8981878287938755
:102A00008B899C89958784878D898687CE010796D7
:102A10000E94C70D682FC8010E94C40DCF91DF919D
:102A20001F910F9108958F929F92AF92BF92CF9274
:102A3000EF920F931F93CF93DF9380EC91E062EDC1
:102A400070E048E20E94832D80EC91E06AEB70E038
:102A500042E00E945430882309F084C080914602ED
:102A6000909147020E947025882381F180EC91E0CB
:102A700066EC70E048E20E94832DA0904602B09080
:102A80004702C50188579E4F0E948A25182F092F9B
:102A900080EC91E06EEB70E044E00E945430482FEF
:102AA0008DB79EB748970FB6F8949EBF0FBE8DBFE7
:102AB000CDB7DEB72196DE01212F302FC901FC01F1
:102AC00087E101900D928150E1F740C0809146026C
:102AD0009091470288579E4F0E948A258091460216
:102AE0009091470260E040E020E000E0EE24CC243A
:102AF000AA24BB24882499240E940E258091460292
:102B00009091470288579E4F0E948A25182F092FBF
:102B1000A0904602B0904702C5010E949625482F1A
:102B20008DB79EB748970FB6F8949EBF0FBE8DBF66
:102B3000CDB7DEB72196DE01212F302FC901FC0170
:102B400087E101900D928150E1F741504F8BC50113
:102B50000E94DA148DB79EB748960FB6F8949EBFC0
:102B60000FBE8DBFDF91CF911F910F91EF90CF904E
:102B7000BF90AF909F908F9008950F931F938C01FB
:102B8000FC01128A118A8FE08183868381E1808330
:102B9000848385838383808784E18283878385E040
:102BA00081878CE090E09387828715861486C80120
:102BB00060E00E94C40DF80116861F910F910895E0
:102BC0008F929F92AF92BF92CF92EF920F931092FB
:102BD000680210924A021092490210924C0210921E
:102BE0004B0210924802809146029091470260E0A9
:102BF00040E020E000E0EE24CC24AA24BB2488247A
:102C000099240E940E25809146029091470260E02F
:102C10000E9480250E94BD1581E080934D02809323
:102C20006902809168028F5F8093680280918402BC
:102C30008F5F809384020E9496140F91EF90CF9043
:102C4000BF90AF909F908F900895CF92DF92EF92B8
:102C5000FF920F93DF93CF9300D0CDB7DEB76C0117
:102C6000062FE42E623008F402E0202F30E03A8391
:102C70002983F980FF0C60E070E080E090E02AE0BA
:102C800030E040E050E00E94843C6F0DD601119688
:102C90006C93119716966C9360E070E080E090E082
:102CA0002AE030E040E050E00E94843C6F0DF601E5
:102CB00060836483658360E070E080E090E02AE0F8
:102CC00030E040E050E00E94843C6F0DD601139646
:102CD0006C93139718966C9360E070E080E090E03E
:102CE0002AE030E040E050E00E94843C6F0DF601A5
:102CF00062836783018729813A81229FC001239FD4
:102D0000900D329F900D112495958795938782871A
:102D1000158614868E2DB6010E941311C601D601A8
:102D20001E966C910E94C40D0F900F90CF91DF9171
:102D30000F91FF90EF90DF90CF9008958F929F9228
:102D4000AF92BF92CF92EF92FF920F931F930E9488
:102D50000712882331F00E94F6130E946A0F80E068
:102D60009EC08091A003882309F048C060E070E015
:102D700080E090E02BE130E040E050E00E94843CB5
:102D8000809146029091470288579E4F60E040E054
:102D900020E000E0EE24CC24AA24BB24882499243B
:102DA0000E940E25809146029091470288579E4FBF
:102DB00060E00E945E25E0914602F0914702E557EF
:102DC000FE4F81E08083CF0103970E948A258C010A
:102DD000E0914902F0914A029F0136952795B90189
:102DE00080E090E02E0F3F1F40E050E00E94843CC6
:102DF000C80140918B020E94251650C0E091460206
:102E0000F0914702E557FE4F1082FF2460E070E02A
:102E100080E090E02BE130E040E050E00E94843C14
:102E2000809146029091470288579E4F60E040E0B3
:102E300020E000E0EE24CC24AA24BB24882499249A
:102E40000E940E25809146029091470288579E4F1E
:102E50006F2D0E9480258C01E0914902F0914A0279
:102E60009F0136952795B90180E090E02E0F3F1F16
:102E700040E050E00E94843CC80140918B020E94D7
:102E80002516F39484E0F81609F680914602909195
:102E9000470288579E4F60E00E945E2581E01F91A7
:102EA0000F91FF90EF90CF90BF90AF909F908F9039
:102EB0000895BF92CF92DF92EF92FF920F931F93EC
:102EC000DF93CF93CDB7DEB7ED8CFE8C0EE1F9E644
:102ED000CF2EF2E0DF2ECE0CDF1CEAE0BE2E80EC1F
:102EE00091E00E949B2F8823D1F3F60180818823F3
:102EF00029F0609173017091740104C060916F01B9
:102F0000709170018EE092E00E94163C1B2D101B08
:102F10008E2D61E00E94E80D9C018EE092E06CE352
:102F2000412F0E94F7298E2D60E00E94E80D9C0140
:102F30008EE092E06EE1412F0E94F72901110350CB
:102F40008AEC91E064E00E94B726882341F2CF9199
:102F5000DF911F910F91FF90EF90DF90CF90BF9086
:102F600008950F931F9310928F021CE380EC91E061
:102F70000E949B2F8823D1F31F3118F0012F025E8E
:102F80000AC08AEC91E064E00E94B7268823C9F465
:102F90001123B9F00CE31150809146029091470241
:102FA00088579E4F0E948A25FC01818961E00E941A
:102FB000E80D9C018EE092E0602F40E00E94F7292E
:102FC000D5CF1F910F910895EF92FF921F93CF934A
:102FD000DF938EE092E069E774E10E941A2B609122
:102FE0007101709172018EE092E00E94163C609136
:102FF000490270914A028EE092E04AE050E00E945D
:10300000653B8EE092E060E071E00E94163C6091CA
:103010007501709176018EE092E00E94163C6091FD
:103020004B0270914C028EE092E04AE050E00E9428
:10303000763B60916F01709170018EE092E00E948A
:10304000163C8EE092E0609168024AE050E00E94F7
:10305000933B8EE092E060E071E00E94163C60914C
:103060007301709174018EE092E00E94163C8EE034
:1030700092E0609184024AE050E00E94A53BA5E8FE
:10308000EA2EA2E0FA2EC0E0D0E0609171017091CA
:1030900072018EE092E00E94163C1C2F21968EE079
:1030A00092E0BE014AE050E00E94033C8EE092E0D4
:1030B00066EE70E00E94773A10FD0FC08EE092E05D
:1030C000F70160814AE050E00E94933B8EE092E07D
:1030D00060E071E00E94163C08C08EE092E0F701CB
:1030E00060814AE050E00E94A53B0894E11CF11C7D
:1030F000C630D10551F6DF91CF911F91FF90EF902F
:1031000008952F923F924F925F926F927F928F928B
:103110009F92AF92BF92CF92DF92EF92FF920F9366
:103120001F93DF93CF93CDB7DEB72EA03E8C8D8952
:10313000498C588C6D8C7E888B8C9F880C8DA9A0B7
:10314000BAA0CF8CD8A01EE1E82EFF24E7FCF094B3
:1031500080EC91E00E949B2F8823D1F3822D61E0C7
:103160000E94E80D9C01412F41958EE092E06CE3B6
:103170000E94F729111113508EE092E06AE071E08D
:103180000E94773A8EE092E0632D4AE050E00E9480
:10319000A53B8EE092E065E071E00E94773A8EE018
:1031A00092E0B7014AE050E00E94033C8EE092E0DA
:1031B00063E071E00E94773A8EE092E0642D4AE08D
:1031C00050E00E94A53B8EE092E06EEF70E00E941E
:1031D000773A8EE092E0652D4AE050E00E94933B02
:1031E0008EE092E06CEF70E00E94773A8EE092E021
:1031F000662D4AE050E00E94A53B8EE092E067EF2A
:1032000070E00E94773A8EE092E0672D4AE050E04D
:103210000E94933B8EE092E065EF70E00E94773A67
:103220008EE092E0682D4AE050E00E94A53B8EE0DF
:1032300092E060EF70E00E94773A8EE092E0692DB4
:103240004AE050E00E94933B8EE092E06EEE70E028
:103250000E94773A8EE092E0602F4AE050E00E94B0
:10326000A53B8EE092E06AEE70E00E94773A8EE035
:1032700092E0B5014AE050E00E94653B8EE092E0AA
:1032800068EE70E00E94773A8EE092E0B6014AE084
:1032900050E00E94763B8AEC91E064E00E94B72601
:1032A000882309F455CFCF91DF911F910F91FF90A3
:1032B000EF90DF90CF90BF90AF909F908F907F90D6
:1032C0006F905F904F903F902F900895CF92DF9234
:1032D000EF92FF921F93DF93CF93CDB7DEB767973F
:1032E0000FB6F894DEBF0FBECDBF10E06E0108949C
:1032F000C11CD11C80EC91E00E949B2F8823D1F34C
:1033000001C01F5FE12EFF24F701E35BFD4F8081C9
:10331000882319F41B31A8F323C01B3108F5C6011B
:103320000E94BF0DFB8AEA8A8DB79EB747970FB6FA
:10333000F8949EBF0FBE8DBFADB7BEB71196F60114
:1033400087E101900D928150E1F70E9459178DB7E6
:103350009EB747960FB6F8949EBF0FBE8DBF07C0AD
:1033600080EC91E06FE071E048E20E94832D1F5FE6
:103370001B3108F4BFCF80914602909147020E9412
:10338000572567960FB6F894DEBF0FBECDBFCF911D
:10339000DF911F91FF90EF90DF90CF9008951F93E2
:1033A000809146029091470260E00E945E2510E005
:1033B00030C080EC91E00E949B2F882351F18091D6
:1033C0004602909147020E948A252DB73EB72751A9
:1033D00030400FB6F8943EBF0FBE2DBFADB7BEB79D
:1033E0001196FC0187E101900D928150E1F70E9456
:1033F00081181F5F8DB79EB747960FB6F8949EBF92
:103400000FBE8DBF8091460290914702612F0E94AE
:103410005E2580914602909147020E9496251817DA
:1034200040F280EC91E00E949B2F8823D1F30E9410
:10343000E4178AEC91E064E00E94B726882389F3C0
:1034400080914602909147020E9457251F9108954E
:10345000DF92EF92FF920F931F93CF93DF937C0144
:10346000EB0188818D83C7010E94D50DF701918101
:103470002A81813081F4692F6695669570E0621B20
:103480007109690F711D882777FD8095982F0E941B
:10349000623CD62E02C0D92ED21A8D2D0E94FB116D
:1034A000082FC7010E94D50D182FC7010E94C70D14
:1034B000682F812F4E850E94190F089F002D11241F
:1034C0000D0D10160CF001E08881801B888387FDAC
:1034D0001882DF91CF911F910F91FF90EF90DF90B5
:1034E00008950F931F93CF93DF938091460290919D
:1034F00047020E948A2580914602909147020E94CD
:103500008A25DC0113968C910E94FB118091460262
:103510009091470288579E4F0E948A2580914602CB
:103520009091470288579E4F0E948A25FC01838113
:103530000E94FB11C0914602D09147028E010857AC
:103540001E4F81E080936D01C557DE4F8881CB58B7
:10355000D140882391F1C8010E948A25FC01208175
:1035600027FD2F5F2595332727FD30952F5F3F4F90
:10357000442737FD4095542F60E070E080E090E0F4
:103580000E94843C6115710581059105B1F410928A
:103590006E01C8010E948A25DC015196ED91FC91D3
:1035A0005297E759FD4F81E0808380938F0280918D
:1035B00084028F5F809384020EC0C8010E948A2516
:1035C0008C01CE010E948A25BC01C8010E94281AE4
:1035D00081E080936E01DF91CF911F910F9108954B
:1035E000DF92EF92FF920F931F93CF93DF9380911F
:1035F0004602909147020E948A25FC01E380FF2445
:1036000080914602909147020E948A25FC018381A5
:103610000E94FB11D82E8091460290914702885754
:103620009E4F0E948A25FC01038110E08091460292
:103630009091470288579E4F0E948A25FC01838102
:103640000E94FB11ED0CF11C080F111D2091460288
:10365000309147020E151F054CF4C9017C01EC01A5
:10366000C857DE4F81E080936D010AC0C901EC01AB
:10367000B8E8EB2EB1E0FB2EE80EF91E10926D01BA
:10368000C7010E948A258C01CE010E948A25BC01B7
:10369000C8010E94281ACE010E948A250E94CA0DE4
:1036A000882379F0CE010E948A258C01C7010E94EF
:1036B0008A25BC01C8010E94281A81E080936E010E
:1036C00002C010926E01DF91CF911F910F91FF9078
:1036D000EF90DF900895CF92DF92EF92FF920F93D9
:1036E0001F930EE0E02E02E0F02E13E1C12E11E058
:1036F000D12EC70162E040E096010E94F729809137
:1037000046029091470288579E4F0E948A250E9448
:10371000DC0D1BE2819FC001112464E670E00E9471
:10372000FA3D262FC70163E041E006E00E9403282E
:10373000C70167E249E296010E94F729809146029B
:10374000909147020E948A250E94DC0D819FC00152
:10375000112464E670E00E94FA3D262F63E5621BA7
:10376000C70149E20E9403281F910F91FF90EF903B
:10377000DF90CF9008951F9310E080EC91E00E94BD
:103780009B2F8823D1F30E946B1B8091460290915E
:10379000470288579E4F0E948A25FC01818961E07B
:1037A0000E94E80D9C018EE092E06CE3412F0E94A4
:1037B000F72980914602909147020E948A25FC01D8
:1037C000818960E00E94E80D9C018EE092E062E059
:1037D00048E10E94F7291150173D79F61F9108958D
:1037E0001F9318E180EC91E00E949B2F8823D1F376
:1037F0000E946B1B809146029091470288579E4F12
:103800000E948A25FC01818961E00E94E80D9C01EB
:103810008EE092E06CE340E00E94F729809146023E
:10382000909147020E948A25FC01818960E00E94F4
:10383000E80D9C018EE092E062E0412F0E94F729A2
:103840001F5F113479F61F9108951F9380914602EE
:103850009091470288579E4F0E947825882311F542
:1038600010E0809146029091470288579E4F612F49
:103870000E945E25809146029091470288579E4F94
:103880000E948A250E94CA0D8823A9F51F5F809196
:1038900046029091470288579E4F0E94962518171E
:1038A00050F5DFCF809146029091470288579E4F96
:1038B0000E948A25DC015196ED91FC915297E35BC1
:1038C000FD4F80818823D1F4809146029091470278
:1038D00088579E4F0E948A25DC015196ED91FC91FC
:1038E0005297E35BFD4F81E08083809168028F5F98
:1038F0008093680203C00E94B117D4CF1F9108952E
:10390000FF920F931F9380914602909147020E946D
:103910007825882309F061C080EC91E06EEB70E0BF
:1039200044E00E945430682F8091460290914702F3
:103930000E945E2580914602909147020E948A254E
:10394000FC018081181644F780EC91E06AE471E094
:103950004CE30E94832D1CE38CE1F82E80EC91E077
:103960000E949B2F8823D1F31F3118F00F2D011BCC
:103970000AC08AEC91E064E00E94B726882369F5CA
:10398000112359F102E011508091460290914702B3
:1039900088579E4F0E948A25FC01818961E00E9420
:1039A000E80D9C018EE092E06CE340E00E94F72974
:1039B00080914602909147020E948A25FC018189EC
:1039C00060E00E94E80D9C018EE092E0602F48E1EB
:1039D0000E94F7290E946B1BC1CF1F910F91FF908E
:1039E0000895CF93DF9380914602909147020E9401
:1039F0006125882329F080EC91E063E471E004C044
:103A000080EC91E06FE371E043E20E94832DC3E21A
:103A1000D0E080EC91E00E949B2F8823D1F3219786
:103A20001C161D06B4F380914602909147020E9435
:103A30005725809146029091470288579E4F0E94D9
:103A40005725809146029091470288579E4F0E94C9
:103A50005B25DF91CF9108950F931F9380914602CC
:103A60009091470288579E4F0E948A258C0160E002
:103A700070E080E090E023E030E040E050E00E9421
:103A8000843CC8010E94D20D1F910F9108951F938D
:103A900080914602909147020E948A250E94C70D9C
:103AA0000E94D10EBC0180EC91E045E00E945430B0
:103AB000182F10928E02833019F0843059F407C009
:103AC00080914602909147020E94572515C081E0DF
:103AD00080938E0280914602909147020E948A252F
:103AE000612F0E94D20D80914602909147020E9460
:103AF0008A25612F0E94D20D1F9108958F929F9267
:103B0000AF92BF92CF92DF92EF92FF920F931F93EB
:103B1000CF93DF9394E1A92EB12CEE2480EC91E0B9
:103B20000E949B2F8823D1F3A114B10409F442C051
:103B30000894A108B108C50163E070E00E94FA3D55
:103B4000892B11F481E0E82688249924FF242BC0D6
:103B5000C60181709070EE2019F0892B19F405C010
:103B6000892B19F4209781F002C0209769F48EE028
:103B700092E06F2D412F24E007E00E9403288EE0A1
:103B800092E061E00E946A270894C11CD11C195F71
:103B90001936F1F60894811C911C84E0F80E8CE330
:103BA000F81609F4BBCFCC24DD2410E0E401C17089
:103BB000D070CECFDF91CF911F910F91FF90EF90FA
:103BC000DF90CF90BF90AF909F908F900895EF922D
:103BD000FF920F931F938823C1F16F3108F479C0CE
:103BE0008EE092E062E00E946A276CEF7FEF8FEF39
:103BF0009FEF24E030E040E050E00E94843CF62E4D
:103C00006CEF7FEF8FEF9FEF24E030E040E050E07B
:103C10000E94843C162F60E070E080E090E024E099
:103C200030E040E050E00E94843C062F60E070E00D
:103C300080E090E024E030E040E050E00E94843CEE
:103C4000E62E81E4F80E1B5F37C06F3108F441C0E7
:103C50008EE092E062E00E946A276CEF7FEF8FEFC8
:103C60009FEF24E030E040E050E00E94843CF62EDC
:103C70006CEF7FEF8FEF9FEF24E030E040E050E00B
:103C80000E94843C162F60E070E080E090E024E029
:103C900030E040E050E00E94843C062F60E070E09D
:103CA00080E090E024E030E040E050E00E94843C7E
:103CB000E62E85E0F80E145E8EE092E06F2D412F27
:103CC0002CE731E00E94652A8EE092E061E00E94DC
:103CD0006A271F910F91FF90EF900895EF92FF9246
:103CE0000F931F938823C1F16F3108F479C08EE0E0
:103CF00092E062E00E946A276CEF7FEF8FEF9FEF08
:103D000024E030E040E050E00E94843CF62E6CEF6E
:103D10007FEF8FEF9FEF24E030E040E050E00E9423
:103D2000843C162F60E070E080E090E024E030E01A
:103D300040E050E00E94843C062F60E070E080E0AC
:103D400090E024E030E040E050E00E94843CE62E29
:103D500081E4F80E1B5F37C06F3108F441C08EE07C
:103D600092E062E00E946A276CEF7FEF8FEF9FEF97
:103D700024E030E040E050E00E94843CF62E6CEFFE
:103D80007FEF8FEF9FEF24E030E040E050E00E94B3
:103D9000843C162F60E070E080E090E024E030E0AA
:103DA00040E050E00E94843C062F60E070E080E03C
:103DB00090E024E030E040E050E00E94843CE62EB9
:103DC00085E0F80E145E8EE092E06F2D412F2EE913
:103DD00031E00E94652A8EE092E061E00E946A274D
:103DE0001F910F91FF90EF900895EF92FF920F9324
:103DF0001F938823C1F16F3108F479C08EE092E0FF
:103E000062E00E946A276CEF7FEF8FEF9FEF24E064
:103E100030E040E050E00E94843CF62E6CEF7FEFF3
:103E20008FEF9FEF24E030E040E050E00E94843CC0
:103E3000162F60E070E080E090E024E030E040E0A9
:103E400050E00E94843C062F60E070E080E090E04B
:103E500024E030E040E050E00E94843CE62E81E423
:103E6000F80E1B5F37C06F3108F441C08EE092E05E
:103E700062E00E946A276CEF7FEF8FEF9FEF24E0F4
:103E800030E040E050E00E94843CF62E6CEF7FEF83
:103E90008FEF9FEF24E030E040E050E00E94843C50
:103EA000162F60E070E080E090E024E030E040E039
:103EB00050E00E94843C062F60E070E080E090E0DB
:103EC00024E030E040E050E00E94843CE62E85E0B3
:103ED000F80E145E8EE092E06F2D412F20EC31E061
:103EE0000E94652A8EE092E061E00E946A271F919D
:103EF0000F91FF90EF900895EF920F931F938823F7
:103F000011F1663280F00DE210E0061B1109000F7E
:103F10008EE092E062E00E946A2744E1401B8EE05E
:103F200092E0045C32C06F31E8F1162F110F1C5380
:103F30008EE092E062E00E946A2744E1411B8EE03D
:103F400092E01F5B0FC0663278F0162F110F1A54E3
:103F50008EE092E062E00E946A274EE1411B8EE013
:103F600092E01E5F612F12C06F31E0F005E210E0B9
:103F7000061B1109000F8EE092E062E00E946A27A2
:103F80004EE1401B8EE092E00E5F602F22EE31E0AA
:103F900000E0EE24E3940E94652A8EE092E061E066
:103FA0000E946A271F910F91EF900895EF920F934F
:103FB000062F882391F06F3160F18EE092E062E08D
:103FC0000E946A276DE270E0601B7109660F771F1F
:103FD000645C8EE092E042E011C06F31D0F08EE080
:103FE00092E062E00E946A27602F70E06D5270409C
:103FF000660F771F675E8EE092E04CE12CEE31E0B9
:1040000000E0EE240E94652A8EE092E061E00E94CA
:104010006A270F91EF900895EF920F93E82E062FE5
:10402000862F90E083709070892BC1F06CEF7FEF4A
:104030008FEF9FEF24E030E040E050E00E94843CAE
:1040400060938C026CEF7FEF8FEF9FEF24E030E006
:1040500040E050E00E94843C60938D02EE2071F0BD
:104060000F3130F18EE092E062E00E946A276091A9
:104070008C026F5B40918D024B5F0DC00F31C0F021
:104080008EE092E062E00E946A2760918C026B5F92
:1040900040918D024D5D8EE092E028EF31E000E02E
:1040A000EE240E94652A8EE092E061E00E946A2779
:1040B0000F91EF900895DF92EF92FF920F931F936D
:1040C0008823A1F16F3108F468C05DE2D52ED61ABD
:1040D0008EE092E062E00E946A27FF2424C0F0FC98
:1040E00021C067EF7FEF8FEF9FEF2AE030E040E0E5
:1040F00050E00E94843C162F67EF7FEF8FEF9FEF19
:104100002AE030E040E050E00E94843C462F1F5BF4
:10411000465F8EE092E0612F28E032E000E0EE247E
:104120000E94652AF394FD14D0F232C06F31A8F1D9
:104130004DE2D42ED61A8EE092E062E00E946A2709
:10414000FF2424C0F0FC21C067EF7FEF8FEF9FEFCB
:104150002AE030E040E050E00E94843C162F67EFF8
:104160007FEF8FEF9FEF2AE030E040E050E00E94C9
:10417000843C462F165F445E8EE092E0612F28E07B
:1041800032E000E0EE240E94652AF394FD14D0F2A0
:104190008EE092E061E00E946A271F910F91FF90EC
:1041A000EF90DF900895CF92DF92EF920F931F93DD
:1041B000882359F16F3108F454C07DE2C72ED12C09
:1041C000C61AD108CC0C8EE092E062E00E946A2709
:1041D0008CE3C80E8EE092E06C2D42E02EE032E0DF
:1041E00000E0EE240E94652A8AE0C80E8EE092E08C
:1041F0006C2D4AE02EE032E00E94652A8BEFC80E5B
:104200008EE092E06C2D44E123C06F3150F1162F07
:10421000110F1A558EE092E062E00E946A27175E45
:104220008EE092E0612F4CE12EE032E000E0EE24DF
:104230000E94652A1A508EE092E0612F44E22EE03F
:1042400032E00E94652A1B5F8EE092E0612F48E217
:104250002EE032E00E94652A8EE092E061E00E944A
:104260006A271F910F91EF90DF90CF9008951F93D1
:10427000882381F06F3130F11DE2161B8EE092E051
:1042800062E00E946A274AE0411B8EE092E0165CE1
:10429000612F0FC06F31B0F01DE2161B8EE092E06F
:1042A00062E00E946A276EE1611B1E5E8EE092E072
:1042B000412F23E132E00E94F7298EE092E061E095
:1042C0000E946A271F910895FF920F931F93182F42
:1042D000862F042FF22E0E94F50EFC01E10FF11D36
:1042E000E081E43041F1E53048F4E130A9F0E1301B
:1042F00070F0E230B1F0E330B1F518C0E63029F1EA
:10430000E630F0F0E73031F1E93069F528C0802F70
:104310006F2D0E94372127C0802F6F2D0E94D32040
:1043200022C0802F6F2D0E940C201DC0802F6F2D6A
:104330000E945B2018C0802F6F2D0E94D61F13C0D3
:10434000802F6F2D0E947C1F0EC0802F6F2D0E942A
:10435000F51E09C0802F6F2D0E946E1E04C0802F95
:104360006F2D0E94E71D1F910F91FF9008950F93ED
:104370001F930DE280EC91E00E949B2F8823D1F3E4
:104380000E946B1B093140F4802F90E08370907085
:10439000029714F0063090F4809146029091470203
:1043A0000E948A25FC01818960E00E94E80D9C0141
:1043B0008EE092E062E048E10E94F7298091460297
:1043C0009091470288579E4F0E948A25FC0181895F
:1043D00061E00E94E80D9C018EE092E06CE340E019
:1043E0000E94F729809146029091470288579E4F7C
:1043F0000E948A250E94D50D182F80914602909127
:10440000470288579E4F0E948A250E94C70D682F39
:10441000812F40E0202F0E946421002361F08091D1
:104420004602909147020E948A25602F70E00E9408
:10443000490F01509FCF1F910F9108950F931F9324
:104440000DE280EC91E00E949B2F8823D1F30E9423
:104450006B1B093140F4802F90E0837090700297BD
:1044600014F00630A0F480914602909147028857DC
:104470009E4F0E948A25FC01818961E00E94E80D1F
:104480009C018EE092E06CE340E00E94F72980916D
:104490004602909147020E948A25FC01818960E0D2
:1044A0000E94E80D9C018EE092E062E048E10E94EB
:1044B000F72980914602909147020E948A250E9426
:1044C000D50D182F80914602909147020E948A25AF
:1044D0000E94C70D682F812F41E0202F0E94642188
:1044E000002371F0809146029091470288579E4FB9
:1044F0000E948A25602F70E00E94490F0150A1CFD1
:104500001F910F91089580916D01882349F00E94B9
:104510001E2280916E01882359F00E94B72108C0A5
:104520000E94B72180916E01882311F00E941E2203
:10453000809146029091470288579E4F0E948A259B
:104540000E94CA0D882319F40E94BB1B0CC08091E5
:104550004602909147020E948A250E94CA0D882334
:1045600011F40E94F01B80914602909147020E9434
:104570008A250E94D80D8091460290914702885763
:104580009E4F0E948A250E94D80D0895EF92FF92B7
:104590000F931F93809146029091470288579E4F38
:1045A0000E947825882309F408C1809146029091E1
:1045B00047020E947825882309F4FFC080918E026B
:1045C000882319F40E94F01A02C00E94711A0E94F6
:1045D0008322809146029091470288579E4F0E9405
:1045E0008A250E94CA0D882349F480914B0290913C
:1045F0004C02019690934C0280934B0280918F0263
:10460000882359F180918E02882339F180914602E6
:104610009091470288579E4F0E948A252DB73EB73A
:10462000275130400FB6F8943EBF0FBE2DBFADB737
:10463000BEB71196FC0187E101900D928150E1F720
:104640000E9481188DB79EB747960FB6F8949EBF0B
:104650000FBE8DBF0E94131573C0809146029091CA
:10466000470288579E4F0E948A250E94CA0D8823C0
:1046700009F066C080914602909147020E948A2507
:104680000E94CA0D882309F45BC080914602909174
:1046900047020E948A258C01FC01E484F584809104
:1046A00046029091470288579E4F0E948A25FC013E
:1046B000818590E0880F991F8E0D9F1DF8019587C9
:1046C000848780914602909147020E948A25FC01CE
:1046D0000485158580914602909147020E948A25A3
:1046E000FC01828593858017910750F580914602E1
:1046F000909147020E948A250E94B510809146023F
:10470000909147020E948A252DB73EB7275130402D
:104710000FB6F8943EBF0FBE2DBFADB7BEB7119612
:10472000FC0187E101900D928150E1F70E94811810
:104730008DB79EB747960FB6F8949EBF0FBE8DBF3C
:1047400080918F028823B9F58091460290914702AB
:104750000E946125882379F1809146029091470259
:1047600088579E4F0E946125882329F18091460237
:104770009091470288579E4F0E948A250E94CA0D39
:10478000882341F4809146029091470288579E4FBA
:104790000E94572580914602909147020E948A25E7
:1047A0000E94CA0D882349F48091460290914702E5
:1047B0000E94572502C080E001C081E01F910F9147
:1047C000FF90EF9008950E947E1DE0914602F091C7
:1047D0004702E557FE4F8081882329F080EC91E065
:1047E00066E671E004C080EC91E064E571E04EE1C2
:1047F0000E94832D0E94B11780914602909147023A
:104800000E9457250E94251C0E94801C0E942C1D7E
:104810000E94471D0E94C6228823A1F70E94F11C16
:1048200080914602909147020E946125882311F0F1
:1048300080E0089583E608958EE092E06BEF75E1E5
:104840000E941A2B8EE092E066E972E00E94C23A62
:104850000E94E4178EE092E06EE872E00E94773AE0
:104860008EE092E06CE872E00E94773A8EE092E08F
:104870006FE772E00E94C23A8EE092E06DE772E06C
:104880000E94773A8EE092E06FE672E00E94C23AB0
:104890008AEC91E064E00E94B726882321F00E9410
:1048A000E01580E008958AEC91E066E00E94B7266A
:1048B000882311F483E6089580EC91E00E94232E72
:1048C00080E0089580EC91E00E949B2F8823E1F125
:1048D00080914802813079F1813018F0833691F56A
:1048E0002DC00E949E16809348028AEC91E066E0FB
:1048F0000E94B726882331F180EC91E060EA72E0F3
:1049000043E00E945430813039F0823041F08823F6
:10491000C9F40E94CF1916C00E94661913C080EC1A
:1049200091E00E94232E80EC91E066EA72E048E27A
:104930000E94832D07C00E94E32302C00E941C2412
:10494000809348021092D80108950F931F93CF933C
:10495000DF9380EC91E00E941E3380EC91E062EBEB
:1049600072E00E94193380EC91E00E94502F8CEE8F
:1049700091E00E944A3A8C010E949925C8018E5903
:104980009F4F0E949925C8018C539F4F0E949925E3
:10499000C8018A5D9E4F0E949925C80188579E4F85
:1049A0000E949925109347020093460282E690E008
:1049B0000E944A3A182F092F0E949925E091460239
:1049C000F0914702EF01212F302FC901DC0182E66F
:1049D0000D9009928150E1F7E551FE4F81E080830F
:1049E00082E690E00E944A3A182F092F0E949925EA
:1049F000E0914602F0914702E857FE4F212F302FF9
:104A0000C901DC0182E60D9001928150E1F70E941C
:104A1000E015DF91CF911F910F9108958F929F9292
:104A2000AF92BF92CF92EF920F93DF93CF93CDB718
:104A3000DEB7DC01522F15968C911597843068F5FE
:104A400090E0019627E130E0829FF001839FF00D16
:104A5000929FF00D11240197EA0FFB1F60831182D2
:104A6000829FF001839FF00D929FF00D1124EA0FB9
:104A7000FB1F0783048746834287438751875687F6
:104A8000E086E586C786B18AA08A938A828A1596CF
:104A90008C9115978F5F15968C93CF91DF910F9125
:104AA000EF90CF90BF90AF909F908F9008952FEF91
:104AB000FC0124830895FC0115820895FC016483A0
:104AC0000895FC01258190E007C08681779618162D
:104AD00014F481E008959F5F9217B8F380E0089581
:104AE00020E0FC018581843008F021E0822F0895C8
:104AF00020E0FC0184818F3F09F021E0822F08959E
:104B000027E1629FB00111246A5F7F4F680F791F10
:104B1000CB010895FC01248187E1289F9001112495
:104B20002A5F3F4F2E0F3F1FC9010895FC01858169
:104B30000895EF92FF920F931F938C0106960E94A7
:104B4000BF0DC8014D960E94BF0D84E3E82EF12CE5
:104B5000E00EF11EC7010E94BF0DC70147960E94DB
:104B6000BF0DF80115828FEF84831F910F91FF9085
:104B7000EF900895882319F48CB5806202C08CB53B
:104B80008F7D8CBD08959CB5937F982B9CBD089517
:104B90002CB5382F33702C7F322B3CBD2DB590E0D7
:104BA000959587959595879581702E7F822B8DBDE4
:104BB00008958AE061E00E9491398AE061E00E94F4
:104BC00052398CB580618CBD8CB580648CBD8DE014
:104BD00061E00E9452398BE061E00E9452390895F1
:104BE000FC0181E08083089585E070E00E94F23846
:104BF00008956F927F928F929F92AF92BF92CF92C1
:104C0000DF92EF92FF920F931F93CF93DF93EC010C
:104C100089819A818C0124E0000F111F2A95E1F708
:104C2000081B190B85E10E94D038BC01600F711F71
:104C300084E0769567958A95E1F77A836983888120
:104C4000882381F12E813F816217730710F4B90127
:104C500006C0888599858617970708F4BC0100D09F
:104C600000D080E090E040E050E0E884F98400E08B
:104C700010E0AD80BB24CC24DD246C807724882414
:104C80009924EDB7FEB761827282838294820E947A
:104C9000193C6B830F900F900F900F9085E070E0A0
:104CA0000E94F238DF91CF911F910F91FF90EF900A
:104CB000DF90CF90BF90AF909F908F907F906F903C
:104CC0000895FC018CE39FE09383828384E08183D9
:104CD00081E084870895CF93DF93EC018C8590E089
:104CE0008F719070892B69F584E10E94D038AA27D2
:104CF00097FDA095BA2FBC01CD010E94D83C26EEAD
:104D00003FE34EEC50E40E94643D0E94AA3C9B01AC
:104D1000AC017B836A836115710589F084E0898326
:104D2000B901FE0120E0848195816817790710F4AC
:104D300029830AC02F5F32962430A9F702C08FEF73
:104D400089838C858F5F8C87DF91CF910895FC01DB
:104D500088E0808389E0818387E0828386E08383A3
:104D600084E0848382E0858381E18683089520E066
:104D7000FC01E60FF11D8781813009F421E0822FCB
:104D80000895E62FF0E0423040F420E0E80FF91FEC
:104D9000878181508E3F88F40FC0E80FF91F87810B
:104DA0008F3F11F420E009C020E090E0642F70E014
:104DB0000E94E63D019709F421E0822F08950F93A8
:104DC0001F93CF93DF93EC0110E00FEF888162E037
:104DD0000E94523988810E94E5392F81892B19F46C
:104DE0002F5F2F8307C0222349F02F3F11F41F822A
:104DF00001C00F83888160E00E9452391F5F2196B5
:104E0000173021F7DF91CF911F910F910895FC0189
:104E1000742F643508F05DC047FD5BC040330CF073
:104E200058C0878D823019F5842F85958595859595
:104E3000992787FD9095462F552747FD509524E5E6
:104E400030E0829FF001839FF00D929FF00D1124BE
:104E5000E40FF51FEF55FC4F808190E0272F27705E
:104E600002C0959587952A95E2F780958170972FD6
:104E7000959595959595462F552747FD5095272F44
:104E800027708823A1F4E4E59E02F0011124E40FC9
:104E9000F51FEF55FC4F81E090E002C0880F991F8D
:104EA0002A95E2F780952081282320830895E4E560
:104EB0009E02F0011124E40FF51FEF55FC4F81E035
:104EC00090E002C0880F991F2A95E2F72081282BD5
:104ED00020830895FC01678F60A30895FC01678F0C
:104EE00040A30895AF92BF92CF92DF92EF92FF92CC
:104EF0000F931F93CF93DF93EC01162FF42EE22E26
:104F0000AA24402F552747FD50958F2D992787FDBF
:104F10009095481B590B57FF03C0509541955F4F23
:104F20002E2D332727FD3095812F992787FD9095CA
:104F3000281B390B37FF03C0309521953F4F2417AD
:104F4000350744F4AA24A3948F2DF12E182F802F17
:104F50000E2DE82EE11634F48E2DE12E182F802F21
:104F60000F2DF82EDE2CD11A202F332727FD309558
:104F70008F2D992787FD9095281B390B37FF03C08C
:104F8000309521953F4FB22EF0161CF0CC24CA94D8
:104F900002C0CC24C3948D2DD7FC8F5F082F0595BC
:104FA00011C0AA2021F0CE016F2D412F03C0CE01E8
:104FB000612F4F2D0E9407270B1907FF02C0FC0C21
:104FC0000D0D1F5FE1166CF7DF91CF911F910F91CF
:104FD000FF90EF90DF90CF90BF90AF9008950F9328
:104FE000042F322F262F2150230F0E9472270F915A
:104FF00008950F93362F042F0150020F232F0E9484
:1050000072270F9108959F92AF92BF92CF92DF9235
:10501000EF92FF920F931F93CF93DF936C01B62E05
:10502000942EA02EC0E0D0E0E62EFF24E7FCF09402
:10503000022F112707FD10950E0D1F1D06C0C6017A
:10504000492D2A2D0E94F92721966B2D6C0FCE0138
:105050008E0D9F1D8017910794F3DF91CF911F91C3
:105060000F91FF90EF90DF90CF90BF90AF909F9007
:1050700008952F923F925F926F927F928F929F92AC
:10508000AF92BF92CF92DF92EF92FF920F931F9356
:10509000DF93CF9300D000D000D0CDB7DEB79E8392
:1050A0008D83C62ED42EEE24E394E21A8EEF289F31
:1050B000502C1124842E8A94962E9A94A42EA39474
:1050C000B62EB394F22E662423E0722E10E0C801AF
:1050D000847090709A838983F801E270F070FC8389
:1050E000EB8398E0292E312C2022312201701070A0
:1050F00054C0E7FC04C0FA94F2E05F0EE50C639440
:1051000089819A81892B71F04F2D4D0D8D819E8162
:105110006B2D0E9407276F2D6C0D8D819E814A2D6E
:105120000E940727EB81FC81EF2B71F04D2D4F1969
:105130008D819E816B2D0E9407276F2D6C0D8D81B7
:105140009E81482D0E9407272114310471F06C2D97
:105150006F198D819E814A2D0E9407274F2D4D0D7D
:105160008D819E81692D0E9407270115110571F01F
:105170006C2D6F198D819E81482D0E9407274D2D22
:105180004F198D819E81692D0E940727E70CF2E05F
:105190007F0E8A949A94A394B3946F140CF4A9CFBD
:1051A00026960FB6F894DEBF0FBECDBFCF91DF912C
:1051B0001F910F91FF90EF90DF90CF90BF90AF9035
:1051C0009F908F907F906F905F903F902F90089569
:1051D0004F925F926F927F928F929F92AF92BF9207
:1051E000CF92DF92EF92FF920F931F93CF93DF93B3
:1051F000EC01A62E742E9E2DFF24F394F21A8EEF4E
:10520000289F802C1124B42EBA9453E0C52ECE0CC6
:10521000E22EDD2443E0942E10E031E0432E512CA9
:1052200040225122692E63940270107034C0F7FC42
:1052300004C0EA9482E0880EF80CD394411451041F
:1052400089F06D2D6A0D472D4E192E2D220F260D3A
:10525000CE010E94F9276E2D6A0DCE014B2D2C2D0B
:105260000E94F9270115110589F06A2D6D19472D46
:105270004E192E2D220F260DCE010E94F9276A2DE0
:105280006E19CE014B2D2C2D0E94F927F90C82E0CE
:10529000980EBA94C80EDE1454F2DF91CF911F918C
:1052A0000F91FF90EF90DF90CF90BF90AF909F90C5
:1052B0008F907F906F905F904F9008957F928F9224
:1052C0009F92AF92BF92CF92DF92EF92FF920F9395
:1052D0001F936C01962EA42EF22E7E2C760E1EEFBE
:1052E000E19E102D1124812E820E672D282D0E9403
:1052F000EF27B02EBA0CBA94C601672D4B2D282D7E
:105300000E94EF27AE0C100FC601692D4A2D212FE8
:105310000E94F927F90CFA94C6016F2D4A2D212F0E
:105320000E94F927C601672D4A2D2E2D01E00E940B
:105330003928FE18C6016F2D4A2D2E2D02E00E943D
:105340003928BE18C6016F2D4B2D2E2D04E00E946A
:105350003928C601672D4B2D2E2D08E00E943928D3
:105360001F910F91FF90EF90DF90CF90BF90AF9083
:105370009F908F907F9008958F929F92AF92BF924F
:10538000CF92DF92EF92FF920F931F936C01162F33
:10539000A42E922EF02EBE2C8E2C860E2EEFE29E88
:1053A000E02C11242E2D290D682D0E940328AB0C12
:1053B000FA94FE0C1150190D1B19C601612F4A2DCC
:1053C0002B2D01E0EF2C0E94E828C601682D4A2D04
:1053D0002B2D02E00E94E8281F910F91FF90EF9083
:1053E000DF90CF90BF90AF909F908F9008953F92A5
:1053F0004F925F926F927F928F929F92AF92BF92E5
:10540000CF92DF92EF92FF920F931F93CF93DF9390
:105410004C01362E442EF901A490319654906F0120
:105420000894C11CD11C8A2D992787FD9095079659
:1054300068E070E00E94FA3DE62EFF24E7FCF0945D
:1054400000E0C0E0D0E060E8662E712C26C0E12FBD
:10545000E595E595E595FF27E7FDF095EC0FFD1F38
:10546000EC0DFD1DE4912E2F30E0812F8770A301FC
:1054700002C0559547958A95E2F724233523232BBF
:1054800031F0612F630DC4014B2D0E9407271F5F70
:105490001A15ECF20F5FCE0DDF1D051524F410E098
:1054A000B02EB40CF5CFDF91CF911F910F91FF90EB
:1054B000EF90DF90CF90BF90AF909F908F907F90B4
:1054C0006F905F904F903F9008952F923F924F9230
:1054D0005F926F927F928F929F92AF92BF92CF9284
:1054E000DF92EF92FF920F931F93DF93CF9300D041
:1054F00000D00F92CDB7DEB73C01862E4A83F9016A
:10550000BE2C002329F4EE2019F40E94F7297AC05A
:10551000A490319694901F010894211C311C0370B3
:1055200009838A2D992787FD9095079668E070E09A
:105530000E94FA3D462E552447FC5094C92CCA942B
:10554000FF241D821C824A2D41504B8356C0E02F00
:10555000E595E595E595FF27E7FDF0958C819D8123
:10556000E80FF91FE20DF31DE4912E2F30E0802F9C
:105570008770A0E8B0E002C0B595A7958A95E2F7DC
:105580002A233B23232B61F1B981B13051F0B13093
:1055900028F0B23049F0B33061F409C0102FEF2C7D
:1055A00008C0ED2C1F2D05C01D2DEC2C02C01C2D9C
:1055B000E02EBB2069F0E3E0BE228B2DB0FE03C0DD
:1055C000FA2DF11B1F2F81FF03C0492D4E19E42E28
:1055D000180D5A81E50EC301612F4E2D0E94072739
:1055E0000F5FDA940A150CF4B2CFF3948C819D818D
:1055F000840D951D9D838C83CA94F9141CF4DB8063
:1056000000E0F0CF0F900F900F900F900F90CF9180
:10561000DF911F910F91FF90EF90DF90CF90BF909F
:10562000AF909F908F907F906F905F904F903F9042
:105630002F900895DC01FB0184918F5F14968C9369
:105640001497319684918F5F15968C9315973196A8
:105650005E96FC93EE935D9708953F924F925F9212
:105660006F927F928F929F92AF92BF92CF92DF9272
:10567000EF92FF920F931F93CF93DF93EC01862E4F
:10568000A42E422F102F3F8C23E526170CF4ABC01D
:105690003FE23A150CF4A7C0C02EDD248C8190E0C7
:1056A00001979C01C29EC001C39E900DD29E900D99
:1056B0001124262F332727FD3095820F931F1816AC
:1056C00019060CF090C08D8190E09C01C29EC00133
:1056D000C39E900DD29E900D11242A2D332727FDB5
:1056E0003095820F931F181619060CF07CC0992470
:1056F000442E55246DC09C01215030404217530761
:1057000011F460E00EC0429EC001439E900D529E77
:10571000900D1124840F951FED8DFE8DE80FF91F5C
:1057200064914C9DC0014D9D900D5C9D900D112488
:10573000682C680EBB24792C780C3FC0E62EFF2421
:1057400060FF19C0113039F44B2D4A0DCE01672D81
:105750000E9407272EC02C9DC0012D9D900D3C9DC1
:10576000900D11244A2D480FCE01662D212F012FB7
:105770000E9403281EC098A18F8D9817D1F09F8F8B
:10578000113039F44B2D4A0DCE01672D0E940727A9
:105790000FC02C9DC0012D9D900D3C9D900D11249E
:1057A0004A2D480FCE01662D212F012F0E9403287C
:1057B0003F8EF594E7946E2DB3942B2D332727FD60
:1057C00030958D8190E0281739070CF4B7CF93946A
:1057D000492D552747FD50958C8190E04817590772
:1057E0000CF489CF3F8EDF91CF911F910F91FF90E5
:1057F000EF90DF90CF90BF90AF909F908F907F9071
:105800006F905F904F903F9008950F93CF93DF93E9
:10581000EC01262F6A3049F48D819885899F802D6F
:1058200011249A85980F9A8726C06D3029F16985D1
:105830004A8508850E942D2B9C816885969F402D66
:1058400011248985480F49878F818823A9F055271E
:1058500047FD5095699F9001112484E590E0821BDB
:10586000930B8417950744F49D81699F902D112413
:105870008A85890F8A87198681E090E0DF91CF9130
:105880000F9108951F93CF93DF93EC01162FF89497
:105890008E8560E00E9491398F8518161CF460E0B7
:1058A0000E9491391EBD0DB407FEFDCF8EB58F85C8
:1058B00018161CF461E00E9491397894DF91CF9121
:1058C0001F910895FF920F931F93CF93DF93EC01E5
:1058D000FF2400E010E06F2D6064CE010E94422C96
:1058E000CE0160E80E94422C8E8561E00E949139D1
:1058F0008F8518161CF460E00E949139F801EF556D
:10590000FC4F90E080818EBD0DB407FEFDCF8EB5BB
:105910009F5F31969435B1F78F8518161CF461E0BE
:105920000E949139F3940C5A1F4F86E0F81699F6AD
:10593000CE0160E40E94422CDF91CF911F910F9124
:10594000FF900895CF93DF93DC0188EF91E0E1EAC7
:10595000F3E0EF019C01199221503040E1F71996D4
:105960001C9219971A961C92DF91CF910895EF928D
:105970000F93CF93DF93EC014D876C872E87E88AD6
:105980000F8781E088878F8F18A28F83E9E7F4E182
:1059900084918F5F8C83319684918F5F8D83319654
:1059A000FE8FED8F0E94D92581E00E94BA2585E007
:1059B0000E94C8258CE00E94C3258D8561E00E946D
:1059C00052398C8561E00E9452398E8561E00E94D7
:1059D0005239888918161CF461E00E9452398F856B
:1059E00018161CF461E00E945239888918166CF46C
:1059F00060E00E9491396AE070E080E090E00E94EF
:105A00003C38888961E00E949139EC852E2F33273C
:105A100027FD3095F901E65DF54EE491F0E0EE0FDB
:105A2000FF1FEA5EF54E859194919C8B8B8B225CD7
:105A3000354EF90184918A8FED852E2F332727FD6E
:105A40003095F901E65DF54EE491F0E0EE0FFF1FB1
:105A5000EA5EF54E859194919A8B898B225C354E46
:105A6000F9018491898FEF852E2F332727FD3095FB
:105A7000F901E65DF54EE491F0E0EE0FFF1FEA5EFE
:105A8000F54E859194919E8B8D8B225C354EF9015C
:105A900084918B8FEE852E2F332727FD3095F901CA
:105AA000E65DF54EE491F0E0EE0FFF1FEA5EF54E85
:105AB00085919491988F8F8B225C354EF90184915A
:105AC0008C8FCE0161E20E94422CCE0164E10E94E3
:105AD000422C8B8587FF02C08FE78B876B856068C0
