:100000000C943E0E0C94660E0C94660E0C94660EC8
:100010000C94660E0C94660E0C94660E0C94660E90
:100020000C94660E0C94660E0C94660E0C94C934F7
:100030000C94660E0C94660E0C94660E0C94660E70
:100040000C94CD350C94660E0C94660E0C94660ED2
:100050000C94660E0C94660E0C94660E0C94660E50
:100060000C94660E0C94660E9F0EA50EAD0EB50E8A
:10007000BD0EC50ECD0ED50EDD0EE50EED0EF50E48
:10008000FD0E050F0D0F150F1D0F250F2A0F320F37
:100090003A0F420F4A0F520F5A0F620F6A0F486F02
:1000A00020766965206D617821002E5675653A00CD
:1000B0002E4B696C6C3A00417265613A007314779B
:1000C000147B14871493149F145175656C20706C05
:1000D0006163653F00416A6F7574206475206675C1
:1000E0007475726F6D6F6E3F005675650043617079
:1000F000747572650020005A6F6E6520002041748F
:10010000747261706520203A0056756520203A00AF
:10011000204B696C6C203A0041726561203A002FD7
:10012000005850203A002F004465663A002F0046E0
:100130006F723A002F005669743A002F00566965B5
:100140003A004C764C3A000046696E002D2D002B8B
:100150002B005061732065666669636163652E2EAE
:100160002E0053757065722065666669636163650C
:1001700021003010FFFFFFFFFFF88000040000089F
:1001800080000400000880000000000880200000BB
:100190008008802000008008FFFFFFFFFFF8C000FC
:1001A00000000000C00000000000C00000000000CF
:1001B000C00000000000C00000000000C0000000FF
:1001C0000000C00000000000C00000000000C000EF
:1001D00000000000301000000000001800000000C7
:1001E00000180000000000180000000000180000C7
:1001F00000000018000000000018000000000018B7
:10020000000000000018000000000018FFFFFFFFC2
:10021000FFF8800800002008800800002008800007
:1002200000000008800001000008800001000008B4
:10023000FFFFFFFFFFF850657264752E2E2E0043FE
:1002400027657374206761676E652100456E2061C4
:1002500076616E742100556E206465666920647253
:10026000657373657572202100556E20467574752F
:10027000726F6D6F6E20617474617175652100100D
:10028000103FF82000AFFCA004A074A814ABD4AABF
:1002900014AA5488D588118FD18005FF0D00010F55
:1002A000FF101000802100308419828FE44C382820
:1002B00012199D19985810AC3C07E205851880204A
:1002C0004010801010000007E00838186C30C6217C
:1002D00082630246064C0C5838506070C043805E02
:1002E0000070000000101000000E000700038001E5
:1002F000C00160012002200430041008100810041E
:10030000200240018000000804406090E008047F63
:1003100000FE00101000000000000007C01C0030AC
:100320001020F063804C00183810E01180030002A8
:1003300000000000000200010402AB14B214B91462
:10034000BE14C514AB14B214CD14BE14C514AB1432
:10035000B214D114BE14C514AB14B214D814BE1404
:10036000C514AB14B214DE14BE14C51420746F206F
:100370006D61696E206D656E7500170020746F20C9
:10038000636F6E74696E75650015005072657373E6
:10039000203A0047616D65206F76657200E914F4BC
:1003A00014FE144368616E67652067616D650046E1
:1003B000757475726F6D6F6E001818000800003448
:1003C00000003400006E00006E0001E7800318C0DA
:1003D0000608600C083008001818000831E3CC202B
:1003E0006304606306400002400003C00001800017
:1003F00001800001F8FE1F84E021FCE03FAA0055C7
:10040000FFFFFF1818000800003400003400006EE1
:1004100000006E0001F7800310C00638600C6C30DD
:1004200008461818830831118C2118C4612C4641E4
:100430002842432843C624518C267D8C6625BCD790
:1004400035A8BB1FE8A809880009FFFFFF1818009E
:100450000000000C00003C0000E40701041907C480
:10046000711C3CC13C1B89700F19C60D328A0326D2
:10047000860664F03444D8564488974689116299B8
:10048000F332F00711C00D997F19D91DF0710000EA
:100490001D000007000003181800000000300000D5
:1004A0003C00E027009820808E23E0833C3891D8E0
:1004B0003C98F01E4CB01364C01F26600D22200330
:1004C0002267E262EC624688C44CC98488E70C99D2
:1004D000B0389B98F08E0F80B80000E00000C0009C
:1004E00000181800000000000000FFC007C8F81E38
:1004F000083E33FFF377E3FB5C000F4C738D5F73B3
:10050000B973003D3300471E1E2E0F807C01E3E0CF
:1005100000E1C007807008001808000C107F06304A
:10052000E3867FE3FFE7C1E78800111818000000A9
:1005300000000000FFC007C8F81E083E3FFFFF7F15
:10054000E3FF5C220E4C220C5FE37873E3FD336320
:10055000471E232E0FE1FC01E3E001E1C00780709C
:1005600008001808000C107F0630E3867FE3FFE7E1
:10057000C1E788001118180000000000000000000A
:100580005545545545545545547FC7FC4044044097
:1005900044047DC7DC0500500500500F1C5009B60F
:1005A000D818E3881780C81C007831FF9878E71EB8
:1005B0004C4233C40061FE7C7FAB0055FFFFFF1847
:1005C0001800000000000000000055455455455437
:1005D0005545547FC7FC4044044044047DC7DC05B6
:1005E00000500500500F1C5009B6D818EB8817941E
:1005F000C81C2678326B187689DE44DE43C5D25992
:10060000CD134D892061FFFFFF18180000003FFF48
:10061000F8200008230188230188303818287C2816
:1006200028102830001823FF8822AA8823FF88205A
:1006300000083F83F800920000920004924002926A
:1006400080019300FC927E948252F783DE90001228
:10065000FFFFFE18180000003FFFF821550823FF98
:100660008823018836BAD82A44A82A44A83644D810
:1006700022BA8823018823EF882139083F83F800B4
:100680009200009200049240029280019300FC923A
:100690007EB4825AFF83FEB0001AFFFFFE181800D6
:1006A0000000000000060FC003F87006301800209C
:1006B0000C0060040042243047741C42241FF804DC
:1006C0003080040180040322240677740C2224184D
:1006D00000042000047FFFFECAAAAB800001C00016
:1006E000037555563FFFFC1818000000000000037A
:1006F000F0600E1FC0180C60300400200600244279
:10070000002EE20C244238201FF820010C2001802A
:100710002444C02EEE602444302000182000047FC2
:10072000FFFED55553800001C000036AAAAE3FFF0B
:10073000FC1818008000039FFF1F8FFF3B8F00FFF6
:1007400087FFFFC7FF1FC7C00FC7FF0FC7FF0FC738
:10075000E00FC7FFFFC7FF1FE7F80FE7F80FE7FC41
:100760001FE7FC7FE7FC7FF7FC7FF7FC7FFFFC3F88
:10077000FFFC3FFFF8FFFFF0FFFFF018180001003B
:10078000FFF9C0FFF1F800F1DCFFE1FFFFE3FF0339
:10079000E3F8FFE3F0FFE3F007E3F0FFE3F0FFE34C
:1007A000FF1FE7F81FE7F03FE7F03FE7F83FE7FEFE
:1007B0003FEFFE3FEFFE3FFFFE3FFFFC1FFFFC0F42
:1007C000FFFF0FFFFF181801FF80011880015A80FA
:1007D00001188001FF80001800001800FF18FF19A1
:1007E0001898F9FF9F191898FF18FF0018000018B3
:1007F000001FFFF8181818181818181818181818C3
:10080000186618184218180018FE007FAA0055181C
:100810001801FF80015A8001FF80015A8001FF808A
:10082000001800001800FF18FF191898FFFFFF19A3
:100830001898FF18FF0018000018001FFFF818187C
:1008400018181818181818181818186618184218B0
:10085000180018FE007FAA0055181800000060005C
:100860000C60001C1CFF700781C00400400CFE607F
:10087000187C3010381810100810000813FFC8102A
:1008800099081FFFF8044A20045B300CD110089926
:10089000901088983198C821104A63186C4008005D
:1008A000000000181800000060000C60001C1CFF15
:1008B000700781C0043C400C006018FF3010001825
:1008C00011FF8810000813FFC81000081FFFF8046C
:1008D0004A20045B300CD110089990108898319808
:1008E000C821104A63186C40080000000018180066
:1008F00000000000000000001E001812003C330041
:10090000662100C2610082419CBBDCB68990E3890C
:1009100090D5A994C1A994C9A990E389D0B6895D5D
:100920009CBB6100822100C23300421200661E009F
:100930003C00001800000018180000000000000033
:1009400000001E001812003C3300662100C2650042
:100950008A459CBBDCB6A994E3ADB4C9ADB4DDADAA
:10096000B4C9AD94E3ADD4B6A95D9CBB65008A2142
:1009700000C23300421200661E003C000018000056
:1009800000181801414007FFE00C003019E79831CA
:10099000428C61C386C00003803C01900009B9FF0E
:1009A000DD91554981FFC1815541FFFFFF419462AF
:1009B0002714341C661818C30C1094841C489C001F
:1009C0006300002200001400000800181802814093
:1009D00006FF600EC3701AFF5832004C63FFC6C298
:1009E00000438200418500A1F8FF1F8518A18218ED
:1009F00041822441FFFFFF4194622714341C761882
:100A000018CB0C11A1841D149C018B000062000006
:100A1000340000080018180000000000000FE7F084
:100A20000824100924100925900824100FE7F0016C
:100A30000080010080010080010080010080010031
:100A4000800100800100800100800FFFF018001C71
:100A5000387E16683C13C800118FFFF1FE007F1826
:100A6000180000000000000FE7F00FE7F00FE7F0BC
:100A70000FE7F00FE7F00FE7F001008001008001C1
:100A800000800100800100800100800100800100E1
:100A9000800100800FFFF018001C39FF9669FF935A
:100AA000C9FF918FFFF1FE007F18180FFFE00901C9
:100AB000200810200FEFE0002800F729DE952952CA
:100AC000DDEF76800002DDEF76952952F729DE0012
:100AD00028000028000028000FABF838AA0E60EEAE
:100AE00002C07C03FC003F800001FC003F807E01CF
:100AF000FFC3FF18180FFFE00A44A00A44A00FEF3D
:100B0000E0002800F729DE952952DDEF768000020B
:100B1000DDEF76952952F729DE0028000028000035
:100B200028000FABF838AA0E60EE42D27C6BB401FD
:100B30002BA579ADA500B5A17E17FFC3FF18180F2F
:100B4000FFE00AAAA00FFFE00A00A00E44E00A009E
:100B5000A00FFFE038003840000481C7024145047F
:100B600039453811451021C7084000044038042099
:100B700028081028100DFF601155102155083FFF5F
:100B8000F801830001830018180FFFE00AAAA00FE4
:100B9000FFE00A00A00EFEE00A00A00FFFE039CE41
:100BA000384231048C48C242310439CE38108410A6
:100BB0002132484249244249242132481084100EEF
:100BC00078E01084102102083FFFF80183000183C0
:100BD00000181800000001FFC0010040017740012B
:100BE0005540010040011C4001004001AAC00155D0
:100BF0004001004001004001FFC0013E40011C4097
:100C0000011C4001084001004001FFC001FFC0007D
:100C100041000041000041000041001818000000A0
:100C200001FFC001FFC001414001414001224001DC
:100C3000144001084001144001224001414001805C
:100C4000C001FFC001084001FFC001004001004099
:100C500001004001FFC001FFC00041000041000051
:100C6000410000410018181FFFF82400242A0054F6
:100C70002418242018042000043FFFFC24924C3F39
:100C8000FFFC2000043FFFFC266664266664399959
:100C90009C39999C3FFFFC2000042000043FFFFC8E
:100CA0000480900780F00480900780F00480901802
:100CB000181FFFF82281442381C42281442381C468
:100CC0002281443FFFFC24924C3FFFFC2000043F64
:100CD000FFFC26666426666439999C39999C3FFF1F
:100CE000FC2000042000043FFFFC0480900780F0FB
:100CF0000480900780F004809018183FC7F82854AB
:100D000028385438007C0000420040A5026081046D
:100D1000305A0C19A5B00618400200400124800189
:100D20005A80024240022440011880018180023C26
:100D30004002244001668000A50000A50000A50037
:100D400000E70018183FC7F8285428385438007CAA
:100D50000000420640810C6081183042101DA5A0A1
:100D600006184002004001348001A5800242400282
:100D70002440010080018180023C40022440016641
:100D80008000A50000A50000A50000E700181800DD
:100D90000000000000007FE001C030030C08063BAB
:100DA00084046066044032E4C01AA8860BE98F0907
:100DB0004909094D080945081B450C726507C225FC
:100DC00000062580047DE018CE3FE080003F8000D3
:100DD00001800007FFFFFC1818000000000000075A
:100DE000FE000C03801030C021DC606606204C023F
:100DF00020580327D0611590F1979090929010B2EF
:100E0000D810A24E30A243E0A66000A42001A4188E
:100E100007BE07FC73FC0001800001E000013FFFFA
:100E2000FF181801C1C001414000E3800022000307
:100E300022600322601F227C13226413FFE41F55EB
:100E40007C0355601F557C1555541BFFEC15FFD4D2
:100E50001FE3FC03E1E007C1F00F80F01F00F81F63
:100E6000007C3E003C38003E200002181801C1C042
:100E700001C1C000E3800022000322600322601F42
:100E8000227C1F227C1FFFFC1FFFFC03FFE01FFFD3
:100E9000FC1FFFFC1BFFEC1FFFFC1E633C03E1E09B
:100EA00007C1F00F80F01F00F81F007C3E003C38A7
:100EB000003E20000218181E00F0120090210108C8
:100EC0002D01682D01682D016821390821C70820EE
:100ED00000082F01E824824824824827C7C8200040
:100EE000082000181FFFE070921CDC92768693C3E6
:100EF000E39307801001E00007803801FFC7FF1867
:100F0000181E00F01200902101082D01682D0168C3
:100F10002D016821390821C708241048249048244D
:100F200092482492482492482402082000181FFF67
:100F3000E070921CDC92768693C3B3930D981031C7
:100F4000880021803801FFC7FF181802004266435D
:100F5000253581A81100AC2A00542AE7543EA57C0F
:100F600022FF442295442295443F81FC30280C1EE8
:100F7000287803A9C000FF80008080009C8001A227
:100F8000C002A2A004A2907FA2FEA8221580220186
:100F9000FFE3FF18180200426643253581A81100BF
:100FA000AC2A00542AE7543EE77C32FF4C2AC35453
:100FB00026E7643F99FC30380C1E6C7803C7C000EC
:100FC000FF80008080009C8001A2C002A2A004A239
:100FD000907FA2FEA82215802201FFE3FF181800CF
:100FE00000003FFFFC2000042FE7F42000043FFF37
:100FF000FC0018000018000FFFF018001830000C5B
:1010000070000E7F81FE44422247C3E24442227FA9
:1010100081FE403C0660421C387E700FC3C0007EDB
:1010200000004200003C00181801CE00014A0001F7
:10103000CE0000840000840000840000FE0001D780
:10104000000155000155000155000FFFE010001090
:101050000FFFE00400400C2860181030102810101A
:10106000001010001035015822008825014820008A
:1010700008181801CE00014A0001CE0000840000CB
:10108000840000840000FE000183000129000101AA
:10109000000101000FFFE01000100FFFE00400400E
:1010A0000C28601810301028101000101028103074
:1010B00010182028082000083FFFF8181800240006
:1010C0000018000018000018000018001FFFF8109A
:1010D00018081718E81018081000081FFFF80080FB
:1010E000800080800080800080800080800081C03F
:1010F0000083F01F869811CC8C3378C426304624A8
:1011000050C324D8C118180024000018000018008B
:101110000018000018001FFFF8155AA81FFFF81547
:101120005AA8155AA81FFFF8008080008080008010
:10113000800080800080800081C00083F01F86983E
:1011400011CC8C3378C42630462450C324D8C1181F
:10115000180FFFFE0AAAAA0FFFFE0AB1AA0FF5FE9A
:101160000AB1AA0FFFFE0AAAAA0FFFFE0A000A0E82
:101170007FCE0A6ACA0E5F4E0A71CA0E514E0A71BC
:10118000CA0E514E0A71CA0E000E0BFFFA0D5556CB
:101190000FFFFE01209001209018180FFFFE0AAAF1
:1011A000AA0FFFFE0ABFAA0FFFFE0ABFAA0FFFFE8B
:1011B0000AAAAA0FFFFE0AAAAA0FFFFE0AAAAA0FEE
:1011C000FFFE0AAAAA0FFFFE0AAAAA0FFFFE0AAA9A
:1011D000AA0FFFFE0AAAAA0FFFFE0FFFFE01209032
:1011E000012090181810780077C1B8C40E0881FB50
:1011F0000C2309C4260FE62400302440986CE1C873
:1012000048408D480005481F0D2C31882460C807D0
:10121000001841FFE258000E4C007843FFC26800FE
:10122000060C78FC07CF80000000000000181810A2
:10123000780077C1B8C40E0881FB0C2301C42600D6
:10124000E62418302430186C058848A48D48ACC5B5
:1012500048C00D2C5D0824070807001841FFE2581C
:10126000000E4C007843FFC26800060C78FC07CFE4
:10127000800000000000001818003C0003E7800414
:1012800000E008033019C1D813000C20630431F7C3
:101290008410000411000411000419FC680C01C83A
:1012A0000780182083F63282181FEFE614823C7400
:1012B000830844910E409B703C9BDC67BB67446194
:1012C000B11818003C0003E7800400E00800301863
:1012D000901810910C21A10431A6241CBCE417D94C
:1012E00084106F44183FC80C180807B01820A3F6E4
:1012F00032B2181FFFE614923C74930844910E40DA
:101300009B703C9BDC67BB674461B10808007E5A58
:101310007E3C1800000808002070202020000008F3
:1013200008A1A5A5A5A5A585850808FEAAFEAAFE73
:10133000AAFE0008081020408000010204080800EE
:101340004020181804020008088181818181818170
:10135000810808FF818181818181FF080800244282
:101360000810422400080800420018180042000833
:101370000808484A4A4A4A0A080808BD66E799998F
:10138000E766BD0808050205005020500008080067
:10139000022000000240000808000444555555553D
:1013A0005508083C26DBA5AD93443C080800000422
:1013B00000000000000808000020000000080008ED
:1013C0000800000000000000000808BD0081999995
:1013D0008100BD08081010100F10E0101008080060
:1013E0002814081422440008080814224108142272
:1013F000410808C3FF42424242FFC308087E547CB2
:10140000107C10284408083E343C101C10101808AA
:1014100008FC7C7C107C10284408087C2C3C083894
:1014200008081808087E547C107C10282008087EC4
:10143000547C107C10280808083E343C103050289A
:101440004408083E343C14181018140808FC7C7C2E
:10145000107C1028200808FC7C7C107C10280808D0
:10146000087C2C3C080C0A142208087C2C3C281808
:101470000818284F7569004E6F6E004675747572B6
:101480006F6D6F6E20310046757475726F6D6F6E83
:1014900020320046757475726F6D6F6E2033004692
:1014A000757475726F6D6F6E203400477269666671
:1014B000650043686172676500466575780043683A
:1014C000616E676500436170747572650045617592
:1014D00000506C616E746500746572726500456CD5
:1014E0006563747269717565004D6F6E2065717505
:1014F0006970650046757475726F6465780043683D
:10150000616E67652067616D650003030705070568
:101510000405050405030603020702020102020393
:10152000020E090E0E0D0E0E0F0E0705070503071E
:10153000050F05070507060701020502000702025D
:10154000070002070200020702000706030607075A
:101550000202050502010202040200050202050062
:101560000607050507050203020206020000000047
:101570000B00030003070507040701050205070721
:101580000400030000070505070005000502070227
:10159000000C000202020004000402010705070516
:1015A00007040107040507020302070407010706F1
:1015B00006010107070707030307000500000D00E8
:1015C0000205000505050005020107030F090306D2
:1015D00003060707020205050707020707050703B9
:1015E00001070506070207050705040403070205AE
:1015F0000704040703070701060705070703030796
:101600000503070306040701010701070407030494
:101610000307060705020501060101070400070587
:101620000102040507000201020808080003000681
:10163000030607070202050507050207070507035A
:10164000010705060702070507050404030702054D
:101650000704040703070701060705070703030735
:101660000503070306040701010701070407030434
:101670000307060705020501060101070402070525
:1016800000070005070206020307050703053F21BF
:101690003F1208120A100A0E1C0E0C1E0C141A140B
:1016A000161F161E131E1E1B1E1E1F1E3F213F3A15
:1016B0002F3A173D173F213F181F02040A041F0E3F
:1016C00004040E1F0A1F0A0E0E1F04110E2E252ED3
:1016D0002F2A2E262929021F02081F08150E04048E
:1016E0000E150E15151B151B040604040C04000032
:1016F000000017000300031F0A1F16371A190413EE
:101700000A153A000300000E11110E000A040A0423
:101710000E040030000404040010001804031F111C
:101720001F121F101D151711151F07041F17151D58
:101730001F151D01011F1F151F17151F000A00008F
:101740003200040A110A0A0A110A040115020E11D4
:10175000171E051E1F150A0E110A1F110E1F151147
:101760001F05010E111D1F041F111F1108100F1F4F
:10177000041B1F10101F061F1E040F0E110E1F0941
:10178000060E112E1F051A121509011F011F101F29
:101790000F180F1F0C1F1B041B031C03191513002C
:1017A0001F11030418111F00020102202020000154
:1017B000020C121E1F120C0C12120C121F0C1A1407
:1017C000041E05242A1E1F021C141D1020201D1F8C
:1017D0000814111F101E041E1E021C0C120C3E0ABF
:1017E000040C123E1E040214160A020F120E101EE2
:1017F0000E100E1E081E120C1226281E322A260457
:101800001E21001F00211E040102013F213F050788
:101810007F4141417F3E5B4F5B3E3E6B4F6B3E18CD
:101820003C783C18183C7E3C181C577D571C1C5EAD
:101830007F5E1C007E43437E007E73737E007E7F4E
:101840007F7E7F4141417F30483A060E0629792943
:10185000067F4141417F60703F02042A1C361C2AEA
:101860007F3E1C080000081C3E7F14227F22143C8F
:101870003C3C7EFF18423C817E3E6375633E3E6188
:101880006B633E3E636B6B3E04027F020410207F5D
:10189000201008082A1C08081C2A0808143E554174
:1018A00022637569756310181C1810040C1C0C0455
:1018B000000000000000005F0000000700070014A7
:1018C0007F147F14042A7F2A102313086462364988
:1018D0005620500008070300001C2241000041224E
:1018E0001C002A1C3E1C2A08083E080800E0600074
:1018F0000008080808080060600000601008040381
:101900003E5149453E00427F4000625149494621CF
:1019100041494D331814127F1027454545393C4A3B
:101920004949304121110907364949493606494993
:10193000291E0000240000008064000008142241D9
:101940000014141414140041221408020159090649
:101950003E415D594E7C1211127C7F494949363E09
:10196000414141227F4141221C7F494949417F0930
:101970000909013E414151327F0808087F00417F3B
:1019800041002041413F017F081422417F404040F7
:10199000407F020C027F7F0204087F3E4141413EAE
:1019A0007F090909063E416141BE7F091929462682
:1019B0004949493201017F01013F4040403F1F201A
:1019C00040201F3F4038403F6314081463030478ED
:1019D00004036151494543007F414100030408105D
:1019E000600041417F000402010204808080808009
:1019F000000307080020545478407F2844443838B6
:101A000044444428384444287F3854545418087EA9
:101A100009090218A4A49C787F0804047800447D76
:101A20004000006080847D7F1010284400417F408A
:101A3000007C047804787C080404783844444438F2
:101A4000FC1824241818242418FC7C080404080812
:101A500054545420043F4444203C4040207C1C20EB
:101A600040201C3C4020403C44281028444C90908E
:101A7000907C4464544C44000836410000007F00D0
:101A8000000041360800180408100C7F4141417FD6
:101A90000A4E6F2053442063617264206F720A6E95
:101AA0006F204C4F414445522E4845580A0A153A7A
:101AB00045786974001D20466C617368696E670A19
:101AC00020206C6F616465722E2E2E0A0A444F4EE0
:101AD0002754205455524E204F464621006D560A39
:101AE0000A504C454153450A5455524E204F4646E4
:101AF000004C4F5720424154544552590A00177325
:101B000061766500166261636B001574797065001B
:101B10000A0A0A153A6F6B617920163A656469748E
:101B200000596F7520656E74657265640A00540A09
:101B300003E181867F3E186D830F0F0E018386605F
:101B400033186DC3198F1803C38E6033186DE330DB
:101B5000CF1803C39E603630CDE360CF3006C79EFA
:101B60007E3E30CDB360CF300CC6F6603330D9B690
:101B700060CF33CFCCF66061B0DB1E60CF30D86C65
:101B8000E6C061B0DB1E618F19986CC6C063B19B63
:101B90000E330F0FB078C6FF7E1F1B061E0F1753A4
:101BA0004400161378001613140015102000152099
:101BB00010000000050089300802380249786814D6
:101BC00000004500680100000500680138010000C0
:101BD0000500380168010000F6E8DBCFC3B8AEA409
:101BE0009B928A827B746E68625C57524E49454173
:101BF0003E3A3734312E2C29272523211F1D1C1A4C
:101C00001917161514131211100F0E0D0C0B0A09CB
:101C1000080706171C1B1C0101F7030101FF030045
:101C2000000000240027002A0000000000250028F2
:101C3000002B0000000000230026002900040404FB
:101C40000404040404020202020202030303030365
:101C50000301020408102040800102040810200142
:101C60000204081020000000070002010000030425
:101C700006000000000000000000EB0F11241FBE52
:101C8000CFEFD8E0DEBFCDBF11E0A0E0B1E0E6E6E7
:101C9000F9E702C005900D92AC37B107D9F715E00E
:101CA000ACE7B1E001C01D92A636B107E1F71CE137
:101CB000CCE7DCE104C02297FE010E94153CCA3744
:101CC000D107C9F70E94FB370C94B13C0C9400007B
:101CD000FC01148A8FEF868B0895FC01658B0895B3
:101CE000FC0185890895FC0190E0808118160CF4B0
:101CF00091E0892F0895FC01668B0895FC01868987
:101D000008952FEFFC01268B0895FC0195816481D5
:101D100084E6989FC001112470E00E94C33B862F87
:101D20000895E82FF0E0EB31F10508F0DBC0EC5C42
:101D3000FF4FEE0FFF1F0590F491E02D09946623ED
:101D400009F0D1C023E034E0D0C0662319F427E9BC
:101D500034E0CBC02DE434E0C8C0662319F42BE294
:101D600035E0C3C021EE34E0C0C0662319F42FEB88
:101D700035E0BBC025E735E0B8C0662319F423E59C
:101D800036E0B3C029E036E0B0C0662319F427EE90
:101D900036E0ABC02DE936E0A8C0662319F42BE786
:101DA00037E0A3C021E337E0A0C0662319F42FE099
:101DB00038E09BC025EC37E098C0662319F423EA8D
:101DC00038E093C029E538E090C0662319F427E392
:101DD00039E08BC02DEE38E088C0662319F42BEC77
:101DE00039E083C021E839E080C0662319F42FE58B
:101DF0003AE07BC025E13AE078C0662319F423EF8E
:101E00003AE073C029EA3AE070C0662319F427E883
:101E10003BE06BC02DE33BE068C0662319F42BE187
:101E20003CE063C021ED3BE060C0662319F42FEA7B
:101E30003CE05BC025E63CE058C0662319F423E48F
:101E40003DE053C029EF3CE050C0662329F12DE866
:101E50003DE04BC0662319F42BE63EE046C021E28C
:101E60003EE043C0662319F42FEF3EE03EC025EB71
:101E70003EE03BC0662319F423E93FE036C029E485
:101E80003FE033C0662319F427E230E12EC02DED88
:101E90003FE02BC0662319F427ED3DE026C021E783
:101EA00030E123C0662319F425E031E11EC02BEB9D
:101EB00030E11BC0662319F429E931E116C02FE493
:101EC00031E113C0662319F42DE232E10EC023EE96
:101ED00031E10BC0662319F421EC32E106C027E79B
:101EE00032E103C0089529EB33E0C901089582303F
:101EF00079F0833028F48823A9F0813091F405C06B
:101F0000833049F0843069F409C024E433E00CC024
:101F10002EE433E009C028E533E006C022E633E0D2
:101F200003C008952AE333E0C9010895823079F0AF
:101F3000833028F48823A9F0813091F405C08330E0
:101F400049F0843069F409C020E631E00CC025E690
:101F500031E009C02AE631E006C02FE631E003C0D7
:101F600008952BE531E0C90108951F93182F862F9E
:101F70000E94960FFC01E10FF11DE0818E2F83502E
:101F8000863010F080E006C0F0E0ED5CFC4F808110
:101F9000811181E01F9108951F93FC0145811081FB
:101FA000212F332727FD3095C901841B91090E94F9
:101FB000C33B640F658370E0621773070CF41583ED
:101FC0001F910895689FC001112464E670E00E948B
:101FD000C33B862F08951092CD011092CC0188E763
:101FE00091E09093CB018093CA010895EF920F93F3
:101FF0001F93CF93DF9300914C0310914D03809179
:10200000540390915503081B190B20914E033091F6
:102010004F034091560350915703C80140968536AF
:10202000910570F5E901C41BD50B8FEFC03FD807B0
:102030003CF1C133D10524F5E09158038091590357
:10204000882379F02E2F220FE22FEC5F8091EC0194
:102050009091ED0168E070E00E94C33B04970CF0A2
:10206000EF5FF0E0EE0FFF1FE55CFE4F2081318156
:102070008AEC91E0602F4C2F00E0EE240E94312981
:10208000DF91CF911F910F91EF90089562E370E07F
:1020900080E090E024EF31E040E050E00E94413ADF
:1020A00070935B0360935A030895AF92BF92DF92DF
:1020B000EF92FF920F931F93DF93CF930F92CDB7C1
:1020C000DEB7809105029091060201969093060278
:1020D0008093050260E070E080E090E026E030E070
:1020E00040E050E00E94413A60934702F62EFF0C18
:1020F000FF0C0CE412E0580163E0D62EDF0C60E028
:1021000070E080E090E024E030E040E050E00E94A9
:10211000413A6295660F660F607C6D0DF501608334
:1021200060E070E080E090E024E030E040E050E0EB
:102130000E94413A80EF90E0A80EB91E6295660FAA
:10214000660F607C6D0DF501608381E19FEFA80E45
:10215000B91E9CE5A91692E0B90689F660E070E028
:1021600080E090E024E030E040E050E00E94413A1E
:102170006295660F660F607C6D0DF801608360E00C
:1021800070E080E090E024E030E040E050E00E9429
:10219000413A6295660F660F607C6D0DF8016787A6
:1021A000005F1F4FF3E00C341F07C1F660E070E0E2
:1021B00080E090E022E030E040E050E00E94413AD0
:1021C000E62EEF0C51E0A52EB12C29C089818C3070
:1021D00008F045C091E0F91609F441C0EEE0FE16A2
:1021E000F1F160E070E080E090E025E030E040E078
:1021F00050E00E94413A611571058105910579F51C
:10220000F801D082F394005F1F4FFFE0FF16F1F654
:102210000894A11CB11C8FE0A816B10449F08501F7
:10222000045A1D4FFF24F3949A2D92509983CECFD8
:1022300082E08093CC028093DB0282E4809354029C
:10224000809344030E9446100F90CF91DF911F911D
:102250000F91FF90EF90DF90BF90AF90089560E0F6
:1022600070E080E090E024E030E040E050E00E9448
:10227000413A6295660F660F607C6E0DF8016083CF
:10228000C1CF282F30E040E050E061E070E080E016
:1022900090E00E94413A862F08958F929F92AF92CC
:1022A000BF92CF92DF92EF92FF920F931F93DF9333
:1022B000CF93CDB7DEB7E8A0F9A00D891B89BF8801
:1022C000AE88998C8A8CCB8CDC8C809102029091A8
:1022D00003026EA10E944C24FC01F28AE18A018370
:1022E0000683108314831583B382B086A282A782EB
:1022F000918692868386D586C486CF91DF911F9181
:102300000F91FF90EF90DF90CF90BF90AF909F9094
:102310008F9008950F931F93CF93DF93809159036C
:10232000882309F44EC080914C0390914D03409155
:1023300050035091510373E0440F551F7A95E1F714
:102340008417950759F08417950714F4019601C076
:10235000019790934D0380934C031AC080914E03D4
:1023600090914F03209152033091530363E0220F69
:10237000331F6A95E1F78217930751F0821793078D
:1023800014F4019601C0019790934F0380934E037C
:10239000809152039091530323E0880F991F2A954F
:1023A000E1F720914E0330914F032817390749F484
:1023B00080914C0390914D038417950711F410926E
:1023C000590380915903882309F0F0C0C09150034C
:1023D000D0915103009152031091530386E891E08C
:1023E00062E044E00E948D25882381F080915003B3
:1023F00090915103419660E170E00E94C33B90933D
:1024000051038093500381E08093580386E891E064
:1024100060E044E00E948D25882381F08091500384
:10242000909151030F9660E170E00E94C33B90933E
:1024300051038093500383E08093580386E891E032
:1024400063E044E00E948D25882379F08091520357
:1024500090915303419660E170E00E94C33B9093DA
:102460005303809352031092580386E891E061E091
:1024700044E00E948D25882381F080915203909141
:1024800053030F9660E170E00E94C33B90935303A7
:102490008093520382E08093580380915203E0912D
:1024A0005003F0E094E0EE0FFF1F9A95E1F7E80F7C
:1024B000F11DE45BFD4FE081EF738E2F90E00196FC
:1024C00083709070892BA9F4D0935103C09350036B
:1024D0001093530300935203EC2FF0E0B4E0EE0F9F
:1024E000FF1FBA95E1F7E00FF11DE45BFD4FE081BE
:1024F000EF738091500390915103C817D90741F4AD
:1025000080915203909153030817190709F44EC0A4
:1025100081E0809359038E2F90E002968370907033
:10252000892B09F043C00E9455108091500390916F
:102530005103009739F48FE090E09093510380931A
:1025400050031AC00F9729F41092510310925003B0
:1025500013C08091520390915303009739F48FE098
:1025600090E0909353038093520306C00F9721F499
:102570001092530310925203809150039091510393
:10258000A3E0880F991FAA95E1F790934D038093DC
:102590004C038091520390915303F3E0880F991FED
:1025A000FA95E1F790934F0380934E0320915A03DD
:1025B00030915B03442737FD4095542F60E070E075
:1025C00080E090E00E94413A611571058105910516
:1025D00029F40E94461010925C0367C020915A03B0
:1025E00030915B03220F331F442737FD4095542F52
:1025F00060E070E080E090E00E94413A6115710572
:102600008105910529F58CE791E06EE970E04CE3D6
:102610000E94482C00E013C08091020290910302B6
:10262000602F0E944C24EC018091020290910302E1
:10263000602F0E944C24FC01848188830F5F80916D
:102640000202909103020E946224081728F338C006
:1026500080915A0390915B039C01220F331F280F36
:10266000391F442737FD4095542F60E070E080E02B
:1026700090E00E94413A6115710581059105B9F418
:10268000E0914702F0E0EF5BFD4F80818230C0F4C3
:1026900081E080935C030E944610E0914702F0E0E5
:1026A000EF5BFD4F80818F5F808380E01DC0809154
:1026B0005A0390915B03019790935B0380935A03B5
:1026C00020914E0330914F032051304080914C03B4
:1026D00090914D03829790935503809354033093C8
:1026E00057032093560381E0DF91CF911F910F9103
:1026F00008958F929F92AF92BF92CF92DF92EF9206
:102700000F93CF93DF93CC24DD248824992443C0F6
:10271000F50100818091540390915503BE01681B1F
:10272000790B4091560350915703CB0108968D3594
:102730009105F0F4C401841B950BAC019FEF483F59
:102740005907B4F0413351059CF4E02FF0E0EF73EA
:10275000F070EE0FFF1FE55FFE4F20813181029583
:102760000695069503708AEC91E0EE240E943129CB
:10277000E0E1F0E0AE0EBF1E2896C038D10541F66C
:102780000894C11CD11C88E090E0880E991E90E14D
:10279000C916D10449F0ECE4AE2EE2E0BE2EAC0C3A
:1027A000BD1CC0E0D0E0B4CF8AEC91E06AE075E1F6
:1027B0000E94E6298AEC91E067EB70E00E943738CE
:1027C00060910502709106028AEC91E04AE050E0C7
:1027D0000E9425398AEC91E060EB70E00E94373866
:1027E00060910702709108028AEC91E04AE050E0A3
:1027F0000E9425398AEC91E06AEA70E00E9437383D
:102800008AEC91E0609124024AE050E00E94533942
:102810008AEC91E06CE876E10E94E629DF91CF91A5
:102820000F91EF90DF90CF90BF90AF909F908F90DF
:1028300008958CE791E00E94152E0E94551064E0E7
:1028400070E080E090E028E030E040E050E00E945E
:10285000413A709351036093500364E070E080E06C
:1028600090E028E030E040E050E00E94413A9B01D7
:1028700070935303609352038091500390915103DE
:1028800043E0880F991F4A95E1F790934D03809399
:102890004C03B3E0220F331FBA95E1F730934F0397
:1028A00020934E03109258031092590384EF91E045
:1028B00090935B0380935A0308958F929F92AF92F7
:1028C000BF92CF92EF920F931F93DF93CF93CDB729
:1028D000DEB767970FB6F894DEBF0FBECDBF8CE7AB
:1028E00091E065ED70E048E20E94482C8CE791E0B1
:1028F0006DEB70E042E00E94192F882309F067C059
:1029000080910202909103020E943C24882309F4E2
:102910003EC08CE791E069EC70E048E20E94482CF0
:10292000A0900202B0900302C50188579E4F0E94FA
:102930005624182F092F8CE791E061EC70E044E0F9
:102940000E94192F682F8DB79EB748970FB6F8943D
:102950009EBF0FBE8DBF4DB75EB74F5F5F4FDA01B1
:10296000212F302FC901FC0187E101900D92815088
:10297000E1F7FA01678BC5010E944D118DB79EB733
:1029800048960FB6F8949EBF0FBE8DBF20C08091B1
:1029900002029091030288579E4F0E945624DE0146
:1029A0001196FC0187E101900D928150E1F7AB8413
:1029B000BC848D849E8480910202909103026A8976
:1029C0004D8129850F81E884CA840E94DA236796A5
:1029D0000FB6F894DEBF0FBECDBFCF91DF911F9130
:1029E0000F91EF90CF90BF90AF909F908F900895F0
:1029F000CF92DF92EF92FF920F931F93DF93CF93CB
:102A000000D0CDB7DEB76C01062FE42E623008F49B
:102A100002E0D6015196EC92519752961C92E02F0B
:102A2000F0E0FA83E983F980FF0C60E070E080E079
:102A300090E02AE030E040E050E00E94413A6F0D23
:102A4000D60111966C93119716966C9360E070E026
:102A500080E090E02AE030E040E050E00E94413A1F
:102A60006F0DF60160836483658360E070E080E051
:102A700090E02AE030E040E050E00E94413A6F0DE3
:102A8000D60113966C93139718966C9360E070E0E0
:102A900080E090E02AE030E040E050E00E94413ADF
:102AA0006F0DF60162836783018729813A81229F36
:102AB000C001239F900D329F900D1124959587950D
:102AC000938782871586148633E03E1540F0C60151
:102AD0006E2D0E946D0ED6011E96EC920BC08E2DAF
:102AE00065E00E94A33B192FC601612F0E946D0E65
:102AF000F60116870F900F90CF91DF911F910F91E4
:102B0000FF90EF90DF90CF9008958F929F92AF92B9
:102B1000BF92CF92DF92EF92FF920F931F930E948A
:102B20008A11882331F00E9479130E94F60F80E009
:102B30009EC080915C03882309F048C060E070E08B
:102B400080E090E02BE130E040E050E00E94413A2C
:102B5000F62E809102029091030288579E4F60E00A
:102B600040E020E000E0EE24CC24AA24BB2488240A
:102B700099240E94DA2380910202909103028857DF
:102B80009E4F60E00E942A24E0910202F09103022D
:102B9000E557FE4F81E08083CF0103970E945624C2
:102BA0008C01E0910502F09106029F013695279570
:102BB000B90180E090E02E0F3F1F40E050E00E94FE
:102BC000413AC8014F2D0E94F81450C0E091020212
:102BD000F0910302E557FE4F1082DD2460E070E0C3
:102BE00080E090E02BE130E040E050E00E94413A8C
:102BF000F62E809102029091030288579E4F60E06A
:102C000040E020E000E0EE24CC24AA24BB24882469
:102C100099240E94DA23809102029091030288573E
:102C20009E4F6D2D0E944C248C01E0910502F09185
:102C300006029F0136952795B90180E090E02E0F9E
:102C40003F1F40E050E00E94413AC8014F2D0E94D2
:102C5000F814D39484E0D81609F68091020290917A
:102C6000030288579E4F60E00E942A2481E01F9152
:102C70000F91FF90EF90DF90CF90BF90AF909F901B
:102C80008F900895FC0161856F5F41890E94F8145F
:102C900008958F929F92AF92BF92CF92EF920F932F
:102CA000109224021092060210920502109208025D
:102CB0001092070210920402809102029091030286
:102CC00060E040E020E000E0EE24CC24AA24BB2415
:102CD000882499240E94DA238091020290910302B1
:102CE00060E00E944C2466E040E00E94F81481E01D
:102CF0008093090280932502809124028F5F809344
:102D00002402809140028F5F809340020E94191438
:102D10000F91EF90CF90BF90AF909F908F900895BC
:102D2000CF92DF92EF92FF921F93DF93CF93CDB7B5
:102D3000DEB7EB8CFC8C1EE1E5E2CE2EE2E0DE2E6F
:102D4000CE0CDF1C8CE791E00E94602E8823D1F32B
:102D5000F6018081882329F08AEC91E06DEE70E025
:102D600004C08AEC91E069EE70E00E9437388E2D45
:102D700061E00E94910E9C01412F41958AEC91E007
:102D80006CE30E94C3281111135086E891E064E0BF
:102D90000E9483258823B1F2CF91DF911F91FF908C
:102DA000EF90DF90CF9008950F931F9310924B02F6
:102DB000E0910202F0910302E557FE4F80818823E3
:102DC00049F08CE791E069E672E04CE30E94482C00
:102DD0001CE305C08CE791E066E572E0F6CF8CE776
:102DE00091E00E94602E8823D1F31F3118F0012F4B
:102DF000025E0AC086E891E064E00E948325882391
:102E0000C9F41123B9F00CE31150809102029091A2
:102E1000030288579E4F0E945624FC01818961E07D
:102E20000E94910E9C018AEC91E0602F40E00E948C
:102E3000C328D5CF1F910F910895CF93DF938AECCC
:102E400091E06CE876E10E94E6298AEC91E068E185
:102E500071E00E94373860910502709106028AEC99
:102E600091E04AE050E00E9425398AEC91E060E16F
:102E700071E00E94373860910702709108028AEC75
:102E800091E04AE050E00E9436398AEC91E069E036
:102E900071E00E9437388AEC91E0609124024AE0A8
:102EA00050E00E9453398AEC91E06DEF70E00E948F
:102EB00037388AEC91E0609140024AE050E00E948D
:102EC0006539C1E0D0E08AEC91E067EF70E00E94E4
:102ED00037388AEC91E0BE014AE050E00E94C339E5
:102EE0008AEC91E065EF70E00E943738FE01E05C0B
:102EF000FD4F8AEC91E060814AE050E00E94653924
:102F00002196C730D105F9F6DF91CF9108952F9220
:102F10003F924F925F926F927F928F929F92AF9269
:102F2000BF92CF92DF92EF92FF920F931F93DF93A6
:102F3000CF93CDB7DEB72EA03E8C8D89498C588CAF
:102F40006D8C7E888B8C9F880C8DA9A0BAA0CF8CAD
:102F5000D8A01EE1E82EFF24E7FCF0948CE791E076
:102F60000E94602E8823D1F3822D61E00E94910E91
:102F70009C01412F41958AEC91E06CE30E94C328AB
:102F8000111113508AEC91E067E471E00E948238DD
:102F90008AEC91E062E471E00E9437388AEC91E0BB
:102FA000632D4AE050E00E9465398AEC91E06DE3C0
:102FB00071E00E9437388AEC91E0B7014AE050E0B6
:102FC0000E94C3398AEC91E06BE371E00E943738CC
:102FD0008AEC91E0642D4AE050E00E9465398AEC69
:102FE00091E066E371E00E9437388AEC91E0652D4C
:102FF0004AE050E00E9453398AEC91E064E371E0CA
:103000000E9437388AEC91E0662D4AE050E00E9439
:1030100065398AEC91E06FE271E00E9437388AEC02
:1030200091E0672D4AE050E00E9453398AEC91E02C
:103030006DE271E00E9437388AEC91E0682D4AE039
:1030400050E00E9465398AEC91E068E271E00E94EC
:1030500037388AEC91E0692D4AE050E00E945339FC
:103060008AEC91E066E271E00E9437388AEC91E0E8
:10307000602F4AE050E00E9465398AEC91E061E2FD
:1030800071E00E9437388AEC91E0B5014AE050E0E7
:103090000E9425398AEC91E06FE171E00E94373897
:1030A0008AEC91E0B6014AE050E00E94363986E8A9
:1030B00091E064E00E948325882309F44FCFCF91EB
:1030C000DF911F910F91FF90EF90DF90CF90BF9015
:1030D000AF909F908F907F906F905F904F903F90B8
:1030E0002F900895CF92DF92EF92FF921F93DF937C
:1030F000CF93CDB7DEB767970FB6F894DEBF0FBE9C
:10310000CDBF10E06E010894C11CD11C8CE791E08A
:103110000E94602E8823D1F301C01F5FE12EFF249F
:10312000F701E75FFD4F8081882319F41B31A8F375
:1031300023C01B3108F5C6010E94680EFB8AEA8A8B
:103140008DB79EB747970FB6F8949EBF0FBE8DBF41
:10315000ADB7BEB71196F60187E101900D9281508F
:10316000E1F70E9490168DB79EB747960FB6F89478
:103170009EBF0FBE8DBF07C08CE791E068E471E091
:1031800048E20E94482C1F5F1B3108F4BFCF80919A
:103190000202909103020E94232467960FB6F894CE
:1031A000DEBF0FBECDBFCF91DF911F91FF90EF909B
:1031B000DF90CF9008951F938091020290910302B7
:1031C00060E00E942A2410E030C08CE791E00E9469
:1031D000602E882351F180910202909103020E9497
:1031E00056242DB73EB7275130400FB6F8943EBF56
:1031F0000FBE2DBFADB7BEB71196FC0187E10190A0
:103200000D928150E1F70E9487171F5F8DB79EB71F
:1032100047960FB6F8949EBF0FBE8DBF80910202F5
:1032200090910302612F0E942A24809102029091C2
:1032300003020E946224181740F28CE791E00E947A
:10324000602E8823D1F30E941D1786E891E064E088
:103250000E948325882389F38091020290910302C2
:103260000E9423241F910895EF92FF920F931F93C2
:10327000CF93DF938C01EB0188818D83F801E1808E
:103280008A81E81AC8010E947E0EF82EC8010E94A9
:10329000700E682F8F2D4E850E94B50F882311F474
:1032A0000E2D05C08E2D0E944111082F0E0DCE014E
:1032B0000E947E0E182FCE010E94700E682F812F63
:1032C0004E850E94B50F882391F0802F07FD8F5FF8
:1032D0008595F02FF81B8F2F0E944111682F802FAA
:1032E000992787FD909570E00E94C33B062F10162A
:1032F0000CF001E08881801B888387FD1882DF91B4
:10330000CF911F910F91FF90EF900895FF920F932F
:103310001F93CF93DF9380910202909103020E944A
:10332000562480910202909103020E945624DC01EF
:1033300013968C910E944111809102029091030298
:1033400088579E4F0E94562480910202909103025A
:1033500088579E4F0E945624FC0183810E94411190
:10336000C0910202D09103028E0108571E4FFF2424
:10337000F394F0925301C557DE4F8881CB58D1406A
:10338000882351F1C8010E945624FC012081332773
:1033900027FD3095432F532F60E070E080E090E0F0
:1033A0000E94413A6115710581059105A9F41092B9
:1033B0005401C8010E945624DC015196ED91FC9104
:1033C0005297EB5DFD4FF082F0924B0280914002EC
:1033D0008F5F809340020EC0C8010E9456248C016A
:1033E000CE010E945624BC01C8010E94341981E01C
:1033F00080935401DF91CF911F910F91FF90089519
:10340000DF92EF92FF920F931F93CF93DF93809100
:103410000202909103020E945624FC01E380FF24E3
:1034200080910202909103020E945624FC01838144
:103430000E944111D82E8091020290910302885778
:103440009E4F0E945624FC01038110E080910202ED
:103450009091030288579E4F0E945624FC0183815D
:103460000E944111ED0CF11C080F111D2091020268
:10347000309103020E151F054CF4C9017C01EC01CB
:10348000C857DE4F81E0809353010AC0C901EC01A7
:10349000F8E8EF2EF1E0FF2EE80EF91E109253012E
:1034A000C7010E9456248C01CE010E945624BC0103
:1034B000C8010E943419CE010E9456240E94730E46
:1034C000882379F0CE010E9456248C01C7010E9406
:1034D0005624BC01C8010E94341981E08093540134
:1034E00002C010925401DF91CF911F910F91FF9074
:1034F000EF90DF900895EF92FF920F93AAECEA2EDF
:10350000A1E0FA2EC70162E040E022E731E00E942C
:10351000C328809102029091030288579E4F0E9417
:1035200056240E94850E6BE20E94E20F282FC701ED
:1035300063E041E006E00E94CF26C70167E240E277
:1035400024ED31E00E94C328809102029091030291
:103550000E9456240E94850E6BE20E94E20F282FE3
:1035600063E5681BC70149E20E94CF260F91FF90D7
:10357000EF9008951F9310E08CE791E00E94602E79
:103580008823D1F30E947B1A80910202909103025A
:1035900088579E4F0E945624FC01818961E00E9459
:1035A000910E9C018AEC91E06CE3412F0E94C328AC
:1035B00080910202909103020E945624FC018189AD
:1035C00060E00E94910E9C018AEC91E062E048E18B
:1035D0000E94C3281150173D79F61F9108951F933B
:1035E00018E18CE791E00E94602E8823D1F30E94BD
:1035F0007B1A809102029091030288579E4F0E948D
:103600005624FC01818961E00E94910E9C018AECA4
:1036100091E06CE340E00E94C32880910202909107
:1036200003020E945624FC01818960E00E94910EF1
:103630009C018AEC91E062E0412F0E94C3281F5F49
:10364000113479F61F9108951F9380910202909191
:10365000030288579E4F0E944424882309F510E0F6
:10366000809102029091030288579E4F612F0E9421
:103670002A24809102029091030288579E4F0E9453
:1036800056240E94730E882359F41F5F8091020212
:103690009091030288579E4F0E946224181700F3EE
:1036A000809102029091030288579E4F0E945624F7
:1036B000DC015196ED91FC915297E75FFD4F8081BF
:1036C0008823B1F4809102029091030288579E4FA3
:1036D0000E945624DC015196ED91FC915297E75FD0
:1036E000FD4F81E08083809124028F5F80932402CC
:1036F0001F910895FF920F931F9380910202909162
:1037000003020E944424882309F061C08CE791E001
:1037100061EC70E044E00E94192F682F8091020252
:10372000909103020E942A24809102029091030248
:103730000E945624FC018081181644F78CE791E022
:103740006CE472E04CE30E94482C1CE3BCE1FB2ECD
:103750008CE791E00E94602E8823D1F31F3118F08E
:103760000F2D011B0AC086E891E064E00E948325CA
:10377000882369F5112359F102E01150809102026A
:103780009091030288579E4F0E945624FC01818924
:1037900061E00E94910E9C018AEC91E06CE340E0B4
:1037A0000E94C32880910202909103020E94562435
:1037B000FC01818960E00E94910E9C018AEC91E0FD
:1037C000602F48E10E94C3280E947B1AC1CF1F913D
:1037D0000F91FF900895CF93DF9380910202909113
:1037E00003020E942D24882329F08CE791E06FE3E7
:1037F00072E004C08CE791E066E372E043E20E946D
:10380000482CC3E2D0E08CE791E00E94602E882330
:10381000D1F321971C161D06B4F3809102029091FA
:1038200003020E9423248091020290910302885790
:103830009E4F0E9423248091020290910302885798
:103840009E4F0E942724DF91CF9108950F931F93DD
:10385000809102029091030288579E4F0E94562445
:103860008C0160E070E080E090E023E030E040E038
:1038700050E00E94413AC8010E947B0E1F910F91B7
:1038800008951F9380910202909103020E94562492
:103890000E94700E0E94770FBC018CE791E045E01A
:1038A0000E94192F182F10924A02833019F0843089
:1038B00059F407C080910202909103020E942324D0
:1038C00015C081E080934A02809102029091030228
:1038D0000E945624612F0E947B0E809102029091DB
:1038E00003020E945624612F0E947B0E1F910895AF
:1038F0008F929F92AF92BF92CF92DF92EF92FF9200
:103900000F931F93CF93DF9314E1A12EB12CEE24DC
:103910008CE791E00E94602E8823D1F3A114B104BA
:1039200009F442C00894A108B108C50163E070E041
:103930000E94C33B892B11F481E0E8268824992456
:10394000FF242BC0C60181709070EE2019F0892BE6
:1039500019F405C0892B19F4209781F002C0209733
:1039600069F48AEC91E06F2D412F24E007E00E947A
:10397000CF268AEC91E061E00E9436260894C11CB3
:10398000D11C195F1936F1F60894811C911C84E052
:10399000F80E8CE3F81609F4BBCFCC24DD2410E03C
:1039A000E401C170D070CECFDF91CF911F910F9104
:1039B000FF90EF90DF90CF90BF90AF909F908F904F
:1039C0000895EF92FF920F931F938823C1F16F31F7
:1039D00008F479C08AEC91E062E00E9436266CEF30
:1039E0007FEF8FEF9FEF24E030E040E050E00E9457
:1039F000413AF62E6CEF7FEF8FEF9FEF24E030E03F
:103A000040E050E00E94413A162F60E070E080E014
:103A100090E024E030E040E050E00E94413A062F80
:103A200060E070E080E090E024E030E040E050E0D2
:103A30000E94413AE62E81E4F80E1B5F37C06F31D9
:103A400008F441C08AEC91E062E00E9436266CEFF7
:103A50007FEF8FEF9FEF24E030E040E050E00E94E6
:103A6000413AF62E6CEF7FEF8FEF9FEF24E030E0CE
:103A700040E050E00E94413A162F60E070E080E0A4
:103A800090E024E030E040E050E00E94413A062F10
:103A900060E070E080E090E024E030E040E050E062
:103AA0000E94413AE62E85E0F80E145E8AEC91E021
:103AB0006F2D412F2FE732E00E9431298AEC91E0EF
:103AC00061E00E9436261F910F91FF90EF900895BC
:103AD000EF92FF920F931F938823C1F16F3108F487
:103AE00079C08AEC91E062E00E9436266CEF7FEFAD
:103AF0008FEF9FEF24E030E040E050E00E94413A39
:103B0000F62E6CEF7FEF8FEF9FEF24E030E040E088
:103B100050E00E94413A162F60E070E080E090E0B3
:103B200024E030E040E050E00E94413A062F60E09F
:103B300070E080E090E024E030E040E050E00E945F
:103B4000413AE62E81E4F80E1B5F37C06F3108F46E
:103B500041C08AEC91E062E00E9436266CEF7FEF74
:103B60008FEF9FEF24E030E040E050E00E94413AC8
:103B7000F62E6CEF7FEF8FEF9FEF24E030E040E018
:103B800050E00E94413A162F60E070E080E090E043
:103B900024E030E040E050E00E94413A062F60E02F
:103BA00070E080E090E024E030E040E050E00E94EF
:103BB000413AE62E85E0F80E145E8AEC91E06F2D16
:103BC000412F21EA32E00E9431298AEC91E061E044
:103BD0000E9436261F910F91FF90EF900895EF926B
:103BE0000F931F93882311F1663280F00DE210E0ED
:103BF000061B1109000F8AEC91E062E00E94362654
:103C000044E1401B8AEC91E0045C32C06F31E8F182
:103C1000162F110F1C538AEC91E062E00E943626A9
:103C200044E1411B8AEC91E01F5B0FC0663278F0E3
:103C3000162F110F1A548AEC91E062E00E9436268A
:103C40004EE1411B8AEC91E01E5F612F12C06F3183
:103C5000E0F005E210E0061B1109000F8AEC91E08C
:103C600062E00E9436264EE1401B8AEC91E00E5F36
:103C7000602F23EC32E000E0EE24E3940E9431292F
:103C80008AEC91E061E00E9436261F910F91EF903F
:103C90000895EF920F93E82E062F862F90E0837001
:103CA0009070892BC1F06CEF7FEF8FEF9FEF24E0D6
:103CB00030E040E050E00E94413A609348026CEFEF
:103CC0007FEF8FEF9FEF24E030E040E050E00E9474
:103CD000413A60934902EE2071F00F3130F18AECE5
:103CE00091E062E00E943626609148026F5B40914D
:103CF00049024B5F0DC00F31C0F08AEC91E062E0E9
:103D00000E943626609148026B5F409149024D5DEA
:103D10008AEC91E025EE32E000E0EE240E943129A9
:103D20008AEC91E061E00E9436260F91EF900895B1
:103D3000DF92EF92FF920F931F938823A1F16F31CF
:103D400008F468C08DE2D82ED61A8AEC91E062E0C1
:103D50000E943626FF2424C0F0FC21C067EF7FEFCD
:103D60008FEF9FEF2AE030E040E050E00E94413AC0
:103D7000162F67EF7FEF8FEF9FEF2AE030E040E0F4
:103D800050E00E94413A462F1F5B465F8AEC91E06B
:103D9000612F27E033E000E0EE240E943129F39404
:103DA000FD14D0F232C06F31A8F10DE2D02ED61A38
:103DB0008AEC91E062E00E943626FF2424C0F0FCE9
:103DC00021C067EF7FEF8FEF9FEF2AE030E040E008
:103DD00050E00E94413A162F67EF7FEF8FEF9FEF81
:103DE0002AE030E040E050E00E94413A462F165F62
:103DF000445E8AEC91E0612F27E033E000E0EE249E
:103E00000E943129F394FD14D0F28AEC91E061E034
:103E10000E9436261F910F91FF90EF90DF9008953A
:103E2000CF92DF92EF920F931F93882359F16F3156
:103E300008F454C09DE2C92ED12CC61AD108CC0C6E
:103E40008AEC91E062E00E9436268CE3C80E8AEC90
:103E500091E06C2D42E02DE033E000E0EE240E9482
:103E600031298AE0C80E8AEC91E06C2D4AE02DE001
:103E700033E00E9431298BEFC80E8AEC91E06C2D63
:103E800044E123C06F3150F1162F110F1A558AECFF
:103E900091E062E00E943626175E8AEC91E0612F85
:103EA0004CE12DE033E000E0EE240E9431291A506D
:103EB0008AEC91E0612F44E22DE033E00E94312949
:103EC0001B5F8AEC91E0612F48E22DE033E00E9415
:103ED00031298AEC91E061E00E9436261F910F9112
:103EE000EF90DF90CF9008951F93882381F06F317A
:103EF00030F11DE2161B8AEC91E062E00E9436264A
:103F00004AE0411B8AEC91E0165C612F0FC06F31D3
:103F1000B0F01DE2161B8AEC91E062E00E943626AA
:103F20006EE1611B1E5E8AEC91E0412F23E133E0DC
:103F30000E94C3288AEC91E061E00E9436261F911E
:103F40000895FF920F931F93182F862F042FF22EA0
:103F50000E94960FFC01E10FF11DE081E330D1F0EA
:103F6000E43028F4E130D9F0E23078F409C0E530EB
:103F7000D9F0E530A0F0E630E1F0E83019F51EC0E8
:103F8000802F6F2D0E94741F1DC0802F6F2D0E94E7
:103F9000981E18C0802F6F2D0E94491E13C0802FBD
:103FA0006F2D0E94101F0EC0802F6F2D0E94EF1DDD
:103FB00009C0802F6F2D0E94681D04C0802F6F2DB7
:103FC0000E94E11C1F910F91FF900895FF920F93A3
:103FD0001F932DE2F22E8CE791E00E94602E882341
:103FE000D1F3809102029091030288579E4F0E9464
:103FF00056240E947E0E082F8091020290910302A7
:1040000088579E4F0E9456240E94700E182F809150
:104010000202909103020E945624FC01802F612F1E
:1040200046850E94B50F882339F08CE791E06FE454
:1040300071E04AE00E94482C8091020290910302B4
:104040000E9456240E947E0E082F809102029091B9
:1040500003020E9456240E94700E182F80910202C3
:104060009091030288579E4F0E945624FC01802F96
:10407000612F46850E94B50F882339F08CE791E0C7
:104080006CE471E04AE00E94482C0E947B1A88E1AF
:104090008F1548F08F2D90E08370907002971CF080
:1040A000E5E0EF1590F080910202909103020E94EA
:1040B0005624FC01818960E00E94910E9C018AECEB
:1040C00091E062E048E10E94C32880910202909151
:1040D000030288579E4F0E945624FC01818961E0AB
:1040E0000E94910E9C018AEC91E06CE340E00E94FA
:1040F000C328809102029091030288579E4F0E942C
:1041000056240E947E0E182F809102029091030285
:1041100088579E4F0E9456240E94700E682F812F50
:1041200040E02F2D0E94A11FFF2061F0809102022C
:10413000909103020E9456246F2D70E00E94CC0FD4
:10414000FA9449CF1F910F91FF900895FF920F931A
:104150001F933DE2F32E8CE791E00E94602E8823AE
:10416000D1F380910202909103020E9456240E9492
:104170007E0E082F80910202909103020E94562425
:104180000E94700E182F80910202909103028857AE
:104190009E4F0E945624FC01802F612F46850E946D
:1041A000B50F882339F08CE791E062E671E04EE1CB
:1041B0000E94482C809102029091030288579E4FE2
:1041C0000E9456240E947E0E082F80910202909138
:1041D000030288579E4F0E9456240E94700E182F8B
:1041E00080910202909103020E945624FC01802FCC
:1041F000612F46850E94B50F882339F08CE791E046
:1042000062E571E04EE10E94482C0E947B1A88E131
:104210008F1548F08F2D90E08370907002971CF0FE
:10422000E5E0EF15A0F0809102029091030288571B
:104230009E4F0E945624FC01818961E00E94910EEC
:104240009C018AEC91E06CE340E00E94C3288091DD
:104250000202909103020E945624FC01818960E0D1
:104260000E94910E9C018AEC91E062E048E10E947C
:10427000C32880910202909103020E9456240E945A
:104280007E0E182F80910202909103020E94562404
:104290000E94700E682F812F41E02F2D0E94A11FD8
:1042A000FF2071F0809102029091030288579E4F87
:1042B0000E9456246F2D70E00E94CC0FFA944BCFD1
:1042C0001F910F91FF90089580915301882349F029
:1042D0000E94A62080915401882359F00E94E61F75
:1042E00008C00E94E61F80915401882311F00E94AB
:1042F000A620809102029091030288579E4F0E944F
:1043000056240E94730E882319F40E94BA1A0CC016
:1043100080910202909103020E9456240E94730E23
:10432000882311F40E94EF1A8091020290910302F7
:104330000E9456240E94810E8091020290910302F5
:1043400088579E4F0E9456240E94810E0895EF9236
:10435000FF920F931F93809102029091030288575E
:104360009E4F0E944424882309F408C180910202D0
:10437000909103020E944424882309F4FFC0809195
:104380004A02882319F40E94001A02C00E9486196A
:104390000E946421809102029091030288579E4FEF
:1043A0000E9456240E94730E882349F480910702CC
:1043B00090910802019690930802809307028091E1
:1043C0004B02882359F180914A02882339F1809168
:1043D00002029091030288579E4F0E9456242DB7E7
:1043E0003EB7275130400FB6F8943EBF0FBE2DBFE9
:1043F000ADB7BEB71196FC0187E101900D928150D7
:10440000E1F70E9487178DB79EB747960FB6F894CD
:104410009EBF0FBE8DBF0E945D1473C080910202CB
:104420009091030288579E4F0E9456240E94730E5B
:10443000882309F066C080910202909103020E94D5
:1044400056240E94730E882309F45BC080910202F7
:10445000909103020E9456248C01FC01E484F584AF
:10446000809102029091030288579E4F0E94562429
:10447000FC01818590E0880F991F8E0D9F1DF8012A
:104480009587848780910202909103020E945624AE
:10449000FC010485158580910202909103020E941F
:1044A0005624FC01828593858017910750F58091F1
:1044B0000202909103020E9456240E9442168091AB
:1044C0000202909103020E9456242DB73EB7275155
:1044D00030400FB6F8943EBF0FBE2DBFADB7BEB78C
:1044E0001196FC0187E101900D928150E1F70E9445
:1044F00087178DB79EB747960FB6F8949EBF0FBE2D
:104500008DBF80914B028823B9F580910202909172
:1045100003020E942D24882379F180910202909158
:10452000030288579E4F0E942D24882329F18091F1
:1045300002029091030288579E4F0E9456240E94C7
:10454000730E882341F480910202909103028857F0
:104550009E4F0E94232480910202909103020E94A8
:1045600056240E94730E882349F480910202909190
:1045700003020E94232402C080E001C081E01F9159
:104580000F91FF90EF9008950E94781C0E94D4161E
:1045900080910202909103020E9423240E94241B16
:1045A0000E947A1B0E94261C0E94411C0E94A72187
:1045B0008823A1F70E94EB1B8091020290910302D5
:1045C0000E942D24882311F080E0089583E6089549
:1045D0008AEC91E06EE078E10E94E6298AEC91E0B5
:1045E00063E973E00E9482380E941D178AEC91E013
:1045F0006BE873E00E9437388AEC91E069E873E079
:104600000E9437388AEC91E06CE773E00E948238B0
:104610008AEC91E06AE773E00E9437388AEC91E017
:104620006CE673E00E94823886E891E064E00E94C4
:104630008325882321F00E94491680E0089586E8AA
:1046400091E066E00E948325882311F483E60895B3
:104650008CE791E00E94E82C80E008958CE791E0DF
:104660000E94602E8823E1F180910402813079F16B
:10467000813018F0833691F52DC00E948515809306
:10468000040286E891E066E00E948325882331F1E8
:104690008CE791E06DE973E043E00E94192F8130CF
:1046A00039F0823041F08823C9F40E94DB1816C02B
:1046B0000E94721813C08CE791E00E94E82C8CE7EE
:1046C00091E063EA73E048E20E94482C07C00E9430
:1046D000C42202C00E94E822809304021092940136
:1046E00008950F931F93CF93DF938CE791E00E947F
:1046F000E3318CE791E06FEA73E00E94DE318CE7F2
:1047000091E00E94152E8CEE91E00E940A388C01F7
:104710000E946524C8018E599F4F0E946524C801DC
:104720008C539F4F0E946524C8018A5D9E4F0E9452
:104730006524C80188579E4F0E9465241093030288
:104740000093020282E690E00E940A38182F092F97
:104750000E946524E0910202F0910302EF01212FF3
:10476000302FC901DC0182E60D9009928150E1F7FA
:10477000E551FE4F81E0808382E690E00E940A3896
:10478000182F092F0E946524E0910202F091030284
:10479000E857FE4F212F302FC901DC0182E60D9032
:1047A00001928150E1F70E944916DF91CF911F914C
:1047B0000F9108958F929F92AF92BF92CF92EF92F6
:1047C0000F93DF93CF93CDB7DEB7DC01522F159651
:1047D0008C911597843068F590E0019627E130E0E0
:1047E000829FF001839FF00D929FF00D112401979D
:1047F000EA0FFB1F60831182829FF001839FF00DFF
:10480000929FF00D1124EA0FFB1F07830487468354
:104810004287438751875687E086E586C786B18AF7
:10482000A08A938A828A15968C9115978F5F159628
:104830008C93CF91DF910F91EF90CF90BF90AF907D
:104840009F908F9008952FEFFC0124830895FC0121
:1048500015820895FC0164830895FC01258190E090
:1048600007C086817796181614F481E008959F5F3B
:104870009217B8F380E0089520E0FC018581843030
:1048800008F021E0822F089520E0FC0184818F3F11
:1048900009F021E0822F089527E1629FB0011124E1
:1048A0006A5F7F4F680F791FCB010895FC01248157
:1048B00087E1289F900111242A5F3F4F2E0F3F1F51
:1048C000C9010895FC0185810895EF92FF920F932D
:1048D0001F938C0106960E94680EC8014D960E9497
:1048E000680E84E3E82EF12CE00EF11EC7010E9451
:1048F000680EC70147960E94680EF80115828FEF77
:1049000084831F910F91FF90EF900895882319F4ED
:104910008CB5806202C08CB58F7D8CBD08959CB52E
:10492000937F982B9CBD08952CB5382F33702C7F26
:10493000322B3CBD2DB590E0959587959595879543
:1049400081702E7F822B8DBD08958AE061E00E94E8
:1049500098378AE061E00E942C378CB580618CBD6D
:104960008CB580648CBD8DE061E00E942C378BE0BB
:1049700061E00E942C370895FC0181E08083089556
:1049800085E070E00E94CC3608956F927F928F92FE
:104990009F92AF92BF92CF92DF92EF92FF920F93CE
:1049A0001F93CF93DF93EC0189819A818C0124E0DE
:1049B000000F111F2A95E1F7081B190B85E10E94D2
:1049C000AA36BC01600F711F84E0769567958A95C1
:1049D000E1F77A8369838881882381F12E813F8181
:1049E0006217730710F4B90106C088859985861788
:1049F000970708F4BC0100D000D080E090E040E0D0
:104A000050E0E884F98400E010E0AD80BB24CC24C1
:104A1000DD246C80772488249924EDB7FEB7618269
:104A20007282838294820E94D6396B830F900F909A
:104A30000F900F9085E070E00E94CC36DF91CF910F
:104A40001F910F91FF90EF90DF90CF90BF90AF90AC
:104A50009F908F907F906F900895FC018CE39FE072
:104A60009383828384E0818381E084870895CF9358
:104A7000DF93EC018C8590E08F719070892B69F544
:104A800084E10E94AA36AA2797FDA095BA2FBC01FF
:104A9000CD010E94953A26EE3FE34EEC50E40E9491
:104AA000213B0E94673A9B01AC017B836A836115BD
:104AB000710589F084E08983B901FE0120E08481D9
:104AC00095816817790710F429830AC02F5F329601
:104AD0002430A9F702C08FEF89838C858F5F8C8784
:104AE000DF91CF910895FC0188E0808389E0818384
:104AF00087E0828386E0838384E0848382E0858309
:104B000081E18683089520E0FC01E60FF11D878195
:104B1000813009F421E0822F0895E62FF0E0423041
:104B200040F420E0E80FF91F878181508E3F88F420
:104B30000FC0E80FF91F87818F3F11F420E009C0F3
:104B400020E090E0642F70E00E94AF3B019709F4F1
:104B500021E0822F08950F931F93CF93DF93EC01F1
:104B600010E00FEF888162E00E942C3788810E945C
:104B7000CB372F81892B19F42F5F2F8307C0222376
:104B800049F02F3F11F41F8201C00F83888160E03C
:104B90000E942C371F5F2196173021F7DF91CF91AC
:104BA0001F910F910895FC01742F643508F05DC0CA
:104BB00047FD5BC040330CF058C0878D823019F53B
:104BC000842F859585958595992787FD9095462F06
:104BD000552747FD509524E530E0829FF001839FE3
:104BE000F00D929FF00D1124E40FF51FE35AFC4FD6
:104BF000808190E0272F277002C0959587952A9590
:104C0000E2F780958170972F959595959595462F0C
:104C1000552747FD5095272F27708823A1F4E4E5F9
:104C20009E02F0011124E40FF51FE35AFC4F81E0CE
:104C300090E002C0880F991F2A95E2F780952081A5
:104C4000282320830895E4E59E02F0011124E40F57
:104C5000F51FE35AFC4F81E090E002C0880F991FD6
:104C60002A95E2F72081282B20830895FC01678F85
:104C700060A30895FC01678F40A30895AF92BF928F
:104C8000CF92DF92EF92FF920F931F93CF93DF9318
:104C9000EC01162FF42EE22EAA24402F552747FDB3
:104CA00050958F2D992787FD9095481B590B57FFDD
:104CB00003C0509541955F4F2E2D332727FD30952A
:104CC000812F992787FD9095281B390B37FF03C04B
:104CD000309521953F4F2417350744F4AA24A39417
:104CE0008F2DF12E182F802F0E2DE82EE11634F483
:104CF0008E2DE12E182F802F0F2DF82EDE2CD11A9D
:104D0000202F332727FD30958F2D992787FD9095EC
:104D1000281B390B37FF03C0309521953F4FB22E2A
:104D2000F0161CF0CC24CA9402C0CC24C3948D2D60
:104D3000D7FC8F5F082F059511C0AA2021F0CE0166
:104D40006F2D412F03C0CE01612F4F2D0E94D3251F
:104D50000B1907FF02C0FC0C0D0D1F5FE1166CF76D
:104D6000DF91CF911F910F91FF90EF90DF90CF9047
:104D7000BF90AF9008950F93042F322F262F21500C
:104D8000230F0E943E260F9108950F93362F042F74
:104D90000150020F232F0E943E260F9108959F92EB
:104DA000AF92BF92CF92DF92EF92FF920F931F9339
:104DB000CF93DF936C01B62E942EA02EC0E0D0E0EE
:104DC000E62EFF24E7FCF094022F112707FD109533
:104DD0000E0D1F1D06C0C601492D2A2D0E94C52695
:104DE00021966B2D6C0FCE018E0D9F1D80179107A4
:104DF00094F3DF91CF911F910F91FF90EF90DF908F
:104E0000CF90BF90AF909F9008952F923F925F9266
:104E10006F927F928F929F92AF92BF92CF92DF92CA
:104E2000EF92FF920F931F93DF93CF9300D000D0A8
:104E300000D0CDB7DEB79E838D83C62ED42EEE2450
:104E4000E394E21A8EEF289F502C1124842E8A942A
:104E5000962E9A94A42EA394B62EB394F22E662482
:104E600023E0722E10E0C801847090709A838983C9
:104E7000F801E270F070FC83EB8398E0292E312C6E
:104E8000202231220170107054C0E7FC04C0FA9453
:104E9000F2E05F0EE50C639489819A81892B71F0B1
:104EA0004F2D4D0D8D819E816B2D0E94D3256F2D31
:104EB0006C0D8D819E814A2D0E94D325EB81FC8152
:104EC000EF2B71F04D2D4F198D819E816B2D0E941E
:104ED000D3256F2D6C0D8D819E81482D0E94D32589
:104EE0002114310471F06C2D6F198D819E814A2D32
:104EF0000E94D3254F2D4D0D8D819E81692D0E94DD
:104F0000D3250115110571F06C2D6F198D819E81CE
:104F1000482D0E94D3254D2D4F198D819E81692DDD
:104F20000E94D325E70CF2E07F0E8A949A94A39412
:104F3000B3946F140CF4A9CF26960FB6F894DEBF85
:104F40000FBECDBFCF91DF911F910F91FF90EF90DA
:104F5000DF90CF90BF90AF909F908F907F906F9099
:104F60005F903F902F9008954F925F926F927F9243
:104F70008F929F92AF92BF92CF92DF92EF92FF9269
:104F80000F931F93CF93DF93EC01A62E742E9E2DCB
:104F9000FF24F394F21A8EEF289F802C1124B42E54
:104FA000BA9453E0C52ECE0CE22EDD2443E0942EBD
:104FB00010E031E0432E512C40225122692E63949F
:104FC0000270107034C0F7FC04C0EA9482E0880ECE
:104FD000F80CD3944114510489F06D2D6A0D472DBE
:104FE0004E192E2D220F260DCE010E94C5266E2DA4
:104FF0006A0DCE014B2D2C2D0E94C52601151105E1
:1050000089F06A2D6D19472D4E192E2D220F260D70
:10501000CE010E94C5266A2D6E19CE014B2D2C2D76
:105020000E94C526F90C82E0980EBA94C80EDE14D0
:1050300054F2DF91CF911F910F91FF90EF90DF908D
:10504000CF90BF90AF909F908F907F906F905F9028
:105050004F9008957F928F929F92AF92BF92CF927E
:10506000DF92EF92FF920F931F936C01962EA42E66
:10507000F22E7E2C760E1EEFE19E102D1124812E35
:10508000820E672D282D0E94BB26B02EBA0CBA9432
:10509000C601672D4B2D282D0E94BB26AE0C100F8C
:1050A000C601692D4A2D212F0E94C526F90CFA94BC
:1050B000C6016F2D4A2D212F0E94C526C601672DDE
:1050C0004A2D2E2D01E00E940527FE18C6016F2DE6
:1050D0004A2D2E2D02E00E940527BE18C6016F2D15
:1050E0004B2D2E2D04E00E940527C601672D4B2D68
:1050F0002E2D08E00E9405271F910F91FF90EF9041
:10510000DF90CF90BF90AF909F908F907F90089549
:105110008F929F92AF92BF92CF92DF92EF92FF92C7
:105120000F931F936C01162FA42E922EF02EBE2CDF
:105130008E2C860E2EEFE29EE02C11242E2D290DB2
:10514000682D0E94CF26AB0CFA94FE0C1150190D5D
:105150001B19C601612F4A2D2B2D01E0EF2C0E9457
:10516000B427C601682D4A2D2B2D02E00E94B427DA
:105170001F910F91FF90EF90DF90CF90BF90AF9075
:105180009F908F9008953F924F925F926F927F927F
:105190008F929F92AF92BF92CF92DF92EF92FF9247
:1051A0000F931F93CF93DF934C01362E442EF901BA
:1051B000A490319654906F010894C11CD11C8A2D83
:1051C000992787FD9095079668E070E00E94C33BA1
:1051D000E62EFF24E7FCF09400E0C0E0D0E060E8B9
:1051E000662E712C26C0E12FE595E595E595FF2704
:1051F000E7FDF095EC0FFD1FEC0DFD1DE4912E2F4A
:1052000030E0812F8770A30102C0559547958A959C
:10521000E2F724233523232B31F0612F630DC401E2
:105220004B2D0E94D3251F5F1A15ECF20F5FCE0D98
:10523000DF1D051524F410E0B02EB40CF5CFDF917E
:10524000CF911F910F91FF90EF90DF90CF90BF9083
:10525000AF909F908F907F906F905F904F903F9016
:1052600008952F923F924F925F926F927F928F920A
:105270009F92AF92BF92CF92DF92EF92FF920F93E5
:105280001F93DF93CF9300D000D00F92CDB7DEB73E
:105290003C01862E4A83F901BE2C002329F4EE201E
:1052A00019F40E94C3287AC0A490319694901F01EB
:1052B0000894211C311C037009838A2D992787FDCE
:1052C0009095079668E070E00E94C33B462E5524F7
:1052D00047FC5094C92CCA94FF241D821C824A2D7D
:1052E00041504B8356C0E02FE595E595E595FF27A6
:1052F000E7FDF0958C819D81E80FF91FE20DF31D0C
:10530000E4912E2F30E0802F8770A0E8B0E002C03B
:10531000B595A7958A95E2F72A233B23232B61F1C4
:10532000B981B13051F0B13028F0B23049F0B3302A
:1053300061F409C0102FEF2C08C0ED2C1F2D05C003
:105340001D2DEC2C02C01C2DE02EBB2069F0E3E0EB
:10535000BE228B2DB0FE03C0FA2DF11B1F2F81FF43
:1053600003C0492D4E19E42E180D5A81E50EC301D4
:10537000612F4E2D0E94D3250F5FDA940A150CF48D
:10538000B2CFF3948C819D81840D951D9D838C8378
:10539000CA94F9141CF4DB8000E0F0CF0F900F905A
:1053A0000F900F900F90CF91DF911F910F91FF9071
:1053B000EF90DF90CF90BF90AF909F908F907F90B5
:1053C0006F905F904F903F902F900895DC01FB010C
:1053D00084918F5F14968C931497319684918F5F8C
:1053E00015968C93159731965E96FC93EE935D9788
:1053F00008953F924F925F926F927F928F929F9209
:10540000AF92BF92CF92DF92EF92FF920F931F93D2
:10541000CF93DF93EC01862EA42E422F102F3F8CCA
:1054200023E526170CF4ABC03FE23A150CF4A7C0F5
:10543000C02EDD248C8190E001979C01C29EC001AA
:10544000C39E900DD29E900D1124262F332727FD49
:105450003095820F931F181619060CF090C08D819D
:1054600090E09C01C29EC001C39E900DD29E900D03
:1054700011242A2D332727FD3095820F931F1816EC
:1054800019060CF07CC09924442E55246DC09C0153
:10549000215030404217530711F460E00EC0429E85
:1054A000C001439E900D529E900D1124840F951FB4
:1054B000ED8DFE8DE80FF91F64914C9DC0014D9D4F
:1054C000900D5C9D900D1124682C680EBB24792CE6
:1054D000780C3FC0E62EFF2460FF19C0113039F46C
:1054E0004B2D4A0DCE01672D0E94D3252EC02C9D39
:1054F000C0012D9D900D3C9D900D11244A2D480F0B
:10550000CE01662D212F012F0E94CF261EC098A10B
:105510008F8D9817D1F09F8F113039F44B2D4A0D94
:10552000CE01672D0E94D3250FC02C9DC0012D9D5B
:10553000900D3C9D900D11244A2D480FCE01662DF3
:10554000212F012F0E94CF263F8EF594E7946E2DD8
:10555000B3942B2D332727FD30958D8190E02817AC
:1055600039070CF4B7CF9394492D552747FD509533
:105570008C8190E0481759070CF489CF3F8EDF915A
:10558000CF911F910F91FF90EF90DF90CF90BF9040
:10559000AF909F908F907F906F905F904F903F90D3
:1055A00008950F93CF93DF93EC01262F6A3049F4CF
:1055B0008D819885899F802D11249A85980F9A87CF
:1055C00026C06D3029F169854A8508850E94F92930
:1055D0009C816885969F402D11248985480F4987B5
:1055E0008F818823A9F0552747FD5095699F900129
:1055F000112484E590E0821B930B8417950744F4F3
:105600009D81699F902D11248A85890F8A8719862B
:1056100081E090E0DF91CF910F9108951F93CF9398
:10562000DF93EC01162FF8948E8560E00E94983786
:105630008F8518161CF460E00E9498371EBD0DB4CB
:1056400007FEFDCF8EB58F8518161CF461E00E9411
:1056500098377894DF91CF911F910895FF920F931F
:105660001F93CF93DF93EC01FF2400E010E06F2D38
:105670006064CE010E940E2BCE0160E80E940E2BCA
:105680008E8561E00E9498378F8518161CF460E0C3
:105690000E949837F801E35AFC4F90E080818EBD5C
:1056A0000DB407FEFDCF8EB59F5F31969435B1F7EF
:1056B0008F8518161CF461E00E949837F3940C5AF9
:1056C0001F4F86E0F81699F6CE0160E40E940E2B7B
:1056D000DF91CF911F910F91FF900895CF93DF93AA
:1056E000DC0188EF91E0EDE5F3E0EF019C01199218
:1056F00021503040E1F719961C9219971A961C9286
:10570000DF91CF910895EF920F93CF93DF93EC0148
:105710004D876C872E87E88A0F8781E088878F8F77
:1057200018A28F83CE016CE876E10E94E6290E94E0
:10573000A52481E00E94862485E00E9494248CE0C8
:105740000E948F248D8561E00E942C378C8561E05A
:105750000E942C378E8561E00E942C3788891816AC
:105760001CF461E00E942C378F8518161CF461E050
:105770000E942C37888918166CF460E00E949837D4
:105780006AE070E080E090E00E944936888961E03C
:105790000E949837EC852E2F332727FD3095F9018D
:1057A000E35CF34EE491F0E0EE0FFF1FE75DF34E94
:1057B000859194919C8B8B8B2F5A334EF901849158
:1057C0008A8FED852E2F332727FD3095F901E35C75
:1057D000F34EE491F0E0EE0FFF1FE75DF34E85918D
:1057E00094919A8B898B2F5A334EF9018491898F2A
:1057F000EF852E2F332727FD3095F901E35CF34E1B
:10580000E491F0E0EE0FFF1FE75DF34E8591949178
:105810009E8B8D8B2F5A334EF90184918B8FEE85A1
:105820002E2F332727FD3095F901E35CF34EE491E9
:10583000F0E0EE0FFF1FE75DF34E85919491988F96
:105840008F8B2F5A334EF90184918C8FCE0161E2F8
:105850000E940E2BCE0164E10E940E2B8B8587FFE8
:1058600002C08FE78B876B856068CE010E940E2B8C
:10587000CE0160E20E940E2BCE016CE00E940E2B46
:10588000CE010E942E2BDF91CF910F91EF900895C2
:10589000FC01ED57FF4F61937193445F408308957E
:1058A000CF93DF93DC01E0E8F7E785919491ED0178
:1058B000C75ADF4FAD0141595F4F8150904C09F0FD
:1058C0004EC0E6E9F7E7E491E883E7E9F7E7E4911A
:1058D0001496EC931497E8E9F7E7E4911596EC93A6
:1058E0001597E9E9F7E78591949117969C938E9324
:1058F0001697EBE9F7E78591949119969C938E930F
:105900001897EDE9F7E7E4919B96EC939B97EEE906
:10591000F7E7E4919A96EC939A97EFE9F7E7E49129
:10592000EA01E883E0EAF7E7859194915D969C931C
:105930008E935C97E2EAF7E7859194915F969C934A
:105940008E935E97E4EAF7E78591949191969C9304
:105950008E939097E6EAF7E78591949132C08CE3B5
:10596000888314961C9214972FEF15962C931597F5
:1059700080E293E017969C938E93169784ED93E0C4
:1059800019969C938E93189781E09B968C939B9786
:105990009A968C939A97FA0120838CEA9DE05D9603
:1059A0009C938E935C978EED9DE05F969C938E9377
:1059B0005E9784E79EE091969C938E9390978CE3FC
:1059C0009FE093969C938E939297DF91CF91089549
:1059D000EF92FF920F931F93CF93DF937C018C0183
:1059E000025B1F4FC8010E946E2BC80165EB7AE174
:1059F0000E943738C8010E942E2B83E00E94942415
:105A000080E091E0EEEFFFE3099584E590E0E80E99
:105A1000F91EF7011082C80160E97AE10E9482381C
:105A2000C8010E942E2BE701CA54D040CE010E942B
:105A3000AB25CE0164E00E948325882339F462E31C
:105A400070E080E090E00E944936F0CFDF91CF9186
:105A50001F910F91FF90EF9008950F931F93CF9395
:105A6000DF93EC018C01025B1F4FC80161E040E055
:105A70000E943A26FE01E95AFF4FCE5ADF4F85E5D4
:105A80009881891B808326961882C855D040698DDD
:105A9000613009F43EC0613028F0888D653008F02F
:105AA00051C04BC0CE0185960E94E832CE0160E025
:105AB0000E94C024C8010E946E2BCA5ADF4F81E0A9
:105AC0008883C655D040C80161EF7AE10E9437381B
:105AD0006A8D7B8DC8014AE050E00E942539C801DB
