:100000000C94D50D0C94FD0D0C94FD0D0C94FD0D70
:100010000C94FD0D0C94FD0D0C94FD0D0C94FD0D38
:100020000C94FD0D0C94FD0D0C94FD0D0C94E22E22
:100030000C94FD0D0C94FD0D0C94FD0D0C94FD0D18
:100040000C94E62F0C94FD0D0C94FD0D0C94FD0DFD
:100050000C94FD0D0C94FD0D0C94FD0D0C94FD0DF8
:100060000C94FD0D0C94FD0D360E3C0E440E4C0E02
:10007000540E5C0E640E6C0E740E7C0E840E8C0E90
:10008000940E9C0EA40EAC0EB40EBC0EC10EC90E86
:10009000D10ED90EE10EE90EF10EF90E010F4D61F0
:1000A0006973207175652021202E2E2E002E567525
:1000B000653A002E4B696C6C3A00417265613A00FA
:1000C0002F005850203A004C764C3A002F004465DF
:1000D000663A002F00466F723A002F005669743A54
:1000E000002F005669653A00003010FFFFFFFFFF48
:1000F000F880000400000880000400000880000070
:10010000000008802000008008802000008008FF98
:10011000FFFFFFFFF8C00000000000C0000000006B
:1001200000C00000000000C00000000000C000008F
:10013000000000C00000000000C00000000000C07F
:100140000000000000C000000000003010000000AF
:100150000000180000000000180000000000180057
:10016000000000001800000000001800000000005F
:100170001800000000001800000000001800000037
:10018000000018FFFFFFFFFFF88008000020088034
:100190000800002008800000000008800001000026
:1001A00008800001000008FFFFFFFFFFF8506572A4
:1001B00064752E2E2E004327657374206761676E69
:1001C000652100C013CC13D613E113456E20617670
:1001D000616E742100556E2073706163656D6F6E82
:1001E0002061747461717565210010100080210018
:1001F000308419828FE44C382812199D19985810B0
:10020000AC3C07E2058518802040108010100000EB
:1002100007E00838186C30C62182630246064C0C91
:100220005838506070C043805E00700000001010AD
:1002300000000E000700038001C0016001200220C1
:10024000043004100810081004200240018000004F
:100250000804406090E008047F00FE0010100000D9
:100260000000000007C01C00301020F063804C002C
:10027000183810E011800300020000000000ED13A8
:10028000F413FB130014ED13F41307140014ED130F
:10029000F4130B140014ED13F41312140014ED13E3
:1002A000F4131814001420746F206D61696E206DB2
:1002B000656E7500170020746F20636F6E74696E31
:1002C00075650015005072657373203A00567565A8
:1002D00020203A004B696C6C203A00417265612025
:1002E0003A0047616D65206F7665720023142D1406
:1002F0004368616E67652067616D6500467574755A
:10030000726F6D6F6E001818000800003400003422
:1003100000006E00006E0001E7800318C006086050
:100320000C083008001818000831E3CC2063046082
:100330006306400002400003C0000180000180000D
:1003400001F8FE1F84E021FCE03FAA0055FFFFFFFB
:100350001818000800003400003400006E00006E21
:100360000001F7800310C00638600C6C3008461896
:1003700018830831118C2118C4612C46412842434E
:100380002843C624518C267D8C6625BCD735A8BB56
:100390001FE8A809880009FFFFFF181800000000E7
:1003A0000C00003C0000E40701041907C4711C3C68
:1003B000C13C1B89700F19C60D328A03268606645C
:1003C000F03444D8564488974689116299F332F044
:1003D0000711C00D997F19D91DF07100001D000093
:1003E000070000031818000000003000003C00E087
:1003F00027009820808E23E0833C3891D83C98F0E9
:100400001E4CB01364C01F26600D2220032267E239
:1004100062EC624688C44CC98488E70C99B0389B6A
:1004200098F08E0F80B80000E00000C0000018189F
:1004300000000000000000FFC007C8F81E083E339F
:10044000FFF377E3FB5C000F4C738D5F73B97300B0
:100450003D3300471E1E2E0F807C01E3E000E1C00B
:1004600007807008001808000C107F0630E3867FB4
:10047000E3FFE7C1E7880011181800000000000042
:1004800000FFC007C8F81E083E3FFFFF7FE3FF5C88
:10049000220E4C220C5FE37873E3FD3363471E2387
:1004A0002E0FE1FC01E3E001E1C0078070080018B5
:1004B00008000C107F0630E3867FE3FFE7C1E78882
:1004C00000111818000000000000000000554554FD
:1004D0005545545545547FC7FC4044044044047D71
:1004E000C7DC0500500500500F1C5009B6D818E3B2
:1004F000881780C81C007831FF9878E71E4C42337B
:10050000C40061FE7C7FAB0055FFFFFF18180000A0
:100510000000000000000055455455455455455411
:100520007FC7FC4044044044047DC7DC05005005FF
:1005300000500F1C5009B6D818EB881794C81C2619
:1005400078326B187689DE44DE43C5D259CD134D1F
:10055000892061FFFFFF18180000003FFFF820000E
:1005600008230188230188303818287C282810287F
:1005700030001823FF8822AA8823FF882000083F24
:1005800083F800920000920004924002928001934E
:1005900000FC927E948252F783DE900012FFFFFEF1
:1005A00018180000003FFFF821550823FF88230199
:1005B0008836BAD82A44A82A44A83644D822BA8809
:1005C00023018823EF882139083F83F80092000037
:1005D0009200049240029280019300FC927EB482C9
:1005E0005AFF83FEB0001AFFFFFE1818000000003B
:1005F0000000060FC003F87006301800200C0060E1
:10060000040042243047741C42241FF80430800444
:100610000180040322240677740C2224180004208D
:1006200000047FFFFECAAAAB800001C0000375551D
:10063000563FFFFC181800000000000003F0600E99
:100640001FC0180C603004002006002442002EE277
:100650000C244238201FF820010C2001802444C0C3
:100660002EEE602444302000182000047FFFFED5C9
:100670005553800001C000036AAAAE3FFFFC181862
:10068000008000039FFF1F8FFF3B8F00FF87FFFF4E
:10069000C7FF1FC7C00FC7FF0FC7FF0FC7E00FC7B8
:1006A000FFFFC7FF1FE7F80FE7F80FE7FC1FE7FCA6
:1006B0007FE7FC7FF7FC7FF7FC7FFFFC3FFFFC3F01
:1006C000FFF8FFFFF0FFFFF01818000100FFF9C06E
:1006D000FFF1F800F1DCFFE1FFFFE3FF03E3F8FFC8
:1006E000E3F0FFE3F007E3F0FFE3F0FFE3FF1FE7D2
:1006F000F81FE7F03FE7F03FE7F83FE7FE3FEFFE88
:100700003FEFFE3FFFFE3FFFFC1FFFFC0FFFFF0F11
:10071000FFFF181801FF80011880015A800118801E
:1007200001FF80001800001800FF18FF191898F941
:10073000FF9F191898FF18FF0018000018001FFFEE
:10074000F8181818181818181818181818186618FB
:10075000184218180018FE007FAA0055181801FF4B
:1007600080015A8001FF80015A8001FF800018003B
:10077000001800FF18FF191898FFFFFF191898FFBD
:1007800018FF0018000018001FFFF8181818181894
:100790001818181818181818661818421818001879
:1007A000FE007FAA0055181800000060000C6000D1
:1007B0001C1CFF700781C00400400CFE60187C30D8
:1007C00010381810100810000813FFC81099081FDF
:1007D000FFF8044A20045B300CD11008999010886F
:1007E000983198C821104A63186C40080000000036
:1007F000181800000060000C60001C1CFF700781CE
:10080000C0043C400C006018FF3010001811FF8835
:1008100010000813FFC81000081FFFF8044A200446
:100820005B300CD1100899901088983198C821102D
:100830004A63186C4008000000001818000000000F
:1008400000000000001E001812003C33006621006A
:10085000C2610082419CBBDCB68990E38990D5A936
:1008600094C1A994C9A990E389D0B6895D9CBB6164
:1008700000822100C23300421200661E003C0000CC
:100880001800000018180000000000000000001E02
:10089000001812003C3300662100C265008A459CA6
:1008A000BBDCB6A994E3ADB4C9ADB4DDADB4C9AD9C
:1008B00094E3ADD4B6A95D9CBB65008A2100C23328
:1008C00000421200661E003C0000180000001818CC
:1008D00001414007FFE00C003019E79831428C617C
:1008E000C386C00003803C01900009B9FFDD91552B
:1008F0004981FFC1815541FFFFFF419462271434B4
:100900001C661818C30C1094841C489C00630000DB
:100910002200001400000800181802814006FF6041
:100920000EC3701AFF5832004C63FFC6C2004382E8
:1009300000418500A1F8FF1F8518A182184182247B
:1009400041FFFFFF4194622714341C761818CB0C2A
:1009500011A1841D149C018B000062000034000072
:10096000080018180000000000000FE7F00824102D
:100970000924100925900824100FE7F001008001D8
:1009800000800100800100800100800100800100E2
:10099000800100800100800FFFF018001C387E16D7
:1009A000683C13C800118FFFF1FE007F181800008B
:1009B000000000000FE7F00FE7F00FE7F00FE7F09F
:1009C0000FE7F00FE7F001008001008001008001D7
:1009D0000080010080010080010080010080010092
:1009E000800FFFF018001C39FF9669FF93C9FF9133
:1009F0008FFFF1FE007F18180FFFE009012008109B
:100A0000200FEFE0002800F729DE952952DDEF7670
:100A1000800002DDEF76952952F729DE00280000DC
:100A200028000028000FABF838AA0E60EE02C07C48
:100A300003FC003F800001FC003F807E01FFC3FFFC
:100A400018180FFFE00A44A00A44A00FEFE00028A6
:100A500000F729DE952952DDEF76800002DDEF7682
:100A6000952952F729DE0028000028000028000FF1
:100A7000ABF838AA0E60EE42D27C6BB4012BA5799C
:100A8000ADA500B5A17E17FFC3FF18180FFFE00A40
:100A9000AAA00FFFE00A00A00E44E00A00A00FFF8A
:100AA000E038003840000481C70241450439453828
:100AB00011451021C70840000440380420280810C0
:100AC00028100DFF601155102155083FFFF80183D4
:100AD0000001830018180FFFE00AAAA00FFFE00A28
:100AE00000A00EFEE00A00A00FFFE039CE38423130
:100AF000048C48C242310439CE3810841021324867
:100B00004249244249242132481084100E78E010D2
:100B100084102102083FFFF80183000183001818A8
:100B200000000001FFC00100400177400155400175
:100B30000040011C4001004001AAC00155400100D5
:100B40004001004001FFC0013E40011C40011C402B
:100B500001084001004001FFC001FFC0004100004A
:100B60004100004100004100181800000001FFC0D2
:100B700001FFC001414001414001224001144001F8
:100B800008400114400122400141400180C001FFA2
:100B9000C001084001FFC0010040010040010040C9
:100BA00001FFC001FFC00041000041000041000002
:100BB000410018181FFFF82400242A005424182488
:100BC0002018042000043FFFFC24924C3FFFFC202F
:100BD00000043FFFFC26666426666439999C3999B7
:100BE0009C3FFFFC2000042000043FFFFC04809099
:100BF0000780F00480900780F004809018181FFF91
:100C0000F82281442381C42281442381C422814467
:100C10003FFFFC24924C3FFFFC2000043FFFFC26DA
:100C2000666426666439999C39999C3FFFFC2000D4
:100C3000042000043FFFFC0480900780F0048090B3
:100C40000780F004809018183FC7F82854283854BB
:100C500038007C0000420040A502608104305A0C3C
:100C600019A5B0061840020040012480015A8002F4
:100C70004240022440011880018180023C4002244D
:100C80004001668000A50000A50000A50000E70067
:100C900018183FC7F8285428385438007C00004200
:100CA0000640810C6081183042101DA5A006184036
:100CB00002004001348001A580024240022440012C
:100CC0000080018180023C4002244001668000A532
:100CD0000000A50000A50000E700181800000000B3
:100CE0000000007FE001C030030C08063B84046074
:100CF00066044032E4C01AA8860BE98F0949090945
:100D00004D080945081B450C726507C225000625DC
:100D100080047DE018CE3FE080003F80000180002D
:100D200007FFFFFC181800000000000007FE000C81
:100D300003801030C021DC606606204C022058037E
:100D400027D0611590F1979090929010B2D810A290
:100D50004E30A243E0A66000A42001A41807BE07FD
:100D6000FC73FC0001800001E000013FFFFF181848
:100D700001C1C001414000E3800022000322600362
:100D800022601F227C13226413FFE41F557C03554D
:100D9000601F557C1555541BFFEC15FFD41FE3FC59
:100DA00003E1E007C1F00F80F01F00F81F007C3E58
:100DB000003C38003E200002181801C1C001C1C02B
:100DC00000E3800022000322600322601F227C1FB8
:100DD000227C1FFFFC1FFFFC03FFE01FFFFC1FFF27
:100DE000FC1BFFEC1FFFFC1E633C03E1E007C1F0AE
:100DF0000F80F01F00F81F007C3E003C38003E20B2
:100E0000000218181E00F01200902101082D016840
:100E10002D01682D016821390821C7082000082FFD
:100E200001E824824824824827C7C82000082000FF
:100E3000181FFFE070921CDC92768693C3E3930741
:100E4000801001E00007803801FFC7FF18181E005E
:100E5000F01200902101082D01682D01682D016814
:100E600021390821C7082410482490482492482496
:100E700092482492482402082000181FFFE0709234
:100E80001CDC92768693C3B3930D981031880021B1
:100E9000803801FFC7FF18180200426643253581DC
:100EA000A81100AC2A00542AE7543EA57C22FF4436
:100EB0002295442295443F81FC30280C1E2878035B
:100EC000A9C000FF80008080009C8001A2C002A217
:100ED000A004A2907FA2FEA82215802201FFE3FFBA
:100EE00018180200426643253581A81100AC2A007B
:100EF000542AE7543EE77C32FF4C2AC35426E76469
:100F00003F99FC30380C1E6C7803C7C000FF80008E
:100F10008080009C8001A2C002A2A004A2907FA2B7
:100F2000FEA82215802201FFE3FF18180000003FF1
:100F3000FFFC2000042FE7F42000043FFFFC001812
:100F4000000018000FFFF018001830000C70000EA1
:100F50007F81FE44422247C3E24442227F81FE4019
:100F60003C0660421C387E700FC3C0007E00004209
:100F700000003C00181801CE00014A0001CE00001C
:100F8000840000840000840000FE0001D7000155A9
:100F9000000155000155000FFFE01000100FFFE0A9
:100FA0000400400C28601810301028101000101099
:100FB0000010350158220088250148200008181823
:100FC00001CE00014A0001CE000084000084000030
:100FD000840000FE000183000129000101000101DD
:100FE000000FFFE01000100FFFE00400400C28602D
:100FF0001810301028101000101028103010182071
:1010000028082000083FFFF81818002400001800E6
:101010000018000018000018001FFFF8101808172B
:1010200018E81018081000081FFFF80080800080E2
:10103000800080800080800080800081C00083F07C
:101040001F869811CC8C3378C42630462450C32494
:10105000D8C118180024000018000018000018005B
:101060000018001FFFF8155AA81FFFF8155AA815F9
:101070005AA81FFFF80080800080800080800080D8
:10108000800080800081C00083F01F869811CC8C86
:101090003378C42630462450C324D8C118180FFF13
:1010A000FE0AAAAA0FFFFE0AB1AA0FF5FE0AB1AA0C
:1010B0000FFFFE0AAAAA0FFFFE0A000A0E7FCE0A41
:1010C0006ACA0E5F4E0A71CA0E514E0A71CA0E519B
:1010D0004E0A71CA0E000E0BFFFA0D55560FFFFE99
:1010E00001209001209018180FFFFE0AAAAA0FFFF6
:1010F000FE0ABFAA0FFFFE0ABFAA0FFFFE0AAAAA96
:101100000FFFFE0AAAAA0FFFFE0AAAAA0FFFFE0AF5
:10111000AAAA0FFFFE0AAAAA0FFFFE0AAAAA0FFF99
:10112000FE0AAAAA0FFFFE0FFFFE012090012090E9
:10113000181810780077C1B8C40E0881FB0C230979
:10114000C4260FE62400302440986CE1C848408D46
:10115000480005481F0D2C31882460C8070018413D
:10116000FFE258000E4C007843FFC26800060C787E
:10117000FC07CF80000000000000181810780077EE
:10118000C1B8C40E0881FB0C2301C42600E6241854
:10119000302430186C058848A48D48ACC548C00D73
:1011A0002C5D0824070807001841FFE258000E4C88
:1011B000007843FFC26800060C78FC07CF8000006F
:1011C000000000001818003C0003E7800400E0085D
:1011D000033019C1D813000C20630431F7841000C8
:1011E0000411000411000419FC680C01C8078018E0
:1011F0002083F63282181FEFE614823C7483084481
:10120000910E409B703C9BDC67BB674461B1181832
:10121000003C0003E7800400E0080030189018103C
:10122000910C21A10431A6241CBCE417D984106FB1
:1012300044183FC80C180807B01820A3F632B2189B
:101240001FFFE614923C74930844910E409B703C3F
:101250009BDC67BB674461B10808007E5A7E3C187E
:101260000000080800207020202000000808A1A528
:10127000A5A5A5A585850808FEAAFEAAFEAAFE00CA
:1012800008081020408000010204080800402018CF
:101290001804020008088181818181818181080808
:1012A000FF818181818181FF08080024420810426A
:1012B00024000808004200181800420008080848E6
:1012C0004A4A4A4A0A080808BD66E79999E766BD8E
:1012D0000808050205005020500008080002200000
:1012E00000024000080800044455555555550808AB
:1012F0003C26DBA5AD93443C080800000400000038
:101300000000080800002000000008000808000095
:101310000000000000000808BD008199998100BD0F
:1013200008081010100F10E010100808002814080A
:101330001422440008080814224108142241080815
:10134000C3FF42424242FFC308087E547C107C1017
:10135000284408083E343C101C1010180808FC7C77
:101360007C107C10284408087C2C3C08380808189D
:1013700008087E547C107C10282008087E547C10BD
:101380007C10280808083E343C10305028440808D7
:101390003E343C14181018140808FC7C7C107C1097
:1013A00028200808FC7C7C107C10280808087C2C6D
:1013B0003C080C0A142208087C2C3C281808182821
:1013C0004D6563686542697A61726400466C6F744A
:1013D00074696C6C65004368616D7069466F727406
:1013E000005465727261426166666C65004772699D
:1013F00066666500436861726765004665757800DA
:101400004368616E67650045617500506C616E747C
:101410006500746572726500456C6563747269710C
:1014200075650046757475726F6465780043686110
:101430006E67652067616D65000303070507050496
:101440000505040503060302070202010202030266
:101450000E090E0E0D0E0E0F0E07050705030705EC
:101460000F0507050706070102050200070202072C
:101470000002070200020702000706030607070230
:10148000020505020102020402000502020500062F
:101490000705050705020302020602000000000B13
:1014A00000030003070507040701050205070704F9
:1014B00000030000070505070005000502070200FC
:1014C0000C000202020004000402010705070507E0
:1014D00004010704050702030207040701070606C3
:1014E000010107070707030307000500000D0002BD
:1014F00005000505050005020107030F09030603A2
:10150000060707020205050707020707050703018B
:101510000705060702070507050404030702050778
:101520000404070307070106070507070303070568
:101530000307030604070101070107040703040367
:10154000070607050205010601010704000705015A
:101550000204050700020102080808000300060350
:10156000060707020205050705020707050703012D
:101570000705060702070507050404030702050718
:101580000404070307070106070507070303070508
:101590000307030604070101070107040703040307
:1015A00007060705020501060101070402070500F9
:1015B000070005070206020307050703053F213F51
:1015C0001208120A100A0E1C0E0C1E0C141A141605
:1015D0001F161E131E1E1B1E1E1F1E3F213F3A2FCD
:1015E0003A173D173F213F181F02040A041F0E043B
:1015F000040E1F0A1F0A0E0E1F04110E2E252E2F79
:101600002A2E262929021F02081F08150E04040E7F
:10161000150E15151B151B040604040C0400000010
:101620000017000300031F0A1F16371A1904130AB4
:10163000153A000300000E11110E000A040A040EF0
:10164000040030000404040010001804031F111FDC
:10165000121F101D151711151F07041F17151D1F29
:10166000151D01011F1F151F17151F000A0000324D
:1016700000040A110A0A0A110A040115020E1117C0
:101680001E051E1F150A0E110A1F110E1F15111F10
:1016900005010E111D1F041F111F1108100F1F043B
:1016A0001B1F10101F061F1E040F0E110E1F090610
:1016B0000E112E1F051A121509011F011F101F0FF1
:1016C000180F1F0C1F1B041B031C03191513001FED
:1016D00011030418111F0002010220202000010242
:1016E0000C121E1F120C0C12120C121F0C1A1404D6
:1016F0001E05242A1E1F021C141D1020201D1F0859
:1017000014111F101E041E1E021C0C120C3E0A0493
:101710000C123E1E040214160A020F120E101E0EA8
:10172000100E1E081E120C1226281E322A26041E17
:1017300021001F00211E040102013F213F05077FF8
:101740004141417F3E5B4F5B3E3E6B4F6B3E183CE1
:10175000783C18183C7E3C181C577D571C1C5E7F3B
:101760005E1C007E43437E007E73737E007E7F7F1F
:101770007E7F4141417F30483A060E06297929068D
:101780007F4141417F60703F02042A1C361C2A7F42
:101790003E1C080000081C3E7F14227F22143C3CA3
:1017A0003C7EFF18423C817E3E6375633E3E616B2A
:1017B000633E3E636B6B3E04027F020410207F2079
:1017C0001008082A1C08081C2A0808143E55412243
:1017D000637569756310181C1810040C1C0C040048
:1017E0000000000000005F00000007000700147FF9
:1017F000147F14042A7F2A10231308646236495682
:1018000020500008070300001C2241000041221C58
:10181000002A1C3E1C2A08083E080800E060000060
:101820000808080808006060000060100804033E13
:101830005149453E00427F4000625149494621419D
:10184000494D331814127F1027454545393C4A4904
:101850004930412111090736494949360649492984
:101860001E000024000000806400000814224100D3
:101870001414141414004122140802015909063EDC
:10188000415D594E7C1211127C7F494949363E41D7
:101890004141227F4141221C7F494949417F090939
:1018A00009013E414151327F0808087F00417F41D4
:1018B000002041413F017F081422417F40404040C9
:1018C0007F020C027F7F0204087F3E4141413E7F40
:1018D000090909063E416141BE7F09192946264989
:1018E00049493201017F01013F4040403F1F2040F4
:1018F000201F3F4038403F631408146303047804FA
:10190000036151494543007F4141000304081060D1
:101910000041417F00040201020480808080800039
:101920000307080020545478407F28444438384442
:10193000444428384444287F3854545418087E09B5
:10194000090218A4A49C787F0804047800447D4010
:1019500000006080847D7F1010284400417F40009B
:101960007C047804787C080404783844444438FCC7
:101970001824241818242418FC7C0804040808548B
:10198000545420043F4444203C4040207C1C2040D0
:10199000201C3C4020403C44281028444C9090900F
:1019A0007C4464544C44000836410000007F000031
:1019B0000041360800180408100C7F4141417F0A9D
:1019C0004E6F2053442063617264206F720A6E6F01
:1019D000204C4F414445522E4845580A0A153A4575
:1019E000786974001D20466C617368696E670A200F
:1019F000206C6F616465722E2E2E0A0A444F4E27AA
:101A000054205455524E204F464621006D560A0A26
:101A1000504C454153450A5455524E204F464600BE
:101A20004C4F5720424154544552590A0017736194
:101A3000766500166261636B001574797065000A43
:101A40000A0A153A6F6B617920163A656469740069
:101A5000596F7520656E74657265640A00540A03D7
:101A6000E181867F3E186D830F0F0E018386603300
:101A7000186DC3198F1803C38E6033186DE330CF10
:101A80001803C39E603630CDE360CF3006C79E7E1C
:101A90003E30CDB360CF300CC6F6603330D9B6607F
:101AA000CF33CFCCF66061B0DB1E60CF30D86CE6B0
:101AB000C061B0DB1E618F19986CC6C063B19B0E0C
:101AC000330F0FB078C6FF7E1F1B061E0F1753443F
:101AD000001613780016131400151020001520109E
:101AE00000000005008930080238024978681400B7
:101AF000004500680100000500680138010000058C
:101B000000380168010000F6E8DBCFC3B8AEA49B43
:101B1000928A827B746E68625C57524E4945413EA0
:101B20003A3734312E2C29272523211F1D1C1A1941
:101B300017161514131211100F0E0D0C0B0A0908AD
:101B40000706461B4A1B0101F7030101FF030000C2
:101B50000000240027002A000000000025002800C3
:101B60002B000000000023002600290004040404C8
:101B70000404040402020202020203030303030337
:101B80000102040810204080010204081020010214
:101B900004081020000000070002010000030406F2
:101BA00000000000000000007C0F11241FBECFEFDA
:101BB000D8E0DEBFCDBF11E0A0E0B1E0E8E9FDE68E
:101BC00002C005900D92A837B107D9F715E0A8E734
:101BD000B1E001C01D92AC33B107E1F71BE1CAEAE5
:101BE000DBE104C02297FE010E942E36C83AD107DD
:101BF000C9F70E9414320C94CA360C940000FC0100
:101C0000148A8FEF868B0895FC01658B0895FC0183
:101C100085890895FC0190E0808118160CF491E00C
:101C2000892F0895FC01668B0895FC01868908952B
:101C30002FEFFC01268B0895FC019581648184E6D9
:101C4000989FC001112470E00E94DC35862F089512
:101C5000E82FF0E0EB31F10508F0DBC0EC5CFF4F62
:101C6000EE0FFF1F0590F491E02D0994662309F013
:101C7000D1C020E533E0D0C0662319F424EE33E070
:101C8000CBC02AE933E0C8C0662319F428E734E062
:101C9000C3C02EE234E0C0C0662319F42CE035E066
:101CA000BBC022EC34E0B8C0662319F420EA35E06A
:101CB000B3C026E535E0B0C0662319F424E336E06E
:101CC000ABC02AEE35E0A8C0662319F428EC36E054
:101CD000A3C02EE736E0A0C0662319F42CE537E058
:101CE0009BC022E137E098C0662319F420EF37E06B
:101CF00093C026EA37E090C0662319F424E838E060
:101D00008BC02AE338E088C0662319F428E139E063
:101D100083C02EEC38E080C0662319F42CEA39E049
:101D20007BC022E639E078C0662319F420E43AE06B
:101D300073C026EF39E070C0662319F424ED3AE051
:101D40006BC02AE83AE068C0662319F428E63BE055
:101D500063C02EE13BE060C0662319F42CEF3BE04A
:101D60005BC022EB3BE058C0662319F420E93CE05D
:101D700053C026E43CE050C0662329F12AED3CE044
:101D80004BC0662319F428EB3DE046C02EE63DE04B
:101D900043C0662319F42CE43EE03EC022E03EE05E
:101DA0003BC0662319F420EE3EE036C026E93EE053
:101DB00033C0662319F424E73FE02EC02AE23FE057
:101DC0002BC0662319F424E23DE026C02EEB3FE051
:101DD00023C0662319F422E530E11EC028E030E17B
:101DE0001BC0662319F426EE30E116C02CE930E161
:101DF00013C0662319F42AE731E10EC020E331E174
:101E00000BC0662319F42EE032E106C024EC31E168
:101E100003C0089526E033E0C9010895823079F0C7
:101E2000833028F48823A9F0813091F405C08330F1
:101E300049F0843069F409C026E832E00CC02EE88D
:101E400032E009C026E932E006C02EE932E003C0E4
:101E500008952EE732E0C9010895823079F0833089
:101E600028F48823A9F0813091F405C0833049F02B
:101E7000843069F409C02FE531E00CC023E631E07D
:101E800009C027E631E006C02BE631E003C0089523
:101E90002BE531E0C90108951F93FC0145811081B4
:101EA000212F332727FD3095C901841B91090E94FA
:101EB000DC35640F658370E0621773070CF41583DB
:101EC0001F910895689FC001112464E670E00E948C
:101ED000DC35862F0895FB0120812583DC011196D6
:101EE0009C918281981B19160CF091E08081891BCE
:101EF000808387FD108208951092C9011092C80155
:101F000083E791E09093C7018093C6010895EF9213
:101F10000F931F93CF93DF9300912303109124031A
:101F200080912B0390912C03081B190B2091250302
:101F30003091260340912D0350912E03C801409605
:101F40008536910570F5E901C41BD50B8FEFC03FB5
:101F5000D8073CF1C133D10524F5E0912F038091DE
:101F60003003882379F02E2F220FE22FEC5F80912F
:101F7000E8019091E90168E070E00E94DC35049787
:101F80000CF0EF5FF0E0EE0FFF1FE55CFE4F2081ED
:101F9000318186EC91E0602F4C2F00E0EE240E940E
:101FA0004A23DF91CF911F910F91EF90089562E343
:101FB00070E080E090E024EF31E040E050E00E94EB
:101FC0005A3470933203609331030895AF92BF92F5
:101FD000DF92EF92FF920F931F93DF93CF930F92B5
:101FE000CDB7DEB7809101029091020201969093E5
:101FF00002028093010260E070E080E090E026E061
:1020000030E040E050E00E945A34F62EFF0CFF0C06
:1020100003E212E0580163E0D62EDF0C60E070E0CE
:1020200080E090E024E030E040E050E00E945A344C
:102030006295660F660F607C6D0DF501608360E050
:1020400070E080E090E024E030E040E050E00E946A
:102050005A3480EF90E0A80EB91E6295660F660FA5
:10206000607C6D0DF501608381E19FEFA80EB91EC4
:1020700093E3A91692E0B90689F660E070E080E08B
:1020800090E024E030E040E050E00E945A34629555
:10209000660F660F607C6D0DF801608360E070E094
:1020A00080E090E024E030E040E050E00E945A34CC
:1020B0006295660F660F607C6D0DF8016787005FA3
:1020C0001F4FF3E003321F07C1F660E070E080E0CD
:1020D00090E022E030E040E050E00E945A34E62EEA
:1020E000EF0C51E0A52EB12C29C089818C3008F06D
:1020F00045C091E0F91609F441C0EEE0FE16F1F199
:1021000060E070E080E090E025E030E040E050E00A
:102110000E945A34611571058105910579F5F80120
:10212000D082F394005F1F4FFFE0FF16F1F6089492
:10213000A11CB11C8FE0A816B10449F085010D5C0B
:102140001D4FFF24F3949A2D92509983CECF82E0B5
:102150008093A3028093B20282E480932B02809347
:102160001B030E94D70F0F90CF91DF911F910F910A
:10217000FF90EF90DF90BF90AF90089560E070E027
:1021800080E090E024E030E040E050E00E945A34EB
:102190006295660F660F607C6E0DF8016083C1CF9B
:1021A0000F931F93CF93DF9380913003882309F41B
:1021B0004EC08091230390912403409127035091B6
:1021C000280323E0440F551F2A95E1F7841795074C
:1021D00059F08417950714F4019601C00197909364
:1021E0002403809323031AC0809125039091260332
:1021F0002091290330912A0303E0220F331F0A950F
:10220000E1F78217930751F08217930714F40196B0
:1022100001C00197909326038093250380912903A1
:1022200090912A0313E0880F991F1A95E1F72091E6
:102230002503309126032817390749F48091230399
:10224000909124038417950711F410923003809124
:102250003003882309F0F7C0C0912703D0912803E9
:102260000091290310912A0382E891E062E044E0A2
:102270000E94A61F882381F0809127039091280354
:10228000419660E170E00E94DC35909328038093D2
:10229000270381E080932F0382E891E060E044E02F
:1022A0000E94A61F882381F0809127039091280324
:1022B0000F9660E170E00E94DC35909328038093D4
:1022C000270383E080932F0382E891E063E044E0FA
:1022D0000E94A61F882379F08091290390912A03F8
:1022E000419660E170E00E94DC3590932A03809370
:1022F000290310922F0382E891E061E044E00E94FC
:10230000A61F882381F08091290390912A030F96BC
:1023100060E170E00E94DC3590932A0380932903EA
:1023200082E080932F0380912903E0912703F0E05E
:10233000B4E0EE0FFF1FBA95E1F7E80FF11DED5D78
:10234000FD4FE081EF738E2F90E0019683709070C7
:10235000892BA9F4D0932803C093270310932A0351
:1023600000932903EC2FF0E0A4E0EE0FFF1FAA95E5
:10237000E1F7E00FF11DED5DFD4FE081EF7380911E
:10238000270390912803C817D90741F480912903A6
:1023900090912A030817190709F455C081E080932A
:1023A00030038E2F90E0029683709070892B09F095
:1023B0004AC088E791E06EE970E04CE30E94612634
:1023C0000E94E60F8091270390912803009739F42B
:1023D0008FE090E090932803809327031AC00F9713
:1023E00029F4109228031092270313C08091290327
:1023F00090912A03009739F48FE090E090932A039C
:102400008093290306C00F9721F410922A0310929B
:1024100029038091270390912803E3E0880F991FF7
:10242000EA95E1F790932403809323038091290395
:1024300090912A0373E0880F991F7A95E1F79093A2
:1024400026038093250320913103309132034427E2
:1024500037FD4095542F60E070E080E090E00E94EE
:102460005A34611571058105910521F40E94D70F39
:1024700080E01DC0809131039091320301979093C9
:10248000320380933103209125033091260320519C
:1024900030408091230390912403829790932C03E2
:1024A00080932B0330932E0320932D0381E0DF9143
:1024B000CF911F910F910895282F30E040E050E018
:1024C00061E070E080E090E00E945A34862F089529
:1024D0008F929F92AF92BF92CF92DF92EF920F9323
:1024E000CF93DF93CC24DD248824992443C0F501C5
:1024F000008180912B0390912C03BE01681B790B06
:1025000040912D0350912E03CB0108968D359105F6
:10251000F0F4C401841B950BAC019FEF483F5907B1
:10252000B4F0413351059CF4E02FF0E0EF73F0700C
:10253000EE0FFF1FE55FFE4F20813181029506956A
:102540000695037086EC91E0EE240E944A23E0E1B8
:10255000F0E0AE0EBF1E2896C038D10541F60894B3
:10256000C11CD11C88E090E0880E991E90E1C9162C
:10257000D10449F033E2A32E32E0B32EAC0CBD1CE3
:10258000C0E0D0E0B4CF86EC91E069E374E10E9452
:10259000FF2386EC91E06AEB70E00E94503260917C
:1025A00001027091020286EC91E04AE050E00E9444
:1025B0003E3386EC91E063EB70E00E945032609114
:1025C00003027091040286EC91E04AE050E00E9420
:1025D0003E3386EC91E06DEA70E00E94503286EC6A
:1025E00091E0609120024AE050E00E946C3386EC5A
:1025F00091E06BEB75E10E94FF23DF91CF910F918A
:10260000EF90DF90CF90BF90AF909F908F90089504
:1026100088E791E00E942E280E94E60F64E070E0B7
:1026200080E090E028E030E040E050E00E945A3442
:10263000709328036093270364E070E080E090E0EB
:1026400028E030E040E050E00E945A349B01709353
:102650002A0360932903809127039091280373E054
:10266000880F991F7A95E1F79093240380932303B1
:1026700063E0220F331F6A95E1F73093260320931E
:10268000250310922F031092300384EF91E0909372
:1026900032038093310308958091FE019091FF01F0
:1026A00088579E4F60E00E944E1E0895CF92DF92A1
:1026B000FF920F931F93DF93CF9300D0CDB7DEB778
:1026C0006C01062F142F623008F402E0D6015196F7
:1026D0001C93519752961C92E02FF0E0FA83E98305
:1026E000F980FF0C60E070E080E090E02AE030E0EC
:1026F00040E050E00E945A346F0DD60111966C9361
:10270000119716966C9360E070E080E090E02AE00C
:1027100030E040E050E00E945A346F0DF6016083D3
:102720006483658360E070E080E090E02AE030E060
:1027300040E050E00E945A346F0DD60113966C931E
:10274000139718966C9360E070E080E090E02AE0C8
:1027500030E040E050E00E945A346F0DF601628391
:102760006783018729813A81229FC001239F900DB1
:10277000329F900D112495958795938782871586B2
:102780001486143018F4C601612F06C0812F65E04D
:102790000E94BC35692FC6010E94040E0F900F9055
:1027A000CF91DF911F910F91FF90DF90CF9008950F
:1027B0008F929F92AF92BF92CF92EF920F93CF934F
:1027C000DF930E94D010882331F00E9468120E948B
:1027D000870F80E045C060E070E080E090E02BE192
:1027E00030E040E050E00E945A34EB01FB01EB5F27
:1027F000FD4F8081882339F481E08083809120021D
:102800008F5F809320028091FE019091FF01885795
:102810009E4F60E04AE025E003E077E0E72E52E0DB
:10282000C52E32E0A32EB12CB2E08B2E912C0E944B
:102830000D1E8091FE019091FF0188579E4F60E030
:102840000E944E1E8091FE019091FF0188579E4F7D
:102850000E94721E609101024C2F0E94561381E06B
:10286000DF91CF910F91EF90CF90BF90AF909F905D
:102870008F900895FC0161856F5F41890E94561316
:1028800008950F931F9388E791E065ED71E04CE3A5
:102890000E9461261CE388E791E00E947928882342
:1028A000D1F31F3118F0012F025E0AC082E891E0D7
:1028B00064E00E949C1F8823C9F41123B9F00CE343
:1028C00011508091FE019091FF0188579E4F0E9408
:1028D000721EFC01818961E00E94280E9C0186EC39
:1028E00091E0602F40E00E94DC22D5CF1F910F9134
:1028F00008950F931F938091FE019091FF0160E076
:102900000E944E1E00E014C188E791E00E947928E1
:102910008823D1F38091FE019091FF010E94721EE5
:10292000FC01818961E00E94280E9C01412F4195A4
:1029300086EC91E06CE30E94DC221111135086ECCE
:1029400091E068EE70E00E949B3286EC91E063EECD
:1029500070E00E9450328091FE019091FF010E9430
:10296000721EFC016081772767FD709586EC91E00F
:102970004AE050E00E94DC3386EC91E061EE70E0CA
:102980000E9450328091FE019091FF010E94721EC0
:10299000FC0186EC91E064814AE050E00E947E33C5
:1029A00086EC91E06CED70E00E9450328091FE0167
:1029B0009091FF010E94721EFC0186EC91E0638100
:1029C0004AE050E00E946C3386EC91E06AED70E0E2
:1029D0000E9450328091FE019091FF010E94721E70
:1029E000FC0186EC91E060854AE050E00E947E3375
:1029F00086EC91E065ED70E00E9450328091FE011E
:102A00009091FF010E94721EFC0186EC91E06181B1
:102A10004AE050E00E946C3386EC91E063ED70E098
:102A20000E9450328091FE019091FF010E94721E1F
:102A3000FC0186EC91E066814AE050E00E947E3322
:102A400086EC91E06EEC70E00E9450328091FE01C5
:102A50009091FF010E94721EFC0186EC91E0628160
:102A60004AE050E00E946C3386EC91E06CEC70E040
:102A70000E9450328091FE019091FF010E94721ECF
:102A8000FC0186EC91E067814AE050E00E947E33D1
:102A900086EC91E067EC70E00E9450328091FE017C
:102AA0009091FF010E94721EFC0186EC91E061850D
:102AB0004AE050E00E947E3386EC91E062EC70E0E8
:102AC0000E9450328091FE019091FF010E94721E7F
:102AD000FC016485758586EC91E04AE050E00E9437
:102AE0003E3386EC91E060EC70E00E9450328091C1
:102AF000FE019091FF010E94721EFC0162857385A8
:102B000086EC91E04AE050E00E944F3382E891E089
:102B100064E00E949C1F882309F4F6CE0F5F809129
:102B2000FE019091FF01602F0E944E1E043011F0B3
:102B30001EE1EACE8091FE019091FF010E94471EA6
:102B40001F910F910895DF92EF92FF920F931F93C1
:102B5000CF93DF938091FE019091FF010E94721E3E
:102B6000FC01E380FF248091FE019091FF010E940F
:102B7000721EFC0183810E945C12D82E8091FE019E
:102B80009091FF0188579E4F0E94721EFC010381A5
:102B900010E08091FE019091FF0188579E4F0E94A6
:102BA000721EFC0183810E945C12ED0CF11C080F67
:102BB000111D2091FE013091FF010E151F054CF4EF
:102BC000C9017C01EC01C857DE4F81E080935301BD
:102BD0000AC0C901EC01E8E8EE2EE1E0FE2EE80EA5
:102BE000F91E10925301C7010E94721E8C01CE0182
:102BF0000E94721EBC01C8010E946B0FCE010E9490
:102C0000721E0E940A0E882379F0CE010E94721E65
:102C10008C01C7010E94721EBC01C8010E946B0F8B
:102C200081E08093540102C010925401DF91CF9152
:102C30001F910F91FF90EF90DF900895EF92FF9218
:102C40000F93F6ECEF2EF1E0FF2EC70162E040E0BB
:102C500029EE30E00E94DC228091FE019091FF017C
:102C600088579E4F0E94721E0E941C0E6BE20E94AB
:102C7000620F282FC70163E041E006E00E94E820D0
:102C8000C70167E240E22BE431E00E94DC22809140
:102C9000FE019091FF010E94721E0E941C0E6BE2C9
:102CA0000E94620F282F63E5681BC70149E20E945A
:102CB000E8200F91FF90EF9008951F9310E088E7B0
:102CC00091E00E9479288823D1F30E941E168091FA
:102CD000FE019091FF0188579E4F0E94721EFC01D9
:102CE000818961E00E94280E9C0186EC91E06CE3F2
:102CF000412F0E94DC228091FE019091FF010E94F1
:102D0000721EFC01818960E00E94280E9C0186EC05
:102D100091E062E048E10E94DC221150173D79F613
:102D20001F9108951F9318E188E791E00E94792888
:102D30008823D1F30E941E168091FE019091FF011D
:102D400088579E4F0E94721EFC01818961E00E949B
:102D5000280E9C0186EC91E06CE340E00E94DC22AE
:102D60008091FE019091FF010E94721EFC018189F9
:102D700060E00E94280E9C0186EC91E062E0412F09
:102D80000E94DC221F5F113479F61F910895CF93C2
:102D9000DF938091FE019091FF010E94511E8823D4
:102DA00029F088E791E066EB71E004C088E791E0E4
:102DB0006DEA71E043E20E946126C3E2D0E088E759
:102DC00091E00E9479288823D1F321971C161D06D3
:102DD000B4F38091FE019091FF010E94471E809103
:102DE000FE019091FF0188579E4F0E94471E8091DF
:102DF000FE019091FF0188579E4F0E944B1EDF916C
:102E0000CF9108950F931F938091FE019091FF0140
:102E100088579E4F0E94721E8C0160E070E080E037
:102E200090E023E030E040E050E00E945A34C801D6
:102E30000E94120E1F910F9108951F938091FE0121
:102E40009091FF010E94721E0E94070E0E940E0FB9
:102E5000BC0188E791E044E00E943229182F80915C
:102E6000FE019091FF01133019F40E94471E0EC01D
:102E70000E94721E612F0E94120E8091FE0190919D
:102E8000FF010E94721E612F0E94120E1F91089571
:102E9000FF920F931F938091FE019091FF010E947A
:102EA000601E882309F061C088E791E063EC71E05F
:102EB00044E00E943229682F8091FE019091FF0129
:102EC0000E944E1E8091FE019091FF010E94721E91
:102ED000FC018081181644F788E791E06BEC71E003
:102EE0004CE30E9461261CE3ACE1FA2E88E791E0F6
:102EF0000E9479288823D1F31F3118F00F2D011B70
:102F00000AC082E891E064E00E949C1F882369F572
:102F1000112359F102E011508091FE019091FF01BF
:102F200088579E4F0E94721EFC01818961E00E94B9
:102F3000280E9C0186EC91E06CE340E00E94DC22CC
:102F40008091FE019091FF010E94721EFC01818917
:102F500060E00E94280E9C0186EC91E0602F48E121
:102F60000E94DC220E941E16C1CF1F910F91FF907C
:102F700008958F929F92AF92BF92CF92DF92EF927D
:102F8000FF920F931F93CF93DF93B4E1AB2EB12C3D
:102F9000EE2488E791E00E9479288823D1F3A114D8
:102FA000B10409F442C00894A108B108C50163E066
:102FB00070E00E94DC35892B11F481E0E82688243A
:102FC0009924FF242BC0C60181709070EE2019F067
:102FD000892B19F405C0892B19F4209781F002C0C0
:102FE000209769F486EC91E06F2D412F24E007E0F3
:102FF0000E94E82086EC91E061E00E944F20089456
:10300000C11CD11C195F1936F1F60894811C911C62
:1030100084E0F80E8CE3F81609F4BBCFCC24DD2451
:1030200010E0E401C170D070CECFDF91CF911F913D
:103030000F91FF90EF90DF90CF90BF90AF909F9057
:103040008F900895EF92FF920F931F938823C1F101
:103050006F3108F479C086EC91E062E00E944F2065
:103060006CEF7FEF8FEF9FEF24E030E040E050E027
:103070000E945A34F62E6CEF7FEF8FEF9FEF24E023
:1030800030E040E050E00E945A34162F60E070E0DB
:1030900080E090E024E030E040E050E00E945A34CC
:1030A000062F60E070E080E090E024E030E040E057
:1030B00050E00E945A34E62E81E4F80E1B5F37C0C0
:1030C0006F3108F441C086EC91E062E00E944F202D
:1030D0006CEF7FEF8FEF9FEF24E030E040E050E0B7
:1030E0000E945A34F62E6CEF7FEF8FEF9FEF24E0B3
:1030F00030E040E050E00E945A34162F60E070E06B
:1031000080E090E024E030E040E050E00E945A345B
:10311000062F60E070E080E090E024E030E040E0E6
:1031200050E00E945A34E62E85E0F80E145E86ECDC
:1031300091E06F2D412F2AEE31E00E944A2386EC68
:1031400091E061E00E944F201F910F91FF90EF905E
:103150000895EF920F931F93882311F1663280F048
:103160000DE210E0061B1109000F86EC91E062E011
:103170000E944F2044E1401B86EC91E0045C32C089
:103180006F31E8F1162F110F1C5386EC91E062E0CD
:103190000E944F2044E1411B86EC91E01F5B0FC071
:1031A000663278F0162F110F1A5486EC91E062E027
:1031B0000E944F204EE1411B86EC91E01E5F612F83
:1031C00012C06F31E0F005E210E0061B1109000F9C
:1031D00086EC91E062E00E944F204EE1401B86ECBD
:1031E00091E00E5F602F2CE032E000E0EE24E394EB
:1031F0000E944A2386EC91E061E00E944F201F91DB
:103200000F91EF900895EF920F93E82E062F862FDF
:1032100090E083709070892BC1F06CEF7FEF8FEF9F
:103220009FEF24E030E040E050E00E945A34609389
:1032300021026CEF7FEF8FEF9FEF24E030E040E062
:1032400050E00E945A3460932202EE2071F00F3158
:1032500030F186EC91E062E00E944F206091210203
:103260006F5B409122024B5F0DC00F31C0F086ECC6
:1032700091E062E00E944F20609121026B5F4091DB
:1032800022024D5D86EC91E02EE232E000E0EE2479
:103290000E944A2386EC91E061E00E944F200F914A
:1032A000EF900895DF92EF92FF920F931F93882380
:1032B000A1F16F3108F468C00DE2D02ED61A86EC69
:1032C00091E062E00E944F20FF2424C0F0FC21C066
:1032D00067EF7FEF8FEF9FEF2AE030E040E050E0B4
:1032E0000E945A34162F67EF7FEF8FEF9FEF2AE08F
:1032F00030E040E050E00E945A34462F1F5B465FAA
:1033000086EC91E0612F20E532E000E0EE240E949F
:103310004A23F394FD14D0F232C06F31A8F11DE2BC
:10332000D12ED61A86EC91E062E00E944F20FF2455
:1033300024C0F0FC21C067EF7FEF8FEF9FEF2AE002
:1033400030E040E050E00E945A34162F67EF7FEFE4
:103350008FEF9FEF2AE030E040E050E00E945A34C7
:10336000462F165F445E86EC91E0612F20E532E047
:1033700000E0EE240E944A23F394FD14D0F286EC80
:1033800091E061E00E944F201F910F91FF90EF901C
:10339000DF900895CF92DF92EF920F931F938823CF
:1033A00059F16F3108F454C08DE2C82ED12CC61AE1
:1033B000D108CC0C86EC91E062E00E944F208CE3B7
:1033C000C80E86EC91E06C2D42E026E532E000E08C
:1033D000EE240E944A238AE0C80E86EC91E06C2D10
:1033E0004AE026E532E00E944A238BEFC80E86ECC5
:1033F00091E06C2D44E123C06F3150F1162F110F75
:103400001A5586EC91E062E00E944F20175E86EC30
:1034100091E0612F4CE126E532E000E0EE240E94CD
:103420004A231A5086EC91E0612F44E226E532E00F
:103430000E944A231B5F86EC91E0612F48E226E55B
:1034400032E00E944A2386EC91E061E00E944F2026
:103450001F910F91EF90DF90CF9008951F938823D5
:1034600081F06F3130F11DE2161B86EC91E062E0D5
:103470000E944F204AE0411B86EC91E0165C612FD0
:103480000FC06F31B0F01DE2161B86EC91E062E0D8
:103490000E944F206EE1611B1E5E86EC91E0412F81
:1034A0002CE532E00E94DC2286EC91E061E00E9493
:1034B0004F201F910895FF920F931F93182F862F6F
:1034C000042FF22E0E942D0FFC01E10FF11DE0816F
:1034D000E330C1F0E43028F4E130C9F0E23068F4C0
:1034E00007C0E530C9F0E53090F0E630F1F419C0DE
:1034F000802F6F2D0E942E1A18C0802F6F2D0E94D2
:10350000521913C0802F6F2D0E9403190EC0802FF7
:103510006F2D0E94CA1909C0802F6F2D0E94A91813
:1035200004C0802F6F2D0E9422181F910F91FF90D1
:1035300008950F931F930DE288E791E00E94792888
:103540008823D1F30E941E16093140F4802F90E0A9
:1035500083709070029714F0063090F48091FE0111
:103560009091FF010E94721EFC01818960E00E941F
:10357000280E9C0186EC91E062E048E10E94DC228A
:103580008091FE019091FF0188579E4F0E94721E0C
:10359000FC01818961E00E94280E9C0186EC91E08B
:1035A0006CE340E00E94DC228091FE019091FF01DB
:1035B00088579E4F0E94721E0E94150E182F8091F0
:1035C000FE019091FF0188579E4F0E94721E0E943B
:1035D000070E682F812F40E0202F0E945B1A0023E6
:1035E00061F08091FE019091FF010E94721E602F98
:1035F00070E00E944C0F01509FCF1F910F910895D2
:103600000F931F930DE288E791E00E9479288823A9
:10361000D1F30E941E16093140F4802F90E0837090
:103620009070029714F00630A0F48091FE01909102
:10363000FF0188579E4F0E94721EFC01818961E044
:103640000E94280E9C0186EC91E06CE340E00E9411
:10365000DC228091FE019091FF010E94721EFC010C
:10366000818960E00E94280E9C0186EC91E062E076
:1036700048E10E94DC228091FE019091FF010E94AE
:10368000721E0E94150E182F8091FE019091FF016D
:103690000E94721E0E94070E682F812F41E0202F8A
:1036A0000E945B1A002371F08091FE019091FF014E
:1036B00088579E4F0E94721E602F70E00E944C0F30
:1036C0000150A1CF1F910F9108958091530188233C
:1036D00049F00E94001B80915401882359F00E94F8
:1036E000991A08C00E94991A80915401882311F0F8
:1036F0000E94001B8091FE019091FF0188579E4F10
:103700000E94721E0E940A0E882319F40E945D1600
:103710000CC08091FE019091FF010E94721E0E94D8
:103720000A0E882311F40E9492168091FE01909156
:10373000FF010E94721E0E94180E8091FE0190915E
:10374000FF0188579E4F0E94721E0E94180E089516
:10375000EF92FF920F931F938091FE019091FF01D2
:1037600088579E4F0E94601E882309F4A9C080914B
:10377000FE019091FF010E94601E882309F4A0C001
:103780000E94A3150E94651B8091FE019091FF018C
:1037900088579E4F0E94511E882349F4809103024E
:1037A0009091040201969093040280930302809109
:1037B000FE019091FF0188579E4F0E94721EFC01EE
:1037C000808118160CF443C08091FE019091FF0196
:1037D0000E94721EFC0180811816CCF58091FE01BA
:1037E0009091FF010E94721E8C01FC01E484F5841B
:1037F0008091FE019091FF0188579E4F0E94721E9A
:10380000FC01818590E0880F991F8E0D9F1DF801A6
:10381000958784878091FE019091FF010E94721E1E
:10382000FC01048515858091FE019091FF010E94A5
:10383000721EFC01828593858017910740F4809168
:10384000FE019091FF010E94721E0E943A14809125
:10385000FE019091FF010E94511E882379F1809111
:10386000FE019091FF0188579E4F0E94511E8823B0
:1038700029F18091FE019091FF0188579E4F0E948F
:10388000721EFC018081181644F08091FE01909117
:10389000FF0188579E4F0E94471E8091FE01909124
:1038A000FF010E94721EFC01808118164CF080916D
:1038B000FE019091FF010E94471E02C080E001C0FE
:1038C00081E01F910F91FF90EF9008950E94B9172A
:1038D0000E9441148091FE019091FF010E94471EB9
:1038E0000E944C130E9448170E9402170E941D1745
:1038F0000E94A81B8823A1F70E94C7168091FE0191
:103900009091FF010E94511E882311F080E00895DC
:1039100083E608958F929F92AF92BF92CF92EF92DB
:103920000F931F9310922002109202021092010234
:103930001092040210920302109200028091FE0184
:103940009091FF0160E04AE025E003E0A7E0EA2E65
:10395000F2E0CF2EE2E0AE2EB12C72E0872E912C59
:103960000E940D1E8091FE019091FF0161E04AE0EE
:1039700029E00E940D1E8091FE019091FF0162E0FE
:103980004AE02FE058E0E52E0E940D1E8091FE01D6
:103990009091FF0163E04AE022E034E0E32E0E94D0
:1039A0000D1E00E016E08091FE019091FF01602F56
:1039B0000E94681E612F601B402F0E9456130F5FEC
:1039C000043089F70E9408131F910F91EF90CF9058
:1039D000BF90AF909F908F90089586EC91E06DE33B
:1039E00077E10E94FF2386EC91E062EE72E00E9494
:1039F0009B3286EC91E06BEB75E10E94FF2386EC35
:103A000091E06BED72E00E94503260910102709182
:103A1000020286EC91E04AE050E00E944F3386ECCF
:103A200091E064ED72E00E94503260910302709167
:103A3000040286EC91E04AE050E00E944F3386ECAD
:103A400091E06DEC72E00E94503286EC91E0609162
:103A500020024AE050E00E947E3386EC91E065EC63
:103A600072E00E94503286EC91E063EC72E00E94BA
:103A7000503286EC91E066EB72E00E949B3286EC5D
:103A800091E064EB72E00E94503286EC91E066EACD
:103A900072E00E949B3282E891E064E00E949C1FE9
:103AA000882321F00E948A1C80E0089582E891E03A
:103AB00066E00E949C1F882311F483E6089588E73E
:103AC00091E00E94012780E0089588E791E00E943C
:103AD00079288823C1F180910002813059F1813029
:103AE00018F0833671F529C00E94D8138093000224
:103AF00082E891E066E00E949C1F882311F188E72C
:103B000091E06CEE72E042E00E943229882319F0C5
:103B10008130B9F403C00E94791413C088E791E0A2
:103B20000E94012788E791E060EF72E048E20E947E
:103B3000612607C00E94661C02C00E94ED1C809393
:103B400000021092900108950F931F93CF93DF937B
:103B500088E791E00E94FC2B88E791E06CEF72E02F
:103B60000E94F72B88E791E00E942E288CEE91E0CE
:103B70000E9423328C010E947E1EC8018E599F4FE5
:103B80000E947E1EC8018C539F4F0E947E1EC8015A
:103B90008A5D9E4F0E947E1EC80188579E4F0E94DC
:103BA0007E1E1093FF010093FE0182E690E00E94CA
:103BB0002332182F092F0E947E1EE091FE01F09102
:103BC000FF01EF01212F302FC901DC0182E60D90AA
:103BD00009928150E1F7E551FE4F81E0808382E652
:103BE00090E00E942332182F092F0E947E1EE09140
:103BF000FE01F091FF01E857FE4F212F302FC90140
:103C0000DC0182E60D9001928150E1F70E948A1C4E
:103C1000DF91CF911F910F910895EF920F93DF9352
:103C2000CF93CDB7DEB7DC01522F15968C91159747
:103C3000843040F590E0019627E130E0829FF0016A
:103C4000839FF00D929FF00D11240197EA0FFB1F47
:103C500060831182829FF001839FF00D929FF00D8F
:103C60001124EA0FFB1F078304874683428743879B
:103C700051875687E086E58615968C9115978F5F5C
:103C800015968C93CF91DF910F91EF9008952FEFC0
:103C9000FC0124830895FC0115820895FC016483CE
:103CA0000895FC01258190E007C08681779618165B
:103CB00014F481E008959F5F9217B8F380E00895AF
:103CC00020E0FC0184818F3F09F021E0822F0895DC
:103CD00027E1629FB00111246A5F7F4F680F791F4F
:103CE000CB010895FC01248187E1289F90011124D4
:103CF0002A5F3F4F2E0F3F1FC9010895EF92FF9299
:103D00000F931F938C0106960E94FF0DC8014D96DC
:103D10000E94FF0D84E3E82EF12CE00EF11EC70196
:103D20000E94FF0DC70147960E94FF0DF801158202
:103D30008FEF84831F910F91FF90EF900895882358
:103D400019F48CB5806202C08CB58F7D8CBD08954E
:103D50009CB5937F982B9CBD08952CB5382F33705C
:103D60002C7F322B3CBD2DB590E095958795959590
:103D7000879581702E7F822B8DBD08958AE061E04A
:103D80000E94B1318AE061E00E9445318CB58061CA
:103D90008CBD8CB580648CBD8DE061E00E944531A6
:103DA0008BE061E00E9445310895FC0181E0808351
:103DB000089585E070E00E94E53008956F927F924B
:103DC0008F929F92AF92BF92CF92DF92EF92FF922B
:103DD0000F931F93CF93DF93EC0189819A818C011C
:103DE00024E0000F111F2A95E1F7081B190B85E14C
:103DF0000E94C330BC01600F711F84E07695679507
:103E00008A95E1F77A8369838881882381F12E81FD
:103E10003F816217730710F4B90106C08885998540
:103E20008617970708F4BC0100D000D080E090E02E
:103E300040E050E0E884F98400E010E0AD80BB246D
:103E4000CC24DD246C80772488249924EDB7FEB738
:103E500061827282838294820E94EF336B830F901F
:103E60000F900F900F9085E070E00E94E530DF9199
:103E7000CF911F910F91FF90EF90DF90CF90BF9067
:103E8000AF909F908F907F906F900895FC018CE38E
:103E90009FE09383828384E0818381E08487089517
:103EA000CF93DF93EC018C8590E08F719070892B1C
:103EB00069F584E10E94C330AA2797FDA095BA2F27
:103EC000BC01CD010E94AE3426EE3FE34EEC50E43F
:103ED0000E943A350E9480349B01AC017B836A8347
:103EE0006115710589F084E08983B901FE0120E044
:103EF000848195816817790710F429830AC02F5FA0
:103F000032962430A9F702C08FEF89838C858F5FAA
:103F10008C87DF91CF910895FC0188E0808389E050
:103F2000818387E0828386E0838384E0848382E0E8
:103F3000858381E18683089520E0FC01E60FF11D71
:103F40008781813009F421E0822F0895E62FF0E087
:103F5000423040F420E0E80FF91F878181508E3F06
:103F600088F40FC0E80FF91F87818F3F11F420E01C
:103F700009C020E090E0642F70E00E94C8350197EE
:103F800009F421E0822F08950F931F93CF93DF93BD
:103F9000EC0110E00FEF888162E00E9445318881DA
:103FA0000E94E4312F81892B19F42F5F2F8307C0E2
:103FB000222349F02F3F11F41F8201C00F83888113
:103FC00060E00E9445311F5F2196173021F7DF9195
:103FD000CF911F910F910895FC01742F643508F063
:103FE0005DC047FD5BC040330CF058C0878D823008
:103FF00019F5842F859585958595992787FD909549
:10400000462F552747FD509524E530E0829FF0016B
:10401000839FF00D929FF00D1124E40FF51FED5CCE
:10402000FC4F808190E0272F277002C095958795DF
:104030002A95E2F780958170972F9595959595959E
:10404000462F552747FD5095272F27708823A1F429
:10405000E4E59E02F0011124E40FF51FED5CFC4F36
:1040600081E090E002C0880F991F2A95E2F78095C1
:104070002081282320830895E4E59E02F001112485
:10408000E40FF51FED5CFC4F81E090E002C0880F6B
:10409000991F2A95E2F72081282B20830895FC019F
:1040A000678F60A30895FC01678F40A30895AF92C6
:1040B000BF92CF92DF92EF92FF920F931F93CF9315
:1040C000DF93EC01162FF42EE22EAA24402F552761
:1040D00047FD50958F2D992787FD9095481B590BCB
:1040E00057FF03C0509541955F4F2E2D332727FD75
:1040F0003095812F992787FD9095281B390B37FF25
:1041000003C0309521953F4F2417350744F4AA2466
:10411000A3948F2DF12E182F802F0E2DE82EE1164F
:1041200034F48E2DE12E182F802F0F2DF82EDE2C3B
:10413000D11A202F332727FD30958F2D992787FD02
:104140009095281B390B37FF03C0309521953F4FC1
:10415000B22EF0161CF0CC24CA9402C0CC24C39416
:104160008D2DD7FC8F5F082F059511C0AA2021F057
:10417000CE016F2D412F03C0CE01612F4F2D0E9424
:10418000EC1F0B1907FF02C0FC0C0D0D1F5FE116A1
:104190006CF7DF91CF911F910F91FF90EF90DF901F
:1041A000CF90BF90AF9008950F93042F322F262FFA
:1041B0002150230F0E9457200F9108950F93362FFF
:1041C000042F0150020F232F0E9457200F910895B2
:1041D0009F92AF92BF92CF92DF92EF92FF920F9396
:1041E0001F93CF93DF936C01B62E942EA02EC0E0C8
:1041F000D0E0E62EFF24E7FCF094022F112707FD04
:1042000010950E0D1F1D06C0C601492D2A2D0E94B6
:10421000DE2021966B2D6C0FCE018E0D9F1D801719
:10422000910794F3DF91CF911F910F91FF90EF9041
:10423000DF90CF90BF90AF909F9008952F923F92C4
:104240005F926F927F928F929F92AF92BF92CF9226
:10425000DF92EF92FF920F931F93DF93CF9300D0E3
:1042600000D000D0CDB7DEB79E838D83C62ED42E6E
:10427000EE24E394E21A8EEF289F502C1124842E12
:104280008A94962E9A94A42EA394B62EB394F22ECA
:10429000662423E0722E10E0C801847090709A8327
:1042A0008983F801E270F070FC83EB8398E0292E9B
:1042B000312C202231220170107054C0E7FC04C060
:1042C000FA94F2E05F0EE50C639489819A81892B60
:1042D00071F04F2D4D0D8D819E816B2D0E94EC1F35
:1042E0006F2D6C0D8D819E814A2D0E94EC1FEB81FC
:1042F000FC81EF2B71F04D2D4F198D819E816B2D1F
:104300000E94EC1F6F2D6C0D8D819E81482D0E94A7
:10431000EC1F2114310471F06C2D6F198D819E8179
:104320004A2D0E94EC1F4F2D4D0D8D819E81692DD0
:104330000E94EC1F0115110571F06C2D6F198D8114
:104340009E81482D0E94EC1F4D2D4F198D819E811D
:10435000692D0E94EC1FE70CF2E07F0E8A949A947C
:10436000A394B3946F140CF4A9CF26960FB6F894C7
:10437000DEBF0FBECDBFCF91DF911F910F91FF9098
:10438000EF90DF90CF90BF90AF909F908F907F90F5
:104390006F905F903F902F9008954F925F926F9231
:1043A0007F928F929F92AF92BF92CF92DF92EF92C5
:1043B000FF920F931F93CF93DF93EC01A62E742EE1
:1043C0009E2DFF24F394F21A8EEF289F802C112447
:1043D000B42EBA9453E0C52ECE0CE22EDD2443E079
:1043E000942E10E031E0432E512C40225122692EB0
:1043F00063940270107034C0F7FC04C0EA9482E049
:10440000880EF80CD3944114510489F06D2D6A0D77
:10441000472D4E192E2D220F260DCE010E94DE2093
:104420006E2D6A0DCE014B2D2C2D0E94DE20011524
:10443000110589F06A2D6D19472D4E192E2D220F69
:10444000260DCE010E94DE206A2D6E19CE014B2D65
:104450002C2D0E94DE20F90C82E0980EBA94C80E32
:10446000DE1454F2DF91CF911F910F91FF90EF90E6
:10447000DF90CF90BF90AF909F908F907F906F9084
:104480005F904F9008957F928F929F92AF92BF92CC
:10449000CF92DF92EF92FF920F931F936C01962EB3
:1044A000A42EF22E7E2C760E1EEFE19E102D1124EE
:1044B000812E820E672D282D0E94D420B02EBA0C9A
:1044C000BA94C601672D4B2D282D0E94D420AE0C26
:1044D000100FC601692D4A2D212F0E94DE20F90CF4
:1044E000FA94C6016F2D4A2D212F0E94DE20C601AD
:1044F000672D4A2D2E2D01E00E941E21FE18C601B7
:104500006F2D4A2D2E2D02E00E941E21BE18C601DD
:104510006F2D4B2D2E2D04E00E941E21C601672D0C
:104520004B2D2E2D08E00E941E211F910F91FF9010
:10453000EF90DF90CF90BF90AF909F908F907F9043
:1045400008958F929F92AF92BF92CF92DF92EF9297
:10455000FF920F931F936C01162FA42E922EF02E14
:10456000BE2C8E2C860E2EEFE29EE02C11242E2DDA
:10457000290D682D0E94E820AB0CFA94FE0C115016
:10458000190D1B19C601612F4A2D2B2D01E0EF2CAF
:104590000E94CD21C601682D4A2D2B2D02E00E94DC
:1045A000CD211F910F91FF90EF90DF90CF90BF90A2
:1045B000AF909F908F9008953F924F925F926F922D
:1045C0007F928F929F92AF92BF92CF92DF92EF92A3
:1045D000FF920F931F93CF93DF934C01362E442EFF
:1045E000F901A490319654906F010894C11CD11C1C
:1045F0008A2D992787FD9095079668E070E00E94C4
:10460000DC35E62EFF24E7FCF09400E0C0E0D0E0CB
:1046100060E8662E712C26C0E12FE595E595E595BD
:10462000FF27E7FDF095EC0FFD1FEC0DFD1DE4915C
:104630002E2F30E0812F8770A30102C0559547953A
:104640008A95E2F724233523232B31F0612F630D64
:10465000C4014B2D0E94EC1F1F5F1A15ECF20F5F77
:10466000CE0DDF1D051524F410E0B02EB40CF5CFEF
:10467000DF91CF911F910F91FF90EF90DF90CF903E
:10468000BF90AF909F908F907F906F905F904F9072
:104690003F9008952F923F924F925F926F927F9238
:1046A0008F929F92AF92BF92CF92DF92EF92FF9242
:1046B0000F931F93DF93CF9300D000D00F92CDB70D
:1046C000DEB73C01862E4A83F901BE2C002329F473
:1046D000EE2019F40E94DC227AC0A49031969490C6
:1046E0001F010894211C311C037009838A2D99270E
:1046F00087FD9095079668E070E00E94DC35462EB5
:10470000552447FC5094C92CCA94FF241D821C8256
:104710004A2D41504B8356C0E02FE595E595E59530
:10472000FF27E7FDF0958C819D81E80FF91FE20DD1
:10473000F31DE4912E2F30E0802F8770A0E8B0E0C9
:1047400002C0B595A7958A95E2F72A233B23232B30
:1047500061F1B981B13051F0B13028F0B23049F097
:10476000B33061F409C0102FEF2C08C0ED2C1F2DC1
:1047700005C01D2DEC2C02C01C2DE02EBB2069F0C5
:10478000E3E0BE228B2DB0FE03C0FA2DF11B1F2FDC
:1047900081FF03C0492D4E19E42E180D5A81E50EF4
:1047A000C301612F4E2D0E94EC1F0F5FDA940A1592
:1047B0000CF4B2CFF3948C819D81840D951D9D8363
:1047C0008C83CA94F9141CF4DB8000E0F0CF0F90C6
:1047D0000F900F900F900F90CF91DF911F910F913D
:1047E000FF90EF90DF90CF90BF90AF909F908F9011
:1047F0007F906F905F904F903F902F900895DC01D5
:10480000FB0184918F5F14968C9314973196849159
:104810008F5F15968C93159731965E96FC93EE9369
:104820005D9708953F924F925F926F927F928F9221
:104830009F92AF92BF92CF92DF92EF92FF920F932F
:104840001F93CF93DF93EC01862EA42E422F102FBF
:104850003F8C23E526170CF4ABC03FE23A150CF46D
:10486000A7C0C02EDD248C8190E001979C01C29EE0
:10487000C001C39E900DD29E900D1124262F332788
:1048800027FD3095820F931F181619060CF090C063
:104890008D8190E09C01C29EC001C39E900DD29E6E
:1048A000900D11242A2D332727FD3095820F931F59
:1048B000181619060CF07CC09924442E55246DC09E
:1048C0009C01215030404217530711F460E00EC0A4
:1048D000429EC001439E900D529E900D1124840F64
:1048E000951FED8DFE8DE80FF91F64914C9DC00161
:1048F0004D9D900D5C9D900D1124682C680EBB247D
:10490000792C780C3FC0E62EFF2460FF19C01130CF
:1049100039F44B2D4A0DCE01672D0E94EC1F2EC09D
:104920002C9DC0012D9D900D3C9D900D11244A2D74
:10493000480FCE01662D212F012F0E94E8201EC0B6
:1049400098A18F8D9817D1F09F8F113039F44B2D8E
:104950004A0DCE01672D0E94EC1F0FC02C9DC00197
:104960002D9D900D3C9D900D11244A2D480FCE0198
:10497000662D212F012F0E94E8203F8EF594E794A9
:104980006E2DB3942B2D332727FD30958D8190E02C
:10499000281739070CF4B7CF9394492D552747FDB5
:1049A00050958C8190E0481759070CF489CF3F8EC1
:1049B000DF91CF911F910F91FF90EF90DF90CF90FB
:1049C000BF90AF909F908F907F906F905F904F902F
:1049D0003F9008950F93CF93DF93EC01262F6A3019
:1049E00049F48D819885899F802D11249A85980F8F
:1049F0009A8726C06D3029F169854A8508850E940D
:104A000012249C816885969F402D11248985480F2A
:104A100049878F818823A9F0552747FD5095699FC5
:104A20009001112484E590E0821B930B8417950775
:104A300044F49D81699F902D11248A85890F8A876E
:104A4000198681E090E0DF91CF910F9108951F9337
:104A5000CF93DF93EC01162FF8948E8560E00E94CF
:104A6000B1318F8518161CF460E00E94B1311EBD73
:104A70000DB407FEFDCF8EB58F8518161CF461E0CE
:104A80000E94B1317894DF91CF911F910895FF92E8
:104A90000F931F93CF93DF93EC01FF2400E010E00E
:104AA0006F2D6064CE010E942725CE0160E80E9430
:104AB00027258E8561E00E94B1318F8518161CF480
:104AC00060E00E94B131F801ED5CFC4F90E0808124
:104AD0008EBD0DB407FEFDCF8EB59F5F3196943528
:104AE000B1F78F8518161CF461E00E94B131F39480
:104AF0000C5A1F4F86E0F81699F6CE0160E40E942A
:104B00002725DF91CF911F910F91FF900895CF93AB
:104B1000DF93DC0188EF91E0E3E3F3E0EF019C0138
:104B2000199221503040E1F719961C9219971A9664
:104B30001C92DF91CF910895EF920F93CF93DF9363
:104B4000EC014D876C872E87E88A0F8781E0888784
:104B50008F8F18A28F83CE016BEB75E10E94FF232C
:104B60000E94BE1E81E00E949F1E85E00E94AD1E35
:104B70008CE00E94A81E8D8561E00E9445318C85E5
:104B800061E00E9445318E8561E00E94453188894F
:104B900018161CF461E00E9445318F8518161CF42C
:104BA00061E00E944531888918166CF460E00E942B
:104BB000B1316AE070E080E090E00E946230888964
:104BC00061E00E94B131EC852E2F332727FD30950F
:104BD000F901E459F44EE491F0E0EE0FFF1FE85ABA
:104BE000F44E859194919C8B8B8B2058344EF90117
:104BF00084918A8FED852E2F332727FD3095F9017B
:104C0000E459F44EE491F0E0EE0FFF1FE85AF44E41
:104C1000859194919A8B898B2058344EF901849117
:104C2000898FEF852E2F332727FD3095F901E45921
:104C3000F44EE491F0E0EE0FFF1FE85AF44E859138
:104C400094919E8B8D8B2058344EF90184918B8FDB
:104C5000EE852E2F332727FD3095F901E459F44EC8
:104C6000E491F0E0EE0FFF1FE85AF44E8591949125
:104C7000988F8F8B2058344EF90184918C8FCE0100
:104C800061E20E942725CE0164E10E9427258B85E1
:104C900087FF02C08FE78B876B856068CE010E941B
:104CA0002725CE0160E20E942725CE016CE00E94FC
:104CB0002725CE010E944725DF91CF910F91EF90DC
:104CC0000895FC01ED57FF4F61937193445F40835A
:104CD0000895CF93DF93DC01E0E8F7E785919491A5
:104CE000ED01C75ADF4FAD0141595F4F8150904CE4
:104CF00009F04EC0E6E9F7E7E491E883E7E9F7E772
:104D0000E4911496EC931497E8E9F7E7E49115968B
:104D1000EC931597E9E9F7E78591949117969C93A1
:104D20008E931697EBE9F7E78591949119969C93EA
:104D30008E931897EDE9F7E7E4919B96EC939B9798
:104D4000EEE9F7E7E4919A96EC939A97EFE9F7E7A3
:104D5000E491EA01E883E0EAF7E7859194915D96B2
:104D60009C938E935C97E2EAF7E7859194915F9626
:104D70009C938E935E97E4EAF7E7859194919196E0
:104D80009C938E939097E6EAF7E78591949132C0D1
:104D90008CE3888314961C9214972FEF15962C930E
:104DA000159780E293E017969C938E93169784ED67
:104DB00093E019969C938E93189781E09B968C9321
:104DC0009B979A968C939A97FA0120838CEA9DE0A0
:104DD0005D969C938E935C978EED9DE05F969C9381
:104DE0008E935E9784E79EE091969C938E93909726
:104DF0008CE39FE093969C938E939297DF91CF9153
:104E00000895EF92FF920F931F93CF93DF937C014E
:104E10008C01025B1F4FC8010E948725C80164EE08
:104E200079E10E945032C8010E94472583E00E9428
:104E3000AD1E80E091E0EEEFFFE3099584E590E0A0
:104E4000E80EF91EF7011082C8016FEB79E10E94AC
:104E50009B32C8010E944725E701CA54D040CE01C9
:104E60000E94C41FCE0164E00E949C1F882339F475
:104E700062E370E080E090E00E946230F0CFDF916A
:104E8000CF911F910F91FF90EF9008950F931F9373
:104E9000CF93DF93EC018C01025B1F4FC80161E0EF
:104EA00040E00E945320FE01E95AFF4FCE5ADF4FE7
:104EB00085E59881891B808326961882C855D04045
:104EC000698D613009F43EC0613028F0888D65300D
:104ED00008F051C04BC0CE0185960E94012DCE0135
:104EE00060E00E94D91EC8010E948725CA5ADF4F80
:104EF00081E08883C655D040C80160E27AE10E9413
:104F000050326A8D7B8DC8014AE050E00E943E33EA
:104F1000C8016CE07AE10E945032C8010E94472526
:104F200083B7817F846083BF83B7816083BF83B78A
:104F3000816083BF889583B78E7F83BF83B78E7F61
:104F400083BF1FC0C059DF4F88819981AA81BB816F
:104F50008F709070A070B0700897A105B10518F41B
:104F6000C80167E00CC0C80168E709C0882349F0A0
:104F70006B5FC80104C0882321F0C8016FE20E9462
:104F80007332DF91CF911F910F910895AF92BF922D
:104F9000CF92DF92EF92FF920F931F93CF93DF9305
:104FA000EC01CB57DF4F8881C558D040882309F4E6
:104FB0004AC08C3010F010E002C01CE0181BCA5A26
:104FC000DF4F81E08883C655D0406EE4C62ED12CD9
:104FD000CC0EDD1EC60160E00E944F2053E5A52ED9
:104FE000B12CAC0EBD1EF50100814DE2F42E4F2D0B
:104FF000401B410F0D5FC60160E024E533E0E32E66
:105000000E94A122C60161E00E944F20F5010081AB
:10501000F01AF10E0D5FC60160E04F2D24E50E94ED
:105020004322C95ADF4F84E08993F5018081181B20
:10503000115D1883AB9669917991C6010E94503237
:10504000888181508883DF91CF911F910F91FF90CC
:10505000EF90DF90CF90BF90AF9008954F925F9206
:105060006F927F928F929F92AF92BF92CF92DF9278
:10507000EF92FF920F931F932C01FC01628C738CB3
:1050800060947094882499240E943C305B016C01E8
:105090000E943C307B018C01F201418052800E94D1
:1050A0003C30460E571EA094B094C094D094E09427
:1050B000F09400951095C601B501A80197010E94D2
:1050C0009D35A40193010E949D35460E571EC201D5
:1050D0000E9478341F910F91FF90EF90DF90CF9056
:1050E000BF90AF909F908F907F906F905F904F9008
:1050F0000895AF92BF92CF92DF92EF92FF920F93FB
:105100001F93CF93DF93EC01EFE7AE2EB12CA80EE7
:10511000B91EF501E080F180028113810E942E30DA
:10512000E61AF70A080B190B7EE7C72ED12CCC0E16
:10513000DD1EF601808190E0A0E0B0E08E159F05B5
:10514000A007B10708F081C08E0106581F4FF80173
:1051500080819181A281B3810097A105B10509F4F5
:1051600074C00E942E30F6012081620F711D811DD6
:10517000911DF5016083718382839383FE01E05961
:10518000FF4F80819181A281B3810196A11DB11D44
:1051900080839183A283B383F801108211821282EB
:1051A00013820E943C30CA58DF4F688379838A8318
:1051B0009B83C657D040CE010E94DE1ECE010A96C8
:1051C0000E94C41FCE0148960E94501F81E032C049
:1051D0008E010B5D1F4FC8010E944F2DC8010E9418
:1051E000C62DC8010E94A92ECE010E94C627CE015D
:1051F0000E9446278E01025B1F4FC8010E9447256F
:10520000CC5ADF4F8881C455D040882319F4C80197
:105210000E9487250E943C30C658DF4F68837983FF
:105220008A839B83249728813981621B730B7A932D
:105230006A9380E0DF91CF911F910F91FF90EF90E3
:10524000DF90CF90BF90AF900895C658DF4F888110
:105250009981AA81BB81CA57D0400097A105B105A9
:1052600041F7B6CF2F923F924F925F926F927F920B
:105270008F929F92AF92BF92CF92DF92EF92FF9266
:105280000F931F93DF93CF93CDB7DEB762970FB61F
:10529000F894DEBF0FBECDBF6C016C837D834B8362
:1052A00024E530E0C20ED31EF60110822CEA3FEF57
:1052B000C20ED31E1AE0A12EB12CAC0CBD1CB5E25F
:1052C0002B2E312C2C0C3D1CAEE44A2E512C4C0CB8
:1052D0005D1C1A823FEF398310E0F0E37F2E6624D5
:1052E000A601495A5F4F5F834E83C601885A9F4F7C
:1052F00099878887F601EA5AFF4FFB87EA8796016C
:105300002B5A3F4F3D872C87E3E58E2E912C8C0C3A
:105310009D1C5B81452F50E05F874E878B818150BC
:10532000888BC6010E9479288823D9F3C50164E0DF
:105330000E949C1F882369F4C50165E00E949C1FA0
:10534000882339F4C50166E00E949C1F882309F474
:10535000D3C0F4010081C50164E00E949C1F882332
:1053600029F0C1010E94062F1983CBC0C1010E9400
:105370000C2FC7C0C50163E044E00E94A61F88232C
:1053800021F01F5FC1010E94122FC50161E044E0BE
:105390000E94A61F882321F01150C1010E94122FE4
:1053A000812F992787FD90952E853F85821793073A
:1053B00011F410E002C017FD1889F4018081819F6B
:1053C000902D11248C5F682E691A28C0872D99278B
:1053D00087FD9095262D332727FD3095821B930B53
:1053E0000297D4F4898162960FB6F894DEBF0FBE9F
:1053F000CDBFCF91DF911F910F91FF90EF90DF9084
:10540000CF90BF90AF909F908F907F906F905F9064
:105410004F903F902F900895F1E0FA83862D9927C1
:1054200087FD9095272D332727FD3095820F931FF9
:1054300062E070E00E94DC35762EEE81FF81108202
:10544000E885F985608321E0EA85FB852083EC858A
:10545000FD8510822C813D81C9019A8B898B00E0EA
:10546000E12EFF24E7FCF09420C0802F90E08E1501
:105470009F0569F423E0EE81FF812083F4018081A0
:105480008E9D802D1124870DE885F9858083E9891B
:10549000FA8965917491C2010E949B320F5F29893C
:1054A0003A892E5F3F4F3A8B298B3B810317E8F2F5
:1054B000C20160E00E944F20F40140814E9D402DCA
:1054C00011244150470DC20160E024E50E94D42020
:1054D000C20161E00E944F20F40100810E9D402D29
:1054E00011244250470D0D5FC20160E024E573E0D6
:1054F000E72E0E94432215CFFA81FF2309F066CFE1
:1055000039CF802F90E0909581959F4F2E853F85D4
:10551000AC01249FC001259F900D349F900D112454
:105520006EEF662E680E52CF2F923F924F925F928F
:105530006F927F928F929F92AF92BF92CF92DF92A3
:10554000EF92FF920F931F93DF93CF93CDB7DEB708
:105550002B970FB6F894DEBF0FBECDBF9B878A870F
:105560007A8369835C834B838C0101591F4FF80157
:105570008081882309F422C18A859B858A5A9F4F9E
:105580009B878A8781E0EA85FB858083129212924D
:10559000E455F040FB87EA87108E9EE4E92EF12C5B
:1055A000EE0EFF1EC70161E00E944F208AE0282E08
:1055B000312C8A859B85280E391EB5E26B2E712C05
:1055C000680E791EE981FA81F491FD83A7E58A2EA0
:1055D000912C880E991EF8E5CF2ED12CC80ED91E1D
:1055E000E2E54E2E512C480E591E8D5A9F4F9F8337
:1055F0008E8370E7A72EB12C8A859B85A80EB91ED5
:10560000198708878A859B850E9479288823D1F38A
:105610009D81992311F410E003C0EE81FF81108178
:10562000C70160E040E02DE53AE10E94DC228B8179
:105630009C81892B41F0145FC70160E0412F2B81D1
:105640003C810E94DC22F40110828CE0F601808310
:10565000C70169817A810E945032F201208130E0D5
:10566000C901880F991F820F931F909581959F4FB5
:105670008D5AF4018083EE81FF81208130E0C901E1
:10568000880F991F820F931F909581959F4F835D7F
:10569000F6018083F501808184FF04C0C7016DEDB0
:1056A0007AE103C0C70169ED7AE10E949B32F20101
:1056B000208130E0C901880F991F820F931F9095B8
:1056C00081959F4F8D5AF4018083F60180818F5F11
:1056D0008083EA85FB8582A5882321F0C70165EDDB
:1056E0007AE103C0C70161ED7AE10E949B32F201C9
:1056F000808190E09C01220F331F280F391F3095C5
:1057000021953F4F2D5AF4012083F60180818F5F50
:105710008083C7016DEC7AE10E949B32C10165E094
:105720000E949C1F882351F0EA85FB8562A56F5F6C
:10573000C3010E94182FC3010E94122FC10164E00F
:105740000E949C1F882399F4E885F9856081262FA3
:1057500030E040E050E0F50180819181A281B38189
:1057600082179307A407B50708F16F3FF9F08A8500
:105770009B8581599F4F9B878A878FEFEA85FB85A1
:105780008083EF56F040FB87EA87C30160E00E9408
:10579000F62CC3010E94062F81E0EA85FB85808FED
:1057A0000DC08A859B850E9401272CCFC10166E030
:1057B0000E949C1F882309F425CFF3CF2B960FB6A8
:1057C000F894DEBF0FBECDBFCF91DF911F910F9137
:1057D000FF90EF90DF90CF90BF90AF909F908F9011
:1057E0007F906F905F904F903F902F90089540E092
:1057F00050E00E94942A0895AF92BF92CF92DF9218
:10580000EF920F93CF93DF936C018EE790E0C80E79
:10581000D91E82E3F601808381E090E0A0E0B0E051
:10582000B293A293929382936F0185EF9FEFC80E7C
:10583000D91E8FEFF601808381E99FEFC80ED91E34
:10584000C6010E946926C6010E94D51EC6016FEFDF
:105850000E94D91E4AE0A42EB12CAC0CBD1CC5017F
:105860000E948C1FC5010E94C41FC60148960E9459
:10587000461FC601825B9F4F6DE04BE020E10FE0C9
:105880003EE0E32E0E949C25E601A596CE010E94F3
:10589000252FC50165E00E949C1F882329F0CE01B9
:1058A00060E00E94182F06C0CE0163EE7AE140E06E
:1058B0000E94052DDF91CF910F91EF90DF90CF9057
:1058C000BF90AF9008950F93DC01002309F069C0E9
:1058D000623009F443C0633030F4662359F061301C
:1058E00009F05FC00DC0633009F444C0643009F0B2
:1058F00058C04CC04B3008F04AE056964C9351C00B
:10590000842F90E0880F991F1F962D913C915097FE
:10591000280F391FF9018591949190969C938E934D
:105920005F97FC014591549114968C911497849F34
:10593000602D112491966C939197252F3327862FF4
:1059400090E02817390708F4652F14968C91149766
:10595000689F802D112492968C9323C014968C916D
:105960001497489F802D112459968C9359975A96D5
:105970002C9317C014968C911497489F802D112456
:105980005B968C935B975C962C930BC014968C91D2
:105990001497489F802D11245D968C935D975E9699
:1059A0002C930F910895FC01222371F4648B848160
:1059B000489F802D1124858B15A214A213A281E08B
:1059C000878B80932C05108E0895FC01662369F463
:1059D000178A158A14A213A2108E10922F05109206
:1059E0002E0510922C051092B4000895CF93DF93EA
:1059F000EC01662319F40E94E52C1982DF91CF9106
:105A0000089560E00E94F62C08950F931F93CF93A2
:105A1000DF93EC018B01442371F460E00E94F62CCB
:105A20001E870D871B8A1A8A81E0898389E08E8B05
:105A3000198E1B8E1D8EDF91CF911F910F910895AE
:105A4000CF93DF93EC01662339F58881882321F118
:105A50008981882309F5898590E0880F991FEF8156
:105A6000F885E80FF91F859194912FEF8F3F9207EA
:105A700011F4188211C09C8790E0880F991FEA8565
:105A8000FB85E80FF91F65917491CE0140E00E94FB
:105A9000052D89858F5F8987DF91CF91089560E01B
:105AA0000E94202D08950F93CF93DF93EC0166237E
:105AB00009F068C08981882309F464C08D8988232E
:105AC00009F060C0EA89FB89EE0FFF1F4D855E85F6
:105AD000E40FF51F259134912115310509F040C0DF
