:100000000C9488060C94B0060C94B0060C94B006C0
:100010000C94B0060C94B0060C94B0060C94B00688
:100020000C94B0060C94B0060C94B0060C94882086
:100030000C94B0060C94B0060C94B0060C94B00668
:100040000C948C210C94B0060C94B0060C94B00661
:100050000C94B0060C94B0060C94B0060C94B00648
:100060000C94B0060C94B0064D61697320717565EF
:100070002021202E2E2E001010000000000000076E
:10008000C01C00301020F063804C00183810E011C4
:100090008003000200000000003010FFFFFFFFFFA0
:1000A000F8800004000008800004000008800000C0
:1000B000000008802000008008802000008008FFE9
:1000C000FFFFFFFFF8C00000000000C000000000BC
:1000D00000C00000000000C00000000000C00000E0
:1000E000000000C00000000000C00000000000C0D0
:1000F0000000000000C00000000000301000000000
:1001000000001800000000001800000000001800A7
:1001100000000000180000000000180000000000AF
:100120001800000000001800000000001800000087
:10013000000018FFFFFFFFFFF88008000020088084
:100140000800002008800000000008800001000076
:1001500008800001000008FFFFFFFFFFF84A095672
:100160000960096B09456E206176616E7421005546
:100170006E2073706163656D6F6E20617474617160
:100180007565210046757475726F6D6F6E00770925
:100190007E0986098B0977097E0992098B097709FF
:1001A0007E0996098B0977097E099D098B09181824
:1001B000000800003400003400006E00006E0001F2
:1001C000E7800318C00608600C0830080018180003
:1001D0000831E3CC20630460630640000240000362
:1001E000C00001800001800001F8FE1F84E021FCB6
:1001F000E03FAA0055FFFFFF181800080000340078
:10020000003400006E00006E0001F7800310C0068D
:1002100038600C6C3008461818830831118C21188E
:10022000C4612C46412842432843C624518C267D74
:100230008C6625BCD735A8BB1FE8A809880009FF34
:10024000FFFF1818000000000C00003C0000E4074D
:1002500001041907C4711C3CC13C1B89700F19C6ED
:100260000D328A0326860664F03444D856448897B3
:100270004689116299F332F00711C00D997F19D99F
:100280001DF07100001D0000070000031818000099
:1002900000003000003C00E027009820808E23E022
:1002A000833C3891D83C98F01E4CB01364C01F2694
:1002B000600D2220032267E262EC624688C44CC9CA
:1002C0008488E70C99B0389B98F08E0F80B80000B6
:1002D000E00000C00000181800000000000000FF4F
:1002E000C007C8F81E083E33FFF377E3FB5C000F3E
:1002F0004C738D5F73B973003D3300471E1E2E0F84
:10030000807C01E3E000E1C007807008001808006D
:100310000C107F0630E3867FE3FFE7C1E78800111A
:10032000181800000000000000FFC007C8F81E08F1
:100330003E3FFFFF7FE3FF5C220E4C220C5FE37821
:1003400073E3FD3363471E232E0FE1FC01E3E0015D
:10035000E1C007807008001808000C107F0630E329
:10036000867FE3FFE7C1E78800111818000000004E
:1003700000000000005545545545545545547FC76D
:10038000FC4044044044047DC7DC05005005005097
:100390000F1C5009B6D818E3881780C81C007831A4
:1003A000FF9878E71E4C4233C40061FE7C7FAB00AF
:1003B00055FFFFFF18180000000000000000005566
:1003C00045545545545545547FC7FC40440440446A
:1003D000047DC7DC0500500500500F1C5009B6D83D
:1003E00018EB881794C81C2678326B187689DE447F
:1003F000DE43C5D259CD134D892061FFFFFF181888
:100400000000003FFFF82000082301882301883006
:100410003818287C2828102830001823FF8822AAA2
:100420008823FF882000083F83F800920000920094
:10043000049240029280019300FC927E948252F7D3
:1004400083DE900012FFFFFE18180000003FFFF847
:1004500021550823FF8823018836BAD82A44A82AC0
:1004600044A83644D822BA8823018823EF8821394A
:10047000083F83F8009200009200049240029280AC
:10048000019300FC927EB4825AFF83FEB0001AFFF3
:10049000FFFE1818000000000000060FC003F870EF
:1004A00006301800200C0060040042243047741C01
:1004B00042241FF8043080040180040322240677BC
:1004C000740C22241800042000047FFFFECAAAAB8B
:1004D000800001C000037555563FFFFC181800004E
:1004E0000000000003F0600E1FC0180C6030040014
:1004F0002006002442002EE20C244238201FF8205F
:10050000010C2001802444C02EEE602444302000E1
:10051000182000047FFFFED55553800001C0000362
:100520006AAAAE3FFFFC1818008000039FFF1F8FD0
:10053000FF3B8F00FF87FFFFC7FF1FC7C00FC7FF2D
:100540000FC7FF0FC7E00FC7FFFFC7FF1FE7F80F79
:10055000E7F80FE7FC1FE7FC7FE7FC7FF7FC7FF77E
:10056000FC7FFFFC3FFFFC3FFFF8FFFFF0FFFFF0C9
:100570001818000100FFF9C0FFF1F800F1DCFFE1FD
:10058000FFFFE3FF03E3F8FFE3F0FFE3F007E3F02F
:10059000FFE3F0FFE3FF1FE7F81FE7F03FE7F03F5F
:1005A000E7F83FE7FE3FEFFE3FEFFE3FFFFE3FFF76
:1005B000FC1FFFFC0FFFFF0FFFFF181801FF80015A
:1005C0001880015A8001188001FF8000180000186F
:1005D00000FF18FF191898F9FF9F191898FF18FFC6
:1005E0000018000018001FFFF8181818181818181D
:1005F0001818181818186618184218180018FE004D
:100600007FAA0055181801FF80015A8001FF800160
:100610005A8001FF80001800001800FF18FF191809
:1006200098FFFFFF191898FF18FF00180000180026
:100630001FFFF8181818181818181818181818186C
:100640006618184218180018FE007FAA00551818DE
:1006500000000060000C60001C1CFF700781C004DB
:1006600000400CFE60187C30103818101008100084
:100670000813FFC81099081FFFF8044A20045B30D4
:100680000CD1100899901088983198C821104A63AD
:10069000186C400800000000181800000060000CF2
:1006A00060001C1CFF700781C0043C400C006018F7
:1006B000FF3010001811FF8810000813FFC8100049
:1006C000081FFFF8044A20045B300CD110089990F1
:1006D0001088983198C821104A63186C40080000AF
:1006E000000018180000000000000000001E0018A4
:1006F00012003C3300662100C2610082419CBBDCD9
:10070000B68990E38990D5A994C1A994C9A990E329
:1007100089D0B6895D9CBB6100822100C233004252
:100720001200661E003C00001800000018180000AF
:10073000000000000000001E001812003C3300669C
:100740002100C265008A459CBBDCB6A994E3ADB428
:10075000C9ADB4DDADB4C9AD94E3ADD4B6A95D9C6B
:10076000BB65008A2100C23300421200661E003CB5
:10077000000018000000181801414007FFE00C00BD
:100780003019E79831428C61C386C00003803C0178
:10079000900009B9FFDD91554981FFC1815541FFA5
:1007A000FFFF4194622714341C661818C30C109480
:1007B000841C489C00630000220000140000080014
:1007C000181802814006FF600EC3701AFF583200ED
:1007D0004C63FFC6C200438200418500A1F8FF1FA1
:1007E0008518A1821841822441FFFFFF41946227AE
:1007F00014341C761818CB0C11A1841D149C018B89
:10080000000062000034000008000808007E5A7EE4
:100810003C18000008080020702020200000080874
:10082000A1A5A5A5A5A585850808FEAAFFAAFFAADA
:10083000FE2908081020408000010204080800403A
:10084000201818040200080881818181818181813A
:100850000808FF818181818181FF08080024420806
:10086000104224000808004200181800420008083E
:1008700008484A4A4A4A0A080808BD66E79999E7BB
:1008800066BD080805020500502050000808000257
:1008900020000002400008080004445555555555F5
:1008A00008083C26DBA5AD93443C08080000040082
:1008B00000000000080800002000000008000808F0
:1008C00000000000000000000808BD008199998127
:1008D00000BD08087E547C107C10284408083E3473
:1008E0003C101C1010180808FC7C7C107C1028445C
:1008F00008087C2C3C083808081808087E547C102E
:100900007C10282008087E547C107C1028080808D9
:100910003E343C103050284408083E343C14181033
:1009200018140808FC7C7C107C1028200808FC7C2B
:100930007C107C10280808087C2C3C080C0A142227
:1009400008087C2C3C28180818284D656368654207
:10095000697A61726400466C6F7474696C6C6500CE
:100960004368616D7069466F72740054657272619C
:10097000426166666C650043686172676500457335
:1009800071756976650046657578004368616E67C4
:10099000650045617500506C616E74650074657228
:1009A00072650003053F213F1208120A100A0E1C4F
:1009B0000E0C1E0C141A14161F161E131E1E1B1EC0
:1009C0001E1F1E3F213F3A2F3A173D173F213F1868
:1009D0001F02040A041F0E04040E1F0A1F0A0E0E33
:1009E0001F04110E2E252E2F2A2E262929021F0222
:1009F000081F08150E04040E150E15151B151B04F3
:100A00000604040C040000000017000300031F0A82
:100A10001F16371A1904130A153A000300000E11A5
:100A2000110E000A040A040E04003000040404003D
:100A300010001804031F111F121F101D1517111588
:100A40001F07041F17151D1F151D01011F1F151F4F
:100A500017151F000A00003200040A110A0A0A11C1
:100A60000A040115020E11171E051E1F150A0E118C
:100A70000A1F110E1F15111F05010E111D1F041F46
:100A8000111F1108100F1F041B1F10101F061F1E1F
:100A9000040F0E110E1F09060E112E1F051A121536
:100AA00009011F011F101F0F180F1F0C1F1B041B14
:100AB000031C03191513001F11030418111F000252
:100AC00001022020200001020C121E1F120C0C1229
:100AD000120C121F0C1A14041E05242A1E1F021CBD
:100AE000141D1020201D1F0814111F101E041E1E8F
:100AF000021C0C120C3E0A040C123E1E04021416B8
:100B00000A020F120E101E0E100E1E081E120C12DC
:100B100026281E322A26041E21001F00211E040141
:100B200002013F213F0A4E6F2053442063617264EB
:100B3000206F720A6E6F204C4F414445522E48453B
:100B4000580A0A153A45786974001D20466C61738D
:100B500068696E670A20206C6F616465722E2E2EA4
:100B60000A0A444F4E2754205455524E204F4646B1
:100B700021006D560A0A504C454153450A545552BE
:100B80004E204F4646004C4F572042415454455248
:100B9000590A00177361766500166261636B001570
:100BA00074797065000A0A0A153A6F6B617920162C
:100BB0003A6564697400596F7520656E7465726575
:100BC000640A00540A03E181867F3E186D830F0F8B
:100BD0000E0183866033186DC3198F1803C38E60AE
:100BE00033186DE330CF1803C39E603630CDE36019
:100BF000CF3006C79E7E3E30CDB360CF300CC6F6F8
:100C0000603330D9B660CF33CFCCF66061B0DB1E35
:100C100060CF30D86CE6C061B0DB1E618F19986C74
:100C2000C6C063B19B0E330F0FB078C6FF7E1F1B8B
:100C3000061E0F17534400161378001613140015E0
:100C4000102000152010000000050089300802382F
:100C5000024978681400004500680100000500683A
:100C600001380100000500380168010000F6E8DBEA
:100C7000CFC3B8AEA49B928A827B746E68625C57C5
:100C8000524E4945413E3A3734312E2C29272523EF
:100C9000211F1D1C1A1917161514131211100F0EEF
:100CA0000D0C0B0A09080706AC0CB00C0101F70388
:100CB0000101FF0300000000240027002A000000BB
:100CC0000000250028002B00000000002300260063
:100CD00029000404040404040404020202020202BF
:100CE00003030303030301020408102040800102F0
:100CF0000408102001020408102000000007000270
:100D000001000003040600000000000000006C0762
:100D100011241FBECFEFD8E0DEBFCDBF11E0A0E0B1
:100D2000B1E0E0EBFFE402C005900D92AC36B107F4
:100D3000D9F715E0ACE6B1E001C01D92A331B107CF
:100D4000E1F71DE0C0E1DDE004C02297FE010E9452
:100D50003A27CE30D107C9F70E94BA230C94D62780
:100D60000C940000FC0116868FEF818B0895FC0126
:100D7000618B08952FEFFC01218B0895FC01808188
:100D800024E68202C0011124648170E00E94E826FA
:100D9000862F0895853009F44AC0863080F4823069
:100DA00071F1833030F48823E1F0813009F06FC0B5
:100DB0001EC0833061F1843009F069C030C08830D2
:100DC00009F44DC0893030F48630C9F1873009F01C
:100DD0005EC03DC0893009F44AC08A3009F057C06E
:100DE0004EC0662309F054C028EF31E053C066239B
:100DF00019F42CE832E04EC022E432E04BC0662306
:100E000019F420E233E046C026ED32E043C0662309
:100E100019F424EB33E03EC02AE633E03BC06623FE
:100E200019F428E434E036C02EEF33E033C06623F3
:100E300019F42CED34E02EC022E934E02BC06623F7
:100E400019F420E735E026C026E235E023C066230A
:100E500019F424E036E01EC02AEB35E01BC06623FF
:100E600019F428E936E016C02EE436E013C06623F4
:100E700019F42CE237E00EC022EE36E00BC06623F8
:100E800019F420EC37E006C026E737E003C00895E8
:100E90002EEA31E0C9010895813039F0813078F0CF
:100EA000823031F0833051F406C026E931E009C0C8
:100EB0002EE931E006C026EA31E003C008952EE8AD
:100EC00031E0C9010895689FC001112464E670E013
:100ED0000E94E826862F08951092BD011092BC0151
:100EE00087E691E09093BB018093BA010895EF9259
:100EF0000F931F93CF93DF930091F9021091FA02A1
:100F00008091010390910203081B190B2091FB02B1
:100F10003091FC024091030350910403C8014096B4
:100F20008536910570F5E901C41BD50B8FEFC03FE5
:100F3000D8073CF1C133D10524F5E0910503809138
:100F40000603882379F02E2F220FE22FEC5F809189
:100F5000DC019091DD0168E070E00E94E8260497D2
:100F60000CF0EF5FF0E0EE0FFF1FEB5BFE4F208118
:100F700031818AEB91E0602F4C2F00E0EE240E943B
:100F8000F014DF91CF911F910F91EF9008958F9200
:100F90009F92AF92BF92CF92DF92EF920F93CF9337
:100FA000DF93CC24DD248824992443C0F5010081FB
:100FB0008091010390910203BE01681B790B40915F
:100FC000030350910403CB0108968D359105F0F48D
:100FD000C401841B950BAC019FEF483F5907B4F047
:100FE000413351059CF4E02FF0E0EF73F070EE0F09
:100FF000FF1FE35EFE4F2081318102950695069525
:1010000003708AEB91E0EE240E94F014E0E1F0E03E
:10101000AE0EBF1E2896C038D10541F60894C11CFB
:10102000D11C88E090E0880E991E90E1C916D10489
:1010300049F059EFA52E51E0B52EAC0CBD1CC0E017
:10104000D0E0B4CFDF91CF910F91EF90DF90CF90B0
:10105000BF90AF909F908F90089562E370E080E022
:1010600090E024EF31E040E050E00E94662570936C
:101070000903609308030895AF92BF92DF92EF9245
:10108000FF920F931F93DF93CF930F92CDB7DEB7ED
:101090008091F5019091F60101969093F60180936D
:1010A000F50160E070E080E090E025E030E040E0B5
:1010B00050E00E946625F62EFF0CFF0C09EF11E0B0
:1010C0005801F3E0DF2EDF0C60E070E080E090E09C
:1010D00024E030E040E050E00E9466256295660F13
:1010E000660F607C6D0DF501608360E070E080E06C
:1010F00090E024E030E040E050E00E94662580EF80
:1011000090E0A80EB91E6295660F660F607C6D0DAB
:10111000F501608381E19FEFA80EB91E99E0A91641
:1011200092E0B90689F660E070E080E090E024E0AB
:1011300030E040E050E00E9466256295660F660F41
:10114000607C6D0DF801608360E070E080E090E00D
:1011500024E030E040E050E00E9466256295660F92
:10116000660F607C6D0DF8016787005F1F4FF2E02E
:10117000093F1F07C1F660E070E080E090E022E0E8
:1011800030E040E050E00E946625E62EEF0CE1E002
:10119000AE2EB12C2AC089818C3008F048C091E075
:1011A000F91609F444C0EEE0FE1609F440C060E010
:1011B00070E080E090E025E030E040E050E00E9408
:1011C0006625611571058105910589F5F801D082C3
:1011D000F394005F1F4FFFE0FF16E9F60894A11C8F
:1011E000B11C8FE0A816B10449F08501075F1D4FBF
:1011F000FF24F3949A2D92509983CDCF82E080936F
:10120000790282E48093880282E88093010282EC72
:101210008093F1020E942D080F90CF91DF911F91D2
:101220000F91FF90EF90DF90BF90AF90089560E036
:1012300070E080E090E024E030E040E050E00E9488
:1012400066256295660F660F607C6E0DF8016083FF
:10125000BFCF0F931F93CF93DF9380910603882313
:1012600009F44EC08091F9029091FA024091FD027A
:101270005091FE0273E0440F551F7A95E1F78417F1
:10128000950759F08417950714F4019601C001974A
:101290009093FA028093F9021AC08091FB02909118
:1012A000FC022091FF023091000363E0220F331F04
:1012B0006A95E1F78217930751F08217930714F4A8
:1012C000019601C001979093FC028093FB028091EC
:1012D000FF029091000323E0880F991F2A95E1F700
:1012E0002091FB023091FC022817390749F48091C4
:1012F000F9029091FA028417950711F410920603EF
:1013000080910603882309F0F7C0C091FD02D091B7
:10131000FE020091FF021091000386E791E062E077
:1013200044E00E944C11882381F08091FD0290914D
:10133000FE02419660E170E00E94E8269093FE0272
:101340008093FD0281E08093050386E791E060E0F1
:1013500044E00E944C11882381F08091FD0290911D
:10136000FE020F9660E170E00E94E8269093FE0274
:101370008093FD0283E08093050386E791E063E0BC
:1013800044E00E944C11882379F08091FF029091F3
:101390000003419660E170E00E94E826909300030C
:1013A0008093FF021092050386E791E061E044E03C
:1013B0000E944C11882381F08091FF0290910003DC
:1013C0000F9660E170E00E94E826909300038093FE
:1013D000FF0282E0809305038091FF02E091FD020D
:1013E000F0E094E0EE0FFF1F9A95E1F7E80FF11D92
:1013F000E750FE4FE081EF738E2F90E001968370EF
:101400009070892BA9F4D093FE02C093FD02109333
:1014100000030093FF02EC2FF0E084E0EE0FFF1FCB
:101420008A95E1F7E00FF11DE750FE4FE081EF7381
:101430008091FD029091FE02C817D90741F4809176
:10144000FF02909100030817190709F455C081E0C5
:10145000809306038E2F90E0029683709070892B04
:1014600009F04AC08CE691E068E670E04CE30E9427
:1014700007180E943C088091FD029091FE0200979F
:1014800039F48FE090E09093FE028093FD021AC041
:101490000F9729F41092FE021092FD0213C0809162
:1014A000FF0290910003009739F48FE090E0909351
:1014B00000038093FF0206C00F9721F410920003EF
:1014C0001092FF028091FD029091FE02B3E0880F1E
:1014D000991FBA95E1F79093FA028093F9028091EF
:1014E000FF0290910003A3E0880F991FAA95E1F7EE
:1014F0009093FC028093FB02209108033091090332
:10150000442737FD4095542F60E070E080E090E084
:101510000E946625611571058105910521F40E94DF
:101520002D0880E01DC08091080390910903019768
:1015300090930903809308032091FB023091FC02F1
:10154000205130408091F9029091FA028297909355
:10155000020380930103309304032093030381E08B
:10156000DF91CF911F910F9108958CE691E00E9439
:10157000D4190E943C0864E070E080E090E028E02C
:1015800030E040E050E00E9466257093FE026093D8
:10159000FD0264E070E080E090E028E030E040E0B0
:1015A00050E00E9466259B01709300036093FF0248
:1015B0008091FD029091FE02F3E0880F991FFA9549
:1015C000E1F79093FA028093F902E3E0220F331FD0
:1015D000EA95E1F73093FC022093FB021092050399
:1015E000109206031092070384EF91E09093090391
:1015F0008093080308950F931F930E94290988235D
:1016000031F00E94C7070E94770780E070C082E136
:1016100090E00E94CC238C010E94B20660E070E052
:1016200080E090E02BE030E040E050E00E94662552
:10163000F8017487638761E070E080E090E024E067
:1016400030E040E050E00E946625F8016183658348
:101650006AE070E080E090E024E130E040E050E0BB
:101660000E946625F8016083648361E070E080E099
:1016700090E025E030E040E050E00E946625F8016F
:101680006383678361E070E080E090E025E030E014
:1016900040E050E00E946625F801628366838DB7C2
:1016A0009EB742970FB6F8949EBF0FBE8DBF809134
:1016B000F2019091F3018096ADB7BEB7119622E189
:1016C00001900D922150E1F70E94BB0FEDB7FEB7DC
:1016D00072960FB6F894FEBF0FBEEDBF8091F20177
:1016E0009091F301809660E00E94EC0F81E01F91E1
:1016F0000F9108958091F2019091F301809660E03E
:101700000E94EC0F08950F931F938091F201909126
:10171000F3010E9411108C018091F2019091F3016C
:1017200080960E941110FC018081D80111969C9135
:10173000891B808387FD10828091F2019091F301D3
:1017400080960E9411108C018091F2019091F3011A
:101750000E941110FC018081D80111969C91891B77
:10176000808387FD10828091F2019091F3010E94A5
:1017700011100E94BA068091F2019091F3018096B7
:101780000E9411100E94BA061F910F9108950F93A5
:101790001F938CE691E06FE671E04CE30E9407181E
:1017A0001CE38CE691E00E941F1A8823D1F31F31BD
:1017B00018F0012F025E0AC086E791E064E00E9403
:1017C00042118823C1F41123B1F00CE31150809130
:1017D000F2019091F30180960E941110FC01838523
:1017E00061E00E94CA069C018AEB91E0602F40E014
:1017F0000E948214D6CF1F910F910895EF92FF920D
:101800000F93AAEBEA2EA1E0FA2EC70162E040E0B6
:1018100029E930E00E9482148091F2019091F30155
:1018200080960E9411100E94BE066BE20E94630720
:10183000282FC70163E041E006E00E948E12C70135
:1018400067E240E22BEF30E00E9482148091F201C7
:101850009091F3010E9411100E94BE066BE20E945B
:101860006307282F63E5681BC70149E20E948E12B7
:101870000F91FF90EF900895CF92DF92EF92FF9239
:101880000F931F933AE5E32E26E4C22E90E2D92E61
:101890008CE691E00E941F1A8823D1F30E94FE0B70
:1018A00081E38E1550F08E2D63E00E94C8269923A7
:1018B00021F4EEE1EE1508F454C08091F20190910C
:1018C000F30180960E941110FC01838561E00E9463
:1018D000CA069C018AEB91E06CE340E00E9482140E
:1018E0008091F2019091F3010E941110FC01838517
:1018F00060E00E94CA069C018AEB91E062E048E148
:101900000E948214FBE4FE1570F40E2D10E00B54BF
:101910001040000F111FF02E8AEB91E062E00E9450
:10192000F5116D2D10C08CE38E15D8F40E2D10E03E
:101930000C531040000F111FF02E8AEB91E062E073
:101940000E94F5116C2D6F198AEB91E0402F27E76B
:1019500030E00E9482148AEB91E061E00E94F51170
:1019600009C086E791E064E00E944211882321F4D7
:10197000EE2011F0EA948CCF1F910F91FF90EF9021
:10198000DF90CF9008958F929F92AF92BF92CF92A7
:10199000DF92EF92FF920F931F93CF93DF9344E177
:1019A000A42EB12CEE248CE691E00E941F1A88230D
:1019B000D1F3A114B10409F442C00894A108B108FC
:1019C000C50163E070E00E94E826892B11F481E0F4
:1019D000E82688249924FF242BC0C60181709070CA
:1019E000EE2019F0892B19F405C0892B19F42097E2
:1019F00081F002C0209769F48AEB91E06F2D412FAE
:101A000024E007E00E948E128AEB91E061E00E94E0
:101A1000F5110894C11CD11C195F1936F1F6089410
:101A2000811C911C84E0F80E8CE3F81609F4BBCFFE
:101A3000CC24DD2410E0E401C170D070CECFDF9162
:101A4000CF911F910F91FF90EF90DF90CF90BF90BB
:101A5000AF909F908F9008958091F2019091F30143
:101A600080960E940910882309F456C08091F201E3
:101A70009091F3010E940910882309F44DC00E943F
:101A8000830B0E943C0C8091F2019091F3018096AF
:101A90000E94EF0F882349F48091F7019091F8019B
:101AA00001969093F8018093F7018091F201909153
:101AB000F3010E94EF0F882369F18091F201909168
:101AC000F30180960E94EF0F882321F18091F201AB
:101AD0009091F30180960E941110FC01808188236F
:101AE00039F48091F2019091F30180960E94E50F04
:101AF0008091F2019091F3010E941110FC0180810C
:101B0000181654F08091F2019091F3010E94E50FB4
:101B100081E0089580E0089581E008958091F201C8
:101B20009091F3010E94E50F8091F2019091F301F1
:101B300080960E94E50F8091F2019091F3018096CA
:101B40000E94E90F08958091F2019091F30180962F
:101B50000E94111060E00E94B70608951F938091C3
:101B6000F2019091F3010E941110FC0183850E9403
:101B70004C07BC018CE691E044E00E94D81A182F73
:101B80008091F2019091F301133019F40E94E50F56
:101B90000EC00E941110612F0E94B7068091F201C1
:101BA0009091F3010E941110612F0E94B7061F91BE
:101BB0000895FF920F931F938091F2019091F3018A
:101BC0000E940910882309F060C08CE691E06DE561
:101BD00071E044E00E94D81A682F8091F201909140
:101BE000F3010E94EC0F8091F2019091F3010E94A9
:101BF0001110FC018081181644F78CE691E065E62F
:101C000071E04CE30E9407181CE35CE1F52E8CE6C2
:101C100091E00E941F1A8823D1F31F3118F00F2D75
:101C2000011B0AC086E791E064E00E94421188230C
:101C300061F5112351F102E011508091F201909170
:101C4000F30180960E941110FC01838561E00E94DF
:101C5000CA069C018AEB91E06CE340E00E9482148A
:101C60008091F2019091F3010E941110FC01838593
:101C700060E00E94CA069C018AEB91E0602F48E177
:101C80000E9482140E94FE0BC2CF1F910F91FF9001
:101C900008950E94C30C0E94C70B8091F20190919D
:101CA000F3010E94E50F0E947A0B0E94D90D0E9459
:101CB000A30D0E94AE0D0E942C0D8823A1F70E9457
:101CC0008E0D80E008958CE691E00E941F1A882313
:101CD00081F18091F401882319F0813041F403C02F
:101CE0000E94FB0A02C00E94490E8093F4011092E8
:101CF00084018AEB91E060E071E00E94F824609139
:101D0000F5017091F6018AEB91E04AE050E00E9403
:101D1000E7248AEB91E068E071E00E94F82460918A
:101D2000F7017091F8018AEB91E04AE050E00E94DF
:101D3000E72408958F929F92AF92BF92DF92EF9225
:101D4000FF920F931F93CF93DF931092F60110929F
:101D5000F5011092F8011092F7011092F4018CE64F
:101D600091E00E94A21D8CE691E064E871E00E947F
:101D70009D1D8CE691E00E94D4198AE290E00E94B9
:101D8000CC238C010E941D10C80108960E941D10D2
:101D9000C80140960E941D10C80148960E941D105F
:101DA000C80180960E941D101093F3010093F20168
:101DB00088E090E00E94CC23182F092F0E941D106C
:101DC0002091F2013091F301C901DC01212F302F64
:101DD000C901FC0188E001900D928150E1F782E198
:101DE00090E00E94CC238C010E94B206F801148678
:101DF000138675E0F72EF182F5826EE1D62ED08241
:101E0000D482F382F782EE24E394E282E68282E1D6
:101E100090E00E94CC234C010E94B20681E090E049
:101E2000F4019487838788E081838583D082D4827C
:101E3000F382F782E282E68282E190E00E94CC2384
:101E40005C010E94B20682E090E0F50194878387EE
:101E50008CE081838583D082D482F382F782E28210
:101E6000E68282E190E00E94CC23EC010E94B2065F
:101E700083E090E09C878B8782E089838D83F88262
:101E8000FC82FB82FF82EA82EE828DB79EB7429788
:101E90000FB6F8949EBF0FBE8DBF8091F201909156
:101EA000F301ADB7BEB71196F80122E101900D9292
:101EB0002150E1F70E94BB0F8091F2019091F30154
:101EC000ADB7BEB71196F40122E101900D922150F9
:101ED000E1F70E94BB0F8091F2019091F301ADB741
:101EE000BEB71196F50122E101900D922150E1F764
:101EF0000E94BB0F8091F2019091F301ADB7BEB784
:101F00001196FE0122E101900D922150E1F70E940D
:101F1000BB0FE091F201F091F30181E081A7EDB7F1
:101F2000FEB772960FB6F894FEBF0FBEEDBF88E005
:101F300090E00E94CC23182F092F0E941D10E091E1
:101F4000F201F091F301B096212F302FC901DC018D
:101F500088E00D9001928150E1F70E94B50ADF916F
:101F6000CF911F910F91FF90EF90DF90BF90AF90B6
:101F70009F908F900895DF93CF93CDB7DEB7DC01AC
:101F800015962C9115972430E8F482E1289FC00122
:101F9000112416964D915C9117972A8B480F591F63
:101FA0009E012B5F3F4F82E1F90101909F01FA01F1
:101FB0000192AF018150C1F715968C9115978F5FF3
:101FC00015968C93CF91DF9108952FEFFC01248318
:101FD0000895FC0115820895FC0164830895DC01D5
:101FE00015964C91159790E020E030E00EC01696C3
:101FF000ED91FC911797E20FF31F80812E5E3F4F0A
:10200000181614F481E008959F5F941780F380E020
:10201000089520E0FC0184818F3F09F021E0822FA8
:102020000895FC01848122E1829FC0011124268150
:102030003781280F391FC9010895DF92EF92FF926F
:102040000F931F937C01FC0115828FEF848388E43A
:1020500090E00E94C923D92E082F192F0E94B206A2
:10206000C80142960E94B206C80184960E94B20638
:10207000C801C6960E94B206F7010683D7821F9157
:102080000F91FF90EF90DF900895882319F48CB59D
:10209000806202C08CB58F7D8CBD08959CB5937F06
:1020A000982B9CBD08952CB5382F33702C7F322B84
:1020B0003CBD2DB590E09595879595958795817058
:1020C0002E7F822B8DBD08958AE061E00E94572308
:1020D0008AE061E00E94EB228CB580618CBD8CB5FA
:1020E00080648CBD8DE061E00E94EB228BE061E0BA
:1020F0000E94EB220895FC0181E08083089585E031
:1021000070E00E948B2208956F927F928F929F922F
:10211000AF92BF92CF92DF92EF92FF920F931F93F5
:10212000CF93DF93EC0189819A818C0124E0000F29
:10213000111F2A95E1F7081B190B85E10E946922FE
:10214000BC01600F711F84E0769567958A95E1F771
:102150007A8369838881882381F12E813F81621788
:10216000730710F4B90106C088859985861797070B
:1021700008F4BC0100D000D080E090E040E050E0E6
:10218000E884F98400E010E0AD80BB24CC24DD2499
:102190006C80772488249924EDB7FEB7618272821F
:1021A000838294820E94FB246B830F900F900F9088
:1021B0000F9085E070E00E948B22DF91CF911F91FC
:1021C0000F91FF90EF90DF90CF90BF90AF909F90D6
:1021D0008F907F906F900895FC018CE39FE0938334
:1021E000828384E0818381E084870895CF93DF93A5
:1021F000EC018C8590E08F719070892B69F584E1FA
:102200000E946922AA2797FDA095BA2FBC01CD0193
:102210000E94BA2526EE3FE34EEC50E40E9446268B
:102220000E948C259B01AC017B836A83611571053B
:1022300089F084E08983B901FE0120E084819581E1
:102240006817790710F429830AC02F5F329624306B
:10225000A9F702C08FEF89838C858F5F8C87DF9110
:10226000CF910895FC0188E0808389E0818387E035
:10227000828386E0838384E0848382E0858381E1B6
:102280008683089520E0FC01E60FF11D87818130EF
:1022900009F421E0822F0895E62FF0E0423040F467
:1022A00020E0E80FF91F878181508E3F88F40FC02E
:1022B000E80FF91F87818F3F11F420E009C020E06B
:1022C00090E0642F70E00E94D426019709F421E089
:1022D000822F08950F931F93CF93DF93EC0110E0AB
:1022E0000FEF888162E00E94EB2288810E948A239E
:1022F0002F81892B19F42F5F2F8307C0222349F0E8
:102300002F3F11F41F8201C00F83888160E00E947B
:10231000EB221F5F2196173021F7DF91CF911F919C
:102320000F910895FC01742F643508F05DC047FDDE
:102330005BC040330CF058C0878D823019F5842F74
:10234000859585958595992787FD9095462F5527E5
:1023500047FD509524E530E0829FF001839FF00D0A
:10236000929FF00D1124E40FF51FE65FFC4F808172
:1023700090E0272F277002C0959587952A95E2F760
:1023800080958170972F959595959595462F552712
:1023900047FD5095272F27708823A1F4E4E59E027E
:1023A000F0011124E40FF51FE65FFC4F81E090E09F
:1023B00002C0880F991F2A95E2F780952081282373
:1023C00020830895E4E59E02F0011124E40FF51F37
:1023D000E65FFC4F81E090E002C0880F991F2A95CC
:1023E000E2F72081282B20830895FC01678F60A3EA
:1023F0000895FC01678F40A30895AF92BF92CF92DA
:10240000DF92EF92FF920F931F93CF93DF93EC0134
:10241000162FF42EE22EAA24402F552747FD509563
:102420008F2D992787FD9095481B590B57FF03C0A7
:10243000509541955F4F2E2D332727FD3095812FE5
:10244000992787FD9095281B390B37FF03C03095DE
:1024500021953F4F2417350744F4AA24A3948F2DC8
:10246000F12E182F802F0E2DE82EE11634F48E2D2C
:10247000E12E182F802F0F2DF82EDE2CD11A202FB1
:10248000332727FD30958F2D992787FD9095281BA1
:10249000390B37FF03C0309521953F4FB22EF01610
:1024A0001CF0CC24CA9402C0CC24C3948D2DD7FC3C
:1024B0008F5F082F059511C0AA2021F0CE016F2D46
:1024C000412F03C0CE01612F4F2D0E9492110B1995
:1024D00007FF02C0FC0C0D0D1F5FE1166CF7DF91CA
:1024E000CF911F910F91FF90EF90DF90CF90BF9011
:1024F000AF9008950F93042F322F262F2150230FD2
:102500000E94FD110F9108950F93362F042F015053
:10251000020F232F0E94FD110F9108959F92AF92F9
:10252000BF92CF92DF92EF92FF920F931F93CF93C0
:10253000DF936C01B62E942EA02EC0E0D0E0E62EE4
:10254000FF24E7FCF094022F112707FD10950E0DD4
:102550001F1D06C0C601492D2A2D0E9484122196F6
:102560006B2D6C0FCE018E0D9F1D8017910794F37C
:10257000DF91CF911F910F91FF90EF90DF90CF905F
:10258000BF90AF909F9008952F923F925F926F926D
:102590007F928F929F92AF92BF92CF92DF92EF92F3
:1025A000FF920F931F93DF93CF9300D000D000D002
:1025B000CDB7DEB79E838D83C62ED42EEE24E39452
:1025C000E21A8EEF289F502C1124842E8A94962E86
:1025D0009A94A42EA394B62EB394F22E662423E0EC
:1025E000722E10E0C801847090709A838983F8017C
:1025F000E270F070FC83EB8398E0292E312C2022CE
:1026000031220170107054C0E7FC04C0FA94F2E06B
:102610005F0EE50C639489819A81892B71F04F2DAF
:102620004D0D8D819E816B2D0E9492116F2D6C0D31
:102630008D819E814A2D0E949211EB81FC81EF2BAE
:1026400071F04D2D4F198D819E816B2D0E9492113D
:102650006F2D6C0D8D819E81482D0E949211211449
:10266000310471F06C2D6F198D819E814A2D0E946D
:1026700092114F2D4D0D8D819E81692D0E949211D9
:102680000115110571F06C2D6F198D819E81482DFA
:102690000E9492114D2D4F198D819E81692D0E94AE
:1026A0009211E70CF2E07F0E8A949A94A394B3946B
:1026B0006F140CF4A9CF26960FB6F894DEBF0FBEA8
:1026C000CDBFCF91DF911F910F91FF90EF90DF90E1
:1026D000CF90BF90AF909F908F907F906F905F90C2
:1026E0003F902F9008954F925F926F927F928F92BA
:1026F0009F92AF92BF92CF92DF92EF92FF920F9391
:102700001F93CF93DF93EC01A62E742E9E2DFF24F2
:10271000F394F21A8EEF289F802C1124B42EBA94D1
:1027200053E0C52ECE0CE22EDD2443E0942E10E0C3
:1027300031E0432E512C40225122692E63940270C5
:10274000107034C0F7FC04C0EA9482E0880EF80CE4
:10275000D3944114510489F06D2D6A0D472D4E1903
:102760002E2D220F260DCE010E9484126E2D6A0D91
:10277000CE014B2D2C2D0E9484120115110589F0DC
:102780006A2D6D19472D4E192E2D220F260DCE01C3
:102790000E9484126A2D6E19CE014B2D2C2D0E94A1
:1027A0008412F90C82E0980EBA94C80EDE1454F22A
:1027B000DF91CF911F910F91FF90EF90DF90CF901D
:1027C000BF90AF909F908F907F906F905F904F9051
:1027D00008957F928F929F92AF92BF92CF92DF9295
:1027E000EF92FF920F931F936C01962EA42EF22E60
:1027F0007E2C760E1EEFE19E102D1124812E820E6E
:10280000672D282D0E947A12B02EBA0CBA94C601F8
:10281000672D4B2D282D0E947A12AE0C100FC60189
:10282000692D4A2D212F0E948412F90CFA94C601B9
:102830006F2D4A2D212F0E948412C601672D4A2D2B
:102840002E2D01E00E94C412FE18C6016F2D4A2DE4
:102850002E2D02E00E94C412BE18C6016F2D4B2D12
:102860002E2D04E00E94C412C601672D4B2D2E2D83
:1028700008E00E94C4121F910F91FF90EF90DF902B
:10288000CF90BF90AF909F908F907F9008958F9240
:102890009F92AF92BF92CF92DF92EF92FF920F93EF
:1028A0001F936C01162FA42E922EF02EBE2C8E2C70
:1028B000860E2EEFE29EE02C11242E2D290D682D80
:1028C0000E948E12AB0CFA94FE0C1150190D1B19BC
:1028D000C601612F4A2D2B2D01E0EF2C0E947313AE
:1028E000C601682D4A2D2B2D02E00E9473131F9103
:1028F0000F91FF90EF90DF90CF90BF90AF909F909F
:102900008F9008953F924F925F926F927F928F9235
:102910009F92AF92BF92CF92DF92EF92FF920F936E
:102920001F93CF93DF934C01362E442EF901A490D0
:10293000319654906F010894C11CD11C8A2D99279F
:1029400087FD9095079668E070E00E94E826E62EE5
:10295000FF24E7FCF09400E0C0E0D0E060E8662EE1
:10296000712C26C0E12FE595E595E595FF27E7FD5C
:10297000F095EC0FFD1FEC0DFD1DE4912E2F30E0C6
:10298000812F8770A30102C0559547958A95E2F77C
:1029900024233523232B31F0612F630DC4014B2DEC
:1029A0000E9492111F5F1A15ECF20F5FCE0DDF1D12
:1029B000051524F410E0B02EB40CF5CFDF91CF91C3
:1029C0001F910F91FF90EF90DF90CF90BF90AF904D
:1029D0009F908F907F906F905F904F903F90089561
:1029E0002F923F924F925F926F927F928F929F921F
:1029F000AF92BF92CF92DF92EF92FF920F931F930D
:102A0000DF93CF9300D000D00F92CDB7DEB73C015B
:102A1000862E4A83F901BE2C002329F4EE2019F4F6
:102A20000E9482147AC0A490319694901F01089459
:102A3000211C311C037009838A2D992787FD9095ED
:102A4000079668E070E00E94E826462E552447FC71
:102A50005094C92CCA94FF241D821C824A2D4150D7
:102A60004B8356C0E02FE595E595E595FF27E7FDFB
:102A7000F0958C819D81E80FF91FE20DF31DE49123
:102A80002E2F30E0802F8770A0E8B0E002C0B5950F
:102A9000A7958A95E2F72A233B23232B61F1B9817D
:102AA000B13051F0B13028F0B23049F0B33061F4B8
:102AB00009C0102FEF2C08C0ED2C1F2D05C01D2DB7
:102AC000EC2C02C01C2DE02EBB2069F0E3E0BE22FE
:102AD0008B2DB0FE03C0FA2DF11B1F2F81FF03C009
:102AE000492D4E19E42E180D5A81E50EC301612FB0
:102AF0004E2D0E9492110F5FDA940A150CF4B2CF9A
:102B0000F3948C819D81840D951D9D838C83CA9443
:102B1000F9141CF4DB8000E0F0CF0F900F900F90C1
:102B20000F900F90CF91DF911F910F91FF90EF9039
:102B3000DF90CF90BF90AF909F908F907F906F90DD
:102B40005F904F903F902F900895DC01FB0184919E
:102B50008F5F14968C931497319684918F5F15969E
:102B60008C93159731965E96FC93EE935D9708953E
:102B70003F924F925F926F927F928F929F92AF920D
:102B8000BF92CF92DF92EF92FF920F931F93CF935A
:102B9000DF93EC01862EA42E422F102F3F8C23E5CD
:102BA00026170CF4ABC03FE23A150CF4A7C0C02EB8
:102BB000DD248C8190E001979C01C29EC001C39EE0
:102BC000900DD29E900D1124262F332727FD30958E
:102BD000820F931F181619060CF090C08D8190E09B
:102BE0009C01C29EC001C39E900DD29E900D1124E7
:102BF0002A2D332727FD3095820F931F18161906AB
:102C00000CF07CC09924442E55246DC09C012150A9
:102C100030404217530711F460E00EC0429EC001DD
:102C2000439E900D529E900D1124840F951FED8DA3
:102C3000FE8DE80FF91F64914C9DC0014D9D900DD4
:102C40005C9D900D1124682C680EBB24792C780CA7
:102C50003FC0E62EFF2460FF19C0113039F44B2D20
:102C60004A0DCE01672D0E9492112EC02C9DC001ED
:102C70002D9D900D3C9D900D11244A2D480FCE01A5
:102C8000662D212F012F0E948E121EC098A18F8DBC
:102C90009817D1F09F8F113039F44B2D4A0DCE018A
:102CA000672D0E9492110FC02C9DC0012D9D900D8B
:102CB0003C9D900D11244A2D480FCE01662D212FE9
:102CC000012F0E948E123F8EF594E7946E2DB394DF
:102CD0002B2D332727FD30958D8190E0281739075C
:102CE0000CF4B7CF9394492D552747FD50958C810F
:102CF00090E0481759070CF489CF3F8EDF91CF91B0
:102D00001F910F91FF90EF90DF90CF90BF90AF9009
:102D10009F908F907F906F905F904F903F9008951D
:102D20000F93CF93DF93EC01262F6A3049F48D8106
:102D30009885899F802D11249A85980F9A8726C09F
:102D40006D3029F169854A8508850E94B8159C81F6
:102D50006885969F402D11248985480F49878F816A
:102D60008823A9F0552747FD5095699F90011124AC
:102D700084E590E0821B930B8417950744F49D81B2
:102D8000699F902D11248A85890F8A87198681E091
:102D900090E0DF91CF910F9108951F93CF93DF9330
:102DA000EC01162FF8948E8560E00E9457238F85E2
:102DB00018161CF460E00E9457231EBD0DB407FED8
:102DC000FDCF8EB58F8518161CF461E00E94572345
:102DD0007894DF91CF911F910895FF920F931F93E5
:102DE000CF93DF93EC01FF2400E010E06F2D6064CF
:102DF000CE010E94CD16CE0160E80E94CD168E85D0
:102E000061E00E9457238F8518161CF460E00E9431
:102E10005723F801E65FFC4F90E080818EBD0DB432
:102E200007FEFDCF8EB59F5F31969435B1F78F8544
:102E300018161CF461E00E945723F3940C5A1F4F9C
:102E400086E0F81699F6CE0160E40E94CD16DF9177
:102E5000CF911F910F91FF900895CF93DF93DC01E5
:102E600088EF91E0EAE0F3E0EF019C011992215034
:102E70003040E1F719961C9219971A961C92DF912F
:102E8000CF910895EF920F93CF93DF93EC014D878D
:102E90006C872E87E88A0F8781E088878F8F18A23A
:102EA0008F83CE0163EA79E00E94A5150E94641029
:102EB00081E00E94451085E00E9453108CE00E9442
:102EC0004E108D8561E00E94EB228C8561E00E94AE
:102ED000EB228E8561E00E94EB22888918161CF493
:102EE00061E00E94EB228F8518161CF461E00E94BD
:102EF000EB22888918166CF460E00E9457236AE080
:102F000070E080E090E00E940822888961E00E94E1
:102F10005723EC852E2F332727FD3095F901EE52EC
:102F2000F34FE491F0E0EE0FFF1FE254F34F859171
:102F300094919C8B8B8B2A51334FF90184918A8F0A
:102F4000ED852E2F332727FD3095F901EE52F34FF3
:102F5000E491F0E0EE0FFF1FE254F34F859194915E
:102F60009A8B898B2A51334FF9018491898FEF8590
:102F70002E2F332727FD3095F901EE52F34FE491C0
:102F8000F0E0EE0FFF1FE254F34F859194919E8B7A
:102F90008D8B2A51334FF90184918B8FEE852E2F23
:102FA000332727FD3095F901EE52F34FE491F0E01D
:102FB000EE0FFF1FE254F34F85919491988F8F8B02
:102FC0002A51334FF90184918C8FCE0161E20E9426
:102FD000CD16CE0164E10E94CD168B8587FF02C01D
:102FE0008FE78B876B856068CE010E94CD16CE017E
:102FF00060E20E94CD16CE016CE00E94CD16CE019B
:103000000E94ED16DF91CF910F91EF900895FC0192
:10301000ED57FF4F61937193445F40830895CF93C1
:10302000DF93DC01E0E8F7E785919491ED01C75A61
:10303000DF4FAD0141595F4F8150904C09F04EC0B8
:10304000E6E9F7E7E491E883E7E9F7E7E491149626
:10305000EC931497E8E9F7E7E4911596EC9315974C
:10306000E9E9F7E78591949117969C938E931697CB
:10307000EBE9F7E78591949119969C938E931897B5
:10308000EDE9F7E7E4919B96EC939B97EEE9F7E780
:10309000E4919A96EC939A97EFE9F7E7E491EA01C5
:1030A000E883E0EAF7E7859194915D969C938E938F
:1030B0005C97E2EAF7E7859194915F969C938E93F3
:1030C0005E97E4EAF7E78591949191969C938E93AD
:1030D0009097E6EAF7E78591949132C08CE3888374
:1030E00014961C9214972FEF15962C93159780E247
:1030F00093E017969C938E93169784ED93E0199620
:103100009C938E93189781E09B968C939B979A96AD
:103110008C939A97FA0120838CEA9DE05D969C93AC
:103120008E935C978EED9DE05F969C938E935E9759
:1031300084E79EE091969C938E9390978CE39FE01A
:1031400093969C938E939297DF91CF910895EF92EF
:10315000FF920F931F93CF93DF937C018C01025B4F
:103160001F4FC8010E942D17C8016AE47BE00E942E
:10317000F923C8010E94ED1683E00E94531082E1FA
:1031800091E0EEEFFFE3099584E590E0E80EF91E8B
:10319000F7011082C80165E27BE00E944424C80167
:1031A0000E94ED16E701CA54D040CE010E946A1178
:1031B000CE0164E00E944211882339F462E370E09A
:1031C00080E090E00E940822F0CFDF91CF911F9124
:1031D0000F91FF90EF9008950F931F93CF93DF937C
:1031E000EC018C01025B1F4FC80161E040E00E94CE
:1031F000F911FE01E95AFF4FCE5ADF4F85E598815C
:10320000891B808326961882C855D040698D61300D
:1032100009F43EC0613028F0888D653008F051C057
:103220004BC0CE0185960E94A71ECE0160E00E9491
:103230007F10C8010E942D17CA5ADF4F81E0888392
:10324000C655D040C80166E87BE00E94F9236A8D2C
:103250007B8DC8014AE050E00E94E724C80162E784
:103260007BE00E94F923C8010E94ED1683B7817F9D
:10327000846083BF83B7816083BF83B7816083BF6E
:10328000889583B78E7F83BF83B78E7F83BF1FC030
:10329000C059DF4F88819981AA81BB818F7090705E
:1032A000A070B0700897A105B10518F4C80167E0D7
:1032B0000CC0C80168E709C0882349F06B5FC801EA
:1032C00004C0882321F0C8016FE20E941C24DF9112
:1032D000CF911F910F910895AF92BF92CF92DF923D
:1032E000EF92FF920F931F93CF93DF93EC01CB5795
:1032F000DF4F8881C558D040882309F44AC08C30FC
:1033000010F010E002C01CE0181BCA5ADF4F81E029
:103310008883C655D0406EE4C62ED12CCC0EDD1E5F
:10332000C60160E00E94F51153E5A52EB12CAC0E4C
:10333000BD1EF50100814DE2F42E4F2D401B410FC3
:103340000D5FC60160E024E533E0E32E0E944714E0
:10335000C60161E00E94F511F5010081F01AF10E3D
:103360000D5FC60160E04F2D24E50E94E913C95AA4
:10337000DF4F84E08993F5018081181B115D18836C
:10338000AB9669917991C6010E94F9238881815099
:103390008883DF91CF911F910F91FF90EF90DF9085
:1033A000CF90BF90AF9008954F925F926F927F92AF
:1033B0008F929F92AF92BF92CF92DF92EF92FF9245
:1033C0000F931F932C01FC01628C738C609470949A
:1033D000882499240E94E2215B016C010E94E22171
:1033E0007B018C01F201418052800E94E221460E55
:1033F000571EA094B094C094D094E094F09400959B
:103400001095C601B501A80197010E94A926A40143
:1034100093010E94A926460E571EC2010E948425D0
:103420001F910F91FF90EF90DF90CF90BF90AF90E2
:103430009F908F907F906F905F904F900895AF9284
:10344000BF92CF92DF92EF92FF920F931F93CF9391
:10345000DF93EC01EFE7AE2EB12CA80EB91EF501FB
:10346000E080F180028113810E94D421E61AF70ADC
:10347000080B190B7EE7C72ED12CCC0EDD1EF601F2
:10348000808190E0A0E0B0E08E159F05A007B10715
:1034900008F081C08E0106581F4FF801808191818C
:1034A000A281B3810097A105B10509F474C00E94FF
:1034B000D421F6012081620F711D811D911DF5013E
:1034C0006083718382839383FE01E059FF4F808183
:1034D0009181A281B3810196A11DB11D8083918349
:1034E000A283B383F80110821182128213820E9498
:1034F000E221CA58DF4F688379838A839B83C6574A
:10350000D040CE010E948410CE010A960E946A111A
:10351000CE0148960E94F61081E032C08E010B5D0C
:103520001F4FC8010E94F51EC8010E946C1FC801F0
:103530000E944F20CE010E946C19CE010E94EC180F
:103540008E01025B1F4FC8010E94ED16CC5ADF4F5F
:103550008881C455D040882319F4C8010E942D17D2
:103560000E94E221C658DF4F688379838A839B8358
:10357000249728813981621B730B7A936A9380E0C8
:10358000DF91CF911F910F91FF90EF90DF90CF903F
:10359000BF90AF900895C658DF4F88819981AA8166
:1035A000BB81CA57D0400097A105B10541F7B6CFFE
:1035B0002F923F924F925F926F927F928F929F9243
:1035C000AF92BF92CF92DF92EF92FF920F931F9331
:1035D000DF93CF93CDB7DEB762970FB6F894DEBF17
:1035E0000FBECDBF6C016C837D834B8324E530E03F
:1035F000C20ED31EF60110822CEA3FEFC20ED31E7C
:103600001AE0A12EB12CAC0CBD1CB5E22B2E312C36
:103610002C0C3D1CAEE44A2E512C4C0C5D1C1A8225
:103620003FEF398310E0F0E37F2E6624A601495A6C
:103630005F4F5F834E83C601885A9F4F9987888763
:10364000F601EA5AFF4FFB87EA8796012B5A3F4F54
:103650003D872C87E3E58E2E912C8C0C9D1C5B8185
:10366000452F50E05F874E878B818150888BC60144
:103670000E941F1A8823D9F3C50164E00E944211F9
:10368000882369F4C50165E00E944211882339F45A
:10369000C50166E00E944211882309F4D3C0F401F9
:1036A0000081C50164E00E944211882329F0C10114
:1036B0000E94AC201983CBC0C1010E94B220C7C0B8
:1036C000C50163E044E00E944C11882321F01F5F94
:1036D000C1010E94B820C50161E044E00E944C1184
:1036E000882321F01150C1010E94B820812F992711
:1036F00087FD90952E853F858217930711F410E082
:1037000002C017FD1889F4018081819F902D11243A
:103710008C5F682E691A28C0872D992787FD9095A0
:10372000262D332727FD3095821B930B0297D4F467
:10373000898162960FB6F894DEBF0FBECDBFCF91E0
:10374000DF911F910F91FF90EF90DF90CF90BF908E
:10375000AF909F908F907F906F905F904F903F9031
:103760002F900895F1E0FA83862D992787FD909593
:10377000272D332727FD3095820F931F62E070E0DD
:103780000E94E826762EEE81FF811082E885F98579
:10379000608321E0EA85FB852083EC85FD8510822E
:1037A0002C813D81C9019A8B898B00E0E12EFF2499
:1037B000E7FCF09420C0802F90E08E159F0569F4FF
:1037C00023E0EE81FF812083F40180818E9D802D96
:1037D0001124870DE885F9858083E989FA89659147
:1037E0007491C2010E9444240F5F29893A892E5F97
:1037F0003F4F3A8B298B3B810317E8F2C20160E00F
:103800000E94F511F40140814E9D402D112441503C
:10381000470DC20160E024E50E947A12C20161E016
:103820000E94F511F40100810E9D402D112442509B
:10383000470D0D5FC20160E024E573E0E72E0E94B2
:10384000E91315CFFA81FF2309F066CF39CF802F16
:1038500090E0909581959F4F2E853F85AC01249FE8
:10386000C001259F900D349F900D11246EEF662EA0
:10387000680E52CF2F923F924F925F926F927F923B
:103880008F929F92AF92BF92CF92DF92EF92FF9270
:103890000F931F93DF93CF93CDB7DEB72B970FB660
:1038A000F894DEBF0FBECDBF9B878A877A8369837A
:1038B0005C834B838C0101591F4FF8018081882361
:1038C00009F422C18A859B858A5A9F4F9B878A87E4
:1038D00081E0EA85FB85808312921292E455F040E4
:1038E000FB87EA87108E9EE4E92EF12CEE0EFF1E78
:1038F000C70161E00E94F5118AE0282E312C8A85EB
:103900009B85280E391EB5E26B2E712C680E791E30
:10391000E981FA81F491FD83A7E58A2E912C880E26
:10392000991EF8E5CF2ED12CC80ED91EE2E54E2EF9
:10393000512C480E591E8D5A9F4F9F838E8370E7DE
:10394000A72EB12C8A859B85A80EB91E19870887DA
:103950008A859B850E941F1A8823D1F39D81992314
:1039600011F410E003C0EE81FF811081C70160E017
:1039700040E023EC3BE00E9482148B819C81892BE8
:1039800041F0145FC70160E0412F2B813C810E9410
:103990008214F40110828CE0F6018083C7016981F2
:1039A0007A810E94F923F201208130E0C901880F59
:1039B000991F820F931F909581959F4F8D5AF40107
:1039C0008083EE81FF81208130E0C901880F991F3B
:1039D000820F931F909581959F4F835DF6018083A1
:1039E000F501808184FF04C0C70163E47CE003C06B
:1039F000C7016FE37CE00E944424F201208130E0A3
:103A0000C901880F991F820F931F909581959F4F31
:103A10008D5AF4018083F60180818F5F8083EA856F
:103A2000FB8582A5882321F0C7016BE37CE003C0FE
:103A3000C70167E37CE00E944424F201808190E0AA
:103A40009C01220F331F280F391F309521953F4FBE
:103A50002D5AF4012083F60180818F5F8083C70196
:103A600063E37CE00E944424C10165E00E944211AE
:103A7000882351F0EA85FB8562A56F5FC3010E9430
:103A8000BE20C3010E94B820C10164E00E9442111F
:103A9000882399F4E885F9856081262F30E040E09D
:103AA00050E0F50180819181A281B3818217930753
:103AB000A407B50708F16F3FF9F08A859B85815906
:103AC0009F4F9B878A878FEFEA85FB858083EF5620
:103AD000F040FB87EA87C30160E00E949C1EC3019F
:103AE0000E94AC2081E0EA85FB85808F0DC08A852D
:103AF0009B850E94A7182CCFC10166E00E9442114D
:103B0000882309F425CFF3CF2B960FB6F894DEBFA8
:103B10000FBECDBFCF91DF911F910F91FF90EF901E
:103B2000DF90CF90BF90AF909F908F907F906F90DD
:103B30005F904F903F902F90089540E050E00E949A
:103B40003A1C0895AF92BF92CF92DF92EF920F93FB
:103B5000CF93DF936C018EE790E0C80ED91E82E30D
:103B6000F601808381E090E0A0E0B0E0B293A29300
:103B7000929382936F0185EF9FEFC80ED91E8FEF4E
:103B8000F601808381E99FEFC80ED91EC6010E940D
:103B90000F18C6010E947B10C6016FEF0E947F10B4
:103BA0004AE0A42EB12CAC0CBD1CC5010E94321100
:103BB000C5010E946A11C60148960E94EC10C60118
:103BC000825B9F4F6DE04BE020E10FE03EE0E32E93
:103BD0000E944217E601A596CE010E94CB20C501A6
:103BE00065E00E944211882329F0CE0160E00E9426
:103BF000BE2006C0CE0169E47CE040E00E94AB1E1E
:103C0000DF91CF910F91EF90DF90CF90BF90AF9069
:103C100008950F93DC01002309F069C0623009F4B4
:103C200043C0633030F4662359F0613009F05FC05F
:103C30000DC0633009F444C0643009F058C04CC072
:103C40004B3008F04AE056964C9351C0842F90E0D8
:103C5000880F991F1F962D913C915097280F391F5F
:103C6000F9018591949190969C938E935F97FC01B6
:103C70004591549114968C911497849F602D112432
:103C800091966C939197252F3327862F90E02817D4
:103C9000390708F4652F14968C911497689F802D2E
:103CA000112492968C9323C014968C911497489F5C
:103CB000802D112459968C9359975A962C9317C09E
:103CC00014968C911497489F802D11245B968C93A9
:103CD0005B975C962C930BC014968C911497489F1D
:103CE000802D11245D968C935D975E962C930F9199
:103CF0000895FC01222371F4648B8481489F802DF8
:103D00001124858B15A214A213A281E0878B8093C6
:103D10000305108E0895FC01662369F4178A158A3D
:103D200014A213A2108E109206051092050510928F
:103D300003051092B4000895CF93DF93EC0166233E
:103D400019F40E948B1E1982DF91CF91089560E0D3
:103D50000E949C1E08950F931F93CF93DF93EC0155
:103D60008B01442371F460E00E949C1E1E870D8726
:103D70001B8A1A8A81E0898389E08E8B198E1B8EBB
:103D80001D8EDF91CF911F910F910895CF93DF93F7
:103D9000EC01662339F58881882321F18981882304
:103DA00009F5898590E0880F991FEF81F885E80F64
:103DB000F91F859194912FEF8F3F920711F418828C
:103DC00011C09C8790E0880F991FEA85FB85E80F5A
:103DD000F91F65917491CE0140E00E94AB1E898568
:103DE0008F5F8987DF91CF91089560E00E94C61EA2
:103DF00008950F93CF93DF93EC01662309F068C019
:103E00008981882309F464C08D89882309F060C002
:103E1000EA89FB89EE0FFF1F4D855E85E40FF51FD4
:103E2000259134912115310509F040C089898130EF
:103E300031F41B8A1A8AFA012591349137C019820C
:103E40008881882379F0CE0160E00E94C61E8A89AD
:103E50009B89880F991FED85FE85E80FF91F259135
:103E6000349124C0CE0160E00E948B1E31C0E6E098
:103E700036952795EA95E1F76F70422F4F7175E0FF
:103E8000369527957A95E1F72051CE0100E00E9402
:103E9000091E8A899B8901969B8B8A8B880F991FA3
:103EA000ED85FE85E80FF91F25913491B9017695CE
:103EB00067957695679520FDDACF6F73432FCE0116
:103EC00020E00E94791E8A899B8901969B8B8A8BB0
:103ED000DF91CF910F91089560E00E94F91E08953F
:103EE000CF93DF93EC01662309F0D6C08F89882336
:103EF00009F4D2C08D89882321F4CE010E948B1E43
:103F0000CBC081508D8B8DA1882309F03BC08BA144
:103F10009CA10196880F991FEF8DF8A1E80FF91F5A
:103F200085919491282F27702EA3AC0163E05695BC
:103F300047956A95E1F79A0136952795892F992734
:103F4000869586958FA32F738C81289F202D112411
:103F50002DA34170409307058BA19CA101969CA3C2
:103F60008BA329A130E08217930760F08AA18823F0
:103F700029F0281B31093CA32BA304C0CE0160E02B
:103F80000E948B1E8DA181508DA3988D9F5F988F6D
:103F90002FA18C89280F8C85280F2A836B8D66238F
:103FA00069F0892F992787FD909570E00E94E82697
:103FB0008C8D869F802D1124820F8A838A8190E0C8
:103FC000CB966BE370E00E94E8268A832E892B83D0
:103FD000698D662379F0888D772767FD709599271D
:103FE00087FD90950E94E8268A8D869F802D11245A
:103FF000820F8B836D8D662399F0888D992787FDBD
:10400000909570E00E94E826CB0162E070E00E948B
:10401000E8269E8D899F802D11249B81890F8B839B
:104020008B818A300CF089E087FD80E08B838C895E
:104030008F3309F41B82F894EA81F0E0E359F34FDF
:10404000E491E09304052D8130E08B81992787FD71
:104050009095A901489F9001499F300D589F300DC0
:10406000112488A590E0A901489F9001499F300D37
:10407000589F300D11248EA1992787FD9095AC0192
:10408000249FC001259F900D349F900D1124809393
:104090000505809306057894DF91CF91089560E03F
:1040A0000E94701F089560910505662381F180913B
:1040B00002058F5F8093020590910405891738F1FE
:1040C00030E080910305882309F431E03093030543
:1040D00010920205809107058823A9F080915D0167
:1040E00023E4829FC0011124895B80935D0190E0ED
:1040F00070E00E94D4268093060505C080910605D5
:104100008093B40008953323C9F780E0F9CF089570
:104110001F920F920FB60F9211242F933F934F933C
:104120005F936F937F938F939F93AF93BF93EF931F
:10413000FF930E945320FF91EF91BF91AF919F9108
:104140008F917F916F915F914F913F912F910F9040
:104150000FBE0F901F90189565E67CE040E00E942E
:10416000AB1E08956DE57CE040E00E94AB1E089513
:1041700067E57CE040E00E94AB1E0895FC01862FBD
:10418000668170E06F5F7F4F992787FD90950E9451
:10419000E826858308950F93FC0181E0848384E001
:1041A00080A788EA9CE0908B8787CF0161E040E0A0
:1041B00020E000E00E94091E83E061E070E00E94C0
:1041C0008B22E1EBF0E08081887F81608083F8942E
:1041D00010928000E1E8F0E01082109285001092C9
:1041E000840088E191E09093890080938800808129
:1041F00088608083808181608083EFE6F0E0808149
:104200008260808378940F9108950F931F93CF93CA
:10421000DF93BC018230910510F462E070E0E09120
:104220001105F0911205A0E0B0E040E050E024C09C
:104230008081918186179707D0F08617970771F4D0
:1042400082819381109729F013969C938E931297F5
:104250002CC0909312058093110527C0411551057C
:1042600019F08417950718F4EF018D01AC01DF01F7
:10427000828193819C01F9013097D1F64115510556
:10428000F9F0CA01861B970B8430910580F48A816E
:104290009B810115110521F0F8019383828304C0ED
:1042A0009093120580931105FE0132962FC0FE01F6
:1042B000E80FF91F6193719302979983888326C051
:1042C0008DB79EB78857904020915E0130915F0175
:1042D00028173907C8F4AC01421B530B4617570780
:1042E00098F0CB0102964817590770F0820F931F80
:1042F00090935F0180935E019093610180936001D0
:10430000F9016193719302C0E0E0F0E0CF01DF9129
:10431000CF911F910F9108951F920F920FB60F9298
:1043200011242F933F938F939F93AF93BF938091CB
:104330000C0590910D05A0910E05B0910F053091DF
:1043400010050196A11DB11D232F2D5F2D3720F0E3
:104350002D570196A11DB11D2093100580930C05CA
:1043600090930D05A0930E05B0930F05809108055D
:1043700090910905A0910A05B0910B050196A11D28
:10438000B11D8093080590930905A0930A05B09389
:104390000B05BF91AF919F918F913F912F910F90FE
:1043A0000FBE0F901F9018958FB7F89420910C05B1
:1043B00030910D0540910E0550910F058FBFB90149
:1043C000CA0108959FB7F894209108053091090516
:1043D00040910A0550910B0586B5A89B06C08F3FFA
:1043E00021F02F5F3F4F4F4F5F4F9FBF542F432F01
:1043F000322F2227280F311D411D511D82E0220F2F
:10440000331F441F551F8A95D1F7B901CA0108957A
:10441000EF92FF920F931F93CF93DF937B018C0159
:104420000E94E221EB010EC00E94E2216C1B7D0B79
:10443000685E7340C8F30894E108F10801091109A6
:10444000C851DC4FE114F1040105110569F7DF9152
:10445000CF911F910F91FF90EF900895789484B5BC
:10446000826084BD84B5816084BD85B5826085BD70
:1044700085B5816085BDEEE6F0E080818160808356
:10448000E1E8F0E010828081826080838081816039
:104490008083E0E8F0E0808181608083E1EBF0E000
:1044A000808184608083E0EBF0E0808181608083A4
:1044B000EAE7F0E08081846080838081826080838D
:1044C0008081816080838081806880831092C100B8
:1044D0000895982F8E3008F09E5097708091620159
:1044E0008295880F880F807C892B80937C00809137
:1044F0007A00806480937A0080917A0086FDFCCFF8
:104500002091780040917900942F80E030E0282BB2
:10451000392BC90108951F93CF93DF93182FEB0117
:1045200061E00E94EB22209709F44AC0CF3FD105F9
:1045300009F449C0E12FF0E0E650F34F8491833055
:10454000C1F0843028F4813051F08230B1F50CC0D4
:10455000863019F1873049F1843079F514C084B57B
:10456000806884BDC7BD33C084B5806284BDC8BDCA
:104570002EC080918000806880938000D093890055
:10458000C093880024C08091800080628093800066
:10459000D0938B00C0938A001AC08091B0008068CD
:1045A0008093B000C093B30012C08091B0008062CD
:1045B0008093B000C093B4000AC0C038D1051CF489
:1045C000812F60E002C0812F61E00E945723DF91BC
:1045D000CF911F910895CF93DF93482F50E0CA01E8
:1045E0008A51934FFC0134914E52534FFA018491FA
:1045F000882369F190E0880F991FFC01EC54F34F78
:10460000A591B491FC01E254F34FC591D491662376
:1046100051F42FB7F8948C91932F909589238C9314
:10462000888189230BC0623061F42FB7F8948C9194
:10463000932F909589238C938881832B88832FBF18
:1046400006C09FB7F8948C91832B8C939FBFDF910A
:10465000CF910895833071F0843028F48130A1F037
:10466000823021F514C08630B1F08730D1F084302B
:10467000E9F404C0809180008F7703C080918000AE
:104680008F7D80938000089584B58F7702C084B5B4
:104690008F7D84BD08958091B0008F778093B000A6
:1046A00008958091B0008F7D8093B0000895FF92AF
:1046B0000F931F93F62E482F50E0CA018650934F58
:1046C000FC012491CA018A51934FFC0114914E526E
:1046D000534FFA0104910023C9F0222319F0822FCD
:1046E0000E942A23E02FF0E0EE0FFF1FE254F34F69
:1046F000A591B4919FB7F894FF2021F48C91109567
:10470000812302C08C91812B8C939FBF1F910F91AD
:10471000FF9008950F931F93482F50E0CA018650D1
:10472000934FFC012491CA018A51934FFC010491DB
:104730004E52534FFA011491112319F420E030E046
:1047400015C0222319F0822F0E942A23812F90E086
:10475000880F991F8853934FFC01A591B4918C91B8
:1047600020E030E0802311F021E030E0C9011F910A
:104770000F910895CF93DF930E942E220E949A0EEC
:10478000C0E0D0E00E94630E2097E1F30E94000099
:10479000F9CF0E94052108950E9405210895CF9226
:1047A000DF92EF92FF920F931F93CF93DF937C01E1
:1047B0006B018A01C0E0D0E00FC0D6016D916D01A0
:1047C000D701ED91FC910190F081E02DC701099591
:1047D000C80FD91F015010400115110571F7CE0106
:1047E000DF91CF911F910F91FF90EF90DF90CF90CD
:1047F0000895EF92FF920F931F93CF93DF937C0165
:104800008B01C0E0D0E0F8010F5F1F4F6491662379
:1048100059F0D701ED91FC910190F081E02DC70195
:104820000995C80FD91FEFCFCE01DF91CF911F910E
:104830000F91FF90EF900895DC01ED91FC910190B4
:10484000F081E02D09950895EF92FF920F931F9349
:104850008C01DC01ED91FC910190F081E02D6DE087
:1048600009957C01D801ED91FC910190F081E02D3A
:10487000C8016AE009959C012E0D3F1DC9011F91D9
:104880000F91FF90EF900895EF92FF920F931F9377
:104890007C010E94F9238C01C7010E9424249C0101
:1048A000200F311FC9011F910F91FF90EF900895C4
:1048B000CF93DF93EC016115710519F420E030E02E
:1048C0000FC0DB010D900020E9F71197A61BB70B75
:1048D000E881F9810280F381E02DAD0109959C0109
:1048E000C901DF91CF9108954F925F927F928F928D
:1048F0009F92AF92BF92CF92DF92EF92FF920F936F
:104900001F93DF93CF93CDB7DEB7A1970FB6F8947F
:10491000DEBF0FBECDBF2C01742ECB01223008F4B8
:104920002AE019A231E2C32ED12CCC0EDD1E822E3C
:104930009924AA24BB24672D752FA50194010E94F8
:10494000FB2679018A01C801B701A50194010E94E3
:10495000A926472D461B0894C108D1084A3014F4F3
:10496000405D01C0495CF6014083E114F10401059A
:10497000110521F07E2C5F2DC801DDCFC201B601EB
:104980000E945824A1960FB6F894DEBF0FBECDBF8B
:10499000CF91DF911F910F91FF90EF90DF90CF901B
:1049A000BF90AF909F908F907F905F904F900895B1
:1049B000DC012115310541F4ED91FC910190F0816C
:1049C000E02D642F099508950E9474240895EF92B4
:1049D000FF920F931F939A017B0100E010E0B80152
:1049E000A7010E94D8241F910F91FF90EF90089586
:1049F0000E94582408952F923F924F925F926F9297
:104A00007F928F929F92AF92BF92CF92DF92EF925E
:104A1000FF920F931F93DF93CF93CDB7DEB73B0188
:104A20004C0119012A016D897E898F89988D6A1937
:104A30007B098C099D09621A730A840A950AA401EC
:104A400093010E94A926E218F30804091509A80198
:104A500097010E941D272A0D3B1D4C1D5D1DB901AC
:104A6000CA01CF91DF911F910F91FF90EF90DF90DE
:104A7000CF90BF90AF909F908F907F906F905F90FE
:104A80004F903F902F900895EF92FF920F931F93B6
:104A90007B018C01611571058105910529F420E0E8
:104AA00030E040E050E00BC00E949127A801970140
:104AB0000E941D27AC01CB01DA019C01AD01B901B7
:104AC000CA011F910F91FF90EF900895EF92FF920E
:104AD0000F931F937B018C0162177307840795075F
:104AE00064F4261B370B480B590BCA01B9010E940D
:104AF0004425E60EF71E081F191FB701C8011F91B4
:104B00000F91FF90EF900895009729F0BC0180E08D
:104B100090E00E949627089598D088F09F5790F0D3
:104B2000B92F9927B751A0F0D1F0660F771F881FD2
:104B3000991F1AF0BA95C9F712C0B13081F09FD011
:104B4000B1E008959CC0672F782F8827B85F39F0AF
:104B5000B93FCCF3869577956795B395D9F73EF431
:104B600090958095709561957F4F8F4F9F4F0895D9
:104B7000E89409C097FB3EF49095809570956195F7
:104B80007F4F8F4F9F4F9923A9F0F92F96E9BB27AD
:104B90009395F695879577956795B795F111F8CF29
:104BA000FAF4BB0F11F460FF1BC06F5F7F4F8F4F94
:104BB0009F4F16C0882311F096E911C0772321F08A
:104BC0009EE8872F762F05C0662371F096E8862F22
:104BD00070E060E02AF09A95660F771F881FDAF779
:104BE000880F9695879597F9089597F99F6780E8BC
:104BF00070E060E008959FEF80EC089500240A942F
:104C00001616170618060906089500240A941216A7
:104C10001306140605060895092E0394000C11F4DA
:104C2000882352F0BB0F40F4BF2B11F460FF04C087
:104C30006F5F7F4F8F4F9F4F089557FD9058440FE0
:104C4000551F59F05F3F71F04795880F97FB991FEB
:104C500061F09F3F79F087950895121613061406A8
:104C6000551FF2CF4695F1DF08C016161706180635
:104C7000991FF1CF86957105610508940895E89410
:104C8000BB2766277727CB0197F908950BD0C4CFB0
:104C9000B5DF28F0BADF18F0952309F0A6CFABCF27
:104CA0001124EECFCADFA0F3959FD1F3950F50E00A
:104CB000551F629FF001729FBB27F00DB11D639FCE
:104CC000AA27F00DB11DAA1F649F6627B00DA11D74
:104CD000661F829F2227B00DA11D621F739FB00D1A
:104CE000A11D621F839FA00D611D221F749F33278A
:104CF000A00D611D231F849F600D211D822F762F23
:104D00006A2F11249F5750408AF0E1F088234AF01F
:104D1000EE0FFF1FBB1F661F771F881F915050406B
:104D2000A9F79E3F510570F060CFAACF5F3FECF32B
:104D3000983EDCF3869577956795B795F795E79557
:104D40009F5FC1F7FE2B880F911D9695879597F968
:104D50000895629FD001739FF001829FE00DF11DC5
:104D6000649FE00DF11D929FF00D839FF00D749FE5
:104D7000F00D659FF00D9927729FB00DE11DF91F91
:104D8000639FB00DE11DF91FBD01CF0111240895EE
:104D9000991B79E004C0991F961708F0961B881F8D
:104DA0007A95C9F780950895AA1BBB1B51E107C0EE
:104DB000AA1FBB1FA617B70710F0A61BB70B881FAB
:104DC000991F5A95A9F780959095BC01CD0108953A
:104DD00097FB092E07260AD077FD04D0E5DF06D021
:104DE00000201AF4709561957F4F0895F6F790951D
:104DF00081959F4F0895A1E21A2EAA1BBB1BFD01AE
:104E00000DC0AA1FBB1FEE1FFF1FA217B307E407A9
:104E1000F50720F0A21BB30BE40BF50B661F771F01
:104E2000881F991F1A9469F76095709580959095E1
:104E30009B01AC01BD01CF01089597FB092E05260A
:104E40000ED057FD04D0D7DF0AD0001C38F450959F
:104E50004095309521953F4F4F4F5F4F0895F6F79E
:104E600090958095709561957F4F8F4F9F4F0895D6
:104E7000EE0FFF1F0590F491E02D0994A0E0B0E043
:104E8000E4E4F7E20C94A727EC01A880B980CA807B
:104E9000DB80A114B104C104D10441F484E2A82E42
:104EA00089EDB82E8BE5C82E87E0D82EC601B50156
:104EB0002DE133EF41E050E00E941D2727EA31E465
:104EC00040E050E00E94A9267B018C01C601B5019B
:104ED0002DE133EF41E050E00E941D27CA01B901E6
:104EE0002CEE34EF4FEF5FEF0E94A9266E0D7F1D71
:104EF000801F911F97FF04C0615070408040904810
:104F0000688379838A839B839B01AC015F77B901B6
:104F1000CA01CDB7DEB7EAE00C94C3270E943E2752
:104F2000089589E191E00E943E2708956093190158
:104F300070931A0180931B0190931C0108952F9286
:104F40003F924F925F926F927F928F929F92AF9219
:104F5000BF92CF92DF92EF92FF920F931F93CF9366
:104F6000DF93CDB7DEB7CA1BDB0B0FB6F894DEBFFD
:104F70000FBECDBF09942A88398848885F846E8423
:104F80007D848C849B84AA84B984C884DF80EE806D
:104F9000FD800C811B81AA81B981CE0FD11D0FB676
:104FA000F894DEBF0FBECDBFED010895F894FFCF9A
:104FB00041726561203A20002E204B696C6C203ACA
:104FC00020004C4F4144455200010000000A0814E3
:104FD000081E08280832083C08460850085A086489
:104FE000086E08780882088C089608A008AA08B4F9
:104FF00008BE08C808D208DC08E608F008FA080469
:10500000090E09180922092C09360940090113055E
:0C501000640001000000009016CF230097
:00000001FF
