:100000000C94FA0B0C94220C0C94220C0C94220CE1
:100010000C94220C0C94220C0C94220C0C94220CA8
:100020000C94220C0C94220C0C94220C0C94662739
:100030000C94220C0C94220C0C94220C0C94220C88
:100040000C946A280C94220C0C94220C0C94220C14
:100050000C94220C0C94220C0C94220C0C94220C68
:100060000C94220C0C94220C520C580C600C680C52
:10007000700C780C800C880C900C980CA00CA80CC0
:10008000B00CB80CC00CC80CD00CD80CDD0CE50CB6
:10009000ED0CF50CFD0C050D0D0D150D1D0D4D6137
:1000A0006973207175652021202E2E2E00101000FE
:1000B000000000000007C01C00301020F063804CDE
:1000C00000183810E011800300020000000000302A
:1000D00010FFFFFFFFFFF88000040000088000040D
:1000E00000000880000000000880200000800880D8
:1000F0002000008008FFFFFFFFFFF8C000000000A5
:1001000000C00000000000C00000000000C00000AF
:10011000000000C00000000000C00000000000C09F
:100120000000000000C00000000000C0000000004F
:10013000003010000000000018000000000018004F
:10014000000000001800000000001800000000007F
:100150001800000000001800000000001800000057
:10016000000018000000000018FFFFFFFFFFF880EC
:10017000080000200880080000200880000000001F
:1001800008800001000008800001000008FFFFFF58
:10019000FFFFF84327657374206761676EC3A92169
:1001A00000AC12B812C212CD12456E206176616E9B
:1001B000742100556E2073706163656D6F6E2061F0
:1001C000747461717565210046757475726F6D6F19
:1001D0006E00D912E012E812ED12D912E012F412F8
:1001E000ED12D912E012F812ED12D912E012FF123C
:1001F000ED121818000800003400003400006E00F2
:10020000006E0001E7800318C00608600C08300883
:10021000001818000831E3CC206304606306400036
:1002200002400003C00001800001800001F8FE1FB1
:1002300084E021FCE03FAA0055FFFFFF18180008EA
:1002400000003400003400006E00006E0001F780F2
:100250000310C00638600C6C30084618188308314B
:10026000118C2118C4612C46412842432843C624DE
:10027000518C267D8C6625BCD735A8BB1FE8A80904
:10028000880009FFFFFF1818000000000C00003C68
:100290000000E40701041907C4711C3CC13C1B8920
:1002A000700F19C60D328A0326860664F03444D8CE
:1002B000564488974689116299F332F00711C00DB0
:1002C000997F19D91DF07100001D0000070000037F
:1002D0001818000000003000003C00E027009820C3
:1002E000808E23E0833C3891D83C98F01E4CB013AC
:1002F00064C01F26600D2220032267E262EC624682
:1003000088C44CC98488E70C99B0389B98F08E0F4C
:1003100080B80000E00000C00000181800000000D5
:10032000000000FFC007C8F81E083E33FFF377E364
:10033000FB5C000F4C738D5F73B973003D33004756
:100340001E1E2E0F807C01E3E000E1C007807008D4
:10035000001808000C107F0630E3867FE3FFE7C13A
:10036000E7880011181800000000000000FFC00717
:10037000C8F81E083E3FFFFF7FE3FF5C220E4C22C1
:100380000C5FE37873E3FD3363471E232E0FE1FC1C
:1003900001E3E001E1C007807008001808000C10BC
:1003A0007F0630E3867FE3FFE7C1E7880011181876
:1003B000000000000000000000554554554554550C
:1003C00045547FC7FC4044044044047DC7DC05001D
:1003D000500500500F1C5009B6D818E3881780C884
:1003E0001C007831FF9878E71E4C4233C40061FE50
:1003F0007C7FAB0055FFFFFF1818000000000000D5
:100400000000005545545545545545547FC7FC40A0
:1004100044044044047DC7DC0500500500500F1C17
:100420005009B6D818EB881794C81C2678326B1878
:100430007689DE44DE43C5D259CD134D892061FF54
:10044000FFFF18180000003FFFF820000823018874
:10045000230188303818287C2828102830001823D9
:10046000FF8822AA8823FF882000083F83F8009293
:1004700000009200049240029280019300FC927E60
:10048000948252F783DE900012FFFFFE18180000DE
:10049000003FFFF821550823FF8823018836BAD88A
:1004A0002A44A82A44A83644D822BA88230188239B
:1004B000EF882139083F83F80092000092000492EF
:1004C00040029280019300FC927EB4825AFF83FE28
:1004D000B0001AFFFFFE1818000000000000060F11
:1004E000C003F87006301800200C0060040042249D
:1004F0003047741C42241FF8043080040180040338
:1005000022240677740C22241800042000047FFFA4
:10051000FECAAAAB800001C000037555563FFFFC20
:10052000181800000000000003F0600E1FC0180C37
:10053000603004002006002442002EE20C244238E1
:10054000201FF820010C2001802444C02EEE6024DE
:1005500044302000182000047FFFFED55553800052
:1005600001C000036AAAAE3FFFFC18180080000318
:100570009FFF1F8FFF3B8F00FF87FFFFC7FF1FC736
:10058000C00FC7FF0FC7FF0FC7E00FC7FFFFC7FFB1
:100590001FE7F80FE7F80FE7FC1FE7FC7FE7FC7F9A
:1005A000F7FC7FF7FC7FFFFC3FFFFC3FFFF8FFFFFE
:1005B000F0FFFFF01818000100FFF9C0FFF1F8008C
:1005C000F1DCFFE1FFFFE3FF03E3F8FFE3F0FFE30C
:1005D000F007E3F0FFE3F0FFE3FF1FE7F81FE7F0AA
:1005E0003FE7F03FE7F83FE7FE3FEFFE3FEFFE3F1C
:1005F000FFFE3FFFFC1FFFFC0FFFFF0FFFFF181860
:1006000001FF80011880015A8001188001FF8000DD
:100610001800001800FF18FF191898F9FF9F191803
:1006200098FF18FF0018000018001FFFF81818188E
:1006300018181818181818181818661818421818C2
:100640000018FE007FAA0055181801FF80015A808B
:1006500001FF80015A8001FF80001800001800FF90
:1006600018FF191898FFFFFF191898FF18FF0018B6
:10067000000018001FFFF818181818181818181874
:10068000181818186618184218180018FE007FAAC3
:100690000055181800000060000C60001C1CFF7062
:1006A0000781C00400400CFE60187C301038181020
:1006B000100810000813FFC81099081FFFF8044A1B
:1006C00020045B300CD1100899901088983198C89C
:1006D00021104A63186C4008000000001818000040
:1006E0000060000C60001C1CFF700781C0043C40CF
:1006F0000C006018FF3010001811FF88100008135C
:10070000FFC81000081FFFF8044A20045B300CD11A
:10071000100899901088983198C821104A63186C75
:100720004008000000001818000000000000000051
:10073000001E001812003C3300662100C2610082D6
:10074000419CBBDCB68990E38990D5A994C1A9945A
:10075000C9A990E389D0B6895D9CBB610082210064
:10076000C23300421200661E003C00001800000068
:1007700018180000000000000000001E0018120001
:100780003C3300662100C265008A459CBBDCB6A9EB
:1007900094E3ADB4C9ADB4DDADB4C9AD94E3ADD4AB
:1007A000B6A95D9CBB65008A2100C23300421200DD
:1007B000661E003C000018000000181801414007A8
:1007C000FFE00C003019E79831428C61C386C0000D
:1007D00003803C01900009B9FFDD91554981FFC1BB
:1007E000815541FFFFFF4194622714341C6618189D
:1007F000C30C1094841C489C006300002200001469
:1008000000000800181802814006FF600EC3701A2D
:10081000FF5832004C63FFC6C2004382004185008E
:10082000A1F8FF1F8518A1821841822441FFFFFF14
:100830004194622714341C761818CB0C11A1841D26
:10084000149C018B0000620000340000080018189E
:100850000000000000000FE7F00824100924100930
:1008600025900824100FE7F00100800100800100AE
:100870008001008001008001008001008001008073
:100880000100800FFFF018001C387E16683C13C86A
:1008900000118FFFF1FE007F18180000000000001B
:1008A0000FE7F00FE7F00FE7F00FE7F00FE7F00FBB
:1008B000E7F001008001008001008001008001005C
:1008C000800100800100800100800100800FFFF0A6
:1008D00018001C39FF9669FF93C9FF918FFFF1FE45
:1008E000007F18180FFFE00901200810200FEFE02B
:1008F000002800F729DE952952DDEF76800002DD21
:10090000EF76952952F729DE0028000028000028FC
:10091000000FABF838AA0E60EE02C07C03FC003F6B
:10092000800001FC003F807E01FFC3FF18180FFF0D
:10093000E00A44A00A44A00FEFE0002800F729DEF7
:10094000952952DDEF76800002DDEF76952952F78A
:1009500029DE0028000028000028000FABF838AA84
:100960000E60EE42D27C6BB4012BA579ADA500B52B
:10097000A17E17FFC3FF18180FFFE00AAAA00FFF00
:10098000E00A00A00E44E00A00A00FFFE0380038A3
:1009900040000481C7024145043945381145102102
:1009A000C7084000044038042028081028100DFF14
:1009B000601155102155083FFFF8018300018300A5
:1009C00018180FFFE00AAAA00FFFE00A00A00EFE11
:1009D000E00A00A00FFFE039CE384231048C48C253
:1009E00042310439CE381084102132484249244221
:1009F00049242132481084100E78E010841021021E
:100A0000083FFFF80183000183001818000000016F
:100A1000FFC0010040017740015540010040011C2A
:100A20004001004001AAC0015540010040010040C2
:100A300001FFC0013E40011C40011C400108400173
:100A4000004001FFC001FFC0004100004100004123
:100A500000004100181800000001FFC001FFC001A4
:100A6000414001414001224001144001084001146D
:100A7000400122400141400180C001FFC001084007
:100A800001FFC001004001004001004001FFC00122
:100A9000FFC0004100004100004100004100181863
:100AA0001FFFF82400242A005424182420180420AE
:100AB00000043FFFFC24924C3FFFFC2000043FFF5A
:100AC000FC26666426666439999C39999C3FFFFC34
:100AD0002000042000043FFFFC0480900780F00405
:100AE00080900780F004809018181FFFF82281443E
:100AF0002381C42281442381C42281443FFFFC24FA
:100B0000924C3FFFFC2000043FFFFC2666642666F3
:100B10006439999C39999C3FFFFC20000420000413
:100B20003FFFFC0480900780F00480900780F00471
:100B3000809018183FC7F8285428385438007C0093
:100B400000420040A502608104305A0C19A5B0068D
:100B50001840020040012480015A800242400224D1
:100B600040011880018180023C40022440016680DF
:100B700000A50000A50000A50000E70018183FC769
:100B8000F8285428385438007C0000420640810C74
:100B90006081183042101DA5A006184002004001D7
:100BA000348001A58002424002244001008001817E
:100BB00080023C4002244001668000A50000A500A0
:100BC00000A50000E7001818000000000000007FEA
:100BD000E001C030030C08063B8404606604403228
:100BE000E4C01AA8860BE98F094909094D0809458F
:100BF000081B450C726507C22500062580047DE0B0
:100C000018CE3FE080003F800001800007FFFFFC1E
:100C1000181800000000000007FE000C03801030D0
:100C2000C021DC606606204C0220580327D06115E5
:100C300090F1979090929010B2D810A24E30A243AB
:100C4000E0A66000A42001A41807BE07FC73FC0006
:100C500001800001E000013FFFFF181801C1C00141
:100C6000414000E3800022000322600322601F2233
:100C70007C13226413FFE41F557C0355601F557CD1
:100C80001555541BFFEC15FFD41FE3FC03E1E007EF
:100C9000C1F00F80F01F00F81F007C3E003C3800C0
:100CA0003E200002181801C1C001C1C000E380004D
:100CB00022000322600322601F227C1F227C1FFF70
:100CC000FC1FFFFC03FFE01FFFFC1FFFFC1BFFECF2
:100CD0001FFFFC1E633C03E1E007C1F00F80F01F23
:100CE00000F81F007C3E003C38003E20000218182F
:100CF0001E00F01200902101082D01682D01682DC1
:100D0000016821390821C7082000082F01E8248242
:100D10004824824827C7C82000082000181FFFE089
:100D200070921CDC92768693C3E39307801001E0F7
:100D30000007803801FFC7FF18181E00F01200904E
:100D40002101082D01682D01682D01682139082134
:100D5000C70824104824904824924824924824929A
:100D6000482402082000181FFFE070921CDC9276D5
:100D70008693C3B3930D981031880021803801FF0A
:100D8000C7FF18180200426643253581A81100AC40
:100D90002A00542AE7543EA57C22FF44229544228F
:100DA00095443F81FC30280C1E287803A9C000FF21
:100DB00080008080009C8001A2C002A2A004A290BA
:100DC0007FA2FEA82215802201FFE3FF181802006F
:100DD000426643253581A81100AC2A00542AE75405
:100DE0003EE77C32FF4C2AC35426E7643F99FC302F
:100DF000380C1E6C7803C7C000FF80008080009C08
:100E00008001A2C002A2A004A2907FA2FEA8221587
:100E1000802201FFE3FF18180000003FFFFC2000C4
:100E2000042FE7F42000043FFFFC00180000180026
:100E30000FFFF018001830000C70000E7F81FE4488
:100E4000422247C3E24442227F81FE403C06604288
:100E50001C387E700FC3C0007E00004200003C00C2
:100E6000181801CE00014A0001CE00008400008461
:100E70000000840000FE0001D7000155000155006C
:100E80000155000FFFE01000100FFFE00400400CC0
:100E900028601810301028101000101000103501B4
:100EA00058220088250148200008181801CE0001AA
:100EB0004A0001CE0000840000840000840000FE8F
:100EC000000183000129000101000101000FFFE082
:100ED0001000100FFFE00400400C286018103010C4
:100EE000281010001010281030101820280820009A
:100EF000083FFFF818180024000018000018000030
:100F000018000018001FFFF81018081718E810182C
:100F1000081000081FFFF80080800080800080809B
:100F20000080800080800081C00083F01F869811BF
:100F3000CC8C3378C42630462450C324D8C118182A
:100F40000024000018000018000018000018001FFE
:100F5000FFF8155AA81FFFF8155AA8155AA81FFF21
:100F6000F800808000808000808000808000808089
:100F70000081C00083F01F869811CC8C3378C42682
:100F800030462450C324D8C118180FFFFE0AAAAA5D
:100F90000FFFFE0AB1AA0FF5FE0AB1AA0FFFFE0A63
:100FA000AAAA0FFFFE0A000A0E7FCE0A6ACA0E5FC7
:100FB0004E0A71CA0E514E0A71CA0E514E0A71CABA
:100FC0000E000E0BFFFA0D55560FFFFE012090018B
:100FD000209018180FFFFE0AAAAA0FFFFE0ABFAA48
:100FE0000FFFFE0ABFAA0FFFFE0AAAAA0FFFFE0A02
:100FF000AAAA0FFFFE0AAAAA0FFFFE0AAAAA0FFFBB
:10100000FE0AAAAA0FFFFE0AAAAA0FFFFE0AAAAAB0
:101010000FFFFE0FFFFE012090012090181810789E
:101020000077C1B8C40E0881FB0C2309C4260FE663
:101030002400302440986CE1C848408D48000548A1
:101040001F0D2C31882460C807001841FFE25800AA
:101050000E4C007843FFC26800060C78FC07CF8076
:10106000000000000000181810780077C1B8C40E06
:101070000881FB0C2301C42600E624183024301814
:101080006C058848A48D48ACC548C00D2C5D08246B
:10109000070807001841FFE258000E4C007843FF94
:1010A000C26800060C78FC07CF800000000000003A
:1010B0001818003C0003E7800400E008033019C161
:1010C000D813000C20630431F784100004110004CD
:1010D00011000419FC680C01C80780182083F6323F
:1010E00082181FEFE614823C74830844910E409BE3
:1010F000703C9BDC67BB674461B11818003C00037F
:10110000E7800400E008003018901810910C21A12D
:101110000431A6241CBCE417D984106F44183FC8BE
:101120000C180807B01820A3F632B2181FFFE614F7
:10113000923C74930844910E409B703C9BDC67BBCF
:10114000674461B10808007E5A7E3C180000080818
:1011500000207020202000000808A1A5A5A5A5A5B5
:1011600085850808FEAAFEAAFEAAFE00080810202F
:101170004080000102040808004020181804020002
:10118000080881818181818181810808FF818181B5
:10119000818181FF080800244208104224000808C9
:1011A0000042001818004200080808484A4A4A4A03
:1011B0000A080808BD66E79999E766BD08080502B0
:1011C00005005020500008080002200000024000E6
:1011D0000808000444555555555508083C26DBA51C
:1011E000AD93443C0808000004000000000008081B
:1011F00000002000000008000808000000000000B7
:1012000000000808BD008199998100BD08081010F0
:10121000100F10E0101008080028140814224400D1
:10122000080808142241081422410808C3FF42425A
:101230004242FFC308087E547C107C1028440808F2
:101240003E343C101C1010180808FC7C7C107C10EC
:10125000284408087C2C3C083808081808087E54E4
:101260007C107C10282008087E547C107C102808F4
:1012700008083E343C103050284408083E343C14E2
:10128000181018140808FC7C7C107C102820080812
:10129000FC7C7C107C10280808087C2C3C080C0A7C
:1012A000142208087C2C3C28180818284D6563680F
:1012B0006542697A61726400466C6F7474696C6C23
:1012C00065004368616D7069466F727400546572A1
:1012D0007261426166666C650043686172676500B1
:1012E0004573717569766500466575780043686178
:1012F0006E67650045617500506C616E74650074C1
:1013000065727265000303070507050405050405FA
:101310000306030207020201020203020E090E0E77
:101320000D0E0E0F0E070507050307050F05070530
:101330000706070102050200070202070002070272
:10134000000207020007060306070702020505025E
:101350000102020402000502020500060705050756
:1013600005020302020602000000000B0003000356
:10137000070507040701050205070704000300002D
:101380000705050700050005020702000C00020220
:101390000200040004020107050705070401070411
:1013A00005070203020704070107060601010707F4
:1013B0000707030307000500000D000205000505EF
:1013C000050005020107030F0903060306070702CC
:1013D00002050507070207070507030107050607BA
:1013E00002070507050404030702050704040703B1
:1013F0000707010607050707030307050307030699
:101400000407010107010704070304030706070592
:101410000205010601010704000705010204050792
:10142000000201020808080003000603060707027D
:10143000020505070502070705070301070506075B
:101440000207050705040403070205070404070350
:101450000707010607050707030307050307030638
:101460000407010107010704070304030706070532
:101470000205010601010704020705000700050730
:101480000206020307050703053F213F1208120A5F
:10149000100A0E1C0E0C1E0C141A14161F161E1306
:1014A0001E1E1B1E1E1F1E3F213F3A2F3A173D17BF
:1014B0003F213F181F02040A041F0E04040E1F0AD6
:1014C0001F0A0E0E1F04110E2E252E2F2A2E26293E
:1014D00029021F02081F08150E04040E150E15150B
:1014E0001B151B040604040C040000000017000375
:1014F00000031F0A1F16371A1904130A153A0003AE
:1015000000000E11110E000A040A040E040030003F
:101510000404040010001804031F111F121F101DE3
:10152000151711151F07041F17151D1F151D010184
:101530001F1F151F17151F000A00003200040A1193
:101540000A0A0A110A040115020E11171E051E1FB0
:10155000150A0E110A1F110E1F15111F05010E117C
:101560001D1F041F111F1108100F1F041B1F101037
:101570001F061F1E040F0E110E1F09060E112E1F2F
:10158000051A121509011F011F101F0F180F1F0C3C
:101590001F1B041B031C03191513001F1103041840
:1015A000111F000201022020200001020C121E1F48
:1015B000120C0C12120C121F0C1A14041E05242AF1
:1015C0001E1F021C141D1020201D1F0814111F10A7
:1015D0001E041E1E021C0C120C3E0A040C123E1E9F
:1015E000040214160A020F120E101E0E100E1E0810
:1015F0001E120C1226281E322A26041E21001F004D
:10160000211E040102013F213F0A4E6F2053442056
:1016100063617264206F720A6E6F204C4F414445C3
:10162000522E4845580A0A153A45786974001D201B
:10163000466C617368696E670A20206C6F6164652F
:10164000722E2E2E0A0A444F4E2754205455524EC5
:10165000204F464621006D560A0A504C45415345DD
:101660000A5455524E204F4646004C4F5720424197
:1016700054544552590A0017736176650016626129
:10168000636B001574797065000A0A0A153A6F6B6E
:10169000617920163A6564697400596F7520656E2A
:1016A00074657265640A00540A03E181867F3E18FE
:1016B0006D830F0F0E0183866033186DC3198F1869
:1016C00003C38E6033186DE330CF1803C39E6036BA
:1016D00030CDE360CF3006C79E7E3E30CDB360CFC5
:1016E000300CC6F6603330D9B660CF33CFCCF6605D
:1016F00061B0DB1E60CF30D86CE6C061B0DB1E612C
:101700008F19986CC6C063B19B0E330F0FB078C6AB
:10171000FF7E1F1B061E0F1753440016137800167A
:10172000131400151020001520100000000500897A
:10173000300802380249786814000045006801004A
:10174000000500680138010000050038016801004B
:1017500000F6E8DBCFC3B8AEA49B928A827B746E9E
:1017600068625C57524E4945413E3A3734312E2C1F
:1017700029272523211F1D1C1A19171615141312AA
:1017800011100F0E0D0C0B0A09080706901794177D
:101790000101F7030101FF030000000024002700FE
:1017A0002A0000000000250028002B000000000097
:1017B0002300260029000404040404040404020293
:1017C00002020202030303030303010204081020C0
:1017D00040800102040810200102040810200000CB
:1017E00000070002010000030406000000000000E2
:1017F0000000600D11241FBECFEFD8E0DEBFCDBFCB
:1018000011E0A0E0B1E0E2E7FDE502C005900D9235
:10181000A637B107D9F715E0A6E7B1E001C01D92E0
:10182000A933B107E1F717E1C4EFD7E104C022976C
:10183000FE010E941B2EC23FD107C9F70E94982AC1
:101840000C94B72E0C940000FC0117868FEF828B4E
:101850000895FC0190E0808118160CF491E0892F26
:101860000895FC01628B08952FEFFC01228B0895EF
:10187000FC019581648184E6989FC001112470E089
:101880000E94C92D862F0895E82FF0E0EB31F10575
:1018900008F0DBC0EC5CFF4FEE0FFF1F0590F491EA
:1018A000E02D0994662309F0D1C02CE332E0D0C0CA
:1018B000662319F420ED32E0CBC026E832E0C8C040
:1018C000662319F424E633E0C3C02AE133E0C0C044
:1018D000662319F428EF33E0BBC02EEA33E0B8C02A
:1018E000662319F42CE834E0B3C022E434E0B0C03D
:1018F000662319F420E235E0ABC026ED34E0A8C041
:10190000662319F424EB35E0A3C02AE635E0A0C035
:10191000662319F428E436E09BC02EEF35E098C02A
:10192000662319F42CED36E093C022E936E090C02E
:10193000662319F420E737E08BC026E237E088C041
:10194000662319F424E038E083C02AEB37E080C036
:10195000662319F428E938E07BC02EE438E078C02B
:10196000662319F42CE239E073C022EE38E070C02F
:10197000662319F420EC39E06BC026E739E068C033
:10198000662319F424E53AE063C02AE03AE060C037
:10199000662319F428EE3AE05BC02EE93AE058C01D
:1019A000662319F42CE73BE053C022E33BE050C030
:1019B000662329F126EC3BE04BC0662319F424EAA8
:1019C0003CE046C02AE53CE043C0662319F428E326
:1019D0003DE03EC02EEE3CE03BC0662319F42CEC0B
:1019E0003DE036C022E83DE033C0662319F420E62E
:1019F0003EE02EC026E13EE02BC0662319F420E134
:101A00003CE026C02AEA3EE023C0662319F42EE318
:101A10003FE01EC024EF3EE01BC0662319F422ED18
:101A20003FE016C028E83FE013C0662319F426E61D
:101A300030E10EC02CE130E10BC0662319F42AEF2F
:101A400030E106C020EB30E103C0089522EF31E021
:101A5000C9010895813039F0813078F0823031F059
:101A6000833051F406C02AED31E009C022EE31E0A6
:101A700006C02AEE31E003C0089522ED31E0C9012D
:101A800008951F93FC0145811081212F332727FDE5
:101A90003095C901841B91090E94C92D640F65838B
:101AA00070E0621773070CF415831F910895689F07
:101AB000C001112464E670E00E94C92D862F0895AC
:101AC0001092C7011092C60182E791E09093C50180
:101AD0008093C4010895EF920F931F93CF93DF93E8
:101AE00000911F03109120038091270390912803F8
:101AF000081B190B209121033091220340912903E7
:101B000050912A03C80140968536910570F5E90188
:101B1000C41BD50B8FEFC03FD8073CF1C133D105B3
:101B200024F5E0912B0380912C03882379F02E2F4C
:101B3000220FE22FEC5F8091E6019091E70168E0CF
:101B400070E00E94C92D04970CF0EF5FF0E0EE0FFB
:101B5000FF1FE25BFE4F2081318184EC91E0602F1A
:101B60004C2F00E0EE240E94CE1BDF91CF911F91FD
:101B70000F91EF90089562E370E080E090E024EF31
:101B800031E040E050E00E94532C70932F036093AB
:101B90002E030895AF92BF92DF92EF92FF920F93C0
:101BA0001F93DF93CF930F92CDB7DEB78091FF01E4
:101BB000909100020196909300028093FF0160E0F3
:101BC00070E080E090E026E030E040E050E00E94ED
:101BD000532CF62EFF0CFF0C0FE112E0580163E0CE
:101BE000D62EDF0C60E070E080E090E024E030E092
:101BF00040E050E00E94532C6295660F660F607CB7
:101C00006D0DF501608360E070E080E090E024E01D
:101C100030E040E050E00E94532C80EF90E0A80EAE
:101C2000B91E6295660F660F607C6D0DF5016083CD
:101C300081E19FEFA80EB91E9FE2A91692E0B906B6
:101C400089F660E070E080E090E024E030E040E081
:101C500050E00E94532C6295660F660F607C6D0DFC
:101C6000F801608360E070E080E090E024E030E024
:101C700040E050E00E94532C6295660F660F607C36
:101C80006D0DF8016787005F1F4FF3E00F311F07ED
:101C9000C1F660E070E080E090E022E030E040E0FB
:101CA00050E00E94532CE62EEF0C51E0A52EB12CF3
:101CB00029C089818C3008F045C091E0F91609F4FB
:101CC00041C0EEE0FE16F1F160E070E080E090E0EF
:101CD00025E030E040E050E00E94532C6115710592
:101CE0008105910579F5F801D082F394005F1F4FCB
:101CF000FFE0FF16F1F60894A11CB11C8FE0A816B6
:101D0000B10449F08501015D1D4FFF24F3949A2D24
:101D100092509983CECF82E080939F028093AE024F
:101D200082E480932702809317030E94BB0D0F90DB
:101D3000CF91DF911F910F91FF90EF90DF90BF90B7
:101D4000AF90089560E070E080E090E024E030E043
:101D500040E050E00E94532C6295660F660F607C55
:101D60006E0DF8016083C1CF0F931F93CF93DF9364
:101D700080912C03882309F44EC080911F03909119
:101D80002003409123035091240323E0440F551F67
:101D90002A95E1F78417950759F08417950714F4ED
:101DA000019601C001979093200380931F031AC0EE
:101DB00080912103909122032091250330912603E5
:101DC00003E0220F331F0A95E1F78217930751F0C2
:101DD0008217930714F4019601C001979093220390
:101DE00080932103809125039091260313E0880FAF
:101DF000991F1A95E1F720912103309122032817AA
:101E0000390749F480911F039091200384179507A7
:101E100011F410922C0380912C03882309F0F7C051
:101E2000C0912303D0912403009125031091260330
:101E300080E891E062E044E00E942A18882381F063
:101E40008091230390912403419660E170E00E9409
:101E5000C92D909324038093230381E080932B0367
:101E600080E891E060E044E00E942A18882381F035
:101E700080912303909124030F9660E170E00E940B
:101E8000C92D909324038093230383E080932B0335
:101E900080E891E063E044E00E942A18882379F00A
:101EA0008091250390912603419660E170E00E94A5
:101EB000C92D909326038093250310922B0380E86D
:101EC00091E061E044E00E942A18882381F080912B
:101ED0002503909126030F9660E170E00E94C92DC2
:101EE000909326038093250382E080932B038091B7
:101EF0002503E0912303F0E0B4E0EE0FFF1FBA9555
:101F0000E1F7E80FF11DE15EFD4FE081EF738E2FE9
:101F100090E0019683709070892BA9F4D0932403EC
:101F2000C09323031093260300932503EC2FF0E0C6
:101F3000A4E0EE0FFF1FAA95E1F7E00FF11DE15EAF
:101F4000FD4FE081EF738091230390912403C81724
:101F5000D90741F4809125039091260308171907AA
:101F600009F455C081E080932C038E2F90E00296F7
:101F700083709070892B09F04AC086E791E06EE982
:101F800070E04CE30E94E51E0E94CA0D809123037D
:101F900090912403009739F48FE090E0909324030C
:101FA000809323031AC00F9729F4109224031092F0
:101FB000230313C08091250390912603009739F4E1
:101FC0008FE090E0909326038093250306C00F973F
:101FD00021F41092260310922503809123039091FF
:101FE0002403E3E0880F991FEA95E1F7909320031B
:101FF00080931F03809125039091260373E0880F3F
:10200000991F7A95E1F79093220380932103209101
:102010002E0330912F03442737FD4095542F60E065
:1020200070E080E090E00E94532C611571058105FD
:10203000910521F40E94BB0D80E01DC080912E030C
:1020400090912F03019790932F0380932E0320915B
:102050002103309122032051304080911F03909141
:1020600020038297909328038093270330932A03B9
:102070002093290381E0DF91CF911F910F91089563
:10208000282F30E040E050E061E070E080E090E038
:102090000E94532C862F08958F929F92AF92BF92E9
:1020A000CF92DF92EF920F93CF93DF93CC24DD2476
:1020B0008824992443C0F5010081809127039091E1
:1020C0002803BE01681B790B4091290350912A0314
:1020D000CB0108968D359105F0F4C401841B950B56
:1020E000AC019FEF483F5907B4F0413351059CF4D0
:1020F000E02FF0E0EF73F070EE0FFF1FE25EFE4F97
:1021000020813181029506950695037084EC91E05B
:10211000EE240E94CE1BE0E1F0E0AE0EBF1E28963A
:10212000C038D10541F60894C11CD11C88E090E06C
:10213000880E991E90E1C916D10449F03FE1A32E03
:1021400032E0B32EAC0CBD1CC0E0D0E0B4CF84ECC8
:1021500091E065E073E10E94831C84EC91E060E013
:1021600071E00E94E52B6091FF017091000284EC08
:1021700091E04AE050E00E94C22B84EC91E066E0DE
:1021800071E00E94E52B609101027091020284ECE3
:1021900091E04AE050E00E94C22B84EC91E06DE0B7
:1021A00071E00E94E52B84EC91E060911E024AE010
:1021B00050E00E94D32B84EC91E067E874E10E9428
:1021C000831CDF91CF910F91EF90DF90CF90BF9064
:1021D000AF909F908F90089586E791E00E94B22083
:1021E0000E94CA0D64E070E080E090E028E030E0FA
:1021F00040E050E00E94532C70932403609323032B
:1022000064E070E080E090E028E030E040E050E002
:102210000E94532C9B0170932603609325038091A9
:1022200023039091240373E0880F991F7A95E1F7B7
:102230009093200380931F0363E0220F331F6A955E
:10224000E1F7309322032093210310922B03109285
:102250002C0310922D0384EF91E090932F03809331
:102260002E030895CF92DF92EF92FF920F931F9368
:10227000CF93DF930E94B40E882331F00E944C105C
:102280000E946B0D80E068C060E070E080E090E04C
:102290002BE130E040E050E00E94532CEB01FB01C9
:1022A000ED5FFD4F8081882339F481E08083809148
:1022B0001E028F5F80931E02C090FC01D090FD0132
:1022C00088E491E0C80ED91E2091FF0130910002F0
:1022D000B90180E090E02B5F3F4F40E050E00E946A
:1022E000532CF62E2091FF0130910002B90180E0BD
:1022F00090E02B5F3F4F40E050E00E94532C162FA0
:102300002091FF0130910002B90180E090E02B5F45
:102310003F4F40E050E00E94532C062F2091FF01D8
:1023200030910002B90180E090E02B5F3F4F40E028
:1023300050E00E94532CE62EC6016C2F4F2D212F0A
:102340000E94B4168091FC019091FD01885B9E4F24
:1023500060E00E94E41681E0DF91CF911F910F9120
:10236000FF90EF90DF90CF9008958091FC019091C5
:10237000FD01885B9E4F60E00E94E4160895DF92A5
:10238000EF92FF920F931F93CF93DF938091FC0105
:102390009091FD010E94FE16DC011396EC90FF2443
:1023A0008091FC019091FD010E94FE16FC01838149
:1023B0000E944010D82E8091FC019091FD01885B15
:1023C0009E4F0E94FE16DC0113960C9110E0809146
:1023D000FC019091FD01885B9E4F0E94FE16FC015E
:1023E00083810E944010ED0CF11C080F111D2091FB
:1023F000FC013091FD010E151F054CF4C9017C0153
:10240000EC01C85BDE4F81E0809366010AC0C90120
:10241000EC01E8E4EE2EE1E0FE2EE80EF91E10924B
:102420006601C7010E94FE168C01CE010E94FE16B5
:10243000FC0180818583D80111969C91891B808342
:1024400087FD1082CE010E94FE160E94290C88236F
:10245000A9F0CE010E94FE168C01C7010E94FE1653
:10246000FC0180818583D80111969C91891B808312
:1024700087FD108281E08093670102C0109267019E
:10248000DF91CF911F910F91FF90EF90DF90089512
:10249000EF92FF920F93F4ECEF2EF1E0FF2EC701C5
:1024A00062E040E02FEC30E00E94601B8091FC0174
:1024B0009091FD01885B9E4F0E94FE160E94380C91
:1024C0006BE20E94570D282FC70163E041E006E050
:1024D0000E946C19C70167E240E221E331E00E94EB
:1024E000601B8091FC019091FD010E94FE160E94EC
:1024F000380C6BE20E94570D282F63E5681BC7015B
:1025000049E20E946C190F91FF90EF9008951F937C
:1025100010E086E791E00E94FD208823D1F30E941D
:1025200048128091FC019091FD01885B9E4F0E94B2
:10253000FE16FC01848561E00E94440C9C0184EC41
:1025400091E06CE3412F0E94601B8091FC0190910F
:10255000FD010E94FE16FC01848560E00E94440C8F
:102560009C0184EC91E062E048E10E94601B115004
:10257000173D79F61F9108951F9318E186E791E0C2
:102580000E94FD208823D1F30E9448128091FC0113
:102590009091FD01885B9E4F0E94FE16FC01848590
:1025A00061E00E94440C9C0184EC91E06CE340E00B
:1025B0000E94601B8091FC019091FD010E94FE161B
:1025C000FC01848560E00E94440C9C0184EC91E055
:1025D00062E0412F0E94601B1F5F113479F61F914A
:1025E00008950F931F931DE20FE386E791E00E9489
:1025F000FD208823D1F30E944812193140F4812F25
:1026000090E083709070029714F0163090F48091EF
:10261000FC019091FD010E94FE16FC01848560E0A2
:102620000E94440C9C0184EC91E062E048E10E942D
:10263000601B8091FC019091FD01885B9E4F0E9480
:10264000FE16FC01848561E00E94440C9C0184EC30
:1026500091E06CE340E00E94601B1F31A8F084EC25
:1026600091E062E00E94D318612F6F50402F411B10
:1026700084EC91E02DEA30E00E94601B84EC91E054
:1026800061E00E94D31802C0112361F08091FC0127
:102690009091FD010E94FE16612F70E00E94410D95
:1026A0001150A3CF1F910F9108950F931F931DE217
:1026B00007E686E791E00E94FD208823D1F30E947F
:1026C0004812193140F4812F90E083709070029786
:1026D00014F01630A0F48091FC019091FD01885B0C
:1026E0009E4F0E94FE16FC01848561E00E94440C0E
:1026F0009C0184EC91E06CE340E00E94601B8091BF
:10270000FC019091FD010E94FE16FC01848560E0B1
:102710000E94440C9C0184EC91E062E048E10E943C
:10272000601B1F31A8F084EC91E062E00E94D31896
:10273000602F611B412F435284EC91E02DEA30E081
:102740000E94601B84EC91E061E00E94D31802C0FB
:10275000112371F08091FC019091FD01885B9E4FE7
:102760000E94FE16612F70E00E94410D1150A1CF12
:102770001F910F91089580916601882349F00E946E
:10278000551380916701882371F00E94F1120BC0EC
:102790000E94F11280916701882319F00E9455135D
:1027A00002C00E94BC128091FC019091FD01885BE7
:1027B0009E4F0E94FE160E94290C882311F40E944D
:1027C00087128091FC019091FD010E94FE160E94EB
:1027D000290C882311F40E94BC128091FC01909175
:1027E000FD010E94FE160E94340C8091FC01909124
:1027F000FD01885B9E4F0E94FE160E94340C0895D6
:102800008F929F92AF92BF92CF92DF92EF92FF9200
:102810000F931F93CF93DF93A4E1AA2EB12CEE2444
:1028200086E791E00E94FD208823D1F3A114B10432
:1028300009F442C00894A108B108C50163E070E042
:102840000E94C92D892B11F481E0E826882499245F
:10285000FF242BC0C60181709070EE2019F0892BE7
:1028600019F405C0892B19F4209781F002C0209734
:1028700069F484EC91E06F2D412F24E007E00E9481
:102880006C1984EC91E061E00E94D3180894C11C9B
:10289000D11C195F1936F1F60894811C911C84E053
:1028A000F80E8CE3F81609F4BBCFCC24DD2410E03D
:1028B000E401C170D070CECFDF91CF911F910F9105
:1028C000FF90EF90DF90CF90BF90AF909F908F9050
:1028D00008958091FC019091FD01885B9E4F0E94BC
:1028E000F616882309F45AC08091FC019091FD01ED
:1028F0000E94F616882309F451C00E94BF110E945D
:10290000BB138091FC019091FD01885B9E4F0E945A
:10291000E716882349F48091010290910202019602
:1029200090930202809301028091FC019091FD013D
:102930000E94E716882381F18091FC019091FD01AE
:10294000885B9E4F0E94E716882331F18091FC013D
:102950009091FD01885B9E4F0E94FE16FC018081D4
:10296000882341F48091FC019091FD01885B9E4F8A
:102970000E94DD168091FC019091FD010E94FE16DF
:10298000FC018081181654F08091FC019091FD01AA
:102990000E94DD1681E0089580E0089581E00895A9
:1029A000CF93DF9386E791E063E971E043E20E9411
:1029B000E51EC3E2D0E086E791E00E94FD20882377
:1029C000D1F321971C161D06B4F38091FC01909160
:1029D000FD010E94DD168091FC019091FD01885B54
:1029E0009E4F0E94DD168091FC019091FD01885B55
:1029F0009E4F0E94E116DF91CF9108958091FC01D6
:102A00009091FD01885B9E4F0E94FE1660E00E943F
:102A1000310C08951F938091FC019091FD010E945B
:102A2000FE16FC0184850E942A0DBC0186E791E018
:102A300044E00E94B621182F8091FC019091FD0185
:102A4000133019F40E94DD160EC00E94FE16612F8D
:102A50000E94310C8091FC019091FD010E94FE16B4
:102A6000612F0E94310C1F910895FF920F931F93C5
:102A70008091FC019091FD010E94F616882309F0D7
:102A800061C086E791E061EA71E044E00E94B6210E
:102A9000682F8091FC019091FD010E94E4168091C5
:102AA000FC019091FD010E94FE16FC018081181628
:102AB00044F786E791E069EA71E04CE30E94E51E85
:102AC0001CE3BCE1FB2E86E791E00E94FD208823F9
:102AD000D1F31F3118F00F2D011B0AC080E891E0DF
:102AE00064E00E942018882369F5112359F102E05F
:102AF00011508091FC019091FD01885B9E4F0E94D6
:102B0000FE16FC01848561E00E94440C9C0184EC6B
:102B100091E06CE340E00E94601B8091FC01909189
:102B2000FD010E94FE16FC01848560E00E94440CB9
:102B30009C0184EC91E0602F48E10E94601B0E94A0
:102B40004812C1CF1F910F91FF9008950F931F93CB
:102B500086E791E063EB71E04CE30E94E51E1CE325
:102B600086E791E00E94FD208823D1F31F3118F001
:102B7000012F025E0AC080E891E064E00E94201804
:102B80008823C9F41123B9F00CE311508091FC01A2
:102B90009091FD01885B9E4F0E94FE16FC0184858A
:102BA00061E00E94440C9C0184EC91E0602F40E0C5
:102BB0000E94601BD5CF1F910F9108950E940014B1
:102BC0000E94A6158091FC019091FD010E94DD16E6
:102BD0000E94B5110E9435150E94FE140E940A152C
:102BE0000E9469148823A1F70E94D01480E0089500
:102BF00086E791E00E94FD20882381F08091FE010C
:102C0000882319F0813041F403C00E94321102C0C0
:102C10000E94DE158093FE0110928E010895EF92BE
:102C20000F931F9310921E02109200021092FF0148
:102C300010920202109201021092FE0186E791E0CA
:102C40000E94802486E791E068EC71E00E947B247A
:102C500086E791E00E94B2208CE991E00E94A72AC9
:102C60008C010E940A17C8018E5A9F4F0E940A17B2
:102C7000C8018C559F4F0E940A17C8018A509F4F68
:102C80000E940A17C801885B9E4F0E940A17109382
:102C9000FD010093FC0182E590E00E94A72A182F15
:102CA000092F0E940A174091FC015091FD019A01E1
:102CB000D901212F302FC901FC0182E501900D922D
:102CC0008150E1F7CA0160E043E225E00FE07BE1DB
:102CD000E72E0E94B4168091FC019091FD0160E006
:102CE00044E129E009E151E1E52E0E94B41680910A
:102CF000FC019091FD0160E048E12FE00AE038E03E
:102D0000E32E0E94B4168091FC019091FD0160E0D9
:102D10004AE022E003E014E0E12E0E94B416E091C4
:102D2000FC01F091FD01E556FE4F81E0808382E5D4
:102D300090E00E94A72A182F092F0E940A17E091FD
:102D4000FC01F091FD01E85BFE4F212F302FC901FE
:102D5000DC0182E50D9001928150E1F70E94EC10B8
:102D60001F910F91EF900895EF920F93DC01522F76
:102D700015962C9115972430E8F430E083E190E02B
:102D8000289FF001299FF00D389FF00D1124EA0FC4
:102D9000FB1F628B138A078304874683428743871E
:102DA00051875687E086E58615968C9115978F5F3B
:102DB00015968C930F91EF9008952FEFFC012483CB
:102DC0000895FC0115820895FC0164830895FC01B7
:102DD000258190E007C086817396181614F481E06F
:102DE00008959F5F9217B8F380E0089520E0FC01FA
:102DF00084818F3F09F021E0822F0895FC01248116
:102E000083E1289F900111242A5F3F4F2E0F3F1F1F
:102E1000C90108950F931F938C0106960E94240CFC
:102E2000C80149960E94240CC8018C960E94240C6B
:102E3000C801CF960E94240CF80115828FEF84837D
:102E40001F910F910895882319F48CB5806202C0F8
:102E50008CB58F7D8CBD08959CB5937F982B9CBDC0
:102E600008952CB5382F33702C7F322B3CBD2DB5F7
:102E700090E0959587959595879581702E7F822B0B
:102E80008DBD08958AE061E00E94352A8AE061E004
:102E90000E94C9298CB580618CBD8CB580648CBDC5
:102EA0008DE061E00E94C9298BE061E00E94C929A0
:102EB0000895FC0181E08083089585E070E00E9420
:102EC000692908956F927F928F929F92AF92BF92DD
:102ED000CF92DF92EF92FF920F931F93CF93DF93E6
:102EE000EC0189819A818C0124E0000F111F2A9541
:102EF000E1F7081B190B85E10E944729BC01600F0F
:102F0000711F84E0769567958A95E1F77A836983E6
:102F10008881882381F12E813F816217730710F425
:102F2000B90106C0888599858617970708F4BC0102
:102F300000D000D080E090E040E050E0E884F984E8
:102F400000E010E0AD80BB24CC24DD246C8077242D
:102F500088249924EDB7FEB76182728283829482BD
:102F60000E94E82B6B830F900F900F900F9085E0DD
:102F700070E00E946929DF91CF911F910F91FF901E
:102F8000EF90DF90CF90BF90AF909F908F907F9009
:102F90006F900895FC018CE39FE09383828384E02B
:102FA000818381E084870895CF93DF93EC018C8542
:102FB00090E08F719070892B69F584E10E94472918
:102FC000AA2797FDA095BA2FBC01CD010E94A72C7E
:102FD00026EE3FE34EEC50E40E94332D0E94792C04
:102FE0009B01AC017B836A836115710589F084E0E4
:102FF0008983B901FE0120E08481958168177907F2
:1030000010F429830AC02F5F32962430A9F702C03A
:103010008FEF89838C858F5F8C87DF91CF910895A7
:10302000FC0188E0808389E0818387E0828386E0F9
:10303000838384E0848382E0858381E186830895AD
:1030400020E0FC01E60FF11D8781813009F421E0C9
:10305000822F0895E62FF0E0423040F420E0E80FA0
:10306000F91F878181508E3F88F40FC0E80FF91F48
:1030700087818F3F11F420E009C020E090E0642FA9
:1030800070E00E94B52D019709F421E0822F089588
:103090000F931F93CF93DF93EC0110E00FEF888124
:1030A00062E00E94C92988810E94682A2F81892BA9
:1030B00019F42F5F2F8307C0222349F02F3F11F40B
:1030C0001F8201C00F83888160E00E94C9291F5FB1
:1030D0002196173021F7DF91CF911F910F9108951D
:1030E000FC01742F643508F05DC047FD5BC04033C0
:1030F0000CF058C0878D823019F5842F8595859501
:103100008595992787FD9095462F552747FD509522
:1031100024E530E0829FF001839FF00D929FF00D37
:103120001124E40FF51FE05DFC4F808190E0272F14
:10313000277002C0959587952A95E2F78095817052
:10314000972F959595959595462F552747FD509521
:10315000272F27708823A1F4E4E59E02F0011124B3
:10316000E40FF51FE05DFC4F81E090E002C0880FA6
:10317000991F2A95E2F780952081282320830895BE
:10318000E4E59E02F0011124E40FF51FE05DFC4F21
:1031900081E090E002C0880F991F2A95E2F7208114
:1031A000282B20830895FC01678F60A30895FC01FC
:1031B000678F40A30895AF92BF92CF92DF92EF92B4
:1031C000FF920F931F93CF93DF93EC01162FF42EF2
:1031D000E22EAA24402F552747FD50958F2D992781
:1031E00087FD9095481B590B57FF03C0509541959B
:1031F0005F4F2E2D332727FD3095812F992787FD8F
:103200009095281B390B37FF03C0309521953F4F10
:103210002417350744F4AA24A3948F2DF12E182FD8
:10322000802F0E2DE82EE11634F48E2DE12E182F6E
:10323000802F0F2DF82EDE2CD11A202F332727FDBB
:1032400030958F2D992787FD9095281B390B37FFD7
:1032500003C0309521953F4FB22EF0161CF0CC24C0
:10326000CA9402C0CC24C3948D2DD7FC8F5F082F45
:10327000059511C0AA2021F0CE016F2D412F03C06A
:10328000CE01612F4F2D0E9470180B1907FF02C04D
:10329000FC0C0D0D1F5FE1166CF7DF91CF911F91B4
:1032A0000F91FF90EF90DF90CF90BF90AF90089577
:1032B0000F93042F322F262F2150230F0E94DB184B
:1032C0000F9108950F93362F042F0150020F232FD3
:1032D0000E94DB180F9108959F92AF92BF92CF92F8
:1032E000DF92EF92FF920F931F93CF93DF936C01C6
:1032F000B62E942EA02EC0E0D0E0E62EFF24E7FCF0
:10330000F094022F112707FD10950E0D1F1D06C00A
:10331000C601492D2A2D0E94621921966B2D6C0F32
:10332000CE018E0D9F1D8017910794F3DF91CF91F1
:103330001F910F91FF90EF90DF90CF90BF90AF90D3
:103340009F9008952F923F925F926F927F928F92FB
:103350009F92AF92BF92CF92DF92EF92FF920F9324
:103360001F93DF93CF9300D000D000D0CDB7DEB74E
:103370009E838D83C62ED42EEE24E394E21A8EEF24
:10338000289F502C1124842E8A94962E9A94A42E31
:10339000A394B62EB394F22E662423E0722E10E08E
:1033A000C801847090709A838983F801E270F0708C
:1033B000FC83EB8398E0292E312C202231220170EE
:1033C000107054C0E7FC04C0FA94F2E05F0EE50C04
:1033D000639489819A81892B71F04F2D4D0D8D81D8
:1033E0009E816B2D0E9470186F2D6C0D8D819E81BA
:1033F0004A2D0E947018EB81FC81EF2B71F04D2D4E
:103400004F198D819E816B2D0E9470186F2D6C0D50
:103410008D819E81482D0E9470182114310471F015
:103420006C2D6F198D819E814A2D0E9470184F2D31
:103430004D0D8D819E81692D0E9470180115110519
:1034400071F06C2D6F198D819E81482D0E9470182E
:103450004D2D4F198D819E81692D0E947018E70CAA
:10346000F2E07F0E8A949A94A394B3946F140CF4B0
:10347000A9CF26960FB6F894DEBF0FBECDBFCF9171
:10348000DF911F910F91FF90EF90DF90CF90BF9051
:10349000AF909F908F907F906F905F903F902F9014
:1034A00008954F925F926F927F928F929F92AF9208
:1034B000BF92CF92DF92EF92FF920F931F93CF9321
:1034C000DF93EC01A62E742E9E2DFF24F394F21AA6
:1034D0008EEF289F802C1124B42EBA9453E0C52E71
:1034E000CE0CE22EDD2443E0942E10E031E0432E9A
:1034F000512C40225122692E63940270107034C006
:10350000F7FC04C0EA9482E0880EF80CD3944114CE
:10351000510489F06D2D6A0D472D4E192E2D220F65
:10352000260DCE010E9462196E2D6A0DCE014B2D23
:103530002C2D0E9462190115110589F06A2D6D1953
:10354000472D4E192E2D220F260DCE010E946219F5
:103550006A2D6E19CE014B2D2C2D0E946219F90C8B
:1035600082E0980EBA94C80EDE1454F2DF91CF9127
:103570001F910F91FF90EF90DF90CF90BF90AF9091
:103580009F908F907F906F905F904F9008957F9263
:103590008F929F92AF92BF92CF92DF92EF92FF9263
:1035A0000F931F936C01962EA42EF22E7E2C760E76
:1035B0001EEFE19E102D1124812E820E672D282DE5
:1035C0000E945819B02EBA0CBA94C601672D4B2D23
:1035D000282D0E945819AE0C100FC601692D4A2DD6
:1035E000212F0E946219F90CFA94C6016F2D4A2D01
:1035F000212F0E946219C601672D4A2D2E2D01E050
:103600000E94A219FE18C6016F2D4A2D2E2D02E030
:103610000E94A219BE18C6016F2D4B2D2E2D04E05D
:103620000E94A219C601672D4B2D2E2D08E00E9485
:10363000A2191F910F91FF90EF90DF90CF90BF9054
:10364000AF909F908F907F9008958F929F92AF92AE
:10365000BF92CF92DF92EF92FF920F931F936C0174
:10366000162FA42E922EF02EBE2C8E2C860E2EEF10
:10367000E29EE02C11242E2D290D682D0E946C193C
:10368000AB0CFA94FE0C1150190D1B19C601612FD9
:103690004A2D2B2D01E0EF2C0E94511AC601682DF6
:1036A0004A2D2B2D02E00E94511A1F910F91FF907D
:1036B000EF90DF90CF90BF90AF909F908F90089544
:1036C0003F924F925F926F927F928F929F92AF92B2
:1036D000BF92CF92DF92EF92FF920F931F93CF93FF
:1036E000DF934C01362E442EF901A490319654906C
:1036F0006F010894C11CD11C8A2D992787FD9095D4
:10370000079668E070E00E94C92DE62EFF24E7FCD2
:10371000F09400E0C0E0D0E060E8662E712C26C096
:10372000E12FE595E595E595FF27E7FDF095EC0F91
:10373000FD1FEC0DFD1DE4912E2F30E0812F8770D1
:10374000A30102C0559547958A95E2F724233523B6
:10375000232B31F0612F630DC4014B2D0E94701893
:103760001F5F1A15ECF20F5FCE0DDF1D051524F457
:1037700010E0B02EB40CF5CFDF91CF911F910F91D7
:10378000FF90EF90DF90CF90BF90AF909F908F9081
:103790007F906F905F904F903F9008952F923F924F
:1037A0004F925F926F927F928F929F92AF92BF9251
:1037B000CF92DF92EF92FF920F931F93DF93CF93FD
:1037C00000D000D00F92CDB7DEB73C01862E4A83E1
:1037D000F901BE2C002329F4EE2019F40E94601B8D
:1037E0007AC0A490319694901F010894211C311C3A
:1037F000037009838A2D992787FD9095079668E0C5
:1038000070E00E94C92D462E552447FC5094C92CC7
:10381000CA94FF241D821C824A2D41504B8356C0FE
:10382000E02FE595E595E595FF27E7FDF0958C817F
:103830009D81E80FF91FE20DF31DE4912E2F30E07A
:10384000802F8770A0E8B0E002C0B595A7958A9553
:10385000E2F72A233B23232B61F1B981B13051F0E8
:10386000B13028F0B23049F0B33061F409C0102F04
:10387000EF2C08C0ED2C1F2D05C01D2DEC2C02C017
:103880001C2DE02EBB2069F0E3E0BE228B2DB0FEA4
:1038900003C0FA2DF11B1F2F81FF03C0492D4E19C4
:1038A000E42E180D5A81E50EC301612F4E2D0E94A2
:1038B00070180F5FDA940A150CF4B2CFF3948C8170
:1038C0009D81840D951D9D838C83CA94F9141CF4ED
:1038D000DB8000E0F0CF0F900F900F900F900F90D3
:1038E000CF91DF911F910F91FF90EF90DF90CF90DC
:1038F000BF90AF909F908F907F906F905F904F9010
:103900003F902F900895DC01FB0184918F5F149606
:103910008C931497319684918F5F15968C9315979D
:1039200031965E96FC93EE935D9708953F924F9289
:103930005F926F927F928F929F92AF92BF92CF923F
:10394000DF92EF92FF920F931F93CF93DF93EC01DF
:10395000862EA42E422F102F3F8C23E526170CF421
:10396000ABC03FE23A150CF4A7C0C02EDD248C8119
:1039700090E001979C01C29EC001C39E900DD29E13
:10398000900D1124262F332727FD3095820F931F8A
:10399000181619060CF090C08D8190E09C01C29E13
:1039A000C001C39E900DD29E900D11242A2D332765
:1039B00027FD3095820F931F181619060CF07CC056
:1039C0009924442E55246DC09C012150304042174B
:1039D000530711F460E00EC0429EC001439E900D5B
:1039E000529E900D1124840F951FED8DFE8DE80FD2
:1039F000F91F64914C9DC0014D9D900D5C9D900DF3
:103A00001124682C680EBB24792C780C3FC0E62E5C
:103A1000FF2460FF19C0113039F44B2D4A0DCE013F
:103A2000672D0E9470182EC02C9DC0012D9D900DF9
:103A30003C9D900D11244A2D480FCE01662D212F5B
:103A4000012F0E946C191EC098A18F8D9817D1F07C
:103A50009F8F113039F44B2D4A0DCE01672D0E94F6
:103A600070180FC02C9DC0012D9D900D3C9D900D98
:103A700011244A2D480FCE01662D212F012F0E94BF
:103A80006C193F8EF594E7946E2DB3942B2D33274C
:103A900027FD30958D8190E0281739070CF4B7CFBA
:103AA0009394492D552747FD50958C8190E04817F8
:103AB00059070CF489CF3F8EDF91CF911F910F9161
:103AC000FF90EF90DF90CF90BF90AF909F908F903E
:103AD0007F906F905F904F903F9008950F93CF939A
:103AE000DF93EC01262F6A3049F48D819885899FF8
:103AF000802D11249A85980F9A8726C06D3029F160
:103B000069854A8508850E94961C9C816885969FD8
:103B1000402D11248985480F49878F818823A9F07A
:103B2000552747FD5095699F9001112484E590E049
:103B3000821B930B8417950744F49D81699F902DF8
:103B400011248A85890F8A87198681E090E0DF91A8
:103B5000CF910F9108951F93CF93DF93EC01162F10
:103B6000F8948E8560E00E94352A8F8518161CF423
:103B700060E00E94352A1EBD0DB407FEFDCF8EB554
:103B80008F8518161CF461E00E94352A7894DF9125
:103B9000CF911F910895FF920F931F93CF93DF93BF
:103BA000EC01FF2400E010E06F2D6064CE010E9464
:103BB000AB1DCE0160E80E94AB1D8E8561E00E94C6
:103BC000352A8F8518161CF460E00E94352AF8010A
:103BD000E05DFC4F90E080818EBD0DB407FEFDCF0F
:103BE0008EB59F5F31969435B1F78F8518161CF40A
:103BF00061E00E94352AF3940C5A1F4F86E0F816B4
:103C000099F6CE0160E40E94AB1DDF91CF911F9128
:103C10000F91FF900895CF93DF93DC0188EF91E03F
:103C2000E0E3F3E0EF019C01199221503040E1F70D
:103C300019961C9219971A961C92DF91CF910895AC
:103C4000EF920F93CF93DF93EC014D876C872E8714
:103C5000E88A0F8781E088878F8F18A28F83CE0133
:103C600067E874E10E94831C0E94421781E00E9471
:103C7000231785E00E9431178CE00E942C178D8558
:103C800061E00E94C9298C8561E00E94C9298E8566
:103C900061E00E94C929888918161CF461E00E941D
:103CA000C9298F8518161CF461E00E94C9298889EA
:103CB00018166CF460E00E94352A6AE070E080E03B
:103CC00090E00E94E628888961E00E94352AEC8510
:103CD0002E2F332727FD3095F901EA54F84EE49151
:103CE000F0E0EE0FFF1FEE55F84E859194919C8BFE
:103CF0008B8B2653384EF90184918A8FED852E2FB8
:103D0000332727FD3095F901EA54F84EE491F0E0AD
:103D1000EE0FFF1FEE55F84E859194919A8B898B8B
:103D20002653384EF9018491898FEF852E2F332742
:103D300027FD3095F901EA54F84EE491F0E0EE0FDA
:103D4000FF1FEE55F84E859194919E8B8D8B2653D7
:103D5000384EF90184918B8FEE852E2F332727FD66
:103D60003095F901EA54F84EE491F0E0EE0FFF1FB0
:103D7000EE55F84E85919491988F8F8B2653384E3F
:103D8000F90184918C8FCE0161E20E94AB1DCE01BE
:103D900064E10E94AB1D8B8587FF02C08FE78B8794
:103DA0006B856068CE010E94AB1DCE0160E20E946F
:103DB000AB1DCE016CE00E94AB1DCE010E94CB1D5D
:103DC000DF91CF910F91EF900895FC01ED57FF4FD8
:103DD00061937193445F40830895CF93DF93DC0137
:103DE000E0E8F7E785919491ED01C75ADF4FAD0107
:103DF00041595F4F8150904C09F04EC0E6E9F7E71A
:103E0000E491E883E7E9F7E7E4911496EC931497DB
:103E1000E8E9F7E7E4911596EC931597E9E9F7E7F8
:103E20008591949117969C938E931697EBE9F7E7FB
:103E30008591949119969C938E931897EDE9F7E7E5
:103E4000E4919B96EC939B97EEE9F7E7E4919A96C1
:103E5000EC939A97EFE9F7E7E491EA01E883E0EA67
:103E6000F7E7859194915D969C938E935C97E2EA37
:103E7000F7E7859194915F969C938E935E97E4EA21
:103E8000F7E78591949191969C938E939097E6EAAB
:103E9000F7E78591949132C08CE3888314961C9245
:103EA00014972FEF15962C93159780E293E01796B1
:103EB0009C938E93169784ED93E019969C938E9322
:103EC000189781E09B968C939B979A968C939A97E0
:103ED000FA0120838CEA9DE05D969C938E935C971B
:103EE0008EED9DE05F969C938E935E9784E79EE0B7
:103EF00091969C938E9390978CE39FE093969C93DE
:103F00008E939297DF91CF910895EF92FF920F9346
:103F10001F93CF93DF937C018C01025B1F4FC8017D
:103F20000E940B1EC8016EE276E10E94D42AC801ED
:103F30000E94CB1D83E00E94311783E191E0EEEFF8
:103F4000FFE3099584E590E0E80EF91EF701108281
:103F5000C80169E076E10E941F2BC8010E94CB1DB9
:103F6000E701CA54D040CE010E944818CE0164E057
:103F70000E942018882339F462E370E080E090E02A
:103F80000E94E628F0CFDF91CF911F910F91FF9013
:103F9000EF9008950F931F93CF93DF93EC018C0163
:103FA000025B1F4FC80161E040E00E94D718FE018C
:103FB000E95AFF4FCE5ADF4F85E59881891B8083F0
:103FC00026961882C855D040698D613009F43EC0EC
:103FD000613028F0888D653008F051C04BC0CE01AB
:103FE00085960E948525CE0160E00E945D17C8017C
:103FF0000E940B1ECA5ADF4F81E08883C655D0400D
:10400000C8016AE676E10E94D42A6A8D7B8DC801D8
:104010004AE050E00E94C22BC80166E576E10E94AA
:10402000D42AC8010E94CB1D83B7817F846083BFDF
:1040300083B7816083BF83B7816083BF889583B76F
:104040008E7F83BF83B78E7F83BF1FC0C059DF4F72
:1040500088819981AA81BB818F709070A070B070A7
:104060000897A105B10518F4C80167E00CC0C801A4
:1040700068E709C0882349F06B5FC80104C0882342
:1040800021F0C8016FE20E94F72ADF91CF911F91C2
:104090000F910895AF92BF92CF92DF92EF92FF926D
:1040A0000F931F93CF93DF93EC01CB57DF4F8881A2
:1040B000C558D040882309F44AC08C3010F010E075
:1040C00002C01CE0181BCA5ADF4F81E08883C65526
:1040D000D0406EE4C62ED12CCC0EDD1EC60160E0B1
:1040E0000E94D31853E5A52EB12CAC0EBD1EF501D0
:1040F00000814DE2F42E4F2D401B410F0D5FC60194
:1041000060E024E533E0E32E0E94251BC60161E058
:104110000E94D318F5010081F01AF10E0D5FC6015F
:1041200060E04F2D24E50E94C71AC95ADF4F84E092
:104130008993F5018081181B115D1883AB966991F5
:104140007991C6010E94D42A888181508883DF91A9
:10415000CF911F910F91FF90EF90DF90CF90BF9084
:10416000AF9008954F925F926F927F928F929F923D
:10417000AF92BF92CF92DF92EF92FF920F931F9375
:104180002C01FC01628C738C6094709488249924B7
:104190000E94C0285B016C010E94C0287B018C0139
:1041A000F201418052800E94C028460E571EA09402
:1041B000B094C094D094E094F09400951095C6010A
:1041C000B501A80197010E94962DA40193010E94B8
:1041D000962D460E571EC2010E94712C1F910F9101
:1041E000FF90EF90DF90CF90BF90AF909F908F9017
:1041F0007F906F905F904F900895AF92BF92CF9253
:10420000DF92EF92FF920F931F93CF93DF93EC0116
:10421000EFE7AE2EB12CA80EB91EF501E080F180BB
:10422000028113810E94B228E61AF70A080B190BC3
:104230007EE7C72ED12CCC0EDD1EF601808190E0EA
:10424000A0E0B0E08E159F05A007B10708F081C07F
:104250008E0106581F4FF80180819181A281B381A0
:104260000097A105B10509F474C00E94B228F601B7
:104270002081620F711D811D911DF5016083718385
:1042800082839383FE01E059FF4F80819181A28157
:10429000B3810196A11DB11D80839183A283B38355
:1042A000F80110821182128213820E94C028CA581B
:1042B000DF4F688379838A839B83C657D040CE01C2
:1042C0000E946217CE010A960E944818CE014896B5
:1042D0000E94D41781E032C08E010B5D1F4FC801D0
:1042E0000E94D325C8010E944A26C8010E942D279A
:1042F000CE010E944A20CE010E94CA1F8E01025B9D
:104300001F4FC8010E94CB1DCC5ADF4F8881C45576
:10431000D040882319F4C8010E940B1E0E94C028B7
:10432000C658DF4F688379838A839B8324972881CB
:104330003981621B730B7A936A9380E0DF91CF918E
:104340001F910F91FF90EF90DF90CF90BF90AF90B3
:104350000895C658DF4F88819981AA81BB81CA57C9
:10436000D0400097A105B10541F7B6CF2F923F92FB
:104370004F925F926F927F928F929F92AF92BF9275
:10438000CF92DF92EF92FF920F931F93DF93CF9321
:10439000CDB7DEB762970FB6F894DEBF0FBECDBFC4
:1043A0006C016C837D834B8324E530E0C20ED31E09
:1043B000F60110822CEA3FEFC20ED31E1AE0A12EA6
:1043C000B12CAC0CBD1CB5E22B2E312C2C0C3D1CA1
:1043D000AEE44A2E512C4C0C5D1C1A823FEF3983FF
:1043E00010E0F0E37F2E6624A601495A5F4F5F83F9
:1043F0004E83C601885A9F4F99878887F601EA5AEB
:10440000FF4FFB87EA8796012B5A3F4F3D872C874A
:10441000E3E58E2E912C8C0C9D1C5B81452F50E08A
:104420005F874E878B818150888BC6010E94FD205B
:104430008823D9F3C50164E00E942018882369F419
:10444000C50165E00E942018882339F4C50166E0A3
:104450000E942018882309F4D3C0F4010081C5010B
:1044600064E00E942018882329F0C1010E948A2755
:104470001983CBC0C1010E949027C7C0C50163E06A
:1044800044E00E942A18882321F01F5FC1010E9486
:104490009627C50161E044E00E942A18882321F094
:1044A0001150C1010E949627812F992787FD909571
:1044B0002E853F858217930711F410E002C017FD87
:1044C0001889F4018081819F902D11248C5F682EC2
:1044D000691A28C0872D992787FD9095262D3327A7
:1044E00027FD3095821B930B0297D4F48981629645
:1044F0000FB6F894DEBF0FBECDBFCF91DF911F91F5
:104500000F91FF90EF90DF90CF90BF90AF909F9072
:104510008F907F906F905F904F903F902F90089575
:10452000F1E0FA83862D992787FD9095272D332773
:1045300027FD3095820F931F62E070E00E94C92D25
:10454000762EEE81FF811082E885F985608321E077
:10455000EA85FB852083EC85FD8510822C813D81D9
:10456000C9019A8B898B00E0E12EFF24E7FCF094CF
:1045700020C0802F90E08E159F0569F423E0EE8126
:10458000FF812083F40180818E9D802D1124870D71
:10459000E885F9858083E989FA8965917491C2017A
:1045A0000E941F2B0F5F29893A892E5F3F4F3A8B5C
:1045B000298B3B810317E8F2C20160E00E94D31807
:1045C000F40140814E9D402D11244150470DC20100
:1045D00060E024E50E945819C20161E00E94D318EE
:1045E000F40100810E9D402D11244250470D0D5FB6
:1045F000C20160E024E573E0E72E0E94C71A15CFE0
:10460000FA81FF2309F066CF39CF802F90E0909593
:1046100081959F4F2E853F85AC01249FC001259F2A
:10462000900D349F900D11246EEF662E680E52CFC0
:104630002F923F924F925F926F927F928F929F92B2
:10464000AF92BF92CF92DF92EF92FF920F931F93A0
:10465000DF93CF93CDB7DEB72B970FB6F894DEBFBD
:104660000FBECDBF9B878A877A8369835C834B8328
:104670008C0101591F4FF8018081882309F422C160
:104680008A859B858A5A9F4F9B878A8781E0EA8526
:10469000FB85808312921292E455F040FB87EA87F3
:1046A000108E9EE4E92EF12CEE0EFF1EC70161E094
:1046B0000E94D3188AE0282E312C8A859B85280EEB
:1046C000391EB5E26B2E712C680E791EE981FA81D4
:1046D000F491FD83A7E58A2E912C880E991EF8E5AA
:1046E000CF2ED12CC80ED91EE2E54E2E512C480EED
:1046F000591E8D5A9F4F9F838E8370E7A72EB12C32
:104700008A859B85A80EB91E198708878A859B858F
:104710000E94FD208823D1F39D81992311F410E09C
:1047200003C0EE81FF811081C70160E040E027EA0D
:1047300036E10E94601B8B819C81892B41F0145FC4
:10474000C70160E0412F2B813C810E94601BF40176
:1047500010828CE0F6018083C70169817A810E9412
:10476000D42AF201208130E0C901880F991F820FFD
:10477000931F909581959F4F8D5AF4018083EE8110
:10478000FF81208130E0C901880F991F820F931F9C
:10479000909581959F4F835DF6018083F50180811F
:1047A00084FF04C0C70167E277E103C0C70163E289
:1047B00077E10E941F2BF201208130E0C901880FB0
:1047C000991F820F931F909581959F4F8D5AF401E9
:1047D0008083F60180818F5F8083EA85FB8582A5D7
:1047E000882321F0C7016FE177E103C0C7016BE1C6
:1047F00077E10E941F2BF201808190E09C01220F43
:10480000331F280F391F309521953F4F2D5AF40142
:104810002083F60180818F5F8083C70167E177E1A4
:104820000E941F2BC10165E00E942018882351F0CF
:10483000EA85FB8562A56F5FC3010E949C27C301C7
:104840000E949627C10164E00E942018882399F4F1
:10485000E885F9856081262F30E040E050E0F501E1
:1048600080819181A281B38182179307A407B50744
:1048700008F16F3FF9F08A859B8581599F4F9B878F
:104880008A878FEFEA85FB858083EF56F040FB87B0
:10489000EA87C30160E00E947A25C3010E948A274B
:1048A00081E0EA85FB85808F0DC08A859B850E940B
:1048B000851F2CCFC10166E00E942018882309F4CF
:1048C00025CFF3CF2B960FB6F894DEBF0FBECDBF2A
:1048D000CF91DF911F910F91FF90EF90DF90CF90DC
:1048E000BF90AF909F908F907F906F905F904F9010
:1048F0003F902F90089540E050E00E9418230895C3
:10490000AF92BF92CF92DF92EF920F93CF93DF934C
:104910006C018EE790E0C80ED91E82E3F601808319
:1049200081E090E0A0E0B0E0B293A29392938293F2
:104930006F0185EF9FEFC80ED91E8FEFF6018083C0
:1049400081E99FEFC80ED91EC6010E94ED1EC60167
:104950000E945917C6016FEF0E945D174AE0A42E0E
:10496000B12CAC0CBD1CC5010E941018C5010E94E1
:104970004818C60148960E94CA17C601825B9F4F1D
:104980006DE04BE020E10FE03EE0E32E0E94201EB0
:10499000E601A596CE010E94A927C50165E00E9407
:1049A0002018882329F0CE0160E00E949C2706C0D1
:1049B000CE016DE277E140E00E948925DF91CF9141
:1049C0000F91EF90DF90CF90BF90AF9008950F932D
:1049D000DC01002309F069C0623009F443C0633090
:1049E00030F4662359F0613009F05FC00DC06330C8
:1049F00009F444C0643009F058C04CC04B3008F092
:104A00004AE056964C9351C0842F90E0880F991F2E
:104A10001F962D913C915097280F391FF9018591D0
:104A2000949190969C938E935F97FC01459154913D
:104A300014968C911497849F602D112491966C93F9
:104A40009197252F3327862F90E02817390708F4F0
:104A5000652F14968C911497689F802D112492963F
:104A60008C9323C014968C911497489F802D112409
:104A700059968C9359975A962C9317C014968C91EB
:104A80001497489F802D11245B968C935B975C96BE
:104A90002C930BC014968C911497489F802D112451
:104AA0005D968C935D975E962C930F910895FC0113
:104AB000222371F4648B8481489F802D1124858B7F
:104AC00015A214A213A281E0878B80932905108E72
:104AD0000895FC01662369F4178A158A14A213A2AB
:104AE000108E10922C0510922B0510922905109211
:104AF000B4000895CF93DF93EC01662319F40E946C
:104B000069251982DF91CF91089560E00E947A258E
:104B100008950F931F93CF93DF93EC018B014423F0
:104B200071F460E00E947A251E870D871B8A1A8A1D
:104B300081E0898389E08E8B198E1B8E1D8EDF911B
:104B4000CF911F910F910895CF93DF93EC016623CE
:104B500039F58881882321F18981882309F58985A0
:104B600090E0880F991FEF81F885E80FF91F859174
:104B700094912FEF8F3F920711F4188211C09C87F8
:104B800090E0880F991FEA85FB85E80FF91F659172
:104B90007491CE0140E00E94892589858F5F8987C5
:104BA000DF91CF91089560E00E94A42508950F93AE
:104BB000CF93DF93EC01662309F068C089818823D5
:104BC00009F464C08D89882309F060C0EA89FB89F3
:104BD000EE0FFF1F4D855E85E40FF51F2591349183
:104BE0002115310509F040C08989813031F41B8AD3
:104BF0001A8AFA012591349137C019828881882355
:104C000079F0CE0160E00E94A4258A899B89880FF3
:104C1000991FED85FE85E80FF91F2591349124C079
:104C2000CE0160E00E94692531C0E6E03695279507
:104C3000EA95E1F76F70422F4F7175E03695279531
:104C40007A95E1F72051CE0100E00E94E7248A899D
:104C50009B8901969B8B8A8B880F991FED85FE851A
:104C6000E80FF91F25913491B901769567957695EE
:104C7000679520FDDACF6F73432FCE0120E00E94AD
:104C800057258A899B8901969B8B8A8BDF91CF91CF
:104C90000F91089560E00E94D7250895CF93DF9388
:104CA000EC01662309F0D6C08F89882309F4D2C0AD
:104CB0008D89882321F4CE010E946925CBC08150C3
:104CC0008D8B8DA1882309F03BC08BA19CA10196FF
:104CD000880F991FEF8DF8A1E80FF91F8591949126
:104CE000282F27702EA3AC0163E0569547956A954F
:104CF000E1F79A0136952795892F9927869586950C
:104D00008FA32F738C81289F202D11242DA34170F8
:104D100040932D058BA19CA101969CA38BA329A157
:104D200030E08217930760F08AA1882329F0281BBE
:104D300031093CA32BA304C0CE0160E00E94692589
:104D40008DA181508DA3988D9F5F988F2FA18C8905
:104D5000280F8C85280F2A836B8D662369F0892F95
:104D6000992787FD909570E00E94C92D8C8D869FB4
:104D7000802D1124820F8A838A8190E0CB966BE389
:104D800070E00E94C92D8A832E892B83698D66234A
:104D900079F0888D772767FD7095992787FD909525
:104DA0000E94C92D8A8D869F802D1124820F8B83AE
:104DB0006D8D662399F0888D992787FD909570E019
:104DC0000E94C92DCB0162E070E00E94C92D9E8D2A
:104DD000899F802D11249B81890F8B838B818A3041
:104DE0000CF089E087FD80E08B838C898F3309F498
:104DF0001B82F894EA81F0E0EF5AF84EE491E093D8
:104E00002A052D8130E08B81992787FD9095A90196
:104E1000489F9001499F300D589F300D112488A55F
:104E200090E0A901489F9001499F300D589F300D97
:104E300011248EA1992787FD9095AC01249FC00174
:104E4000259F900D349F900D112480932B05809306
:104E50002C057894DF91CF91089560E00E944E2652
:104E6000089560912B05662381F1809128058F5F5D
:104E70008093280590912A05891738F130E08091B8
:104E80002905882309F431E030932905109228057B
:104E900080912D058823A9F08091680123E4829FE9
:104EA000C0011124895B8093680190E070E00E944A
:104EB000B52D80932C0505C080912C058093B400FE
:104EC00008953323C9F780E0F9CF08951F920F9218
:104ED0000FB60F9211242F933F934F935F936F93CD
:104EE0007F938F939F93AF93BF93EF93FF930E9412
:104EF0003127FF91EF91BF91AF919F918F917F915A
:104F00006F915F914F913F912F910F900FBE0F9036
:104F10001F90189569E477E140E00E948925089583
:104F200061E477E140E00E94892508956BE377E131
:104F300040E00E9489250895FC01862F668170E07B
:104F40006F5F7F4F992787FD90950E94C92D8583BC
:104F500008950F93FC0181E0848384E080A78CE8AE
:104F600097E1908B8787CF0161E040E020E000E08F
:104F70000E94E72483E061E070E00E946929E1EB90
:104F8000F0E08081887F81608083F89410928000B7
:104F9000E1E8F0E01082109285001092840088E130
:104FA00091E090938900809388008081886080835D
:104FB000808181608083EFE6F0E080818260808381
:104FC00078940F9108950F931F93CF93DF93BC01B3
:104FD0008230910510F462E070E0E0913705F091C5
:104FE0003805A0E0B0E040E050E024C0808191812D
:104FF00086179707D0F08617970771F482819381FF
:10500000109729F013969C938E9312972CC090932F
:1050100038058093370527C04115510519F08417CD
:10502000950718F4EF018D01AC01DF0182819381B6
:105030009C01F9013097D1F641155105F9F0CA01EB
:10504000861B970B8430910580F48A819B81011522
:10505000110521F0F8019383828304C090933805F1
:1050600080933705FE0132962FC0FE01E80FF91F2D
:105070006193719302979983888326C08DB79EB7F9
:10508000885790402091690130916A0128173907AB
:10509000C8F4AC01421B530B4617570798F0CB01DD
:1050A00002964817590770F0820F931F90936A0178
:1050B0008093690190936C0180936B01F901619376
:1050C000719302C0E0E0F0E0CF01DF91CF911F913A
:1050D0000F9108951F920F920FB60F9211242F93E4
:1050E0003F938F939F93AF93BF938091320590919D
:1050F0003305A0913405B091350530913605019600
:10510000A11DB11D232F2D5F2D3720F02D570196A6
:10511000A11DB11D20933605809332059093330570
:10512000A0933405B093350580912E0590912F05FD
:10513000A0913005B09131050196A11DB11D80935C
:105140002E0590932F05A0933005B0933105BF91A4
:10515000AF919F918F913F912F910F900FBE0F9024
:105160001F9018958FB7F894209132053091330530
:1051700040913405509135058FBFB901CA0108959A
:105180009FB7F89420912E0530912F05409130055E
:105190005091310586B5A89B06C08F3F21F02F5F47
:1051A0003F4F4F4F5F4F9FBF542F432F322F222728
:1051B000280F311D411D511D82E0220F331F441F56
:1051C000551F8A95D1F7B901CA010895EF92FF9250
:1051D0000F931F93CF93DF937B018C010E94C02814
:1051E000EB010EC00E94C0286C1B7D0B685E7340F3
:1051F000C8F30894E108F10801091109C851DC4F0E
:10520000E114F1040105110569F7DF91CF911F91B8
:105210000F91FF90EF900895789484B5826084BDDB
:1052200084B5816084BD85B5826085BD85B58160AA
:1052300085BDEEE6F0E0808181608083E1E8F0E00A
:105240001082808182608083808181608083E0E839
:10525000F0E0808181608083E1EBF0E08081846018
:105260008083E0EBF0E0808181608083EAE7F0E01A
:10527000808184608083808182608083808181607E
:1052800080838081806880831092C1000895982F68
:105290008E3008F09E50977080916D018295880F36
:1052A000880F807C892B80937C0080917A008064B9
:1052B00080937A0080917A0086FDFCCF209178005F
:1052C00040917900942F80E030E0282B392BC901E0
:1052D00008951F93CF93DF93182FEB0161E00E9495
:1052E000C929209709F44AC0CF3FD10509F449C024
:1052F000E12FF0E0E252F84E84918330C1F0843027
:1053000028F4813051F08230B1F50CC0863019F1AB
:10531000873049F1843079F514C084B5806884BD44
:10532000C7BD33C084B5806284BDC8BD2EC0809126
:105330008000806880938000D0938900C0938800AB
:1053400024C080918000806280938000D0938B0085
:10535000C0938A001AC08091B00080688093B0002A
:10536000C093B30012C08091B00080628093B000FF
:10537000C093B4000AC0C038D1051CF4812F60E08E
:1053800002C0812F61E00E94352ADF91CF911F91E9
:105390000895CF93DF93482F50E0CA018653984E6B
:1053A000FC0134914A54584EFA018491882369F1E2
:1053B00090E0880F991FFC01E856F84EA591B49132
:1053C000FC01EE55F84EC591D491662351F42FB7E8
:1053D000F8948C91932F909589238C9388818923BD
:1053E0000BC0623061F42FB7F8948C91932F909595
:1053F00089238C938881832B88832FBF06C09FB716
:10540000F8948C91832B8C939FBFDF91CF9108955B
:10541000833071F0843028F48130A1F0823021F59E
:1054200014C08630B1F08730D1F08430E9F404C084
:10543000809180008F7703C0809180008F7D809362
:105440008000089584B58F7702C084B58F7D84BDB8
:1054500008958091B0008F778093B0000895809177
:10546000B0008F7D8093B0000895FF920F931F933B
:10547000F62E482F50E0CA018252984EFC0124912A
:10548000CA018653984EFC0114914A54584EFA01B1
:1054900004910023C9F0222319F0822F0E94082AC8
:1054A000E02FF0E0EE0FFF1FEE55F84EA591B491FE
:1054B0009FB7F894FF2021F48C911095812302C0AE
:1054C0008C91812B8C939FBF1F910F91FF9008951A
:1054D0000F931F93482F50E0CA018252984EFC014F
:1054E0002491CA018653984EFC0104914A54584EA7
:1054F000FA011491112319F420E030E015C02223A1
:1055000019F0822F0E94082A812F90E0880F991F9E
:105510008455984EFC01A591B4918C9120E030E027
:10552000802311F021E030E0C9011F910F9108950F
:10553000CF93DF930E940C290E940F16C0E0D0E0A9
:105540000E94F8152097E1F30E940000F9CF0E9415
:10555000E3270895CF92DF92EF92FF920F931F936C
:10556000CF93DF937C016B018A01C0E0D0E00FC0D4
:10557000D6016D916D01D701ED91FC910190F08103
:10558000E02DC7010995C80FD91F01501040011522
:10559000110571F7CE01DF91CF911F910F91FF900F
:1055A000EF90DF90CF900895EF92FF920F931F93AB
:1055B000CF93DF937C018B01C0E0D0E0F8010F5F57
:1055C0001F4F6491662359F0D701ED91FC91019032
:1055D000F081E02DC7010995C80FD91FEFCFCE018B
:1055E000DF91CF911F910F91FF90EF900895DC0113
:1055F000ED91FC910190F081E02D09950895EF92D5
:10560000FF920F931F938C01DC01ED91FC910190AF
:10561000F081E02D6DE009957C01D801ED91FC91C0
:105620000190F081E02DC8016AE009959C012E0DE2
:105630003F1DC9011F910F91FF90EF900895EF92C8
:10564000FF920F931F937C010E94D42A8C01C70103
:105650000E94FF2A9C01200F311FC9011F910F9149
:10566000FF90EF900895CF93DF93EC0161157105E2
:1056700019F420E030E00FC0DB010D900020E9F7C5
:105680001197A61BB70BE881F9810280F381E02D09
:10569000AD0109959C01C901DF91CF9108954F9209
:1056A0005F927F928F929F92AF92BF92CF92DF9242
:1056B000EF92FF920F931F93DF93CF93CDB7DEB797
:1056C000A1970FB6F894DEBF0FBECDBF2C01742E8C
:1056D000CB01223008F42AE019A231E2C32ED12CEA
:1056E000CC0EDD1E822E9924AA24BB24672D752F93
:1056F000A50194010E94DC2D79018A01C801B7013E
:10570000A50194010E94962D472D461B0894C108BF
:10571000D1084A3014F4405D01C0495CF601408371
:10572000E114F1040105110521F07E2C5F2DC80163
:10573000DDCFC201B6010E94332BA1960FB6F894BB
:10574000DEBF0FBECDBFCF91DF911F910F91FF90B4
:10575000EF90DF90CF90BF90AF909F908F907F9011
:105760005F904F900895DC012115310541F4ED91D2
:10577000FC910190F081E02D642F099508950E941D
:105780004F2B0895EF92FF920F931F939A017B0185
:1057900000E010E0B801A7010E94B32B1F910F9108
:1057A000FF90EF900895EF92FF920F931F939A014D
:1057B000E62EFF2400E010E0B801A7010E94B32B01
:1057C0001F910F91FF90EF9008950E94332B089541
:1057D0002F923F924F925F926F927F928F929F9201
:1057E000AF92BF92CF92DF92EF92FF920F931F93EF
:1057F000DF93CF93CDB7DEB73B014C0119012A01EE
:105800006D897E898F89988D6A197B098C099D091C
:10581000621A730A840A950AA40193010E94962DC4
:10582000E218F30804091509A80197010E94FE2D4A
:105830002A0D3B1D4C1D5D1DB901CA01CF91DF91A1
:105840001F910F91FF90EF90DF90CF90BF90AF909E
:105850009F908F907F906F905F904F903F902F9090
:105860000895EF92FF920F931F937B018C016115B6
:1058700071058105910529F420E030E040E050E019
:105880000BC00E94722EA80197010E94FE2DAC0150
:10589000CB01DA019C01AD01B901CA011F910F9141
:1058A000FF90EF900895EF92FF920F931F937B016B
:1058B0008C01621773078407950764F4261B370B66
:1058C000480B590BCA01B9010E94312CE60EF71E94
:1058D000081F191FB701C8011F910F91FF90EF908A
:1058E0000895009729F0BC0180E090E00E94772E97
:1058F000089598D088F09F5790F0B92F9927B75105
:10590000A0F0D1F0660F771F881F991F1AF0BA9583
:10591000C9F712C0B13081F09FD0B1E008959CC0AA
:10592000672F782F8827B85F39F0B93FCCF3869579
:1059300077956795B395D9F73EF4909580957095D6
:1059400061957F4F8F4F9F4F0895E89409C097FB53
:105950003EF490958095709561957F4F8F4F9F4F46
:105960009923A9F0F92F96E9BB279395F69587958A
:1059700077956795B795F111F8CFFAF4BB0F11F44D
:1059800060FF1BC06F5F7F4F8F4F9F4F16C08823F4
:1059900011F096E911C0772321F09EE8872F762F2A
:1059A00005C0662371F096E8862F70E060E02AF06B
:1059B0009A95660F771F881FDAF7880F9695879557
:1059C00097F9089597F99F6780E870E060E008957F
:1059D0009FEF80EC089500240A9416161706180607
:1059E0000906089500240A941216130614060506E3
:1059F0000895092E0394000C11F4882352F0BB0F74
:105A000040F4BF2B11F460FF04C06F5F7F4F8F4FD6
:105A10009F4F089557FD9058440F551F59F05F3F11
:105A200071F04795880F97FB991F61F09F3F79F0C0
:105A300087950895121613061406551FF2CF469542
:105A4000F1DF08C0161617061806991FF1CF8695C4
:105A50007105610508940895E894BB2766277727A8
:105A6000CB0197F908950BD0C4CFB5DF28F0BADF8A
:105A700018F0952309F0A6CFABCF1124EECFCADFE3
:105A8000A0F3959FD1F3950F50E0551F629FF00151
:105A9000729FBB27F00DB11D639FAA27F00DB11DAA
:105AA000AA1F649F6627B00DA11D661F829F222733
:105AB000B00DA11D621F739FB00DA11D621F839FBA
:105AC000A00D611D221F749F3327A00D611D231F90
:105AD000849F600D211D822F762F6A2F11249F57DE
